:020000040800F2
:10500000005000209DA10008F98A0008FB8A0008D2
:10501000FD8A0008FF8A0008018B000800000000DC
:10502000000000000000000000000000038B0008EA
:10503000058B000800000000078B0008098B0008A2
:10504000EDA10008EDA10008EDA10008258D0008E4
:10505000EDA10008EDA100085D8B00087D8B000824
:105060009D8B0008D18B0008F18B0008EDA1000892
:10507000EDA10008EDA10008EDA10008818D000858
:10508000EDA10008EDA100080D8B0008EDA10008BE
:10509000858D0008EDA10008EDA10008118C000825
:1050A000EDA10008EDA10008EDA10008D98C0008D1
:1050B000EDA10008EDA10008EDA100082D8B00086E
:1050C0003D8B0008EDA10008EDA100084D8B000804
:1050D000EDA10008EDA100081D8B0008EDA100085E
:1050E000618C0008418D0008EDA10008000000005F
:1050F00000000000000000000000000000000000B0
:0C51000000000000000000005FF808F153
:1051100081F0004102E000BF83F0004330B54FEA68
:1051200041044FEA430594EA050F08BF90EA020FD5
:105130001FBF54EA000C55EA020C7FEA645C7FEA68
:10514000655C00F0E2804FEA5454D4EB5555B8BF8B
:105150006D420CDD2C4480EA020281EA030382EAFC
:10516000000083EA010180EA020281EA0303362D8E
:1051700088BF30BD11F0004F4FEA01314FF4801C61
:105180004CEA113102D0404261EB410113F0004F73
:105190004FEA03334CEA133302D0524263EB43032A
:1051A00094EA050F00F0A780A4F10104D5F1200EC8
:1051B0000DDB02FA0EFC22FA05F2801841F1000123
:1051C00003FA0EF2801843FA05F359410EE0A5F1F7
:1051D00020050EF1200E012A03FA0EFC28BF4CF028
:1051E000020C43FA05F3C01851EBE37101F00045DE
:1051F00007D54FF0000EDCF1000C7EEB00006EEBEB
:105200000101B1F5801F1BD3B1F5001F0CD3490874
:105210005FEA30004FEA3C0C04F101044FEA4452CB
:1052200012F5800F80F09A80BCF1004F08BF5FEA52
:10523000500C50F1000041EB045141EA050130BD32
:105240005FEA4C0C404141EB010111F4801FA4F1D5
:105250000104E9D191F0000F04BF01460020B1FA2A
:1052600081F308BF2033A3F10B03B3F120020CDA62
:105270000C3208DD02F1140CC2F10C0201FA0CF040
:1052800021FA02F10CE002F11402D8BFC2F1200CA5
:1052900001FA02F120FA0CFCDCBF41EA0C0190405B
:1052A000E41AA2BF01EB0451294330BD6FEA0404A4
:1052B0001F3C1CDA0C340EDC04F11404C4F120028F
:1052C00020FA04F001FA02F340EA030021FA04F3A1
:1052D00045EA030130BDC4F10C04C4F1200220FAF8
:1052E00002F001FA04F340EA0300294630BD21FA36
:1052F00004F0294630BD94F0000F83F4801306BFFC
:1053000081F480110134013D4EE77FEA645C18BFEF
:105310007FEA655C29D094EA050F08BF90EA020F86
:1053200005D054EA000C04BF1946104630BD91EA7E
:10533000030F1EBF0021002030BD5FEA545C05D181
:105340004000494128BF41F0004130BD14F58004C0
:105350003CBF01F5801130BD01F0004545F0FE4134
:1053600041F470014FF0000030BD7FEA645C1ABF69
:10537000194610467FEA655C1CBF0B46024650EAA0
:10538000013406BF52EA033591EA030F41F40021CC
:1053900030BD00BF90F0000F04BF0021704730B552
:1053A0004FF4806404F132044FF000054FF0000127
:1053B00050E700BF90F0000F04BF0021704730B5E8
:1053C0004FF4806404F1320410F0004548BF4042BD
:1053D0004FF000013EE700BF42004FEAE2014FEA12
:1053E00031014FEA02701FBF12F07F4393F07F4FED
:1053F00081F06051704792F0000F14BF93F07F4F1F
:10540000704730B54FF4607401F0004521F0004161
:1054100020E700BF50EA010208BF704730B54FF0E7
:1054200000050AE050EA010208BF704730B511F0EC
:10543000004502D5404261EB41014FF4806404F124
:1054400032045FEA915C3FF4DCAE4FF003025FEAA6
:10545000DC0C18BF03325FEADC0C18BF033202EB2E
:10546000DC02C2F1200300FA03FC20FA02F001FA88
:1054700003FE40EA0E0021FA02F11444C1E600BF27
:1054800070B54FF0FF0C4CF4E06C1CEA11541DBFDA
:105490001CEA135594EA0C0F95EA0C0F00F0DEF8A5
:1054A0002C4481EA030621EA4C5123EA4C5350EA8A
:1054B000013518BF52EA033541F4801143F48013DB
:1054C00038D0A0FB02CE4FF00005E1FB02E506F06C
:1054D0000042E0FB03E54FF00006E1FB03569CF0C1
:1054E000000F18BF4EF0010EA4F1FF04B6F5007FC7
:1054F00064F5407404D25FEA4E0E6D4146EB060639
:1055000042EAC62141EA55514FEAC52040EA5E50C1
:105510004FEACE2EB4F1FD0C88BFBCF5E06F1ED86B
:10552000BEF1004F08BF5FEA500E50F1000041EBA2
:10553000045170BD06F0004646EA010140EA02004F
:1055400081EA0301B4EB5C04C2BFD4EB0C0541EA71
:10555000045170BD41F480114FF0000E013C00F386
:10556000AB8014F1360FDEBF002001F0004170BDAA
:10557000C4F10004203C35DA0C341BDC04F11404C3
:10558000C4F1200500FA05F320FA04F001FA05F24F
:1055900040EA020001F0004221F0004110EBD3701C
:1055A00021FA04F642EB06015EEA430E08BF20EA48
:1055B000D37070BDC4F10C04C4F1200500FA04F3EB
:1055C00020FA05F001FA04F240EA020001F000417D
:1055D00010EBD37041F100015EEA430E08BF20EAF0
:1055E000D37070BDC4F1200500FA05F24EEA020E38
:1055F00020FA04F301FA05F243EA020321FA04F067
:1056000001F0004121FA04F220EA020000EBD3701D
:105610005EEA430E08BF20EAD37070BD94F0000F1D
:105620000FD101F00046400041EB010111F4801F51
:1056300008BF013CF7D041EA060195F0000F18BF02
:10564000704703F00046520043EB030313F4801F3E
:1056500008BF013DF7D043EA0603704794EA0C0FF8
:105660000CEA135518BF95EA0C0F0CD050EA41060E
:1056700018BF52EA4306D1D181EA030101F000418B
:105680004FF0000070BD50EA410606BF10461946B3
:1056900052EA430619D094EA0C0F02D150EA0136BF
:1056A00013D195EA0C0F05D152EA03361CBF104600
:1056B00019460AD181EA030101F0004141F0FE419F
:1056C00041F470014FF0000070BD41F0FE4141F423
:1056D000780170BD70B54FF0FF0C4CF4E06C1CEA23
:1056E00011541DBF1CEA135594EA0C0F95EA0C0FD8
:1056F00000F0A7F8A4EB050481EA030E52EA033593
:105700004FEA013100F088804FEA03334FF08055B3
:1057100045EA131343EA12634FEA022245EA1115E0
:1057200045EA10654FEA00260EF000419D4208BF91
:10573000964244F1FD0404F5407402D25B084FEA3E
:105740003202B61A65EB03055B084FEA32024FF4EA
:1057500080104FF4002CB6EB020E75EB030E22BF47
:10576000B61A754640EA0C005B084FEA3202B6EB07
:10577000020E75EB030E22BFB61A754640EA5C00B6
:105780005B084FEA3202B6EB020E75EB030E22BF46
:10579000B61A754640EA9C005B084FEA3202B6EB47
:1057A000020E75EB030E22BFB61A754640EADC0006
:1057B00055EA060E18D04FEA051545EA16754FEA68
:1057C00006164FEAC30343EA52734FEAC2025FEA86
:1057D0001C1CC0D111F4801F0BD141EA00014FF015
:1057E00000004FF0004CB6E711F4801F04BF0143E6
:1057F0000020B4F1FD0C88BFBCF5E06F3FF6AFAE02
:10580000B5EB030C04BFB6EB020C5FEA500C50F191
:10581000000041EB045170BD0EF0004E4EEA113114
:1058200014EB5C04C2BFD4EB0C0541EA045170BD1B
:1058300041F480114FF0000E013C90E645EA060E5F
:105840008DE60CEA135594EA0C0F08BF95EA0C0F8D
:105850003FF43BAF94EA0C0F0AD150EA01347FF4D5
:1058600034AF95EA0C0F7FF425AF104619462CE7AC
:1058700095EA0C0F06D152EA03353FF4FDAE10460F
:10588000194622E750EA410618BF52EA43067FF460
:10589000C5AE50EA41047FF40DAF52EA43057FF4F0
:1058A000EBAE12E74FF0FF3C06E000BF4FF0010CFB
:1058B00002E000BF4FF0010C4DF804CD4FEA410C5F
:1058C0007FEA6C5C4FEA430C18BF7FEA6C5C1BD02C
:1058D00001B050EA410C0CBF52EA430C91EA030FAD
:1058E00002BF90EA020F0020704710F1000F91EA0A
:1058F000030F58BF994208BF90422CBFD8176FEAD8
:10590000E37040F0010070474FEA410C7FEA6C5CA5
:1059100002D150EA013C07D14FEA430C7FEA6C5CAC
:10592000D6D152EA033CD3D05DF8040B704700BFD8
:105930008446104662468C461946634600E000BF26
:1059400001B5FFF7B7FF002848BF10F1000F01BDF8
:105950004DF808EDFFF7F4FF0CBF012000205DF8C3
:1059600008FB00BF4DF808EDFFF7EAFF34BF012048
:1059700000205DF808FB00BF4DF808EDFFF7E0FFE1
:1059800094BF012000205DF808FB00BF4DF808ED32
:10599000FFF7CEFF94BF012000205DF808FB00BF99
:1059A0004DF808EDFFF7C4FF34BF012000205DF87B
:1059B00008FB00BF4FEA410212F5001215D211D5C3
:1059C0006FF47873B3EB625212D94FEAC12343F0FC
:1059D000004343EA505311F0004F23FA02F018BF7E
:1059E000404270474FF00000704750EA013005D147
:1059F00011F0004008BF6FF0004070474FF000000A
:105A0000704700BF4A0011D212F5001211D20DD515
:105A10006FF47873B3EB62520ED44FEAC12343F0B4
:105A2000004343EA505323FA02F070474FF000005E
:105A3000704750EA013002D14FF0FF3070474FF00D
:105A400000007047844641EA000313F0030349D184
:105A5000403A23D30B6803604B6843608B688360D4
:105A6000CB68C3600B6903614B6943618B698361D8
:105A7000CB69C3610B6A03624B6A43628B6A8362C0
:105A8000CB6AC3620B6B03634B6B43638B6B8363A8
:105A9000CB6BC36340304031403ADBD230320BD362
:105AA0000B6803604B6843608B688360CB68C3609E
:105AB00010301031103AF3D20C3205D351F8043BB8
:105AC00040F8043B043AF9D2043208D0D2071CBF94
:105AD00011F8013B00F8013B01D30B8803806046BD
:105AE000704700BF082A13D38B07B1D010F003030F
:105AF000AED0C3F10403D21ADB071CBF11F8013B7F
:105B000000F8013BA4D331F8023B20F8023B9FE7A9
:105B1000043AD9D3013A11F8013B00F8013BF9D21C
:105B20000B7803704B7843708B78837060467047B6
:105B300040EA010C1CF0070F27D1BDF1100DCDE993
:105B40000245CDE900676FF000064FF0000700BF87
:105B5000F0E80223F1E80245A242A2F1013C2CEA5E
:105B6000020C0CF0803C08BFBCF1000F40F0E58057
:105B7000AB42A3F1013C2CEA030C0CF0803C08BFC3
:105B8000BCF1000F40F0D680E2E710F0030C21D00A
:105B900020F0030050F8042B5FEACC7C08D00FD231
:105BA00011F801CB5FFA92F3B3EB0C0C10D17BB17F
:105BB00011F801CB5FFAA2F3B3EB0C0C08D13BB1A7
:105BC00011F801CB5FFAB2F3B3EB0C0C00D10BB9B7
:105BD00060467047BDF1100DCDE90245CDE9006783
:105BE0006FF000064FF0000711F0030C33D110F0F6
:105BF000040F0FD050F8042B51F8044BA242A2F12D
:105C0000013C2CEA020C0CF0803C08BFBCF1000FF8
:105C100040F0938011F0040F99D051F8045B00BF5D
:105C2000F0E80223AA42A2F1013C2CEA020C0CF09B
:105C3000803C08BFBCF1000F79D1F1E80245A342D6
:105C4000A3F1013C2CEA030C0CF0803C08BFBCF132
:105C5000000F69D1E4E721F00301BCF1020F20D06D
:105C60003FDA51F8045B00BF50F8043B4FEA1525BA
:105C7000A3F1013C2CEA030C0CF0803CB7EB0C2F99
:105C800003EA162208BFAA4251D151F8045BBCF1C5
:105C9000000F82EA03034FEA056208BF934240D136
:105CA000E2E751F8045B00BF50F8043B4FEA1545AA
:105CB000A3F1013C2CEA030C0CF0803CB7EB0C4F39
:105CC00003EA164208BFAA4231D151F8045BBCF185
:105CD000000F82EA03034FEA054208BF934220D136
:105CE000E2E751F8045B00BF50F8043B4FEA15654A
:105CF000A3F1013C2CEA030C0CF0803CB7EB0C6FD9
:105D000003EA166208BFAA4211D151F8045BBCF144
:105D1000000F82EA03034FEA052208BF934200D135
:105D2000E2E719BA12BA0AE019BA22BA07E011BAC0
:105D30002ABA04E019BA2ABA01E011BA22BA9CFAC6
:105D40008CF0DDE90067DDE902451DF1100D38B189
:105D5000B0FA80F0C0F1180021FA00F122FA00F246
:105D60000120914298BF8041704700BF4BB942B9B2
:105D7000002908BF002802D04FF0FF31084600F08C
:105D80003BB882B0EC462DE9005000F01DF8DDF87C
:105D900004E002B00CBC70472DE9704F089E144619
:105DA0001D468046894600F029F804FB01F3A4FB58
:105DB00000AB00FB05329344B8EB0A0869EB0B0912
:105DC000C6E90089BDE8708F2DE9704F089E144622
:105DD0001D468046894600F061F900FB05F5A0FBF1
:105DE00004AB04FB0154A344B8EB0A0869EB0B09AC
:105DF000C6E90089BDE8708F704700BF00292DE912
:105E0000F00FC0F2A1800024002BC0F2988015464C
:105E100006460F46002B3FD18A4258D9B2FA82F388
:105E20004BB1C3F1200201FA03F720FA02F29D40C0
:105E300000FA03F61743290CB7FBF1F201FB1277C6
:105E4000A8B200FB02F34FEA164C4CEA0747BB42EC
:105E500009D97F1902F1FF3C80F00581BB4240F275
:105E60000281023A2F44FF1AB7FBF1F301FB1371D1
:105E700000FB03F0B6B246EA0141884208D949194D
:105E800003F1FF3780F0F180884240F2EE80023B60
:105E900043EA0242002303E08B420AD900231A4658
:105EA0001046194614B1404261EB4101BDE8F00FC4
:105EB0007047B3FA83F8B8F1000F40F088808B4246
:105EC00002D3824200F2E28000230122E8E712B905
:105ED0000123B3FBF2F5B5FA85F2002A3AD17F1B14
:105EE000280C1FFA85FC0123B7FBF0F100FB1177AA
:105EF0000CFB01F24FEA164848EA0747BA4207D9B5
:105F00007F1901F1FF3802D2BA4200F2C480414643
:105F1000BF1AB7FBF0F200FB12700CFB02FCB6B22A
:105F200046EA0040844507D9401902F1FF3702D202
:105F3000844500F2AE803A4642EA0142B0E7E443CB
:105F4000524263EB430362E7404261EB41014FF091
:105F5000FF3459E79540C2F1200927FA09F126FAE2
:105F600009F99740280CB1FBF0F800FB18111FFA53
:105F700085FC0CFB08F349EA07094FEA194747EA91
:105F800001418B4206FA02F608D9491908F1FF329D
:105F90007AD28B4278D9A8F102082944C91AB1FBF8
:105FA000F0F300FB13170CFB03F21FFA89F949EA1F
:105FB0000747BA4207D97F1903F1FF3160D2BA42CD
:105FC0005ED9023B2F44BF1A43EA08438CE7C8F16D
:105FD000200225FA02F103FA08FC27FA02F320FA5C
:105FE00002F207FA08F741EA0C0C4FEA1C49B3FB2E
:105FF000F9F109FB11331FFA8CFA0AFB01FB174375
:106000003A0C42EA03439B4505FA08F008D913EB22
:106010000C0301F1FF3235D29B4533D90239634479
:10602000CBEB0303B3FBF9F209FB12330AFB02FAD1
:10603000BFB247EA0347BA4508D917EB0C0702F18C
:10604000FF331BD2BA4519D9023A674442EA0145E7
:10605000A5FB0001CAEB07078F424FF000030AD3EC
:1060600005D02A461CE76246FDE63B4610E706FAE5
:1060700008F68642F5D26A1E002311E71A46E5E7C4
:106080000B46A0E71146CBE7904687E743464246DA
:1060900006E7023A50E702392F4439E72DE9F00FBD
:1060A000144605460E46002B43D18A4253D9B2FA14
:1060B00082F757B1C7F1200620FA06F601FA07F376
:1060C00002FA07F400FA07F51E43210CB6FBF1F2C1
:1060D00001FB1266A0B200FB02F32F0C47EA064652
:1060E000B34209D9361902F1FF3780F0FD80B3427F
:1060F00040F2FA80023A2644F61AB6FBF1F301FBAD
:10610000136100FB03F0ADB245EA0141884208D9B2
:10611000091903F1FF3680F0E980884240F2E680F9
:10612000023B43EA0242002310461946BDE8F00F45
:1061300070478B424CD8B3FA83F6002E4FD18B4276
:1061400002D3824200F2DD80BDE8F00F002301227D
:1061500010461946704712B90124B4FBF2F4B4FAA0
:1061600084F2002A40F08280091B260CA7B201238A
:10617000B1FBF6F006FB101107FB00F24FEA154CDD
:106180004CEA01418A4207D9091900F1FF3C02D2C9
:106190008A4200F2C8806046891AB1FBF6F206FB1B
:1061A000121107FB02F7ADB245EA0145AF4208D92B
:1061B0002C1902F1FF3180F09B80A74240F29880B9
:1061C000023A42EA004210461946BDE8F00F704715
:1061D00000231A4610461946BDE8F00F7047C6F175
:1061E000200522FA05F703FA06F421FA05F301FA6D
:1061F00006FB20FA05F53C434FEA1448B3FBF8FCD4
:1062000008FB1C331FFA84F909FB0CFA45EA0B0B57
:106210004FEA1B4545EA03439A4502FA06F204D9C0
:106220001B190CF1FF356FD3AC46CAEB0303B3FB6C
:10623000F8F508FB153309FB05F91FFA8BFB4BEA50
:106240000347B94504D93F1905F1FF3362D31D4611
:1062500045EA0C4CACFB0223C9EB07079F424FF009
:1062600000054AD346D062462B465DE79440C2F112
:10627000200921FA09FC914020FA09F9260CBCFBFF
:10628000F6F806FB18CCA7B207FB08F349EA0109A8
:106290004FEA194141EA0C4C634500FA02F509D96D
:1062A0001CEB040C08F1FF323BD2634539D9A8F14D
:1062B0000208A444C3EB0C0CBCFBF6F306FB13C1B1
:1062C00007FB03F21FFA89F949EA01418A4207D91B
:1062D000091903F1FF3022D28A4220D9023B21441E
:1062E000891A43EA084343E73A4605E7334618E785
:1062F0000A4666E7B0409042B5D20CF1FF32002367
:1063000012E7334632460FE79A458DD9ACF1020CBD
:1063100023448AE7B9459AD9023D274498E70346C2
:10632000DEE79046C6E70238214435E710B503782A
:10633000A3F13002D1B2092901D813460CE0A3F130
:106340004102D2B2052A01D8373B05E0A3F1610230
:10635000D2B2052A46D8573B42781B01A2F1300140
:10636000CCB2092C01D8CA180DE0A2F14101C9B282
:10637000052901D8373A05E0A2F16101C9B2052922
:1063800030D8573A1A4483781201A3F13001CCB2C5
:10639000092C01D80A440DE0A3F14101C9B2052935
:1063A00001D8373B05E0A3F16101C9B2052919D82D
:1063B000573B1A44C3781201A3F13000C1B2092936
:1063C0000ED9A3F14101C9B2052902D8A3F13700C2
:1063D00006E0A3F16101C9B2052903D8A3F1570072
:1063E000104410BD002010BD2DE9F0410B78074688
:1063F000222B01F1010602D13346002008E05B4B5D
:1064000019600020BDE8F0814AB15C2A05D1023351
:106410001A780130222AF7D101E00133F8E7544B12
:106420001B68984780460028EBD004463378222B1F
:1064300007D1002323703378222B40F08F80013660
:106440008CE0002BF5D05C2B06F1010103D023700A
:106450000E460134EAE773786E2B14D007D8622B0E
:1064600004F101020BD0662B74D10C2308E0742BCD
:106470000BD0752B0BD0722B6CD10D236AE0082347
:106480002370144668E00A2364E0092362E0B01C2C
:10649000FFF74CFFA0F55C43B3F5806F054606F1AE
:1064A000050159D3002857D0A0F55843B3F5806FA4
:1064B00019D2B3795C2B4FD1F379752B4CD106F1FE
:1064C0000800FFF733FFA0F55C43B3F5806F06F1DA
:1064D0000B0141D2C0F30900C5F3090540EA852547
:1064E00005F5803504E07F2808D9B0F5006F07D3A3
:1064F000B5F5803F34BF0322042202E0012200E010
:106500000222032A04EB02030CD0042A02D0022A3E
:1065100018D10FE005F03F0060F07F0003F8010C98
:10652000AD09E31C05F03F0060F07F0003F8010CAB
:10653000AD09013B05F03F0060F07F0003F8010C5E
:10654000AD09013B0B485C1E805C1444054303F815
:10655000015C01E0237001344E1C67E70423C7F897
:106560001080FB603046BDE8F08100BF640B002066
:1065700000000020105E0108034618462BB1027887
:106580000133013AD2B21F2AF7D97047064B10B532
:106590001B6828209847044618B1002128220AF0D9
:1065A00093F9204610BD00BF000000202DE9F74FF1
:1065B000814688460846002900F0A781B149042297
:1065C0000AF0B0FD18B90223C9F80C3015E04046B6
:1065D000AD4905220AF0A6FD20B9C9F80C0008F162
:1065E000050092E14046A94904220AF09BFD38B912
:1065F0000123C9F80C30C9F8143008F1040084E113
:1066000098F80030222B06D14846414603B0BDE839
:10661000F04FFFF7E9BE2D2B08D0A3F13002D2B224
:10662000092A00F2B9800022994B03E0994B08F146
:1066300001080022CDE9002398F800300024302B17
:1066400008BF08F1010898F800300025313BDBB2A3
:10665000082B1AD80022904B20462946FEF710FF3F
:10666000044618F8010B0D463038FEF7A3FE0B4622
:10667000024629462046FEF751FD98F800300446B0
:10668000303BDBB20D46092BE3E798F800302E2BA8
:106690002ED198F80130303BDBB2092B28D8C24606
:1066A0000026002700227C4B20462946FEF7E8FE04
:1066B0000AF1020804461AF8010F0D463038FEF7B9
:1066C00079FE02460B4620462946FEF727FD704B11
:1066D00004460D46304639460022FEF71DFD9AF865
:1066E00001300646303BDBB2092B0F46DAD901E018
:1066F0000026002798F8003003F0DF03452B1ED159
:1067000098F801302B2B02D108F1020303E02D2B66
:1067100004D008F101034FF0010B03E008F102037C
:106720004FF0FF3B4FF0000A984613F8012B303A28
:10673000D1B2092907D80A2101FB0A2AF4E74FF050
:10674000010B4FF0000A22462B46DDE90001FEF75F
:1067500097FE04460BFB0AF00D46FEF72BFE0246A1
:106760000B4630463946FEF7D9FC02460B46002060
:10677000494908F01DFB0B46024629462046FEF714
:106780007FFEC9E90601FFF715F90323C9F81400D4
:10679000C9F80C304046B8E05B2B3FD10523C9F85F
:1067A0000C3008F10100FFF7E7FE037804465D2B8B
:1067B0002FD0FFF7EBFE0546C9F80800002800F0CF
:1067C000A3802046FFF7D8FE01462846FFF7EEFEDD
:1067D000FFF7D2FE0446002800F0968023782C2B89
:1067E00015D1FFF7D3FE0646002800F08D80286003
:1067F0004560601CFFF7C0FE01463046FFF7D6FE3D
:10680000FFF7BAFE044600287ED03546E6E75D2B4A
:1068100001D1601C79E0214B1C6075E07B2B70D1AD
:106820000623C9F80C3008F10100FFF7A5FE037834
:1068300005467D2B01D1013067E0FFF7A7FE044636
:10684000C9F8080000285FD02846FFF795FE0146EA
:106850002046FFF7C9FDFFF78FFE002854D02369BB
:1068600000222362226103783A2B3FD10130FFF7E7
:1068700083FE01462046FFF799FEFFF77DFE0646A0
:10688000D0B941E092620108976201089D62010857
:106890000000F03F0000F0BF00002440640B002027
:1068A0000130FFF769FE01462846FFF77FFEFFF73C
:1068B00063FE064640B32C4633782C2B1AD1FFF7E3
:1068C00065FE054600B320604460701CFFF754FE6F
:1068D00001462846FFF788FDFFF74EFEA0B12B6961
:1068E00000222B622A6103783A2BD9D0084B18601A
:1068F00010460AE07D2B01D1701C06E0044B1E609F
:1069000002E0034BC3F80080002003B0BDE8F08F25
:10691000640B002070B50446CCB1E3682668DB0543
:1069200003D4A06808B1FFF7F5FFE368084D13F43E
:10693000807F03D1206908B16B689847206A08B14D
:106940006B68984720466B6898473446E4E770BD0B
:10695000000000202DE9F84305460E469146FFF75A
:1069600015FEDFF854800027C8F80070044600B315
:106970002846FFF701FE01462046FFF717FE0546B1
:1069800028B92046FFF7C6FF2846BDE8F883B9F1CD
:10699000000F0CD0FFF7F0FD037805463BB1204611
:1069A000FFF7B8FFC8F800503846BDE8F88306B1D5
:1069B00035602046BDE8F883640B002000210A46BC
:1069C000FFF7C8BF806820B1002902DD01390068E7
:1069D000F9E7704710B5044600F5307002F0E6FEA6
:1069E000204610BD10B51E4C4FF41651204601F044
:1069F000DBFC192000F0CEFD20461A4900F061FFB3
:106A00000A20022100F00CFD0B20022100F008FDFD
:106A10000C20022100F004FD0D20022100F000FDF9
:106A20000E20022100F0FCFC0F20022100F0F8FCF7
:106A30000220014600F0F4FC0320022100F0F0FCEB
:106A40000420022100F0ECFC0520022100F0E8FC0B
:106A5000054800F01BFEBDE81040044803F04CB8A8
:106A60005C200020B0620108681F0020680B002035
:106A700008B5944803F0B8F8934803F042FB9348F4
:106A800003F03FFB924803F03CFB924803F039FBD4
:106A9000914803F036FB914803F033FB904803F034
:106AA00030FB904803F02DFB8F4803F02AFB8F4802
:106AB00003F027FB844803F04AFB40B18C498D4822
:106AC00000F0FFFE7F488A49012203F03DF87E482E
:106AD00003F034FB40B18849864800F0F2FE794863
:106AE0008549012203F030F8784803F030FB40B1CB
:106AF0008249804800F0E5FE72488049012203F097
:106B000023F8724803F01AFB40B17D49794800F040
:106B1000D8FE6C487A49012203F016F86C4803F05D
:106B200016FB40B17749734800F0CBFE65487549C4
:106B3000012203F009F8664803F000FB40B17249F6
:106B40006C4800F0BEFE5F486F49012202F0FCFF76
:106B5000604803F0FCFA40B16C49664800F0B1FEB1
:106B600058486A49012202F0EFFF5A4803F0E6FA5A
:106B700040B167495F4800F0A4FE524864490122D1
:106B800002F0E2FF544803F0E2FA40B1614959488B
:106B900000F097FE4B485F49012202F0D5FF4E48B6
:106BA00003F0CCFA40B15C49524800F08AFE4548F7
:106BB0005949012202F0C8FF484803F0C8FA40B121
:106BC00056494C4800F07DFE3E485449012202F0EF
:106BD000BBFF424803F0B2FA40B15149454800F0CA
:106BE00070FE38484E49012202F0AEFF3C4803F0E7
:106BF000AEFA40B14B493F4800F063FE3148494985
:106C0000012202F0A1FF364803F098FA40B146494C
:106C1000384800F056FE2B484349012202F094FF09
:106C2000304803F094FA40B14049324800F049FE40
:106C300024483E49012202F087FF2A4803F07EFAE9
:106C400040B13B492B4800F03CFE1E483849012228
:106C500002F07AFF244803F07AFA40B1354925481A
:106C600000F02FFE17483349012202F06DFF1E4845
:106C700003F064FA40B130491E4800F022FE11488A
:106C80002D49012202F060FF184803F060FA40B17C
:106C90002A49184800F015FE0A482849012202F046
:106CA00053FF124803F04AFA50B12549114800F049
:106CB00008FEBDE8084003482149012202F044BF14
:106CC00008BD00BF680B002068110020781100206B
:106CD0008811002098110020A8110020B811002070
:106CE000C8110020D8110020E8110020F811002060
:106CF000C36201085C200020CF620108DC62010849
:106D0000E8620108F5620108016301080E630108E9
:106D10001A6301082763010833630108406301080F
:106D20004C63010859630108656301087263010837
:106D30007E6301088B63010897630108A46301085F
:106D4000B163010813B5294C00210B4600910A4696
:106D500004F5D46000F03CFD04F5C0600A21322245
:106D600003F0A7F904F5C2600B21322203F0A1F968
:106D700004F5C4600C21322203F09BF904F5C660CF
:106D80000D21322203F095F904F5C8600E2132225C
:106D900003F08FF904F5CA600F21322203F089F95C
:106DA00004F5CC600221322203F083F904F5CE60B1
:106DB0000321322203F07DF904F5D0600421322250
:106DC00003F077F904F5D2600521322203F071F95E
:106DD00020460749074A02F0B1FD0749074A204605
:106DE00002B0BDE8104007F0B5BF00BF680B00203F
:106DF000BF630108CE630108D56900089013002025
:106E0000013101EB420291420BD0030F092B94BFD9
:106E10003033373301F8013C0023000101F8023B15
:106E2000F1E7704710B54FF000604FF4A04106F055
:106E3000DBFA0124284B294821461C7006F0E6FCA9
:106E400005F004FE05F0ECFA2146402006F06CFE49
:106E50006FF07F4005F05CFCE72005F0D5FC204B8F
:106E60001C7005F01DFB7D2006F08EFE18B11D4B39
:106E70001C7006F09DFE40F6B83005F07AFB06F077
:106E8000B5F806F055F9184801F032FC174B01220D
:106E90001A7001F0B9FC164B1B781BB9154B1B7807
:106EA000002BF6D0144B1B78002BF2D10D4B1B7826
:106EB000002BEED10F4C2378012B01D00F4B33B9AF
:106EC0000F4B0BB1FFF7D4FD00F08EFAE1E7FFF7AF
:106ED00089FD01232370F3E75E21002000043000C8
:106EE00087200020182B00201B7300089C20002006
:106EF000852000201012002086200020E56900086F
:106F0000716A00082DE9F041644D6B6801336B60D4
:106F1000634B1A6812B11A68013A1A60614B624EEB
:106F20001B7833B1614B1B78F3B1614B002B3CD123
:106F30001AE0604C236813B12368013B13E03378F7
:106F400093B95D4B1B787BB95C4B1B7863B9DFF859
:106F500098815B4F98F8003063B3E72005F0C0FCE0
:106F60003B782BB314232360564B1B7803F0FF02AE
:106F700063B1A9684EF65F229142484B02D90122C3
:106F80001A7304E09A6801329A6000E0AA603378CC
:106F90004D4C03F0FF07002B34D1384605F0A0FD1F
:106FA00040F6B73398421CD82CE000F0B7F9DBE785
:106FB0000123D8E73B7853B14FF6FF7005F0A8FBEB
:106FC000E72005F021FC012388F80030CCE7E7201A
:106FD00005F040FC3D4B1B780BB13223C3E7642323
:106FE000C1E7384605F084FD2378C3B9384B1B78D8
:106FF0002BB1364B324A1B7812781A4248D0012303
:1070000033700CE0002005F06BFD41F657339842D9
:1070100005D9002005F06CFD2E4B01221A70237853
:10702000A3B92A691D4B1AB11A69013A1A610DE018
:10703000214A127852B1596947F22F52914202D92E
:1070400001221A7302E05A6901325A61224B1A680E
:10705000B2F57A7F04D300221A6006F0C3FC02E086
:107060001A6801321A602B7B5BB1BFF34F8F1B4A4A
:107070001B4BD16801F4E0610B43D360BFF34F8F2A
:10708000FEE7184B1B783BB1BDE8F04100F09EB91C
:10709000144B01221A70B2E7BDE8F08110120020F3
:1070A000202B00204821002082200020C415002031
:1070B0001D7300081C2B0020862000208820002043
:1070C00085200020B42100209B2000208420002067
:1070D0008320002092200020242B002000ED00E0DF
:1070E0000400FA059A2000208720002008B5094BEB
:1070F000186005F021FF002005F06AFF064805F042
:10710000B7F905F031FF05F04FFFBDE8084007F083
:10711000DBBB00BFD0010020A0860100074B1B682D
:10712000052B08D1064B1A7E012A04D1987E1B7FBD
:10713000C01AC0B270470020704700BF78210020FD
:10714000101200200D4B10B51B68052B13D10C4CF1
:10715000237E012B0FD1628BA38BD31A012B04D179
:1071600000230320237607F006FDA38B5A1CA2837D
:107170001C44A07F10BD4FF0FF3010BD78210020CF
:1071800010120020084B1B68052B0CD1074B1A6E00
:1071900099180132B2F5807F1A6608BF002281F883
:1071A000640008BF1A667047782100201012002082
:1071B000F8B5234B93F86421012A3FD0D3F8682116
:1071C000196EB2F5807F04BF0022C3F86821D3F89E
:1071D00068411B4A8C4203D1002382F86431F8BD18
:1071E0008CBFC4F58071C4EB0101C2F86C11D3F8F7
:1071F0006C61134D402EA2B207D94034403EC5F811
:107200006841C5F86C61402706E034440021B7B2FC
:10721000C5F86841C5F86C110A4801241044C02122
:107220003A4683F8644107F021FC2046394607F0CE
:1072300025FD2046BDE8F84007F08ABCF8BD00BF38
:107240001012002074120020094B10B593E81400AE
:1072500008331B68D0180AD006490822FFF7D0FD72
:10726000204605490422BDE81040FFF7C9BD10BD06
:10727000E8F7FF1F7F0100208F01002007B50021E4
:1072800000910A460B46034800F0A2FA03B05DF8ED
:1072900004FB00BF8013002038B504460D46AC4205
:1072A00003D254F8043B9847F9E738BD08B50748BE
:1072B0000749FFF7F1FF07480749FFF7EDFFBDE872
:1072C000084006480649FFF7E7BF00BFC86D010840
:1072D000C86D0108C86D01083C6E01083C6E0108CC
:1072E0003C6E0108FEE70000054A08B51368184423
:1072F0001060044A904201D908F01CFE184608BDEF
:1073000008000020004800204FF0FF3070470120A7
:1073100070470020704701207047704738B5114C06
:10732000D4F8445B2DB1D4F8443B013BC4F8443B52
:1073300038BDD4F8483B0C4A52F8230005F010FA47
:10734000E72005F061FA6423084AC4F8443BD4F806
:10735000483B126801339342C4F8483BA8BFC4F8C5
:10736000485B38BD94130020185E01080C00002013
:1073700030B5022085B00121062204F051F8041E28
:107380001BDB0223ADF8003000238DF802303523DB
:107390008DF803306946082310228DF804308DF8EB
:1073A00005308DF806308DF8073004F04BF90546AE
:1073B000204604F063F8284601E04FF0FF3005B0A6
:1073C00030BD01207047002070470000044B0122AF
:1073D00000215A801980D986024B1A70704700BF6D
:1073E000AC2200209A200020084B0022D3F83C1247
:1073F00003F510738A4208DA93F8500010B10020A8
:1074000083F8500001325133F4E7704794130020A1
:1074100004F018B9014807F087BC00BFC816002067
:1074200014282DE9F34104460E4669D8FF2967D098
:1074300000F0E0FA20B1A4F10D039BB2022B5FD95A
:1074400000F068F908B1012C5AD900F079FF20B199
:10745000A4F112039BB2012B52D92B4D24012B19FD
:107460002F59B3F80480294B9F4201D1042003E037
:10747000274B9F4203D10820012106F061FBADF8A4
:107480000480062E38D8DFE806F0040D13191F28F3
:10749000310010238DF8073003238DF806302C447B
:1074A000002328E004238DF807302C44012322E038
:1074B00048238DF807302C4402231CE028238DF844
:1074C00007302C44032316E018238DF807300323DC
:1074D0008DF806302C4404230DE01C238DF8073072
:1074E00003238DF806302C44052304E000238DF897
:1074F00007302C440623A373384601A906F02EF961
:1075000002B0BDE8F08100BF10000020000801407B
:10751000000C0140142870B5044602D94FF0FF302A
:1075200070BD184E050173199B7B013BDBB2FD2B2F
:10753000F4D800F05FFA20B1A4F10D039BB2022B46
:10754000ECD900F0E7F808B1012CE7D900F0F8FE1B
:1075500020B1A4F112039BB2012BDFD973199B7BDD
:10756000062B09D1074B93F850114B1EDBB2FD2BB4
:10757000D4D82046FFF754FF73197059998806F044
:107580003BF970BD10000020014B1868704700BF28
:1075900014120020034B1A68104419688842FCD862
:1075A000704700BF1412002007B5002100910A4661
:1075B0000B46034800F00CF903B05DF804FB00BF74
:1075C000F41E0020024B18785B78C01A704700BF89
:1075D000FC1E0020064B5A781978914204D999185C
:1075E000013288785A7070474FF0FF30704700BF03
:1075F000FC1E0020054B5A781978914202D9134499
:10760000987870474FF0FF30704700BFFC1E002095
:1076100070470000F8B5094B054693F8223016462E
:1076200053B10C468F18BC4206D02B6828461B6805
:1076300014F8011B9847F6E73046F8BDFC1E002001
:1076400010B50C4B012293F822408CB193F82340E3
:107650001F2C02D94260002010BD93F824001C1892
:1076600084F82510411CC9B283F8241083F8231034
:10767000104610BDFC1E0020002242604FF47A72BA
:107680008260014A02607047485E010838B51C4CB0
:1076900000254FF4001001216570257084F82450F6
:1076A00084F8235006F058FA01200521FFF7B8FEB0
:1076B00028460521FFF7B4FE124806F0EDF84BF618
:1076C000FF73A4F84E3094F85830A4F84C500BB91E
:1076D000A4F850304FF48063A4F852304FF4804344
:1076E000A4F85430084B07480849A36406F0EEF8A4
:1076F0000448012106F058F9012384F8593038BDB7
:10770000FC1E002000540040A0860100441F002001
:1077100070477047014B93F859007047FC1E0020DA
:1077200013B5084C0021009104F164000A460B4691
:1077300000F04EF804F16C0002B0BDE81040FFF715
:107740009BBF00BFFC1E002008B5034B53F8203040
:1077500003B1984708BD00BF781F002007B500217E
:1077600000910A460B46034800F032F803B05DF87A
:1077700004FB00BFB81F00202DE9F041002407469C
:107780000E4625463B1919790A22304600F009F9C0
:107790002E218046304600F07BF801344044032C13
:1077A0000544EFD13046F9790A2200F0FAF828446E
:1077B000BDE8F08110B5054A0446002140F8042BCD
:1077C000042209F081F8204610BD00BF685E010860
:1077D00030B58371034D9DF80C3005600171427125
:1077E000C37130BD685E0108044B054A1A6000226F
:1077F0001A715A719A71DA71704700BFC01F002068
:10780000685E010837B5064C0546E178A2786378D2
:1078100024780094FFF7DCFF284603B030BD00BF9A
:107820009E20002000487047B820002007B50021A6
:1078300000910A460B460348FFF7CAFF03B05DF804
:1078400004FB00BFC81F0020F8B506460C468F1881
:107850000025BC4207D0336830461B6814F8011B72
:1078600098470544F5E72846F8BD38B505460C4667
:10787000084641B109F026FC2B6802465B682846A1
:107880002146984738BD38BD08B5FFF7EEFF08BD63
:1078900008B503681B68984708BD10B50A68044618
:1078A000126808462146904710BD38B50D2105469F
:1078B000FFF7EEFF0A2104462846FFF7E9FF2044C0
:1078C00038BD38B50446FFF7D0FF05462046FFF720
:1078D000ECFF284438BD38B50446FFF7DEFF054607
:1078E0002046FFF7E2FF284438BD30B500238BB0B7
:1078F0008DF82430012A98BF0A220DF12304B1FB30
:10790000F2F303FB1211CDB2092D94BF3035373598
:10791000EDB2214604F801590BB11946EFE7FFF724
:10792000A4FF0BB030BDF8B506460D46144622B98B
:107930000368C9B21B689847F8BD0A2A0CD1002910
:107940000BDA2D21FFF7A4FF694207462246304695
:10795000FFF7CBFF3844F8BDD2B2BDE8F840FFF7DF
:10796000C4BF38B50446FFF7DEFF05462046FFF7E3
:107970009CFF284438BD38B50446FFF7D4FF0546C0
:107980002046FFF792FF284438BD10B522B902689F
:10799000C9B21268904710BDD2B2BDE81040FFF7DF
:1079A000A4BFFFF7F2BF38B50446FFF7EEFF054668
:1079B0002046FFF77AFF284438BD000007B50021B4
:1079C00000910A460B460348FFF702FF03B05DF83B
:1079D00004FB00BFD41F002007B5002100910A4618
:1079E0000B460348FFF7F4FE03B05DF804FB00BF4D
:1079F000DC1F0020014B587D704700BFE41F0020B2
:107A00007047000007B5002100910A460B46034865
:107A1000FFF7DEFE03B05DF804FB00BFFC1F002093
:107A200007B5002100910A460B460348FFF7D0FE38
:107A300003B05DF804FB00BF08200020C069704758
:107A400013B5026869469469034A0092426901923B
:107A5000028BA04702B010BD685E010813B5026832
:107A600002AB03F8011D546819460122A04702B079
:107A700010BD00000B4B1B78012B10D1C369082BE4
:107A80000DD0428E5AB1038E0F2B08D8591C0344D7
:107A900093F82030013A01864286184670474FF02D
:107AA000FF30704783200020036810B59B680446B0
:107AB000984720B123682046DB68984710BD4FF0F7
:107AC000FF3010BD10B50446236820469B689847D8
:107AD00020B123682046DB689847F5E710BDC069F0
:107AE000083818BF012070472DE9F04188B0002602
:107AF00008AC054608460F46904644F8146D09F058
:107B0000E1FA224681B2384603F064FDB04215DD49
:107B1000039B04A8DAB20092190EC3F30742C3F321
:107B20000723FFF755FE2B6828469C69054B06A9DD
:107B30000693059B42460793A04700E0304608B0F5
:107B4000BDE8F081685E010838B5134B04461B7828
:107B50000846012B154602D04FF0FF3038BDE369CF
:107B6000082BF9D0638E002BF6D0218E0F29F3D885
:107B7000AB4204F1200105D81A46FDF763FF638E7E
:107B8000238602E0FDF75EFF2586208E0028E3D0E5
:107B9000638E1B1A638638BD83200020F8B50E4B18
:107BA00004461E78F6B2012E11D1C369082B0ED0FF
:107BB00003689B689847054658B9084FE369FB5C22
:107BC0003BB1236820469B6A9847E369FD54002037
:107BD000F8BD3046F8BD00BF832000208A20002079
:107BE000064B1B78012B05D1C069082802D0002361
:107BF00003F0BCBE4FF0FF30704700BF8320002071
:107C000030B52B4B87B01B780546012B02D1C369D9
:107C1000082B01D1002049E0428E2AB12A8EA88E7D
:107C2000824201D2801A41E05A0906A901EB820280
:107C3000012003F01F01884000248DF80C408DF8CE
:107C40000D408DF80E408DF80F4052F80C1C049436
:107C5000014342F80C1C41F28832059204AA0092BA
:107C6000581C03A92246234603F01AFDA0421CDD3E
:107C7000E86906A9420901EB820252F80C2C00F0D7
:107C80001F0342FA03F313F001030CD005F12001A6
:107C90001022234603F0DCFD002807DD83B22C868A
:107CA0006B86AB8602E0184600E0204607B030BD88
:107CB0008320002010B5084B04461B78012B0AD105
:107CC000C369082B07D06420FFF764FCE06903F068
:107CD000D5FB0823E36110BD832000202DE9FF417F
:107CE0004B6804464361274B0E461F789046FFB20F
:107CF000012F228342D102203946062203F090FB55
:107D00000028E0614FF0000538DB022325866586F8
:107D1000A586ADF800304FEA18238DF8023033798C
:107D200010228DF80430737969468DF80530B379E7
:107D30008DF803808DF80630F3798DF80730FFF762
:107D400067FB114906461148FFF79EFD0A2231469E
:107D50000E48FFF706FE0E490C48FFF795FD0B484D
:107D6000E1690A22FFF707FEAE4205DAE369094A34
:107D7000D5540823E36101E0384600E0002004B058
:107D8000BDE8F08183200020DD6301085C20002035
:107D9000F26301088A200020002310B543604FF4ED
:107DA0007A738360044B044640F8103BFFF702FDF2
:107DB0000823E361204610BD785E010870B54FF4DA
:107DC0007A738360074B002504460E46456040F8F1
:107DD000103BFFF7EFFCE66125866586A586204609
:107DE00070BD00BF785E010807B5002100910A460A
:107DF0000B460348FFF7ECFC03B05DF804FB00BF43
:107E00001020002013B5026802AB03F8011D54686E
:107E100019460122A04702B010BD0000F0B51C4B6E
:107E200087B019780746C9B201292FD103890226E4
:107E30001A0A00248DF80A2030460622ADF80860A0
:107E40008DF80B308DF80C408DF80D408DF80E40FC
:107E50008DF80F4003F0E4FA051E17DB04230093AE
:107E60004FF6FF713246234603F082FCA0420DDB41
:107E7000284602A9102203F059FBA04206DB28463F
:107E8000214603F081FBA042A8BFFD6007B0F0BD12
:107E9000832000201030FFF7A3BE000010B50023A0
:107EA0004360054B0181082104460360C160103026
:107EB000FFF784FF204610BDB85E01084B6870B51F
:107EC00043608B680D468360CB6800F12006C36079
:107ED0004B69044643610B8B0383CB69C36101F19A
:107EE00020030FCB86E80F002B8E204623866B8E57
:107EF0006386AB8EA38670BD4B6870B543608B689C
:107F00000D468360CB6800F12006C3600B4B04462E
:107F100003600B4B03614B6943610B8B0383CB699C
:107F2000C36101F120030FCB86E80F002B8E2046A2
:107F300023866B8E6386AB8EA38670BD785E010848
:107F4000685E010870B5CB6894B0082B06460C46F5
:107F500003D10B6808469B689847134B04F1100542
:107F60001B78012B02D1E06808280FD10821E160BD
:107F700006A8FFF723FF06A92846FFF79FFF304614
:107F80002946FFF7B9FF304614B070BD102302A98F
:107F900001AA019303F098FA011E02DA06A808214B
:107FA000E7E706A8C9B2E4E78320002007B500216F
:107FB00000910A460B460348FFF70AFC03B05DF840
:107FC00004FB00BF1820002008B503681B6B98470E
:107FD00008BD0000024A02608A694260704700BF23
:107FE000685E0108808B7047B0F8360270474B68B6
:107FF00002218283C18380F82120110AC3F3072262
:10800000836180F8223080F82320C3F307421B0EDF
:1080100080F82530102380F8201080F82420036396
:10802000012070470120704713B5026802AB03F8C6
:10803000011D546819460122A04702B010BDB0F8D6
:1080400036227AB1B0F83432B3F5007F0AD2591C27
:10805000034493F83430013AA0F83412A0F83622E1
:10806000184670474FF0FF307047036810B59B68A3
:108070000446984720B123682046DB68984710BD26
:108080004FF0FF3010BD10B50446236820469B68B2
:10809000984720B123682046DB689847F5E710BD74
:1080A00030B50446022085B00D461122014603F08A
:1080B000B7F900284FF000031DDB0222ADF80020C5
:1080C0002A0A20748DF802206582A4F83432A4F8BC
:1080D0003632C0B2694610228DF803508DF8043054
:1080E0008DF805308DF806308DF8073003F01EFA54
:1080F000C043C00F00E0184605B030BD10B50446BF
:10810000007C03F0BBF908B90823237410BD0000FC
:108110002DE9F04188B0002608AC054608460F4618
:10812000904644F8146D08F0CDFF224681B23846DF
:1081300003F050FAB04215DD039B04A8DAB20092B6
:10814000190EC3F30742C3F30723FFF741FB2B6864
:1081500028461C6A054B06A90693059B42460793D1
:10816000A04700E0304608B0BDE8F081685E010835
:1081700013B5034603F11E04007C00941B6B0193AE
:10818000002303F0FDFB02B010BD30B50446007CB7
:1081900087B0430906AA02EB8303012100F01F0206
:1081A000914000258DF80C508DF80D508DF80E5033
:1081B0008DF80F5053F80C2C01300A4343F80C2C67
:1081C00041F28833059304AB009303A92A462B465A
:1081D000049503F065FAA84234DD207C06AB420921
:1081E00003EB820252F80C2C00F01F0342FA03F357
:1081F00013F0010328D004F11E03009304F13003AF
:10820000019304F134014FF400722B4603F02BFB71
:1082100000281ADD94F8202094F82130A4F8345274
:1082200043EA0223A38394F82230A4F8360223768B
:1082300094F82330637694F82430A37694F82530AC
:10824000E37602E0284600E0184607B030BD38B5B6
:108250000446B4F836320846154613B94FF0FF30DD
:1082600038BDB4F83412B1F5007FF7D2934204F16F
:10827000340107D81A46FDF7E5FBB4F83632A4F806
:10828000343203E0FDF7DEFBA4F83452B4F83402D4
:108290000028E3D0B4F836321B1AA4F8363238BDC1
:1082A000002310B543604FF47A738360044B044697
:1082B0000360082303741430FFF77CFA204610BDD6
:1082C000D05E010807B5002100910A460B4603481D
:1082D000FFF77EFA03B05DF804FB00BF202000200A
:1082E0004FF0FF307047704708B52021034805F074
:1082F000CCFE003018BF012008BD00BF0044004084
:1083000008B5024805F0BDFE08BD00BF00440040AE
:1083100008B5054805F0B1FE0348802105F0B5FE1B
:108320000028F9D0012008BD00440040002242602E
:108330004FF47A728260014A02607047185F010848
:10834000014B187C704700BF2820002013B5084C53
:108350000021009104F114000A460B46FFF738FA99
:1083600004F11C0002B0BDE81040FFF7DFBF00BF02
:108370002820002070474FF0FF307047FEF7E2BE24
:1083800008B5FEF7CBFE08BD08B50846FEF7FAFEB5
:10839000012008BD002242604FF47A728260014AD7
:1083A00002607047385F01080846FEF79FBE000074
:1083B00013B5074C0021009120460A460B46FFF7F3
:1083C00007FA04F1080002B0BDE81040FFF7E2BF71
:1083D00054200020002303601846704700230360E8
:1083E0001846704700230360184670472DE9F04196
:1083F0000B7886B0002B0C4614BF90464FF0000857
:10840000064608F05FFE0746204608F05BFE18238C
:1084100001931E23012502930223039305900095E7
:108420000494404631463A46002303F0EDFB034BEB
:1084300018705D7006B0BDE8F08100BF6C200020B0
:1084400048F20203984210B50C4626D006DC992863
:1084500056D048F20103984217D010BD48F280036D
:10846000984207D0B0F5084F4ED048F2100398421A
:108470005AD134E02D482E49FFF723FA2D4B012223
:108480009A70DA7000221A7110BD28482A49FFF745
:1084900018FA284B01225A7110BD264C234827494F
:1084A000FFF70FFA637953B1254B00224FF47F4059
:1084B0001A7004F02DF9E72004F0A6F906E0A3797C
:1084C00013B1013BA37101E00123A3750023637184
:1084D000E37523766376A376E376237710BD0A7D72
:1084E000144B52B901224FF47F40DA7504F010F9B1
:1084F000BDE81040E72004F087B90022DA7510BD0E
:108500000C4B01225A7710BD0E490848FFF7BCF901
:108510002478064821460A22FFF745FA072C03D89B
:10852000044B1C440123A37710BD00BF5C20002036
:10853000FA6301086C200020216401083D640108F1
:10854000482100205C6401081FB54FF461504FF4CE
:1085500061610A223C238DE80F00684601A902AA46
:1085600003AB02F0A3FA05B05DF804FB1FB50023CE
:10857000009301930293039301A8694602AA03ABF7
:1085800002F05AFA05B05DF804FB000030B5524D18
:1085900000249FB0FF20AC70EC706C706C71EC75B7
:1085A0006C772C766C76AC76EC7604F0B1F8E7203C
:1085B00004F02AF921462246204603F001FB2B460F
:1085C000012103F8074F0E200A4602F0F5FA6B79F5
:1085D000012B05D1642003F03FFF01F07DFFF6E79A
:1085E00010210C2002F034FB3C4802F0F1FE3C4824
:1085F00003F05AFC012003F03BFC6846394900F0C7
:10860000A3FDAB786A78344C1A431CD194F8263019
:10861000002B57D0FF2003F0DDFB002852D11A2495
:10862000013C06D0E72004F015F9322003F014FFD6
:10863000F6E70E20012122462B4BAC7102F0BCFA6A
:1086400085F82640DDE7E72004F0DEF8A31D0E20C4
:108650000121002202F082FAA37813B103F044FC56
:1086600020702B7801210133AB7100221E4B0E20AC
:1086700002F0A2FA002001240146012203F0A0FA30
:1086800021462246194B0E20EC7102F095FA03F0B8
:108690001BFA642003F0E0FE002003F0CBF948F25F
:1086A000442085F8274003F0B1FB4FF47F4004F0ED
:1086B0002FF8E72004F0A8F8FFF746FF0023AB757A
:1086C0001FB030BDE72004F0C5F8FA2003F0C4FE67
:1086D000684600F09DFD94E76C200020505F010883
:1086E00064010020ED830008722000207320002028
:1086F000F0B5394C85B0A06204F04CFB04F08CFA64
:10870000364B374A0093374B37490193374B38483C
:108710000293384B00250393374B03F077F964201D
:1087200003F09AFE002003F085F9012348F244206B
:10873000E57684F8273003F069FB304BA61D1A88D4
:108740001F46012A06D00E2010212A46334602F089
:1087500005FAA0B1FF2003F03DFB10210E2002F02E
:1087600077FA00210025755401311029FAD10E2025
:108770002A46234B02F020FA3D8004F059FC23796D
:10878000154D93B9AB7913B90123AB750DE0E879B9
:1087900058B90146012203F013FA01212B4603F8D0
:1087A000071F0E200A4602F007FA237963B90A4B25
:1087B0009B7D4BB1134802F031FAFFF7D7FE05B0AD
:1087C000BDE8F040FFF7C0BE4FF47F4003F0A0FFCC
:1087D000E72004F019F8EDE76C200020D1CC000868
:1087E000DD830008E5CC0008D583000851CD0008E2
:1087F0004184000879CD0008E5830008B20200201A
:1088000072200020982000202DE9F341A94C94F813
:108810002E30002B40F0C58094F82F30002B40F014
:10882000C08094F8273003F0FF0023B903F002F969
:10883000012384F82730A37D9E4E13B1FFF7A6FED7
:1088400007E033792BB1F37D03F0FF05002B00F037
:10885000D780E278974B012A13D1DA7D012A10D113
:108860005B79012B0DD10325934808F02BFC013DCA
:1088700082B29149012003F08FF815F0FF05F3D182
:10888000E57094F830308B4D43B92B7E002B40F0CF
:10889000CE806B7E002B40F0CA8008E1874B1A68BF
:1088A0001E46002A40F00381EB7D93B395F82F30EC
:1088B0007BBB2B7E002B00F0CB802AE02B4603F8FD
:1088C000091F0E200121032202F076F94FF6FF70F6
:1088D00003F01EFFE72003F097FFFEF772FD00286C
:1088E00080F2DF8094F82E30724D002B40F0DF8054
:1088F000FEF73EFD0028B4BF022303232B77237F1E
:108900000E20637201216E4B032202F055F9002301
:108910002376237E674D002B00F0C9806B7E3BBB26
:10892000FEF7F7FC00281DD002DA4FF47F0007E0C5
:10893000012801D1634803E0022803D14FF0FF1062
:1089400003F0E6FEE72003F05FFF94F8313047F2D2
:1089500030520133DBB284F8313094F83130534374
:10896000336005E001236B76574B85F831001860C2
:10897000FEF7D1FC002840F09A80544B1B780BB1D5
:1089800003F016FF0023A376E376637623764E4B3F
:108990001B68002B00F08B80464B012283F82E20B1
:1089A00085E094F82730002B3FF445AF474B1B7808
:1089B0000BB103F0FDFE002528466571E57584F8CE
:1089C0002E5084F8275025766576A576E5762577AE
:1089D00004F0D2F9642003F03FFDA37D43B12846A3
:1089E00003F028F8334B012283F82720FFF7CEFD50
:1089F0004FF47F4003F08CFEE72003F005FF1AE7F9
:108A000029462A46284603F0DBF8314808F05AFB8D
:108A1000304F8046384608F055FB00970190791F8B
:108A2000032042462B4603F065F8357111E7FEF747
:108A3000CAFC00234FF47F40A376E3766376237667
:108A400003F066FEE72002B0BDE8F04103F0DCBEB3
:108A5000642003F001FD05F1320002F06DF82B7F78
:108A6000002B3FF433AF4FF47F0003F051FE227F21
:108A7000104D02F0FF01002A3FF420AFE72003F081
:108A8000C3FE4FF4FA7003F0E7FCE72003F0CAFEE0
:108A90004FF4FA7003F0E0FC2B7F013BDBB22B7745
:108AA000E5E7012323760C4B00221A6031E702B080
:108AB000BDE8F0816C20002067010020201200201A
:108AC000752000200060FF0088130020482100204E
:108AD0006E010020730100208C13002007B50021D7
:108AE00000910A460B460348FEF772FE03B05DF89C
:108AF00004FB00BFD82000207047FEE7FEE7FEE73A
:108B0000FEE7704770477047FEF7FCB908B5024BA7
:108B10000BB1AFF3008008BD0000000008B5024BA8
:108B20000BB1AFF3008008BD0000000008B5024B98
:108B30000BB1FEF7EDFD08BD1177000808B5024B3B
:108B40000BB1FEF7E6FD08BD1377000808B5024B30
:108B50000BB1FEF755FF08BD017A000808B50120EA
:108B600004F06EFD38B1012004F078FD024B13B122
:108B70000020FEF7E9FD08BD4977000808B502208E
:108B800004F05EFD38B1022004F068FD024B13B121
:108B90000120FEF7D9FD08BD4977000808B504207B
:108BA00004F04EFD78B1042004F058FD0020064B7F
:108BB0000146188003F0D6FEBDE8084003481021A6
:108BC000012205F012BA08BD5A210020002C0140F4
:108BD00008B5082004F034FD38B1082004F03EFD4B
:108BE000024B13B10320FEF7AFFD08BD4977000823
:108BF00008B5102004F024FD38B1102004F02EFD3B
:108C0000024B13B10420FEF79FFD08BD4977000811
:108C100008B5202004F014FD38B1202004F01EFD1A
:108C20000E4B13B10520FEF78FFD402004F008FD28
:108C300038B1402004F012FD084B13B10620FEF7B6
:108C400083FD802004F0FCFC38B1802004F006FD98
:108C5000024B13B10720FEF777FD08BD49770008E6
:108C600008B54FF4005004F0EBFC40B14FF4005055
:108C700004F0F4FC174B13B10D20FEF765FD4FF423
:108C8000804004F0DDFC40B14FF4804004F0E6FC8D
:108C9000104B13B10E20FEF757FD4FF4004004F0C7
:108CA000CFFC40B14FF4004004F0D8FC094B13B1A5
:108CB0000F20FEF749FD4FF4006004F0C1FC38B10D
:108CC0004FF4006004F0CAFCBDE8084003F050BB5C
:108CD00008BD00BF4977000808B51048102105F00D
:108CE000BDF9C8B10D48102105F0C3F9002003F00B
:108CF000E7FE30B90A4B1A8892B20A3292B21A8051
:108D000008BD06481021002205F06FF9BDE80840B3
:108D10000020012103F026BE08BD00BF002C014049
:108D20005A21002008B5012004F090FF30B1012045
:108D300004F09CFFBDE8084004F072BF08BD0000CD
:108D400008B5022004F082FFB0B10C4B00224FF4B2
:108D500000301A7004F082FC012004F06DFE10B1A6
:108D6000012004F073FE04F05BFF022004F07EFF9C
:108D7000BDE8084004F054BF08BD00BF9B200020A0
:108D800003F088BA00F062B838B514490B78012BAB
:108D900023D1134A13680BB90B7038BD114C402B0B
:108DA000206881B205D94030403B206013604025E7
:108DB00004E09DB203442360002313600A482A465E
:108DC0000844C02105F052FE0120294605F056FF57
:108DD000BDE83840012005F0BBBE38BD741300204B
:108DE0007C130020781300207412002008B5094B72
:108DF00001221A70084B002203201A8005F06EFF32
:108E0000064B024618804FF488710548BDE80840BB
:108E100005F044BE281200202C1200202A12002047
:108E20002E120020074B1B68052B09D1064B1A6830
:108E3000511C052A196003D100221A60FEF7B8B947
:108E4000704700BF78210020E020002070B52B4D36
:108E50002B4C2B682B4E9BB22380228833881340E7
:108E6000990508D54FF6FF532B60A3780133DBB289
:108E7000A370FFF7D7FF2288338813401A0401D567
:108E800005F03EFD2288338813405B0505D54FF67B
:108E9000FF332B601C4B5B689847228833881A404D
:108EA000900444BF4DF6FF722A6022881340D90413
:108EB00005D54EF6FF732B60002004F015FA2288CA
:108EC000338813401A050BD5104B1B7813B104F0EF
:108ED000EBF902E0022004F007FA4FF2FF732B6077
:108EE000228833881340DB0507D54FF6FF632B60DC
:108EF0000720BDE8704004F0F7B970BD445C004045
:108F0000E4200020642B0020D8010020D40200209F
:108F1000034B9B7A13B1034B05221A60704700BFC5
:108F2000402B002078210020014B04221A6070475A
:108F300078210020034B1A78202A04BF00221A70DF
:108F4000704700BFE820002070470000212810B5BE
:108F500008D1114B1B681B7803F07F03212B10D025
:108F6000022010BD2028FBD10B4B0C4A1B681B783C
:108F7000107003F07F03212B094B18BF00230BB99E
:108F8000EEE7084B044A002412682046936154829D
:108F90009847204610BD00BF602B0020E82000202D
:108FA000F58F0008DD8F0008074B1B681B7803F066
:108FB0007F03212B06D100F0DF00022814BF02201E
:108FC0000020704702207047602B002009B102206A
:108FD00070470128FBD808467047000020B9034BB2
:108FE00008221B681A82704701487047602B0020D6
:108FF000D001002020B9034B08221B681A82704759
:1090000001487047602B0020D001002010B5FEF70A
:109010001BF9054B00241B689C7204F02DF905F028
:1090200073FE024B1C6010BD602B002078210020D5
:10903000334B344A1B68D27910B500245A729C72A3
:10904000DC72204605F03CFD20464FF4007105F02F
:109050003FFD2046102105F049FD2046402105F046
:10906000E1FD8021204605F0CDFD204605F096FD6E
:10907000254B204693F8341005F00EFE204605F0EF
:109080007AFD0120214605F023FD0120C02105F0D5
:10909000B9FD0120202105F029FD0120214605F020
:1090A0003EFD02204FF4C06105F012FD02204FF496
:1090B000807105F0A7FD0220214605F030FD022059
:1090C000202105F013FD0320214605F001FD0320BA
:1090D0004FF4887105F0A6FD0320402105F0DCFD6A
:1090E00003204FF4405105F01AFD0320214605F0FE
:1090F000FDFC204605F098FB044B01221A6010BDD0
:10910000602B0020BD5F0108D001002078210020E5
:10911000014905F085B900BF08020020014905F0AA
:109120007FB900BF10020020054B1B68DB78042BC1
:1091300004D8044901EBC30105F072B9002070475F
:10914000602B00201802002038B504460D46FFF7BA
:1091500021F9204625614FF41651FFF725F92046E5
:1091600038BD000007B5002100910A460B460348B0
:10917000FEF72EFB03B05DF804FB00BFEC200020DF
:1091800070B506460D460024284607F09BFF844232
:1091900008D2295D3046FFF7F7F8012003F05CF9AB
:1091A0000134F1E770BD00002DE9F84304460F4695
:1091B00090460D46C7EB05095FFA89F92046FFF78F
:1091C000DFF80028FADD2046FFF7D8F8C145C6B21F
:1091D00006D100232B7020460C49FFF7D1FF0AE08F
:1091E0000D2EF6D00A2EF4D020463146FFF7CCF8EB
:1091F00005F8016BDEE72046FFF7C2F8002803DD23
:109200002046FFF7BBF8F6E7BDE8F88337660108AC
:10921000F0B585B00446FFF7B3F8002840F39D8011
:109220002046FFF7ABF8C0B2772868D104F11406E6
:1092300000212122304604F1350507F045FB41228B
:109240000021284607F040FB04F17607002384F84C
:109250007630204642497B70FFF792FF2046314628
:109260002022FFF7A1FF20463E49FFF789FF012298
:1092700020463946FFF798FF94F87630A3F1300284
:10928000D2B2032AEFD8312B0BD120463649FFF753
:1092900077FF20463549FFF773FF20463449FFF733
:1092A0006FFF94F87620B2F1300708D0204631499C
:1092B000FFF766FF204629464022FFF775FF20464C
:1092C0002D49FFF75DFF23693A4630462946984706
:1092D00020462A49FFF754FF20462949FFF750FF4F
:1092E00020462849FFF74CFF20462749FFF748FF53
:1092F00020462649FFF744FF2046254928E06928F3
:109300002BD1244B01AD93E8070085E807002046E8
:109310002149FFF735FF0026AF5D20463B0903F1E9
:109320003001392984BF03F15701C9B207F00F0793
:10933000FFF72AF807F13001392984BF5737F9B20E
:1093400020460136FFF720F80C2EE5D113492046C0
:1093500005B0BDE8F040FFF713BF05B0F0BD00BF9A
:109360008B64010892640108BF640108F564010878
:10937000206501086665010871650108B46501088A
:10938000D4650108076601083A6601087966010894
:10939000AA660108E8F7FF1FC066010837660108E2
:1093A00038B500250446016042618361858380F8F9
:1093B00024502830FEF7FEF92571A5772562204656
:1093C00038BD002310B503718383044600684FF451
:1093D000816103689B699847012384F8243010BD9C
:1093E00070B58369ADF5067D05461D4A00934FF4BF
:1093F00000716B6906A807F0F1FC1A491A48FEF7DC
:1094000043FA06A91848FEF75CFAFF210A460B4604
:10941000009102A8FEF7DCF9286804A9036840F26D
:1094200006421C6A114B4FF47A760493039B059312
:10943000A047002406A807F045FE0246844228689B
:10944000036801D0013E04D19B6A98470DF5067D63
:1094500070BD06A92144121B5B6898470444E9E7E4
:10946000D1660108F76601085C200020685E0108EB
:10947000F0B590F82430ADF5257D04460BB9FFF723
:10948000A0FFFEF781F8236A40F2D372C01A90421F
:1094900005D92046FFF7A4FFFEF776F82062206882
:1094A0000368DB6A9847002851D0264656F81C0B03
:1094B00024AD03684FF400725B6B29469847002780
:1094C0002F5424492448FEF7DFF929462248FEF7A5
:1094D000F8F9284604A98022334600F05DF80546D5
:1094E0001D48002D2BD01D49FEF7EBF9216802A87D
:1094F0000B68251D9B6B9847039B1949E362C3F3D7
:109500000742009294F82F2028460192DAB2C3F362
:10951000072307F097FC13490F48FEF7B5F92946D2
:109520000D48FEF7CEF910490B48FEF7ADF90A4891
:10953000A18B0A22FEF715FA84F8247003E00B4988
:10954000FEF7BFF9A58320680368DB6998470DF52E
:10955000257DF0BD0F6701085C2000201E67010813
:109560003A670108466701085D67010876670108E8
:109570000079003018BF01207047000007B50021B6
:1095800000910A460B460348FEF722F903B05DF846
:1095900004FB00BFF42000202DE9F0418846174667
:1095A0001E46FDF70BFA044610B90020BDE8F08115
:1095B000C568052DF9D10021FDF704FA20460121E7
:1095C000FDF700FA05460028EFD0296940463A46E3
:1095D00007F002FE20460221FDF7F4F90028E4D04E
:1095E000436901203380BDE8F081F0B50446C9B07D
:1095F0000846FDF7E3F9C3680546052B03D0684626
:1096000000F0BEFC28E00221FDF7DCF9032107464B
:109610002846FDF7D7F9C3680646002B14DB012B5B
:109620000CDD032B10D139697269684600F0E8FC43
:10963000D6E9062344A9C1E900230AE0684639694E
:10964000726900F0DDFC04E068463969326900F0B7
:10965000A9FC2846FDF75EF92046694600F0FAFCB1
:10966000204649B0F0BD01607047F8B506460F4688
:1096700015460024AC4210D03068391903682A1B03
:109680005B6A9847002806DA306803689B68984749
:109690000028EFD1F8BD0444ECE7F8BD07B5062279
:1096A0006946FFF7E2FF002368468DF8063006F0B2
:1096B0004DFC03B05DF804FB70B50646481C0D4632
:1096C00006F072FD044630B1304621462A46FFF7C7
:1096D000CCFF00236355204670BD0000F8B504465A
:1096E000FFF7DCFF01462046FFF7E6FF037804465C
:1096F000302B43D183795B2B40D107F0E3FC231857
:1097000013F8013C05465D2B38D120461C4907F073
:10971000E9FE78B3031B033DAB422BD2871C3846CE
:1097200007F0D0FC00F10E05284606F03DFD2A4664
:109730000021064607F0C8F8124B324603F1080E26
:1097400018685968154603C5083373452A46F7D18A
:1097500018681B7928602B71384607F0B3FC39462E
:10976000024606F10D00FCF76DF9204606F024FDD7
:10977000344603E0204606F01FFD00242046F8BDD5
:10978000AA670108AE67010807B5002100910A46E3
:109790000B460348FEF71CF803B05DF804FB00BF5E
:1097A000FC2000200022C0F80023704738B5054691
:1097B0000024D5F800339C4207DA05EBC403D3F844
:1097C000000106F0F9FC0134F3E7284638BDF8B58E
:1097D00007460E4604460025D7F800339D420CDAB2
:1097E0003046D4F80011FCF7A3F918B9D4F80431C5
:1097F0003046984701350834EEE7F8BDD0F800034D
:109800007047704707B5002100910A460B46034890
:10981000FDF7DEFF03B05DF804FB00BF042100206C
:1098200007B5002100910A460B460348FDF7D0FF1B
:1098300003B05DF804FB00BF0C21002038B50446DE
:10984000154600F0E7FA6560204638BD70B504465D
:1098500040680D460268D26A9047B0B1284600F0D1
:1098600079FB054629466068FEF70EF806466068F3
:10987000026852699047284607F024FC331A5C427C
:1098800028465C4106F098FC00E00446204670BD86
:1098900037B5069C05460094079C019400F0C0FA79
:1098A000044621462846FFF7D1FF0546204606F02C
:1098B00083FC284603B030BD38B5054600F024FBD4
:1098C000044621462846FFF7C1FF0546204606F01C
:1098D00073FC284638BD37B502AB43F8042D1A4651
:1098E00005460846002100F03DFA04462146284678
:1098F000FFF7ACFF0546204606F05EFC284603B0A5
:1099000030BD000007B5002100910A460B46034810
:10991000FDF75EFF03B05DF804FB00BF14210020DB
:1099200007B5002100910A460B460348FDF750FF9A
:1099300003B05DF804FB00BF1C2100202DE9F041BD
:1099400004460D4604F1500742F2CD6108309046BE
:1099500004F18806FEF7A2FA3846FEF71DFA3046F3
:10996000FEF79EFC04F53070FFF71CFF294604F259
:10997000C45000F04FFA29463A4604F5B960FFF7A3
:109980005DFF31462A46434604F5BA60FFF708FDFD
:10999000FDF7FAFD60602046BDE8F08173B50F4C1D
:1099A0000F4D06460F492046FDF76EFF68462946D3
:1099B000FDF728FF69462046FDF78DFF0A4920463E
:1099C000FDF762FF2846FDF72DFF01462046FDF713
:1099D00078FF0023337002B070BD00BF5C20002010
:1099E000D01F0020BC670108D2670108037810B5BA
:1099F000044683B1FDF7C8FD636840F2B632C01A71
:109A0000904208D9FDF7C0FD606004F5B960FFF72A
:109A100053FF00B9207010BD07B5002100910A4620
:109A20000B460348FDF7D4FE03B05DF804FB00BF0E
:109A300024210020F0B500F1500685B004463046E0
:109A4000FEF7ACF80546002848D104F5BA67384659
:109A5000FFF70EFD3846FFF78BFD00283ED020496A
:109A60002048FDF72EFF20491E48FDF70DFF1F4F30
:109A7000D4F8A03002A91B4803930297FDF70DFF0D
:109A80001B491848FDF700FF41F635610A221548C9
:109A9000FDF767FFD4F8A030304602A941F63562E1
:109AA00002970393FEF71AF9C0B112490D48FDF76A
:109AB00008FF04F53076012323703046FFF7A1FE3E
:109AC00007463046FFF79AFE00950346019504F5D8
:109AD000B96042F2CD613A46FFF7DAFE05B0F0BD5B
:109AE000E46701085C200020F1670108685E010856
:109AF0000C6801080E68010838B5084C0546FFF7E8
:109B00004DFF20460649FDF7DCFE20460549FDF7DE
:109B1000D8FE2846BDE83840FFF78CBF5C20002007
:109B2000256801083D68010810B505490446054847
:109B3000FDF7C7FE04F15000BDE81040FEF7BAB8CB
:109B4000526801085C200020037810B504464BB130
:109B500000F5B960FFF7BFFE20B92046BDE8104010
:109B6000FFF7E2BF10BD000030B50378D9B004465E
:109B7000002B32D05030FEF711F868B302A804F180
:109B80000801FEF7DFF9099B082B26D002A901A8DE
:109B9000FFF769FD01A8FFF7A1FD054602A8FEF742
:109BA00089F8A5B110A82946FFF71FFD10A904F5F3
:109BB0003070FFF70CFE284607F084FA00210246B9
:109BC000284606F081FE284606F0F6FA05E004492C
:109BD0000448FDF776FE00E0207059B030BD00BFAC
:109BE000956801085C20002010B50446FFF722FFAD
:109BF0002046FFF7B9FF2046BDE81040FFF7F6BE4C
:109C0000F0B585B061B36AB300240A26B0FBF6F55F
:109C100006FB1500013404AF3030274407F80D0C63
:109C200028460DB1B442F0D1A34286BFC4EB030372
:109C3000DBB20023013A30200025954201EB0506F6
:109C400012D01CB983B1013BDBB206E0002BFAD184
:109C5000013C04A8204410F80C0C48550135ECE7F1
:109C6000084604E0104602E000233370284605B0A1
:109C7000F0BD00002DE9F84FDDF828900446B9F159
:109C800001070D4690461E4663D000220023FBF7D5
:109C900069FE30B105F100412D230D463370A9F165
:109CA00002072E4BB8F1060F28BF4FF006084FF001
:109CB000000A4FF0010900225FFA8AF141450DD2F6
:109CC000104619460022264BFBF704FD0B460A21DD
:109CD000024601FB09F90AF1010AEDE7002F38D02D
:109CE00020462946FBF71AFA0D460446FBF78AFE82
:109CF00031463A4600238346FFF782FF06443F1A67
:109D0000B8F1000F25D027B32E23013F06F1010A39
:109D100033701DD05846FBF73DFB02460B462046EC
:109D20002946FBF7F9F9044648460D46FBF732FB96
:109D300002460B4620462946FBF7A2FBFBF762FED4
:109D400051463A464346FFF75BFF0AEB000600E048
:109D5000564600233370BDE8F88F00BF0000E03F97
:109D600000002440F0B5ADF5037D0F460446002108
:109D7000154602A84FF4807242AE06F0A5FD3046AB
:109D800000214FF4807206F09FFD062F31D8DFE8E6
:109D900007F004061320243004002B6821E0286813
:109DA000FBF71AFBCDE90001154B02A81A6815490B
:109DB000234607F047F81CE04FF48073D5E9000113
:109DC000009306223346FFF755FF009602A80E497E
:109DD0000AE0009502A80D4906E02B68003318BF81
:109DE00001230B49009302A8054B1A68234607F08C
:109DF00029F802A807F04AF90DF5037DF0BD00BF70
:109E00002C210020D0680108EA68010804690108D3
:109E1000B6680108014B0160196070472C210020D1
:109E2000F0B5ADF2044D0C46164600214FF48062A9
:109E300068461F46DDF81C5406F046FD2A4B2B49A8
:109E40001A686846234606F0FDFF6846284907F071
:109E50001FF80024BC42684613DA264907F018F8B8
:109E600056F82410684607F013F8234B214A791E50
:109E70008C42ACBF11461946684607F009F8013418
:109E8000E8E71E4907F004F86846194907F000F8AA
:109E90000024AC42684615DA164906F0F9FFDDF8F1
:109EA0001834684653F8241006F0F2FF124B114A9A
:109EB000691E8C42ACBF11461946684606F0E8FFA1
:109EC0000134E6E70D4906F0E3FF68460C4906F069
:109ED000DFFF0C49684606F0DBFF684607F0D6F85E
:109EE0000DF2044DF0BD00BF2C2100204369010894
:109EF00020690108AC670108676901085B6901080E
:109F00005F6901086B69010800B5C1B068460021AE
:109F10004FF4807206F0D8FC054B06491A68684673
:109F200006F090FF684607F0B1F841B05DF804FB19
:109F30002C2100207269010807B5002100910A4612
:109F40000B460348FDF744FC03B05DF804FB00BF7B
:109F50003021002038B5054607F0B4F8073006F088
:109F600023F90446284607F0ADF8044902462B467B
:109F7000204606F067FF204638BD00BF866901080D
:109F800030B50022002400F588750023047080F8A5
:109F90008840C0F80841C0F80C41C5E9002380F8AA
:109FA000184130BD38B504461546802207F014F933
:109FB000294604F18800802207F00EF900234FF0B3
:109FC000FF32C4F88030C4F81C31C4F8842028461D
:109FD00005F0BCFFC4F80801284605F0B7FFC4F837
:109FE0000C01284605F0AEFF003504F5887318BF54
:109FF0000125C3E9000184F81851204638BD00004E
:10A0000070B504461546802207F0E6F82B4604F1A9
:10A01000880080210E4A06F0E1FE00234FF0FF3257
:10A02000C4F80851C4F80C51C4F88030C4F8842036
:10A03000C4F81C312846FBF7BDF9003504F58876D5
:10A0400018BF0125C6E9000184F81851204670BDEB
:10A050004367010838B5802204460D4607F0BCF876
:10A0600005F1880104F18800802207F0B5F8D5F8E1
:10A07000803004F58871C4F88030D5F884302046EB
:10A08000C4F88430D5F81C31C4F81C31D5F8083137
:10A09000C4F80831D5F80C31C4F80C3105F58873D3
:10A0A000D3E90023C1E9002395F8183184F8183169
:10A0B00038BD38B500234260836004460D46FDF785
:10A0C00063FA20602846FDF725FA65732073204661
:10A0D00038BD38B50446407BFDF71CFA237BC5B27A
:10A0E000AB4201D1002038BDFDF74EFA236862680B
:10A0F000C01A9042F6D3FDF747FA2573206001207D
:10A1000038BD38B50446FFF7E4FF054610B100231B
:10A11000A3600CE0A3686BB1FDF736FA2368A26870
:10A12000C01A904206D3FDF72FFAA56020600125E2
:10A13000A57301E00023A373284638BD837B23B1B8
:10A14000007B003018BF0120704718467047837BA2
:10A150002BB1007BD0F1010038BF002070471846BA
:10A160007047000007B5002100910A460B460348DE
:10A17000FDF72EFB03B05DF804FB00BF3821002083
:10A1800007B5002100910A460B460348FDF720FB66
:10A1900003B05DF804FB00BF40210020002100F067
:10A1A00004B80D4B5B58435004310C480C4B42181B
:10A1B0009A42FFF4F6AF0B4A00F003B8002342F8CE
:10A1C000043B094B9A42FFF4F9AF02F0DBFFFDF7C5
:10A1D0006DF8FCF727FE70473C6E01080000002078
:10A1E000640B0020640B0020702B0020FFF7FEBFE3
:10A1F0000B0A017043700B0C090E8370C1700430A0
:10A2000070470170090A41700230704743185A784C
:10A21000435C03EB022080B2704710B543189A7874
:10A22000DC78415C120402EB046258780A4402EBC9
:10A23000002010BD73B544790023022C01930FD088
:10A24000032C19D0012C2BD1164D2B692E4623B18E
:10A250002B6901A898470246B8B9B16801201BE0F4
:10A26000104DEB682E4623B1EB6801A898470246D3
:10A2700058B9B16802200FE00A4D6B692E464BB108
:10A280006B6901A89847024620B1A9682046BDF82D
:10A29000043003E0B16803200022134600F068FB9D
:10A2A00002B070BDAC220020072810B50BD80129E0
:10A2B00009D80124844001FA00F0034B1A6822EA0D
:10A2C000040202431A6010BD6002002070B5012133
:10A2D00086B00546FFF79AFF430404462AD5B0F539
:10A2E000824F27D128460521FFF790FF05EB80001C
:10A2F000EE1D0024C51DAE4206D030460221FFF7F8
:10A3000085FF04360444F6E7724B1A8E92B222445B
:10A3100092B21A86DA6B1444DC63D96B9A6B914261
:10A3200040F0CA8093F84020002A00F0C5809B6965
:10A33000992031E024F4FF4020F07F0080B2002813
:10A3400000F0978048F210039C4228D00CD8B4F556
:10A35000004F40F2BC8048F202039C4215D948F2FB
:10A3600004039C4211D0B2E048F280039C420CD01E
:10A3700004D848F240039C424FD0A8E0B4F5024F05
:10A3800003D0B4F5084F6BD0A1E0524B9A69002A74
:10A3900000F092809B69204600210A4667E0002376
:10A3A000EA1852790DF803200133042BF8D16B7AA7
:10A3B00005F10D008DF80430AB7A8DF80530EB7A9D
:10A3C0008DF806302B7B8DF80730002300AA1A4445
:10A3D000C15C0133042B1172F8D105F11100002387
:10A3E00000AA1A44C15C0133042B1173F8D105F1A2
:10A3F0001500002300AA1A44C15C0133042B117418
:10A40000F8D12B798DF81430324B9A69002A53D049
:10A410009B6920466946152229E00535002128461A
:10A42000FFF7FBFE042100902846FFF7F6FE082107
:10A4300001902846FFF7F1FE0C2102902846FFF715
:10A44000ECFE102103902846FFF7E7FE214B049015
:10A450009A69002A30D09B6920466946142206E09A
:10A460001C4B9A6942B39B692046691D012298479B
:10A4700022E041F203039C4205D0A4F580530E3B39
:10A480009BB2012B1AD86C1D20460421FFF7C5FE94
:10A4900039301CD12A790F4B00212046DA62FFF7B0
:10A4A000BCFE042105462046FFF7B7FE393003D134
:10A4B00028460121FFF7F8FE012009E0054B1B8823
:10A4C0009BB29C4204D0B4F5805FF5D100E000203F
:10A4D00006B070BDAC22002038B50A4C63889BB230
:10A4E0000BB9002038BD60680378042BF9D1FFF761
:10A4F000EDFE01280546F4D10023638001F07AFDCA
:10A50000284638BDAC2200202DE9F84F0446894684
:10A5100092460025DFF87483B8F802309BB2002B16
:10A52000F8D0D8F804603378042B40F073813046BB
:10A530000121FFF76BFE05463046FFF7C7FE0028F6
:10A5400040F05F8141F207039D4206F1050755D8AF
:10A5500041F206039D4280F0AE8040F202239D420C
:10A5600000F0A98014D80C2D09D8082D80F0A38004
:10A57000002D00F04681062D00F2E1809BE00D2DBC
:10A5800000F0968040F201239D4200F0918038E176
:10A5900041F202039D4218D8B5F5805F00F28B802E
:10A5A000B5F5017F40F2848040F207239D4240F0E0
:10A5B00028813379384604F8013B0021FFF72DFE4E
:10A5C00001462046FFF714FE1BE141F204039D42C1
:10A5D00000F08B8040F2A18000213846FFF71DFE7D
:10A5E000042120603846FFF718FE083444F8040CB4
:10A5F00006F10D03224606F11D016FE041F2110341
:10A600009D4255D02BD841F20B039D4253D01CD80C
:10A6100041F209039D424ED000F28C800021384661
:10A62000FFF7FBFD042120603846FFF7F6FD082107
:10A6300060603846FFF7F1FD0C21A0603846FFF757
:10A64000ECFD04F10C0BE060DAE041F20F039D42F7
:10A6500063D036D841F20D039D4246D0D1E042F29C
:10A6600006039D4224D00BD8B5F5005F40F2C980A7
:10A6700042F204039D4288BF002300F2848017E069
:10A6800042F208039D42C0F0BC8042F209039D42A1
:10A690000ED944F20B039D4240F0B38073793846E3
:10A6A0000121A8F83030FFF7B1FDA8F83200A8E08A
:10A6B00033792370A5E038460021FFF7AEFD206016
:10A6C0009FE000213846FFF7A8FDA3464BF8040B96
:10A6D00004213846FFF7A1FD606091E053F8040BB8
:10A6E0008B4242F8040BF9D18BE000213846FFF78A
:10A6F00094FD042120603846FFF78FFD082160603B
:10A700003846FFF78AFDE36804F1080B3933A0608F
:10A7100076D10121FFF7C8FD72E000213846FFF72E
:10A720007CFD042120603846FFF777FD083444F8AB
:10A73000040C66E0337923713B68236061E00021FB
:10A740003846FFF76AFD042120603846FFF765FDB3
:10A75000082160603846FFF759FD0A21A06038469D
:10A76000FFF754FD0C3444F8020C06F111032246A5
:10A7700006F1350153F8040B8B4242F8040BF9D172
:10A780001B8813803DE0F2185279E2540133042B08
:10A79000F9D106F109000023C15CE2180133042B52
:10A7A0001171F9D106F10D000023C15CE2180133EB
:10A7B000042B1172F9D106F111000023C15CE218DB
:10A7C0000133042B1173F9D106F115000023C15C8C
:10A7D000E2180133042B1174F9D106F1190000239A
:10A7E000C15CE2180133062B1175F9D106F11F0087
:10A7F0000023C15CE2180133202B9176F9D100E0EF
:10A800005C46B8F800309BB29D4223D11F4B00221A
:10A810001A801FE030460321B778FFF7F7FC834624
:10A82000B9F1000F0CD00421701DFFF7F6FC0246B1
:10A83000CAF8000006F115014846D2B2FBF702F94A
:10A84000791D20463144C7EB0B02FBF7FBF80023D0
:10A85000A8F836300023A8F8023001F0CBFB33789B
:10A86000042B05D1B5F5805F02D13046FFF7E2FC3D
:10A87000B8F800309BB2002B7FF44CAE034BD88E5F
:10A8800080B200287FF446AEBDE8F88FAC220020ED
:10A8900007284FF0010308D803FA00F0044B1A68A8
:10A8A00010420CBF0020012070471846704700BFBF
:10A8B00060020020064B10B51880064C08460021A7
:10A8C00001230A462370FFF71FFE0023237010BDEB
:10A8D000AC220020B421002010B5054C0123E386F2
:10A8E000044C2370FFF710FE0023237010BD00BF3F
:10A8F000AC220020B421002038B5034615460122C1
:10A900004A710C46881D1946FFF77BFC291D05700E
:10A91000204601F031FC002038BD38B5BDF8145098
:10A920000C462B44D518ADB202216171A071E271C1
:10A93000294604F10800FFF764FC691D204689B22E
:10A9400001F01AFC002038BD38B513440C469DB206
:10A9500002216171A0712946E27104F10800FFF73C
:10A9600050FC691D204689B2BDE8384001F004BCA6
:10A970002DE9F84F1C4604F1020B032301F10709EE
:10A980001FFA8BFB88710D464B7148465946164697
:10A99000FFF737FCB4F57A7F824605F10B0812D831
:10A9A0002146FFF72EFC21465046FFF72AFC314690
:10A9B00040462246FBF746F8A11D284689B2BDE86D
:10A9C000F84F01F0D9BB4FF47A77B4FBF7F30BEBF8
:10A9D000430189B2FFF715FC39465046FFF711FCD9
:10A9E000314640463A46FBF72DF8A4F57A742846DE
:10A9F00040F2EE31A4B23E4401F0BEFBB4F57A7FE2
:10AA000084BFA4F57A74A7B2A84688BF4FF47A74BD
:10AA1000314628F8054F4846224698BF0027FBF7E5
:10AA200011F8A11C404689B2264401F0A5FB0FB1E4
:10AA30003C46E3E7BDE8F88FF7B51E46FF238DF8E7
:10AA40000730194B00259C68475D63190135042DBB
:10AA50005F72F9D100200D5C2318013004285D736A
:10AA6000F9D10021505C6318013104295874F9D1DF
:10AA700004F115000021FFF7BBFB0022B35C8354F7
:10AA80000132042AFAD12146142242F20100FFF7D2
:10AA900033FF42F201000DF10701FFF70BFF9DF9B3
:10AAA000070003B0F0BD00BFAC2200202DE9F34148
:10AAB0001F46FF238DF807301E4B0646D3F808804B
:10AAC00033680C46013B122B9CBF142333600B6888
:10AAD00008F10900013B122B9CBF14230B60136883
