:020000040800F2
:10500000005000202D9800085D8500085F8500088D
:1050100061850008638500086585000800000000C0
:10502000000000000000000000000000678500088C
:1050300069850008000000006B8500086D85000888
:105040007D9800087D9800087D98000889870008F1
:105050007D9800087D980008C1850008E18500085A
:105060000186000835860008558600087D980008EE
:105070007D9800087D9800087D980008E587000865
:105080007D9800087D980008718500087D980008CB
:10509000E98700087D9800087D980008758600085B
:1050A0007D9800087D9800087D9800083D870008DD
:1050B0007D9800087D9800087D980008918500087B
:1050C000A18500087D9800087D980008B18500083A
:1050D0007D9800087D980008818500087D9800086B
:1050E000C5860008A58700087D980008000000001C
:1050F00000000000000000000000000000000000B0
:0C51000000000000000000005FF808F153
:1051100081F0004102E000BF83F0004330B54FEA68
:1051200041044FEA430594EA050F08BF90EA020FD5
:105130001FBF54EA000C55EA020C7FEA645C7FEA68
:10514000655C00F0E2804FEA5454D4EB5555B8BF8B
:105150006D420CDD2C4480EA020281EA030382EAFC
:10516000000083EA010180EA020281EA0303362D8E
:1051700088BF30BD11F0004F4FEA01314FF4801C61
:105180004CEA113102D0404261EB410113F0004F73
:105190004FEA03334CEA133302D0524263EB43032A
:1051A00094EA050F00F0A780A4F10104D5F1200EC8
:1051B0000DDB02FA0EFC22FA05F2801841F1000123
:1051C00003FA0EF2801843FA05F359410EE0A5F1F7
:1051D00020050EF1200E012A03FA0EFC28BF4CF028
:1051E000020C43FA05F3C01851EBE37101F00045DE
:1051F00007D54FF0000EDCF1000C7EEB00006EEBEB
:105200000101B1F5801F1BD3B1F5001F0CD3490874
:105210005FEA30004FEA3C0C04F101044FEA4452CB
:1052200012F5800F80F09A80BCF1004F08BF5FEA52
:10523000500C50F1000041EB045141EA050130BD32
:105240005FEA4C0C404141EB010111F4801FA4F1D5
:105250000104E9D191F0000F04BF01460020B1FA2A
:1052600081F308BF2033A3F10B03B3F120020CDA62
:105270000C3208DD02F1140CC2F10C0201FA0CF040
:1052800021FA02F10CE002F11402D8BFC2F1200CA5
:1052900001FA02F120FA0CFCDCBF41EA0C0190405B
:1052A000E41AA2BF01EB0451294330BD6FEA0404A4
:1052B0001F3C1CDA0C340EDC04F11404C4F120028F
:1052C00020FA04F001FA02F340EA030021FA04F3A1
:1052D00045EA030130BDC4F10C04C4F1200220FAF8
:1052E00002F001FA04F340EA0300294630BD21FA36
:1052F00004F0294630BD94F0000F83F4801306BFFC
:1053000081F480110134013D4EE77FEA645C18BFEF
:105310007FEA655C29D094EA050F08BF90EA020F86
:1053200005D054EA000C04BF1946104630BD91EA7E
:10533000030F1EBF0021002030BD5FEA545C05D181
:105340004000494128BF41F0004130BD14F58004C0
:105350003CBF01F5801130BD01F0004545F0FE4134
:1053600041F470014FF0000030BD7FEA645C1ABF69
:10537000194610467FEA655C1CBF0B46024650EAA0
:10538000013406BF52EA033591EA030F41F40021CC
:1053900030BD00BF90F0000F04BF0021704730B552
:1053A0004FF4806404F132044FF000054FF0000127
:1053B00050E700BF90F0000F04BF0021704730B5E8
:1053C0004FF4806404F1320410F0004548BF4042BD
:1053D0004FF000013EE700BF42004FEAE2014FEA12
:1053E00031014FEA02701FBF12F07F4393F07F4FED
:1053F00081F06051704792F0000F14BF93F07F4F1F
:10540000704730B54FF4607401F0004521F0004161
:1054100020E700BF50EA010208BF704730B54FF0E7
:1054200000050AE050EA010208BF704730B511F0EC
:10543000004502D5404261EB41014FF4806404F124
:1054400032045FEA915C3FF4DCAE4FF003025FEAA6
:10545000DC0C18BF03325FEADC0C18BF033202EB2E
:10546000DC02C2F1200300FA03FC20FA02F001FA88
:1054700003FE40EA0E0021FA02F11444C1E600BF27
:1054800070B54FF0FF0C4CF4E06C1CEA11541DBFDA
:105490001CEA135594EA0C0F95EA0C0F00F0DEF8A5
:1054A0002C4481EA030621EA4C5123EA4C5350EA8A
:1054B000013518BF52EA033541F4801143F48013DB
:1054C00038D0A0FB02CE4FF00005E1FB02E506F06C
:1054D0000042E0FB03E54FF00006E1FB03569CF0C1
:1054E000000F18BF4EF0010EA4F1FF04B6F5007FC7
:1054F00064F5407404D25FEA4E0E6D4146EB060639
:1055000042EAC62141EA55514FEAC52040EA5E50C1
:105510004FEACE2EB4F1FD0C88BFBCF5E06F1ED86B
:10552000BEF1004F08BF5FEA500E50F1000041EBA2
:10553000045170BD06F0004646EA010140EA02004F
:1055400081EA0301B4EB5C04C2BFD4EB0C0541EA71
:10555000045170BD41F480114FF0000E013C00F386
:10556000AB8014F1360FDEBF002001F0004170BDAA
:10557000C4F10004203C35DA0C341BDC04F11404C3
:10558000C4F1200500FA05F320FA04F001FA05F24F
:1055900040EA020001F0004221F0004110EBD3701C
:1055A00021FA04F642EB06015EEA430E08BF20EA48
:1055B000D37070BDC4F10C04C4F1200500FA04F3EB
:1055C00020FA05F001FA04F240EA020001F000417D
:1055D00010EBD37041F100015EEA430E08BF20EAF0
:1055E000D37070BDC4F1200500FA05F24EEA020E38
:1055F00020FA04F301FA05F243EA020321FA04F067
:1056000001F0004121FA04F220EA020000EBD3701D
:105610005EEA430E08BF20EAD37070BD94F0000F1D
:105620000FD101F00046400041EB010111F4801F51
:1056300008BF013CF7D041EA060195F0000F18BF02
:10564000704703F00046520043EB030313F4801F3E
:1056500008BF013DF7D043EA0603704794EA0C0FF8
:105660000CEA135518BF95EA0C0F0CD050EA41060E
:1056700018BF52EA4306D1D181EA030101F000418B
:105680004FF0000070BD50EA410606BF10461946B3
:1056900052EA430619D094EA0C0F02D150EA0136BF
:1056A00013D195EA0C0F05D152EA03361CBF104600
:1056B00019460AD181EA030101F0004141F0FE419F
:1056C00041F470014FF0000070BD41F0FE4141F423
:1056D000780170BD70B54FF0FF0C4CF4E06C1CEA23
:1056E00011541DBF1CEA135594EA0C0F95EA0C0FD8
:1056F00000F0A7F8A4EB050481EA030E52EA033593
:105700004FEA013100F088804FEA03334FF08055B3
:1057100045EA131343EA12634FEA022245EA1115E0
:1057200045EA10654FEA00260EF000419D4208BF91
:10573000964244F1FD0404F5407402D25B084FEA3E
:105740003202B61A65EB03055B084FEA32024FF4EA
:1057500080104FF4002CB6EB020E75EB030E22BF47
:10576000B61A754640EA0C005B084FEA3202B6EB07
:10577000020E75EB030E22BFB61A754640EA5C00B6
:105780005B084FEA3202B6EB020E75EB030E22BF46
:10579000B61A754640EA9C005B084FEA3202B6EB47
:1057A000020E75EB030E22BFB61A754640EADC0006
:1057B00055EA060E18D04FEA051545EA16754FEA68
:1057C00006164FEAC30343EA52734FEAC2025FEA86
:1057D0001C1CC0D111F4801F0BD141EA00014FF015
:1057E00000004FF0004CB6E711F4801F04BF0143E6
:1057F0000020B4F1FD0C88BFBCF5E06F3FF6AFAE02
:10580000B5EB030C04BFB6EB020C5FEA500C50F191
:10581000000041EB045170BD0EF0004E4EEA113114
:1058200014EB5C04C2BFD4EB0C0541EA045170BD1B
:1058300041F480114FF0000E013C90E645EA060E5F
:105840008DE60CEA135594EA0C0F08BF95EA0C0F8D
:105850003FF43BAF94EA0C0F0AD150EA01347FF4D5
:1058600034AF95EA0C0F7FF425AF104619462CE7AC
:1058700095EA0C0F06D152EA03353FF4FDAE10460F
:10588000194622E750EA410618BF52EA43067FF460
:10589000C5AE50EA41047FF40DAF52EA43057FF4F0
:1058A000EBAE12E74FF0FF3C06E000BF4FF0010CFB
:1058B00002E000BF4FF0010C4DF804CD4FEA410C5F
:1058C0007FEA6C5C4FEA430C18BF7FEA6C5C1BD02C
:1058D00001B050EA410C0CBF52EA430C91EA030FAD
:1058E00002BF90EA020F0020704710F1000F91EA0A
:1058F000030F58BF994208BF90422CBFD8176FEAD8
:10590000E37040F0010070474FEA410C7FEA6C5CA5
:1059100002D150EA013C07D14FEA430C7FEA6C5CAC
:10592000D6D152EA033CD3D05DF8040B704700BFD8
:105930008446104662468C461946634600E000BF26
:1059400001B5FFF7B7FF002848BF10F1000F01BDF8
:105950004DF808EDFFF7F4FF0CBF012000205DF8C3
:1059600008FB00BF4DF808EDFFF7EAFF34BF012048
:1059700000205DF808FB00BF4DF808EDFFF7E0FFE1
:1059800094BF012000205DF808FB00BF4DF808ED32
:10599000FFF7CEFF94BF012000205DF808FB00BF99
:1059A0004DF808EDFFF7C4FF34BF012000205DF87B
:1059B00008FB00BF4FEA410212F5001215D211D5C3
:1059C0006FF47873B3EB625212D94FEAC12343F0FC
:1059D000004343EA505311F0004F23FA02F018BF7E
:1059E000404270474FF00000704750EA013005D147
:1059F00011F0004008BF6FF0004070474FF000000A
:105A0000704700BF4A0011D212F5001211D20DD515
:105A10006FF47873B3EB62520ED44FEAC12343F0B4
:105A2000004343EA505323FA02F070474FF000005E
:105A3000704750EA013002D14FF0FF3070474FF00D
:105A400000007047844641EA000313F0030349D184
:105A5000403A23D30B6803604B6843608B688360D4
:105A6000CB68C3600B6903614B6943618B698361D8
:105A7000CB69C3610B6A03624B6A43628B6A8362C0
:105A8000CB6AC3620B6B03634B6B43638B6B8363A8
:105A9000CB6BC36340304031403ADBD230320BD362
:105AA0000B6803604B6843608B688360CB68C3609E
:105AB00010301031103AF3D20C3205D351F8043BB8
:105AC00040F8043B043AF9D2043208D0D2071CBF94
:105AD00011F8013B00F8013B01D30B8803806046BD
:105AE000704700BF082A13D38B07B1D010F003030F
:105AF000AED0C3F10403D21ADB071CBF11F8013B7F
:105B000000F8013BA4D331F8023B20F8023B9FE7A9
:105B1000043AD9D3013A11F8013B00F8013BF9D21C
:105B20000B7803704B7843708B78837060467047B6
:105B30004BB942B9002908BF002802D04FF0FF310D
:105B4000084600F03BB882B0EC462DE9005000F06A
:105B50001DF8DDF804E002B00CBC70472DE9704F71
:105B6000089E14461D468046894600F029F804FB2D
:105B700001F3A4FB00AB00FB05329344B8EB0A0829
:105B800069EB0B09C6E90089BDE8708F2DE9704FFC
:105B9000089E14461D468046894600F061F900FBC8
:105BA00005F5A0FB04AB04FB0154A344B8EB0A08C1
:105BB00069EB0B09C6E90089BDE8708F704700BF2B
:105BC00000292DE9F00FC0F2A1800024002BC0F2C3
:105BD0009880154606460F46002B3FD18A4258D979
:105BE000B2FA82F34BB1C3F1200201FA03F720FAB3
:105BF00002F29D4000FA03F61743290CB7FBF1F2BD
:105C000001FB1277A8B200FB02F34FEA164C4CEAF4
:105C10000747BB4209D97F1902F1FF3C80F005819B
:105C2000BB4240F20281023A2F44FF1AB7FBF1F364
:105C300001FB137100FB03F0B6B246EA0141884252
:105C400008D9491903F1FF3780F0F180884240F20A
:105C5000EE80023B43EA0242002303E08B420AD972
:105C600000231A461046194614B1404261EB410127
:105C7000BDE8F00F7047B3FA83F8B8F1000F40F0B9
:105C800088808B4202D3824200F2E280002301220C
:105C9000E8E712B90123B3FBF2F5B5FA85F2002A61
:105CA0003AD17F1B280C1FFA85FC0123B7FBF0F1CA
:105CB00000FB11770CFB01F24FEA164848EA074750
:105CC000BA4207D97F1901F1FF3802D2BA4200F275
:105CD000C4804146BF1AB7FBF0F200FB12700CFB08
:105CE00002FCB6B246EA0040844507D9401902F1E9
:105CF000FF3702D2844500F2AE803A4642EA0142C2
:105D0000B0E7E443524263EB430362E7404261EB96
:105D100041014FF0FF3459E79540C2F1200927FABD
:105D200009F126FA09F99740280CB1FBF0F800FBBD
:105D300018111FFA85FC0CFB08F349EA07094FEA22
:105D4000194747EA01418B4206FA02F608D9491978
:105D500008F1FF327AD28B4278D9A8F1020829449F
:105D6000C91AB1FBF0F300FB13170CFB03F21FFA87
:105D700089F949EA0747BA4207D97F1903F1FF3188
:105D800060D2BA425ED9023B2F44BF1A43EA0843AD
:105D90008CE7C8F1200225FA02F103FA08FC27FA81
:105DA00002F320FA02F207FA08F741EA0C0C4FEA74
:105DB0001C49B3FBF9F109FB11331FFA8CFA0AFBFA
:105DC00001FB17433A0C42EA03439B4505FA08F0EE
:105DD00008D913EB0C0301F1FF3235D29B4533D9BF
:105DE00002396344CBEB0303B3FBF9F209FB123333
:105DF0000AFB02FABFB247EA0347BA4508D917EBD4
:105E00000C0702F1FF331BD2BA4519D9023A674495
:105E100042EA0145A5FB0001CAEB07078F424FF09C
:105E200000030AD305D02A461CE76246FDE63B463E
:105E300010E706FA08F68642F5D26A1E002311E73B
:105E40001A46E5E70B46A0E71146CBE7904687E701
:105E50004346424606E7023A50E702392F4439E703
:105E60002DE9F00F144605460E46002B43D18A4219
:105E700053D9B2FA82F757B1C7F1200620FA06F6D5
:105E800001FA07F302FA07F400FA07F51E43210CA2
:105E9000B6FBF1F201FB1266A0B200FB02F32F0C7D
:105EA00047EA0646B34209D9361902F1FF3780F0B6
:105EB000FD80B34240F2FA80023A2644F61AB6FB5D
:105EC000F1F301FB136100FB03F0ADB245EA0141C0
:105ED000884208D9091903F1FF3680F0E980884229
:105EE00040F2E680023B43EA024200231046194694
:105EF000BDE8F00F70478B424CD8B3FA83F6002E02
:105F00004FD18B4202D3824200F2DD80BDE8F00F18
:105F10000023012210461946704712B90124B4FB30
:105F2000F2F4B4FA84F2002A40F08280091B260CB5
:105F3000A7B20123B1FBF6F006FB101107FB00F23C
:105F40004FEA154C4CEA01418A4207D9091900F180
:105F5000FF3C02D28A4200F2C8806046891AB1FB37
:105F6000F6F206FB121107FB02F7ADB245EA014556
:105F7000AF4208D92C1902F1FF3180F09B80A74273
:105F800040F29880023A42EA004210461946BDE8C3
:105F9000F00F704700231A4610461946BDE8F00F6F
:105FA0007047C6F1200522FA05F703FA06F421FA34
:105FB00005F301FA06FB20FA05F53C434FEA1448C5
:105FC000B3FBF8FC08FB1C331FFA84F909FB0CFA3D
:105FD00045EA0B0B4FEA1B4545EA03439A4502FA93
:105FE00006F204D91B190CF1FF356FD3AC46CAEB8E
:105FF0000303B3FBF8F508FB153309FB05F91FFA9A
:106000008BFB4BEA0347B94504D93F1905F1FF3330
:1060100062D31D4645EA0C4CACFB0223C9EB0707D3
:106020009F424FF000054AD346D062462B465DE7BB
:106030009440C2F1200921FA09FC914020FA09F9A3
:10604000260CBCFBF6F806FB18CCA7B207FB08F33E
:1060500049EA01094FEA194141EA0C4C634500FA4B
:1060600002F509D91CEB040C08F1FF323BD2634561
:1060700039D9A8F10208A444C3EB0C0CBCFBF6F31D
:1060800006FB13C107FB03F21FFA89F949EA014134
:106090008A4207D9091903F1FF3022D28A4220D956
:1060A000023B2144891A43EA084343E73A4605E79D
:1060B000334618E70A4666E7B0409042B5D20CF185
:1060C000FF32002312E7334632460FE79A458DD957
:1060D000ACF1020C23448AE7B9459AD9023D274422
:1060E00098E70346DEE79046C6E70238214435E7E5
:1060F00010B50378A3F13002D1B2092901D81346B3
:106100000CE0A3F14102D2B2052A01D8373B05E0E9
:10611000A3F16102D2B2052A46D8573B42781B014F
:10612000A2F13001CCB2092C01D8CA180DE0A2F1BD
:106130004101C9B2052901D8373A05E0A2F1610150
:10614000C9B2052930D8573A1A4483781201A3F10D
:106150003001CCB2092C01D80A440DE0A3F1410171
:10616000C9B2052901D8373B05E0A3F16101C9B2E5
:10617000052919D8573B1A44C3781201A3F13000FE
:10618000C1B209290ED9A3F14101C9B2052902D82A
:10619000A3F1370006E0A3F16101C9B2052903D8D4
:1061A000A3F15700104410BD002010BD2DE9F041AF
:1061B0000B780746222B01F1010602D1334600205D
:1061C00008E05B4B19600020BDE8F0814AB15C2A11
:1061D00005D102331A780130222AF7D101E00133C8
:1061E000F8E7544B1B68984780460028EBD00446DC
:1061F0003378222B07D1002323703378222B40F0F1
:106200008F8001368CE0002BF5D05C2B06F101016C
:1062100003D023700E460134EAE773786E2B14D056
:1062200007D8622B04F101020BD0662B74D10C232A
:1062300008E0742B0BD0752B0BD0722B6CD10D2377
:106240006AE008232370144668E00A2364E0092307
:1062500062E0B01CFFF74CFFA0F55C43B3F5806F24
:10626000054606F1050159D3002857D0A0F558433B
:10627000B3F5806F19D2B3795C2B4FD1F379752BBD
:106280004CD106F10800FFF733FFA0F55C43B3F5EE
:10629000806F06F10B0141D2C0F30900C5F3090577
:1062A00040EA852505F5803504E07F2808D9B0F55A
:1062B000006F07D3B5F5803F34BF0322042202E00C
:1062C000012200E00222032A04EB02030CD0042A7C
:1062D00002D0022A18D10FE005F03F0060F07F00E5
:1062E00003F8010CAD09E31C05F03F0060F07F00EE
:1062F00003F8010CAD09013B05F03F0060F07F00A1
:1063000003F8010CAD09013B0B485C1E805C144492
:10631000054303F8015C01E0237001344E1C67E77C
:106320000423C7F81080FB603046BDE8F08100BF51
:106330005C0B00200000002044330108034618468F
:106340002BB102780133013AD2B21F2AF7D9704734
:10635000064B10B51B6828209847044618B1002149
:10636000282209F0E1FC204610BD00BF00000020FB
:106370002DE9F74F814688460846002900F0A7819D
:10638000B14904220AF084F818B90223C9F80C3084
:1063900015E04046AD4905220AF07AF820B9C9F85F
:1063A0000C0008F1050092E14046A94904220AF0D8
:1063B0006FF838B90123C9F80C30C9F8143008F166
:1063C000040084E198F80030222B06D1484641466B
:1063D00003B0BDE8F04FFFF7E9BE2D2B08D0A3F1C5
:1063E0003002D2B2092A00F2B9800022994B03E0B0
:1063F000994B08F101080022CDE9002398F80030FC
:106400000024302B08BF08F1010898F8003000255F
:10641000313BDBB2082B1AD80022904B204629468C
:10642000FFF72EF8044618F8010B0D463038FEF73A
:10643000C1FF0B46024629462046FEF76FFE98F83C
:1064400000300446303BDBB20D46092BE3E798F8F9
:1064500000302E2B2ED198F80130303BDBB2092BC7
:1064600028D8C2460026002700227C4B2046294619
:10647000FFF706F80AF1020804461AF8010F0D4664
:106480003038FEF797FF02460B4620462946FEF7B6
:1064900045FE704B04460D46304639460022FEF755
:1064A0003BFE9AF801300646303BDBB2092B0F4623
:1064B000DAD901E00026002798F8003003F0DF0366
:1064C000452B1ED198F801302B2B02D108F1020385
:1064D00003E02D2B04D008F101034FF0010B03E082
:1064E00008F102034FF0FF3B4FF0000A984613F803
:1064F000012B303AD1B2092907D80A2101FB0A2A17
:10650000F4E74FF0010B4FF0000A22462B46DDE97D
:106510000001FEF7B5FF04460BFB0AF00D46FEF73F
:1065200049FF02460B4630463946FEF7F7FD024664
:106530000B460020494907F0A1FE0B4602462946BA
:106540002046FEF79DFFC9E90601FFF733FA032352
:10655000C9F81400C9F80C304046B8E05B2B3FD1B5
:106560000523C9F80C3008F10100FFF7E7FE0378B6
:1065700004465D2B2FD0FFF7EBFE0546C9F8080057
:10658000002800F0A3802046FFF7D8FE01462846E9
:10659000FFF7EEFEFFF7D2FE0446002800F09680DB
:1065A00023782C2B15D1FFF7D3FE0646002800F0E8
:1065B0008D8028604560601CFFF7C0FE01463046B4
:1065C000FFF7D6FEFFF7BAFE044600287ED0354618
:1065D000E6E75D2B01D1601C79E0214B1C6075E082
:1065E0007B2B70D10623C9F80C3008F10100FFF7AE
:1065F000A5FE037805467D2B01D1013067E0FFF74A
:10660000A7FE0446C9F8080000285FD02846FFF717
:1066100095FE01462046FFF7C9FDFFF78FFE0028D3
:1066200054D0236900222362226103783A2B3FD1A0
:106630000130FFF783FE01462046FFF799FEFFF782
:106640007DFE0646D0B941E0CA370108CF370108C0
:10665000D53701080000F03F0000F0BF00002440E3
:106660005C0B00200130FFF769FE01462846FFF76A
:106670007FFEFFF763FE064640B32C4633782C2B93
:106680001AD1FFF765FE054600B320604460701C18
:10669000FFF754FE01462846FFF788FDFFF74EFE40
:1066A000A0B12B6900222B622A6103783A2BD9D042
:1066B000084B186010460AE07D2B01D1701C06E0E3
:1066C000044B1E6002E0034BC3F80080002003B0BF
:1066D000BDE8F08F5C0B002070B50446CCB1E368D8
:1066E0002668DB0503D4A06808B1FFF7F5FFE3686F
:1066F000084D13F4807F03D1206908B16B68984777
:10670000206A08B16B68984720466B689847344602
:10671000E4E770BD000000202DE9F84305460E4671
:106720009146FFF715FEDFF854800027C8F8007087
:10673000044600B32846FFF701FE01462046FFF756
:1067400017FE054628B92046FFF7C6FF2846BDE8D4
:10675000F883B9F1000F0CD0FFF7F0FD0378054680
:106760003BB12046FFF7B8FFC8F800503846BDE8F7
:10677000F88306B135602046BDE8F8835C0B002045
:1067800000210A46FFF7C8BF806820B1002902DD5A
:1067900001390068F9E7704738B50C4C05460C49DB
:1067A000204600F0E1FD2946204600F0DDFD2046B0
:1067B000084900F0F6FD084B07201968C1F10101F6
:1067C0001960C9B2BDE8384000F04EBCC41F0020BB
:1067D000E837010824380108600B002010B5044692
:1067E00000F52F7002F06CFC204610BD70B50C4C0B
:1067F0004EF6602362680B4D013292FBF3F103FB0E
:10680000112204F1080630462946626002F00AFEB1
:10681000304629466268BDE8704002F003BE00BF02
:10682000600B00202838010810B5094C04F108005D
:1068300002F04EFE00F05AFCD4F80436C01A642868
:1068400005D9FFF7D3FF00F051FCC4F8040610BDD2
:10685000600B002013B50D4C00210B4600910A4639
:1068600004F5C16000F024FD00F040FC0834C4F8D9
:10687000080607492046074A02F0E2FC0649074A93
:10688000204602B0BDE8104007F0CABC600B0020F3
:106890003638010845380108DD670008F812002085
:1068A00070B5234C4FF41651204601F0C3FA4FF453
:1068B000FA6000F021FC204601F0A2FA4FF4FA60E1
:1068C00000F01AFC1B4D1C49204600F06AFD4FF4F5
:1068D000FA6000F011FC05F108061849204600F0A6
:1068E00060FD174A3046174902F000FD3046164950
:1068F00002F070FD1549204600F053FD06200121ED
:1069000000F038FB0620012100F0AEFB072000213B
:1069100000F030FB0720012100F0A6FB0C492046C7
:1069200000F03FFD00F0E2FBC5F8040670BD00BFBB
:10693000C41F0020600B00204A3801086638010897
:10694000996700088E380108080000209E38010869
:10695000C0380108013101EB420291420BD0030F14
:10696000092B94BF3033373301F8013C0023000179
:1069700001F8023BF1E7704710B54FF000604FF4AB
:10698000A04106F079F80124284B294821461C70C3
:1069900006F084FA05F0A2FB05F08AF821464020B3
:1069A00006F034FB6FF07F4005F0FAF9E72005F0C0
:1069B00073FA204B1C7005F0BBF87D2006F04AFBF3
:1069C00018B11D4B1C7006F059FB40F6B83005F0AD
:1069D00018F905F053FE05F0F3FE184801F0BAFB74
:1069E000174B01221A7001F041FC164B1B781BB9A2
:1069F000154B1B78002BF6D0144B1B78002BF2D1D3
:106A00000D4B1B78002BEED10F4C2378012B01D0BE
:106A10000F4B33B90F4B0BB1FFF706FF00F08EFAA7
:106A2000E1E7FFF73DFF01232370F3E7BE200020DD
:106A300000043000EF1F0020782A00206F6E00084D
:106A400007200020ED1F002078110020EE1F0020FD
:106A5000A1680008296800082DE9F041644D6B68C1
:106A600001336B60634B1A6812B11A68013A1A60FD
:106A7000614B624E1B7833B1614B1B78F3B1614BB4
:106A8000002B3CD11AE0604C236813B12368013B12
:106A900013E0337893B95D4B1B787BB95C4B1B7863
:106AA00063B9DFF898815B4F98F8003063B3E72053
:106AB00005F05EFA3B782BB314232360564B1B780A
:106AC00003F0FF0263B1A9684EF65F229142484B82
:106AD00002D901221A7304E09A6801329A6000E038
:106AE000AA6033784D4C03F0FF07002B34D13846B1
:106AF00005F03EFB40F6B73398421CD82CE000F07E
:106B0000B7F9DBE70123D8E73B7853B14FF6FF70C5
:106B100005F046F9E72005F0BFF9012388F80030B9
:106B2000CCE7E72005F0DEF93D4B1B780BB13223B3
:106B3000C3E76423C1E7384605F022FB2378C3B9D5
:106B4000384B1B782BB1364B324A1B7812781A42DD
:106B500048D0012333700CE0002005F009FB41F61A
:106B60005733984205D9002005F00AFB2E4B01222D
:106B70001A702378A3B92A691D4B1AB11A69013A10
:106B80001A610DE0214A127852B1596947F22F5229
:106B9000914202D901221A7302E05A6901325A6104
:106BA000224B1A68B2F57A7F04D300221A6006F0ED
:106BB000CDF902E01A6801321A602B7B5BB1BFF39A
:106BC0004F8F1B4A1B4BD16801F4E0610B43D3602C
:106BD000BFF34F8FFEE7184B1B783BB1BDE8F04188
:106BE00000F09EB9144B01221A70B2E7BDE8F081A3
:106BF00078110020802A0020A8200020EA1F002011
:106C00002C150020716E00087C2A0020EE1F002049
:106C1000F01F0020ED1F002014210020062000207E
:106C2000EC1F0020EB1F0020FB1F0020842A002007
:106C300000ED00E00400FA05FA1F0020EF1F00201D
:106C400008B5094B186005F0BFFC002005F008FDF1
:106C5000064804F055FF05F0CFFC05F0EDFCBDE85B
:106C6000084007F097B800BFD8010020A0860100B7
:106C7000074B1B68052B08D1064B1A7E012A04D14D
:106C8000987E1B7FC01AC0B270470020704700BFBB
:106C9000D8200020781100200D4B10B51B68052B63
:106CA00013D10C4C237E012B0FD1628BA38BD31AF3
:106CB000012B04D100230320237607F0C2F9A38B14
:106CC0005A1CA2831C44A07F10BD4FF0FF3010BDA2
:106CD000D820002078110020084B1B68052B0CD110
:106CE000074B1A6E99180132B2F5807F1A6608BFF9
:106CF000002281F8640008BF1A667047D82000207F
:106D000078110020F8B5234B93F86421012A3FD075
:106D1000D3F86821196EB2F5807F04BF0022C3F852
:106D20006821D3F868411B4A8C4203D1002382F8C2
:106D30006431F8BD8CBFC4F58071C4EB0101C2F8A9
:106D40006C11D3F86C61134D402EA2B207D94034B8
:106D5000403EC5F86841C5F86C61402706E0344400
:106D60000021B7B2C5F86841C5F86C110A48012482
:106D70001044C0213A4683F8644107F0DDF820460C
:106D8000394607F0E1F92046BDE8F84007F046B97A
:106D9000F8BD00BF78110020DC110020094B10B5B0
:106DA00093E8140008331B68D0180AD0064908225B
:106DB000FFF7D0FD204605490422BDE81040FFF74B
:106DC000C9BD10BDE8F7FF1F870100209701002013
:106DD00007B5002100910A460B46034800F068FA07
:106DE00003B05DF804FB00BFE812002038B504468C
:106DF0000D46AC4203D254F8043B9847F9E738BD3E
:106E000008B507480749FFF7F1FF07480749FFF7AB
:106E1000EDFFBDE8084006480649FFF7E7BF00BFA1
:106E2000904001089040010890400108FC40010892
:106E3000FC400108FC400108FEE70000054A08B5D7
:106E4000136818441060044A904201D908F0DAFA35
:106E5000184608BD10000020004800204FF0FF3009
:106E6000704701207047002070470120704770472D
:106E700038B5114CD4F8445B2DB1D4F8443B013BF8
:106E8000C4F8443B38BDD4F8483B0C4A52F82300C0
:106E900004F0AEFFE72004F0FFFF6423084AC4F8C3
:106EA000443BD4F8483B126801339342C4F8483B52
:106EB000A8BFC4F8485B38BDFC1200204C33010861
:106EC0001400002030B5022085B00121062203F015
:106ED000EFFD041E1BDB0223ADF8003000238DF80C
:106EE000023035238DF803306946082310228DF8CF
:106EF00004308DF805308DF806308DF8073003F03A
:106F0000E9FE0546204603F001FE284601E04FF069
:106F1000FF3005B030BD01207047002070470000F1
:106F2000044B012200215A801980D986024B1A7025
:106F3000704700BF0C220020FA1F0020084B0022DF
:106F4000D3F83C1203F510738A4208DA93F8500024
:106F500010B1002083F8500001325133F4E770473C
:106F6000FC12002003F0B6BE014807F043B900BF91
:106F70003016002014282DE9F34104460E4669D846
:106F8000FF2967D000F094FA20B1A4F10D039BB261
:106F9000022B5FD900F02EF908B1012C5AD900F06C
:106FA00015FF20B1A4F112039BB2012B52D92B4D36
:106FB00024012B192F59B3F80480294B9F4201D18A
:106FC000042003E0274B9F4203D10820012106F053
:106FD00029F8ADF80480062E38D8DFE806F0040D55
:106FE00013191F28310010238DF8073003238DF863
:106FF00006302C44002328E004238DF807302C446D
:10700000012322E048238DF807302C4402231CE0A2
:1070100028238DF807302C44032316E018238DF81D
:10702000073003238DF806302C4404230DE01C2385
:107030008DF8073003238DF806302C44052304E037
:1070400000238DF807302C440623A373384601A98A
:1070500005F0CCFE02B0BDE8F08100BF18000020B2
:1070600000080140000C01401428F8B505460F4601
:1070700038D81D4E040133199B7B5A1ED2B2022A06
:1070800030D9062B2ED0FF2B2CD000F011FA28B1CE
:10709000A5F10D039BB2022B00D8F8BD00F0AAF8B1
:1070A00010B1012D00D8F8BD00F090FE28B1A5F177
:1070B00012039BB2012B00D8F8BD33199B7B042B24
:1070C00003D128460021FFF755FF012F04D13219C3
:1070D000335992881A61F8BD27B932193359928809
:1070E0005A61F8BDF8BD00BF18000020014B1868B8
:1070F000704700BF7C110020034B1A6810441968C8
:107100008842FCD8704700BF7C11002007B50021E1
:1071100000910A460B46034800F0CAF803B05DF838
:1071200004FB00BF5C1E0020024B18785B78C01A7D
:10713000704700BF641E0020064B5A7819789142B0
:1071400004D99918013288785A7070474FF0FF308F
:10715000704700BF641E0020054B5A781978914291
:1071600002D91344987870474FF0FF30704700BF42
:10717000641E002070470000F8B5094B054693F8DF
:107180002230164653B10C468F18BC4206D02B68ED
:1071900028461B6814F8011B9847F6E73046F8BDEF
:1071A000641E002010B50C4B012293F822408CB1D4
:1071B00093F823401F2C02D94260002010BD93F8A1
:1071C00024001C1884F82510411CC9B283F824102F
:1071D00083F82310104610BD641E00200022426078
:1071E0004FF47A728260014A02607047803301086E
:1071F00070477047014B93F859007047641E002098
:1072000013B5084C0021009104F164000A460B46B6
:1072100000F04EF804F16C0002B0BDE81040FFF73A
:10722000DDBF00BF641E002008B5034B53F82030BB
:1072300003B1984708BD00BFE01E002007B500213C
:1072400000910A460B46034800F032F803B05DF89F
:1072500004FB00BF201F00202DE9F0410024074659
:107260000E4625463B1919790A22304600F001F9ED
:107270002E218046304600F07BF801344044032C38
:107280000544EFD13046F9790A2200F0F2F828449B
:10729000BDE8F08110B5054A0446002140F8042BF2
:1072A000042208F041FD204610BD00BFA0330108B4
:1072B00030B58371034D9DF80C300560017142714A
:1072C000C37130BDA0330108044B054A1A60002287
:1072D0001A715A719A71DA71704700BF281F002025
:1072E000A033010837B5064C0546E178A2786378EB
:1072F00024780094FFF7DCFF284603B030BD00BFC0
:1073000009200020004870472320002007B50021F5
:1073100000910A460B460348FFF7CAFF03B05DF829
:1073200004FB00BF301F0020F8B506460C468F183E
:107330000025BC4207D0336830461B6814F8011B97
:1073400098470544F5E72846F8BD38B505460C468C
:10735000084641B109F06CF82B6802465B68284684
:107360002146984738BD38BD08B5FFF7EEFF08BD88
:1073700008B503681B68984708BD10B50A6804463D
:10738000126808462146904710BD38B50D210546C4
:10739000FFF7EEFF0A2104462846FFF7E9FF2044E5
:1073A00038BD38B50446FFF7D0FF05462046FFF745
:1073B000ECFF284438BD38B50446FFF7DEFF05462C
:1073C0002046FFF7E2FF284438BD30B500238BB0DC
:1073D0008DF82430012A98BF0A220DF12304B1FB55
:1073E000F2F303FB1211CDB2092D94BF30353735BE
:1073F000EDB2214604F801590BB11946EFE7FFF74A
:10740000A4FF0BB030BDF8B506460D46144622B9B0
:107410000368C9B21B689847F8BD0A2A0CD1002935
:107420000BDA2D21FFF7A4FF6942074622463046BA
:10743000FFF7CBFF3844F8BDD2B2BDE8F840FFF704
:10744000C4BFFFF7E0BF38B50446FFF7DCFF0546D1
:107450002046FFF79AFF284438BD10B522B90268CC
:10746000C9B21268904710BDD2B2BDE81040FFF714
:10747000ACBFFFF7F2BF000007B5002100910A463C
:107480000B460348FFF714FF03B05DF804FB00BF91
:107490003C1F002007B5002100910A460B46034817
:1074A000FFF706FF03B05DF804FB00BF441F002098
:1074B000014B587D704700BF4C1F002070470000F3
:1074C00007B5002100910A460B460348FFF7F0FE7E
:1074D00003B05DF804FB00BF641F002007B5002166
:1074E00000910A460B460348FFF7E2FE03B05DF841
:1074F00004FB00BF701F002013B502686946946941
:10750000034A009242690192028BA04702B010BD6B
:10751000A033010813B5026802AB03F8011D5468DB
:1075200019460122A04702B010BD00000B4B1B788A
:10753000012B10D1C369082B0DD0428E5AB1038E96
:107540000F2B08D8591C034493F82030013A0186C8
:107550004286184670474FF0FF307047EB1F0020FF
:10756000036810B59B680446984720B123682046FD
:10757000DB68984710BD4FF0FF3010BD10B50446D2
:10758000236820469B68984720B123682046DB6823
:107590009847F5E710BDC069083818BF012070474B
:1075A0002DE9F04188B0002608AC054608460F4694
:1075B000904644F8146D08F03BFF224681B23846ED
:1075C00003F050FBB04215DD039B04A8DAB2009231
:1075D000190EC3F30742C3F30723FFF769FE2B68B5
:1075E00028469C69054B06A90693059B42460793CE
:1075F000A04700E0304608B0BDE8F081A0330108A4
:1076000038B5134B04461B780846012B154602D0AB
:107610004FF0FF3038BDE369082BF9D0638E002BA3
:10762000F6D0218E0F29F3D8AB4204F1200105D802
:107630001A46FEF707FA638E238602E0FEF702FA87
:107640002586208E0028E3D0638E1B1A638638BD02
:10765000EB1F0020F8B50E4B04461E78F6B2012E43
:1076600011D1C369082B0ED003689B689847054663
:1076700058B9084FE369FB5C3BB1236820469B6A1D
:107680009847E369FD540020F8BD3046F8BD00BFBF
:10769000EB1F0020F21F0020064B1B78012B05D1A9
:1076A000C069082802D0002303F0A8BC4FF0FF30C7
:1076B000704700BFEB1F002030B52B4B87B01B7805
:1076C0000546012B02D1C369082B01D1002049E0F6
:1076D000428E2AB12A8EA88E824201D2801A41E0BF
:1076E0005A0906A901EB8202012003F01F0188401C
:1076F00000248DF80C408DF80D408DF80E408DF86B
:107700000F4052F80C1C0494014342F80C1C41F247
:107710008832059204AA0092581C03A922462346E7
:1077200003F006FBA0421CDDE86906A9420901EB53
:10773000820252F80C2C00F01F0342FA03F313F0FC
:1077400001030CD005F120011022234603F0C8FBF1
:10775000002807DD83B22C866B86AB8602E01846D4
:1077600000E0204607B030BDEB1F002010B5084BED
:1077700004461B78012B0AD1C369082B07D064206B
:10778000FFF7BAFCE06903F0C1F90823E36110BD1B
:10779000EB1F00202DE9FF414B68044643611D4B60
:1077A0000E461F789046FFB2012F22832ED1022071
:1077B0003946062203F07CF90028E0614FF000050D
:1077C00024DB022325866586A586ADF800304FEAC6
:1077D00018238DF80230337969468DF804307379B7
:1077E00010228DF80530B3798DF803808DF80630BE
:1077F000F3798DF80730FFF7B5FBA84204DA0823C8
:10780000E361054B1D7201E0384600E0002004B042
:10781000BDE8F081EB1F0020F21F0020002310B50F
:1078200043604FF47A738360044B044640F8103B86
:10783000FFF730FD0823E361204610BDB033010897
:1078400070B54FF47A738360074B002504460E46EB
:10785000456040F8103BFFF71DFDE6612586658613
:10786000A586204670BD00BFB033010807B50021D2
:1078700000910A460B460348FFF71AFD03B05DF876
:1078800004FB00BF781F002013B5026802AB03F8A9
:10789000011D546819460122A04702B010BD000026
:1078A000F0B51C4B87B019780746C9B201292FD112
:1078B000038902261A0A00248DF80A20304606227F
:1078C000ADF808608DF80B308DF80C408DF80D4048
:1078D0008DF80E408DF80F4003F0EAF8051E17DB17
:1078E000042300934FF6FF713246234603F088FAD3
:1078F000A0420DDB284602A9102203F05FF9A04246
:1079000006DB2846214603F087F9A042A8BFFD60A8
:1079100007B0F0BDEB1F00201030FFF7BDBE000028
:1079200010B500234360054B018108210446036024
:10793000C1601030FFF784FF204610BDF03301080E
:107940004B6870B543608B680D468360CB6800F16F
:107950002006C3604B69044643610B8B0383CB69EC
:10796000C36101F120030FCB86E80F002B8E204668
:1079700023866B8E6386AB8EA38670BD4B6870B515
:1079800043608B680D468360CB6800F12006C360BE
:107990000B4B044603600B4B03614B6943610B8B3C
:1079A0000383CB69C36101F120030FCB86E80F008D
:1079B0002B8E204623866B8E6386AB8EA38670BD8E
:1079C000B0330108A033010830B5CB6895B0082B5F
:1079D00005460C4603D10B6808469B689847154B33
:1079E0001B78012B02D1E368082B10D10821E1603C
:1079F00006A81034FFF724FF06A92046FFF7A0FFD2
:107A000028462146FFF7BAFF284615B030BD10239F
:107A1000019302A9E06801AA03F09EF8831C0146C5
:107A2000F7D0002906A804F11004B4BF0821C9B298
:107A3000E0E700BFEB1F002007B5002100910A46D8
:107A40000B460348FFF734FC03B05DF804FB00BFAE
:107A5000801F002008B503681B6B984708BD000015
:107A6000024A02608A694260704700BFA033010881
:107A7000808B7047B0F8360270474B6802218283D2
:107A8000C18380F82120110AC3F30722836180F8A3
:107A9000223080F82320C3F307421B0E80F82530E4
:107AA000102380F8201080F8242003630120704701
:107AB0000120704713B5026802AB03F8011D54683A
:107AC00019460122A04702B010BDB0F836227AB1A3
:107AD000B0F83432B3F5007F0AD2591C034493F84E
:107AE0003430013AA0F83412A0F836221846704714
:107AF0004FF0FF307047036810B59B680446984705
:107B000020B123682046DB68984710BD4FF0FF3056
:107B100010BD10B50446236820469B68984720B1E5
:107B200023682046DB689847F5E710BD30B504466A
:107B3000022085B00D461122014602F0B9FF00284F
:107B40004FF000031DDB0222ADF800202A0A20744A
:107B50008DF802206582A4F83432A4F83632C0B21F
:107B6000694610228DF803508DF804308DF80530E9
:107B70008DF806308DF8073003F020F8C043C00FB1
:107B800000E0184605B030BD10B50446007C02F098
:107B9000BDFF08B90823237410BD00002DE9F04192
:107BA00088B0002608AC054608460F46904644F8C3
:107BB000146D08F03DFC224681B2384603F052F8BD
:107BC000B04215DD039B04A8DAB20092190EC3F38C
:107BD0000742C3F30723FFF76BFB2B6828461C6A99
:107BE000054B06A90693059B42460793A04700E074
:107BF000304608B0BDE8F081A033010813B5034654
:107C000003F11E04007C00941B6B0193002303F01E
:107C1000FFF902B010BD30B50446007C87B04309BF
:107C200006AA02EB8303012100F01F029140002508
:107C30008DF80C508DF80D508DF80E508DF80F50BA
:107C400053F80C2C01300A4343F80C2C41F28833D2
:107C5000059304AB009303A92A462B46049503F031
:107C600067F8A84234DD207C06AB420903EB8202B0
:107C700052F80C2C00F01F0342FA03F313F0010337
:107C800028D004F11E03009304F13003019304F1A2
:107C900034014FF400722B4603F02DF900281ADD51
:107CA00094F8202094F82130A4F8345243EA0223B7
:107CB000A38394F82230A4F83602237694F8233074
:107CC000637694F82430A37694F82530E37602E0C6
:107CD000284600E0184607B030BD38B50446B4F871
:107CE00036320846154613B94FF0FF3038BDB4F8A8
:107CF0003412B1F5007FF7D2934204F1340107D872
:107D00001A46FDF79FFEB4F83632A4F8343203E089
:107D1000FDF798FEA4F83452B4F834020028E3D0FA
:107D2000B4F836321B1AA4F8363238BD002310B529
:107D300043604FF47A738360044B04460360082366
:107D400003741430FFF7A6FA204610BD083401086A
:107D500007B5002100910A460B460348FFF7A8FA31
:107D600003B05DF804FB00BF881F00204FF0FF3018
:107D70007047704708B52021034805F0ECFB003040
:107D800018BF012008BD00BF0044004008B50248EC
:107D900005F0DDFB08BD00BF0044004008B5054804
:107DA00005F0D1FB0348802105F0D5FB0028F9D070
:107DB000012008BD00440040002242604FF47A7266
:107DC0008260014A0260704750340108014B187C00
:107DD000704700BF901F002013B5084C0021009190
:107DE00004F114000A460B46FFF762FA04F11C0086
:107DF00002B0BDE81040FFF7DFBF00BF901F0020BA
:107E000070474FF0FF307047FEF746BF08B5FEF7EA
:107E10002FFF08BD08B50846FEF75EFF012008BD2C
:107E2000002242604FF47A728260014A0260704719
:107E3000703401080846FEF703BF000013B5074C75
:107E40000021009120460A460B46FFF731FA04F163
:107E5000080002B0BDE81040FFF7E2BFBC1F0020E1
:107E600000230360184670470023036018467047DC
:107E700000230360184670472DE9F0410B7886B067
:107E8000002B0C4614BF90464FF00008064608F041
:107E9000CFFA0746204608F0CBFA182301931E2399
:107EA0000125029302230393059000950494404614
:107EB00031463A46002303F0EFF9034B18705D702A
:107EC00006B0BDE8F08100BFD41F002048F20203D5
:107ED000984210B51ED006DC99284AD048F201031A
:107EE000984213D010BD48F28003984207D0B0F5F5
:107EF000084F42D048F21003984250D128E0284B56
:107F000001229A70DA7000221A7110BD244B0122EE
:107F10005A7110BD224C637953B1224B00224FF4A9
:107F20007F401A7003F03CFFE72003F0B5FF06E046
:107F3000A37913B1013BA37101E00123A3750023D1
:107F40006371E37523766376A376E376237710BDBA
:107F50000A7D134B52B901224FF47F40DA7503F0CA
:107F60001FFFBDE81040E72003F096BF0022DA753E
:107F700010BD0B4B01225A7710BD0A78072A0ED884
:107F8000074B01219818817707480068824206D183
:107F900000229A76DA765A761A7683F8261010BD81
:107FA000D41F0020A8200020301500201FB54FF45A
:107FB00061504FF461610A223C238DE80F0068464E
:107FC00001A902AA03AB02F0B9F805B05DF804FB01
:107FD0001FB50023009301930293039301A8694600
:107FE00002AA03AB02F070F805B05DF804FB0000D4
:107FF00030B5524D00249FB0FF20AC70EC706C7017
:108000006C71EC756C772C766C76AC76EC7603F054
:10801000C7FEE72003F040FF21462246204603F03A
:1080200017F92B46012103F8074F0E200A4602F0EC
:108030000BF96B79012B05D1642003F055FD01F09C
:1080400093FDF6E710210C2002F04AF93C4802F0BB
:1080500007FD3C4803F070FA012003F051FA68462E
:10806000394900F0A3FDAB786A78344C1A431CD12F
:1080700094F82730002B57D0FF2003F0F3F90028A5
:1080800052D11A24013C06D0E72003F02BFF322006
:1080900003F02AFDF6E70E20012122462B4BAC719E
:1080A00002F0D2F885F82740DDE7E72003F0F4FE80
:1080B000A31D0E200121002202F098F8A37813B12D
:1080C00003F05AFA20702B7801210133AB710022A2
:1080D0001E4B0E2002F0B8F80020012401460122B8
:1080E00003F0B6F821462246194B0E20EC7102F03F
:1080F000ABF803F031F8642003F0F6FC002002F046
:10810000E1FF48F2442085F8284003F0C7F94FF416
:108110007F4003F045FEE72003F0BEFEFFF746FF79
:108120000023AB751FB030BDE72003F0DBFEFA2063
:1081300003F0DAFC684600F09DFD94E7D41F0020B0
:10814000883401086C010020797E0008DA1F0020C5
:10815000DB1F0020F0B5394C85B0E06204F062F915
:1081600004F0A2F8364B374A0093374B3749019356
:10817000374B38480293384B00250393374B02F0B6
:108180008DFF642003F0B0FC002002F09BFF012370
:1081900048F24420E57684F8283003F07FF9304B2C
:1081A000A61D1A881F46012A06D00E2010212A4635
:1081B000334602F01BF8A0B1FF2003F053F9102161
:1081C0000E2002F08DF80021002575540131102990
:1081D000FAD10E202A46234B02F036F83D8004F0F7
:1081E0006FFA2379154D93B9AB7913B90123AB75A8
:1081F0000DE0E87958B90146012203F029F8012180
:108200002B4603F8071F0E200A4602F01DF82379BB
:1082100063B90A4B9B7D4BB1134802F047F8FFF757
:10822000D7FE05B0BDE8F040FFF7C0BE4FF47F4079
:1082300003F0B6FDE72003F02FFEEDE7D41F00208A
:1082400061C30008697E000875C30008617E0008EC
:10825000E1C30008CD7E000809C40008717E000853
:10826000BA020020DA1F0020042000202DE9F3418B
:10827000A94C94F82630002B40F0C58094F8323099
:10828000002B40F0C08094F8283003F0FF0023B9A1
:1082900002F018FF012384F82830A37D9E4E13B10D
:1082A000FFF7A6FE07E033792BB1F37D03F0FF055E
:1082B000002B00F0D780E278974B012A13D1DA7DAA
:1082C000012A10D15B79012B0DD10325934808F0C9
:1082D000AFF8013D82B29149012002F0A5FE15F0F0
:1082E000FF05F3D1E57094F833308B4D43B92B7E05
:1082F000002B40F0CE806B7E002B40F0CA8008E15E
:10830000874B1A681E46002A40F00381EB7D93B329
:1083100095F832307BBB2B7E002B00F0CB802AE01F
:108320002B4603F8091F0E200121032201F08CFFC8
:108330004FF6FF7003F034FDE72003F0ADFDFEF7CC
:10834000EAFD002880F2DF8094F82630724D002B81
:1083500040F0DF80FEF7B6FD0028B4BF0223032300
:108360002B77237F0E20637201216E4B032201F0D5
:108370006BFF00232376237E674D002B00F0C9801E
:108380006B7E3BBBFEF76FFD00281DD002DA4FF479
:108390007F0007E0012801D1634803E0022803D1F0
:1083A0004FF0FF1003F0FCFCE72003F075FD94F89C
:1083B000343047F230520133DBB284F8343094F871
:1083C00034305343336005E001236B76574B85F817
:1083D00034001860FEF749FD002840F09A80544BA5
:1083E0001B780BB103F02CFD0023A376E3766376B4
:1083F00023764E4B1B68002B00F08B80464B0122EE
:1084000083F8262085E094F82830002B3FF445AF10
:10841000474B1B780BB103F013FD0025284665710F
:10842000E57584F8265084F8285025766576A5767B
:10843000E576257703F0E8FF642003F055FBA37D84
:1084400043B1284602F03EFE334B012283F8282038
:10845000FFF7CEFD4FF47F4003F0A2FCE72003F0CE
:108460001BFD1AE729462A46284602F0F1FE31484C
:1084700007F0DEFF304F8046384607F0D9FF0097FF
:108480000190791F032042462B4602F07BFE357196
:1084900011E7FEF742FD00234FF47F40A376E37619
:1084A0006376237603F07CFCE72002B0BDE8F04160
:1084B00003F0F2BC642003F017FB05F1350001F076
:1084C00083FE2B7F002B3FF433AF4FF47F0003F08C
:1084D00067FC227F104D02F0FF01002A3FF420AF1D
:1084E000E72003F0D9FC4FF4FA7003F0FDFAE7201F
:1084F00003F0E0FC4FF4FA7003F0F6FA2B7F013B37
:10850000DBB22B77E5E7012323760C4B00221A60C0
:1085100031E702B0BDE8F081D41F00206F010020D8
:1085200088110020DD1F00200060FF00F0120020F5
:10853000A8200020760100207B010020F4120020FA
:1085400007B5002100910A460B460348FEF7B0FE2E
:1085500003B05DF804FB00BF442000207047FEE735
:10856000FEE7FEE7FEE7704770477047FEF774BA14
:1085700008B5024B0BB1AFF3008008BD000000004E
:1085800008B5024B0BB1AFF3008008BD000000003E
:1085900008B5024B0BB1FEF72BFE08BDF1710008C8
:1085A00008B5024B0BB1FEF724FE08BDF3710008BD
:1085B00008B5024B0BB1FEF781FF08BDBD74000882
:1085C00008B5012004F084FB38B1012004F08EFBD3
:1085D000024B13B10020FEF727FE08BD29720008E8
:1085E00008B5022004F074FB38B1022004F07EFBD1
:1085F000024B13B10120FEF717FE08BD29720008D7
:1086000008B5042004F064FB78B1042004F06EFB8C
:108610000020064B0146188003F0ECFCBDE8084042
:1086200003481021012204F046BF08BDBA200020F3
:10863000002C014008B5082004F04AFB38B108209E
:1086400004F054FB024B13B10320FEF7EDFD08BD0F
:108650002972000808B5102004F03AFB38B1102048
:1086600004F044FB024B13B10420FEF7DDFD08BD0E
:108670002972000808B5202004F02AFB38B1202018
:1086800004F034FB0E4B13B10520FEF7CDFD402066
:1086900004F01EFB38B1402004F028FB084B13B156
:1086A0000620FEF7C1FD802004F012FB38B18020C7
:1086B00004F01CFB024B13B10720FEF7B5FD08BD0B
:1086C0002972000808B54FF4005004F001FB40B1D6
:1086D0004FF4005004F00AFB174B13B10D20FEF7C6
:1086E000A3FD4FF4804004F0F3FA40B14FF4804012
:1086F00004F0FCFA104B13B10E20FEF795FD4FF479
:10870000004004F0E5FA40B14FF4004004F0EEFA06
:10871000094B13B10F20FEF787FD4FF4006004F002
:10872000D7FA38B14FF4006004F0E0FABDE8084031
:1087300003F066B908BD00BF2972000808B51048EB
:10874000102104F0F1FEC8B10D48102104F0F7FE2D
:10875000002003F0FDFC30B90A4B1A8892B20A32AD
:1087600092B21A8008BD06481021002204F0A3FE30
:10877000BDE808400020012103F03CBC08BD00BF5B
:10878000002C0140BA20002008B5012004F0C4FCF0
:1087900030B1012004F0D0FCBDE8084004F0A6BCD4
:1087A00008BD000008B5022004F0B6FCB0B10C4BC7
:1087B00000224FF400301A7004F098FA012004F0FF
:1087C000EFFB10B1012004F0F5FB04F08FFC022058
:1087D00004F0B2FCBDE8084004F088BC08BD00BF4E
:1087E0000620002003F09EB800F062B838B51449A6
:1087F0000B78012B23D1134A13680BB90B7038BDCA
:10880000114C402B206881B205D94030403B20609C
:108810001360402504E09DB20344236000231360ED
:108820000A482A460844C02105F086FB0120294653
:1088300005F08AFCBDE83840012005F0EFBB38BDEB
:10884000DC120020E4120020E0120020DC110020E5
:1088500008B5094B01221A70084B002203201A8028
:1088600005F0A2FC064B024618804FF488710548BB
:10887000BDE8084005F078BB90110020941100205D
:108880009211002096110020074B1B68052B09D17F
:10889000064B1A68511C052A196003D100221A6080
:1088A000FEF730BA704700BFD82000204C200020CF
:1088B00070B52B4D2B4C2B682B4E9BB223802288FE
:1088C00033881340990508D54FF6FF532B60A378E2
:1088D0000133DBB2A370FFF7D7FF22883388134040
:1088E0001A0401D505F072FA2288338813405B051B
:1088F00005D54FF6FF332B601C4B5B6898472288E9
:1089000033881A40900444BF4DF6FF722A602288D3
:108910001340D90405D54EF6FF732B60002004F0F8
:108920002BF82288338813401A050BD5104B1B787F
:1089300013B104F001F802E0022004F01DF84FF238
:10894000FF732B60228833881340DB0507D54FF671
:10895000FF632B600720BDE8704004F00DB870BDC8
:10896000445C004050200020C42A0020E001002088
:10897000DC020020034B9B7A13B1034B05221A60E3
:10898000704700BFA02A0020D8200020014B0422FD
:108990001A607047D8200020034B1A78202A04BFA1
:1089A00000221A70704700BF54200020704700005A
:1089B000212810B508D1114B1B681B7803F07F03E9
:1089C000212B10D0022010BD2028FBD10B4B0C4ACC
:1089D0001B681B78107003F07F03212B094B18BF15
:1089E00000230BB9EEE7084B044A00241268204626
:1089F000936154829847204610BD00BFC02A0020D2
:108A000054200020598A0008418A0008074B1B683F
:108A10001B7803F07F03212B06D100F0DF00022832
:108A200014BF02200020704702207047C02A002097
:108A300009B1022070470128FBD8084670470000A2
:108A400020B9034B08221B681A82704701487047FF
:108A5000C02A0020D801002020B9034B08221B683F
:108A60001A82704701487047C02A0020D8010020B0
:108A700010B5FEF793F9054B00241B689C7203F0B8
:108A800043FF05F0A7FB024B1C6010BDC02A00206D
:108A9000D8200020334B344A1B68D27910B500240B
:108AA0005A729C72DC72204605F070FA20464FF430
:108AB000007105F073FA2046102105F07DFA20467A
:108AC000402105F015FB8021204605F001FB2046E2
:108AD00005F0CAFA254B204693F8341005F042FB06
:108AE000204605F0AEFA0120214605F057FA012094
:108AF000C02105F0EDFA0120202105F05DFA0120EA
:108B0000214605F072FA02204FF4C06105F046FAE2
:108B100002204FF4807105F0DBFA0220214605F0B7
:108B200064FA0220202105F047FA0320214605F0CF
:108B300035FA03204FF4887105F0DAFA032040215A
:108B400005F010FB03204FF4405105F04EFA0320CE
:108B5000214605F031FA204605F0CCF8044B0122FD
:108B60001A6010BDC02A0020F5340108D801002089
:108B7000D8200020014904F0B9BE00BF1002002037
:108B8000014904F0B3BE00BF18020020054B1B686A
:108B9000DB78042B04D8044901EBC30104F0A6BE22
:108BA00000207047C02A00202002002038B504466B
:108BB0000D46FFF735F9204625614FF41651FFF7B2
:108BC00039F9204638BD000007B5002100910A465A
:108BD0000B460348FEF76CFB03B05DF804FB00BFD7
:108BE0005820002070B506460D460024284607F0A0
:108BF0001FFC844208D2295D3046FFF70BF90120A3
:108C000002F072FF0134F1E770BD00002DE9F84376
:108C100004460F4690460D46C7EB05095FFA89F9F1
:108C20002046FFF7F3F80028FADD2046FFF7ECF8BE
:108C3000C145C6B206D100232B7020460C49FFF770
:108C4000D1FF0AE00D2EF6D00A2EF4D02046314690
:108C5000FFF7E0F805F8016BDEE72046FFF7D6F8EE
:108C6000002803DD2046FFF7CFF8F6E7BDE8F883DC
:108C7000823A0108F0B585B00446FFF7C7F800282E
:108C800040F39D802046FFF7BFF8C0B2772868D137
:108C900004F1140600212122304604F1350507F0C5
:108CA00043F841220021284607F03EF804F17607F8
:108CB000002384F87630204642497B70FFF792FF0C
:108CC000204631462022FFF7A1FF20463E49FFF70C
:108CD00089FF012220463946FFF798FF94F8763045
:108CE000A3F13002D2B2032AEFD8312B0BD12046A8
:108CF0003649FFF777FF20463549FFF773FF2046D7
:108D00003449FFF76FFF94F87620B2F1300708D0AE
:108D100020463149FFF766FF204629464022FFF7EB
:108D200075FF20462D49FFF75DFF23693A4630461F
:108D30002946984720462A49FFF754FF20462949EB
:108D4000FFF750FF20462849FFF74CFF20462749F0
:108D5000FFF748FF20462649FFF744FF20462549F4
:108D600028E069282BD1244B01AD93E8070085E862
:108D7000070020462149FFF735FF0026AF5D20465A
:108D80003B0903F13001392984BF03F15701C9B20E
:108D900007F00F07FFF73EF807F13001392984BFCC
:108DA0005737F9B220460136FFF734F80C2EE5D1DB
:108DB0001349204605B0BDE8F040FFF713BF05B0EA
:108DC000F0BD00BFD6380108DD3801080A390108B6
:108DD000403901086B390108B1390108BC39010873
:108DE000FF3901081F3A0108523A0108853A010883
:108DF000C43A0108F53A0108E8F7FF1F0B3B0108E8
:108E0000823A010838B50025044601604261836159
:108E1000858380F824502830FEF73CFA2571A57729
:108E20002562204638BD002310B5037183830446B4
:108E300000684FF4816103689B699847012384F8B7
:108E4000243010BD30B58369ADF5037D0446009331
:108E500002A863694FF400710D4A07F0EFF920682A
:108E60000C49036840F206425B6A984702A807F083
:108E7000DFFA256802462B6802A95B6828469847F6
:108E8000206803689B6A98470DF5037D30BD00BFDD
:108E90001C3B0108423B0108F0B590F82430ADF5C9
:108EA000257D04460BB9FFF7BEFFFEF71FF9236AC5
:108EB000C01AB0F5FA6F05D92046FFF7C3FFFEF7D9
:108EC00015F9206220680368DB6A9847002851D0B2
:108ED000264656F81C0B24AD03684FF400725B6BFA
:108EE0002946984700272F5424492548FEF73CFA85
:108EF00029462348FEF755FA284604A9802233461E
:108F000000F05EF805461E48002D2FD01D49FEF7E3
:108F100048FA216802A80B68251D9B6B9847039BA4
:108F20001949E362C3F30742009294F82F202846C0
:108F30000192DAB2C3F3072307F0B4F913491048DA
:108F4000FEF712FA29460E48FEF72BFA10490C4894
:108F5000FEF70AFAA18B0A220948FEF774FA206884
:108F60000368DB69984784F8247003E00949FEF739
:108F700018FAA5830DF5257DF0BD00BF523B010811
:108F8000C41F0020613B01087D3B0108893B0108AB
:108F9000A03B0108B93B01080079003018BF01204F
:108FA0007047000007B5002100910A460B460348B0
:108FB000FEF77EF903B05DF804FB00BF60200020DF
:108FC0002DE9F041884617461E46FDF7D9FB0446B9
:108FD00010B90020BDE8F081C568052DF9D1002148
:108FE000FDF7D2FB20460121FDF7CEFB0546002808
:108FF000EFD0296940463A4607F0A4FA20460221FC
:10900000FDF7C2FB0028E4D0436901203380BDE8AE
:10901000F08101607047F8B506460F4615460024FA
:10902000AC4210D03068391903682A1B5B6A984734
:10903000002806DA306803689B6898470028EFD15B
:10904000F8BD0444ECE7F8BD07B506226946FFF712
:10905000E2FF002368468DF8063006F0DBF903B026
:109060005DF804FB70B50646481C0D4606F000FB93
:10907000044630B1304621462A46FFF7CCFF002394
:109080006355204670BD10B50446FFF7DDFF01466D
:109090002046BDE81040FFF7E5BF000007B50021FE
:1090A00000910A460B460348FEF702F903B05DF84B
:1090B00004FB00BF682000200022C0F80023704796
:1090C00038B505460024D5F800339C4207DA05EB95
:1090D000C403D3F8000106F0D3FA0134F3E72846BD
:1090E00038BD2DE9F041D0F8005304466B1CC0F8A0
:1090F0000033084690460F4607F09AF9013006F013
:10910000B7FA04EBC506C6F80001394607F016F9B0
:10911000D6F80031C6F8048144F82530BDE8F08166
:10912000D0F800037047704707B5002100910A4648
:109130000B460348FEF7BCF803B05DF804FB00BF24
:109140007020002007B5002100910A460B46034815
:10915000FEF7AEF803B05DF804FB00BF78200020F6
:1091600038B50446154600F0C3FA6560204638BDA0
:1091700070B5044640680D460268D26A9047B0B1A7
:10918000284600F03DFB054629466068FEF7ECF8EE
:1091900006466068026852699047284607F048F919
:1091A000331A5C4228465C4106F06AFA00E0044645
:1091B000204670BD37B5069C05460094079C019477
:1091C00000F09CFA044621462846FFF7D1FF0546E9
:1091D000204606F055FA284603B030BD37B502AB3D
:1091E00043F8042D1A4605460846002100F02AFAE5
:1091F000044621462846FFF7BBFF0546204606F0F9
:109200003FFA284603B030BD07B5002100910A4659
:109210000B460348FEF74CF803B05DF804FB00BFB3
:109220008020002007B5002100910A460B46034824
:10923000FEF73EF803B05DF804FB00BF8820002075
:109240002DE9F04104460D4604F14C0742F2CD6190
:109250000430904604F18406FEF762FB3846FEF7C0
:10926000DDFA3046FEF762FD04F52F70FFF724FFAC
:10927000294604F5B86000F03BFA29463A4604F264
:10928000C450FFF76DFF04F2CC5031462A464346E6
:10929000FFF7B8FD2046BDE8F081000073B50F4C24
:1092A0000F4D06460F492046FEF75EF868462946F0
:1092B000FEF718F869462046FEF77DF80A49204671
:1092C000FEF752F82846FEF71DF801462046FEF745
:1092D00068F80023337002B070BD00BFC41F0020C7
:1092E000381F0020ED3B0108033C010800F52F70FA
:1092F000FFF7F7BE07B5002100910A460B46034869
:10930000FDF7D6FF03B05DF804FB00BF90200020FE
:10931000F0B500F14C0685B004463046FEF79AF9E8
:109320000546002848D104F2CC573846FFF7B4FD73
:109330003846FFF731FE00283ED020492048FEF78E
:1093400030F820491E48FEF70FF81F4FD4F89C3024
:1093500002A91B4803930297FEF70FF81B49184810
:10936000FEF702F841F635610A221548FEF76BF860
:10937000D4F89C30304602A941F635620297039337
:10938000FEF708FAC0B112490D48FEF70AF804F5D5
:109390002F76012323703046FFF7C5FE074630467F
:1093A000FFF7BEFE00950346019504F2C45042F259
:1093B000CD613A46FFF7FEFE05B0F0BD153C010851
:1093C000C41F0020253C0108A033010822380108F1
:1093D0003B3C010838B5084C0546FFF75FFF2046C7
:1093E0000649FDF7DEFF20460549FDF7DAFF28466E
:1093F000BDE83840FFF78CBFC41F0020543C010873
:109400006C3C010810B5054904460548FDF7C9FF45
:1094100004F14C00BDE81040FEF7A8B9813C0108FA
:10942000C41F0020037810B504464BB100F2C450AD
:10943000FFF7D4FE20B92046BDE81040FFF7E2BF99
:1094400010BD000030B5037891B00546002B34D034
:109450001B4C4C30A3680133A360FEF7FBF858B3F4
:1094600002A8291DFEF7B0FA02A8FEF725F920B3DD
:1094700002A901A8FFF7CDFD01A8FFF704FE0546EC
:1094800002A8FEF773F90F48A1680A226DB1FDF733
:10949000D8FF0D490B48FDF767FF29460948FDF73E
:1094A00080FF284606F0ECF807E0FDF7CAFF074901
:1094B0000448FDF776FF00E0287011B030BD00BF12
:1094C00090200020C41F0020C43C0108D23C0108A9
:1094D00010B50446FFF71CFF2046BDE81040FFF71B
:1094E000B1BFF0B585B061B36AB300240A26B0FB02
:1094F000F6F506FB1500013404AF3030274407F8B9
:109500000D0C28460DB1B442F0D1A34286BFC4EB86
:109510000303DBB20023013A30200025954201EB22
:10952000050612D01CB983B1013BDBB206E0002B6B
:10953000FAD1013C04A8204410F80C0C4855013520
:10954000ECE7084604E0104602E0002333702846AA
:1095500005B0F0BD2DE9F84FDDF828900446B9F1CB
:1095600001070D4690461E4663D000220023FCF7FB
:10957000F9F930B105F100412D230D463370A9F101
:1095800002072E4BB8F1060F28BF4FF006084FF028
:10959000000A4FF0010900225FFA8AF141450DD21D
:1095A000104619460022264BFCF794F80B460A2178
:1095B000024601FB09F90AF1010AEDE7002F38D054
:1095C00020462946FBF7AAFD0D460446FCF71AFA89
:1095D00031463A4600238346FFF783FF06443F1A8D
:1095E000B8F1000F25D027B32E23013F06F1010A61
:1095F00033701DD05846FBF7CDFE02460B46204681
:109600002946FBF789FD044648460D46FBF7C2FE96
:1096100002460B4620462946FBF732FFFCF7F2F9DB
:1096200051463A464346FFF75CFF0AEB000600E06E
:10963000564600233370BDE8F88F00BF0000E03FBE
:1096400000002440F0B5ADF5037D0F46044600212F
:10965000154602A84FF4807242AE06F065FB304614
:1096600000214FF4807206F05FFB042F30D8DFE852
:1096700007F00305121F23002B6821E02868FBF781
:10968000ABFECDE90001154B02A81A681449234628
:1096900006F008FE1CE04FF48073D5E9000100934A
:1096A00006223346FFF756FF009602A80D490AE04E
:1096B000009502A80C4906E02B68003318BF01236F
:1096C0000A49009302A8054B1A68234606F0EAFDF2
:1096D00002A806F091FE0DF5037DF0BD9C20002050
:1096E0000C3D0108263D0108403D0108F23C0108FF
:1096F000014B0160196070479C200020F0B5ADF26D
:10970000044D0C46164600214FF4806268461F4601
:10971000DDF81C5406F008FB2A4B2B491A686846F2
:10972000234606F0BFFD6846284906F0E1FD002407
:10973000BC42684613DA264906F0DAFD56F82410D2
:10974000684606F0D5FD234B214A791E8C42ACBFFA
:1097500011461946684606F0CBFD0134E8E71E497C
:1097600006F0C6FD6846194906F0C2FD0024AC4269
:10977000684615DA164906F0BBFDDDF81834684670
:1097800053F8241006F0B4FD124B114A691E8C42A6
:10979000ACBF11461946684606F0AAFD0134E6E75B
:1097A0000D4906F0A5FD68460C4906F0A1FD0C49DF
:1097B000684606F09DFD684606F01EFE0DF2044D5B
:1097C000F0BD00BF9C2000207F3D01085C3D0108EA
:1097D000613D0108A33D0108973D01089B3D01083B
:1097E000A73D010807B5002100910A460B46034832
:1097F000FDF75EFD03B05DF804FB00BFA020002074
:1098000038B5054606F014FE073005F031FF044672
:10981000284606F00DFE044902462B46204606F077
:1098200041FD204638BD00BFAE3D0108002100F0DB
:1098300004B80D4B5B58435004310C480C4B421894
:109840009A42FFF4F6AF0B4A00F003B8002342F847
:10985000043B094B9A42FFF4F9AF02F0DBFFFDF73E
:10986000CFFAFDF789F87047FC400108000000209E
:109870005C0B00205C0B0020D02A0020FFF7FEBF0D
:109880000B0A017043700B0C090E8370C170043019
:1098900070470170090A41700230704743185A78C6
:1098A000435C03EB022080B2704710B543189A78EE
:1098B000DC78415C120402EB046258780A4402EB43
:1098C000002010BD73B544790023022C01930FD002
:1098D000032C19D0012C2BD1164D2B692E4623B108
:1098E0002B6901A898470246B8B9B16801201BE06E
:1098F000104DEB682E4623B1EB6801A8984702464D
:1099000058B9B16802200FE00A4D6B692E464BB181
:109910006B6901A89847024620B1A9682046BDF8A6
:10992000043003E0B16803200022134600F068FB16
:1099300002B070BD0C220020072810B50BD80129F9
:1099400009D80124844001FA00F0034B1A6822EA86
:10995000040202431A6010BD6802002070B50121A4
:1099600086B00546FFF79AFF430404462AD5B0F5B2
:10997000824F27D128460521FFF790FF05EB800095
:10998000EE1D0024C51DAE4206D030460221FFF771
:1099900085FF04360444F6E7724B1A8E92B22244D5
:1099A00092B21A86DA6B1444DC63D96B9A6B9142DB
:1099B00040F0CA8093F84020002A00F0C5809B69DF
:1099C000992031E024F4FF4020F07F0080B200288D
:1099D00000F0978048F210039C4228D00CD8B4F5D0
:1099E000004F40F2BC8048F202039C4215D948F275
:1099F00004039C4211D0B2E048F280039C420CD098
:109A000004D848F240039C424FD0A8E0B4F5024F7E
:109A100003D0B4F5084F6BD0A1E0524B9A69002AED
:109A200000F092809B69204600210A4667E00023EF
:109A3000EA1852790DF803200133042BF8D16B7A20
:109A400005F10D008DF80430AB7A8DF80530EB7A16
:109A50008DF806302B7B8DF80730002300AA1A44BE
:109A6000C15C0133042B1172F8D105F11100002300
:109A700000AA1A44C15C0133042B1173F8D105F11B
:109A80001500002300AA1A44C15C0133042B117491
:109A9000F8D12B798DF81430324B9A69002A53D0C3
:109AA0009B6920466946152229E005350021284694
:109AB000FFF7FBFE042100902846FFF7F6FE082181
:109AC00001902846FFF7F1FE0C2102902846FFF78F
:109AD000ECFE102103902846FFF7E7FE214B04908F
:109AE0009A69002A30D09B6920466946142206E014
:109AF0001C4B9A6942B39B692046691D0122984715
:109B000022E041F203039C4205D0A4F580530E3BB2
:109B10009BB2012B1AD86C1D20460421FFF7C5FE0D
:109B200039301CD12A790F4B00212046DA62FFF729
:109B3000BCFE042105462046FFF7B7FE393003D1AD
:109B400028460121FFF7F8FE012009E0054B1B889C
:109B50009BB29C4204D0B4F5805FF5D100E00020B8
:109B600006B070BD0C22002038B50A4C63889BB249
:109B70000BB9002038BD60680378042BF9D1FFF7DA
:109B8000EDFE01280546F4D10023638001F07AFD43
:109B9000284638BD0C2200202DE9F84F044689469E
:109BA00092460025DFF87483B8F802309BB2002B90
:109BB000F8D0D8F804603378042B40F07381304635
:109BC0000121FFF76BFE05463046FFF7C7FE002870
:109BD00040F05F8141F207039D4206F1050755D829
:109BE00041F206039D4280F0AE8040F202239D4286
:109BF00000F0A98014D80C2D09D8082D80F0A3807E
:109C0000002D00F04681062D00F2E1809BE00D2D35
:109C100000F0968040F201239D4200F0918038E1EF
:109C200041F202039D4218D8B5F5805F00F28B80A7
:109C3000B5F5017F40F2848040F207239D4240F059
:109C400028813379384604F8013B0021FFF72DFEC7
:109C500001462046FFF714FE1BE141F204039D423A
:109C600000F08B8040F2A18000213846FFF71DFEF6
:109C7000042120603846FFF718FE083444F8040C2D
:109C800006F10D03224606F11D016FE041F21103BA
:109C90009D4255D02BD841F20B039D4253D01CD886
:109CA00041F209039D424ED000F28C8000213846DB
:109CB000FFF7FBFD042120603846FFF7F6FD082181
:109CC00060603846FFF7F1FD0C21A0603846FFF7D1
:109CD000ECFD04F10C0BE060DAE041F20F039D4271
:109CE00063D036D841F20D039D4246D0D1E042F216
:109CF00006039D4224D00BD8B5F5005F40F2C98021
:109D000042F204039D4288BF002300F2848017E0E2
:109D100042F208039D42C0F0BC8042F209039D421A
:109D20000ED944F20B039D4240F0B380737938465C
:109D30000121A8F83030FFF7B1FDA8F83200A8E003
:109D400033792370A5E038460021FFF7AEFD20608F
:109D50009FE000213846FFF7A8FDA3464BF8040B0F
:109D600004213846FFF7A1FD606091E053F8040B31
:109D70008B4242F8040BF9D18BE000213846FFF703
:109D800094FD042120603846FFF78FFD08216060B4
:109D90003846FFF78AFDE36804F1080B3933A06009
:109DA00076D10121FFF7C8FD72E000213846FFF7A8
:109DB0007CFD042120603846FFF777FD083444F825
:109DC000040C66E0337923713B68236061E0002175
:109DD0003846FFF76AFD042120603846FFF765FD2D
:109DE000082160603846FFF759FD0A21A060384617
:109DF000FFF754FD0C3444F8020C06F1110322461F
:109E000006F1350153F8040B8B4242F8040BF9D1EB
:109E10001B8813803DE0F2185279E2540133042B81
:109E2000F9D106F109000023C15CE2180133042BCB
:109E30001171F9D106F10D000023C15CE218013364
:109E4000042B1172F9D106F111000023C15CE21854
:109E50000133042B1173F9D106F115000023C15C05
:109E6000E2180133042B1174F9D106F11900002313
:109E7000C15CE2180133062B1175F9D106F11F0000
:109E80000023C15CE2180133202B9176F9D100E068
:109E90005C46B8F800309BB29D4223D11F4B002294
:109EA0001A801FE030460321B778FFF7F7FC83469E
:109EB000B9F1000F0CD00421701DFFF7F6FC02462B
:109EC000CAF8000006F115014846D2B2FBF7BAFD08
:109ED000791D20463144C7EB0B02FBF7B3FD00238D
:109EE000A8F836300023A8F8023001F0CBFB337815
:109EF000042B05D1B5F5805F02D13046FFF7E2FCB7
:109F0000B8F800309BB2002B7FF44CAE034BD88ED8
:109F100080B200287FF446AEBDE8F88F0C22002006
:109F200007284FF0010308D803FA00F0044B1A6821
:109F300010420CBF0020012070471846704700BF38
:109F400068020020064B10B51880064C0846002118
:109F500001230A462370FFF71FFE0023237010BD64
:109F60000C2200201421002010B5054C0123E386AB
:109F7000044C2370FFF710FE0023237010BD00BFB8
:109F80000C2200201421002038B50346154601227A
:109F90004A710C46881D1946FFF77BFC291D057088
:109FA000204601F031FC002038BD38B5BDF8145012
:109FB0000C462B44D518ADB202216171A071E2713B
:109FC000294604F10800FFF764FC691D204689B2A8
:109FD00001F01AFC002038BD38B513440C469DB280
:109FE00002216171A0712946E27104F10800FFF7B6
:109FF00050FC691D204689B2BDE8384001F004BC20
:10A000002DE9F84F1C4604F1020B032301F1070967
:10A010001FFA8BFB88710D464B7148465946164610
:10A02000FFF737FCB4F57A7F824605F10B0812D8AA
:10A030002146FFF72EFC21465046FFF72AFC314609
:10A0400040462246FBF7FEFCA11D284689B2BDE82A
:10A05000F84F01F0D9BB4FF47A77B4FBF7F30BEB71
:10A06000430189B2FFF715FC39465046FFF711FC52
:10A07000314640463A46FBF7E5FCA4F57A7428469B
:10A0800040F2EE31A4B23E4401F0BEFBB4F57A7F5B
:10A0900084BFA4F57A74A7B2A84688BF4FF47A7437
:10A0A000314628F8054F4846224698BF0027FBF75F
:10A0B000C9FCA11C404689B2264401F0A5FB0FB1A2
:10A0C0003C46E3E7BDE8F88FF7B51E46FF238DF861
:10A0D0000730194B00259C68475D63190135042D35
:10A0E0005F72F9D100200D5C2318013004285D73E4
:10A0F000F9D10021505C6318013104295874F9D159
:10A1000004F115000021FFF7BBFB0022B35C835470
:10A110000132042AFAD12146142242F20100FFF74B
:10A1200033FF42F201000DF10701FFF70BFF9DF92C
:10A13000070003B0F0BD00BF0C2200202DE9F34161
:10A140001F46FF238DF807301E4B0646D3F80880C4
:10A1500033680C46013B122B9CBF142333600B6801
:10A1600008F10900013B122B9CBF14230B601368FC
:10A170001546013B122B9CBF142313603B68013B27
:10A18000122B9CBF14233B603168FFF779FB2168D9
:10A19000FFF776FB2968FFF773FB3968FFF770FB61
:10A1A0004146142242F20900FFF7EEFE42F2090096
:10A1B0000DF10701FFF7C6FE9DF9070002B0BDE8EB
:10A1C000F08100BF0C22002010B5074B04469968AF
:10A1D00042F205000022FFF7D7FE214642F20500B9
:10A1E000BDE81040FFF7AEBE0C2200202DE9F34180
:10A1F0001F4602ACFF2304F8013D124B86469D68C2
:10A200000E4605F1090071469046FFF739FB3146CD
:10A21000FFF736FB4146FFF733FB29460C2240F29D
:10A220000120FFF7B1FE214640F20120FFF78AFE30
:10A23000002138460A46FFF797FE9DF8070002B056
:10A24000BDE8F0810C2200202DE9F341984602ADD3
:10A250004FF0FF3345F8043D134B86469E680C468D
:10A2600006F10A0071461746FFF70AFB0C21FFF7BB
:10A2700007FB2146FFF704FB3946FFF701FB414688
:10A28000224606F11A00FBF7DDFB31461022A3B28D
:10A290009020FFF7A1FE40F202202946FFF752FE70
:10A2A000019802B0BDE8F0810C22002013B50B4BE1
:10A2B00004469968002240F20720FFF765FE40F24D
:10A2C00007206946FFF73EFE9DF803309DF8000029
:10A2D00023709DF80430637002B010BD0C22002082
:10A2E00037B50E4A034694680D4604F10900194635
:10A2F000FFF7C6FA2946FFF7C3FA2146082240F2C3
:10A300000320FFF741FE40F203200DF10601FFF7A5
:10A3100019FEBDF8060003B030BD00BF0C220020BE
:10A320002DE9F0430023CA5CC2540133102BFAD14B
:10A330000022344B467B991891F801800178847B88
:10A3400088EA01089919C97A90F80CC088EA0108CE
:10A350001919CF7A417880F810804F40C17B47743B
:10A360005D1895F80B908578634489EA050593F8A4
:10A370000B90C378FFB289EA030390F804908574C8
:10A3800088EA090890F80590EDB287EA090790F885
:10A390000690C37485EA090590F80790DBB283EA5A
:10A3A000090390F8089080F814805FFA88F888EA2A
:10A3B000090890F809904775FFB287EA090790F8F5
:10A3C0000A908575EDB285EA090590F80B90C37582
:10A3D000DBB283EA0903013288EA0C0C7E406C4050
:10A3E00059400A2A80F8188047768576C37680F827
:10A3F0001CC046778477C17700F1100099D1BDE881
:10A40000F08300BF4A35010810F0800F4FEA40008A
:10A4100018BF80F01B00C0B2704700002DE9F04F5C
:10A4200091F8A03090F800A042788AEA030A80F8F8
:10A4300000A091F8A13097B0534043708278079301
:10A4400091F8A23090F8049053408370C27805933D
:10A4500091F8A33046795340C370069391F8A43025
:10A46000827989EA030980F8049091F8A53090F880
:10A4700008805E40467191F8A630477A5340837158
:10A48000C279089391F8A73004465340C3710C93E6
:10A4900091F8A8304FF0000B88EA030880F8088094
:10A4A00091F8A9305F404772827A91F8AA30534000
:10A4B00083720993C07A91F8AB3094F80CC0434092
:10A4C000E3720D9391F8AC3094F80DE08CEA030C34
:10A4D00084F80CC091F8AD30A57B8EEA030E84F8A9
:10A4E0000DE091F8AE30E27B5D40A57391F8AF309E
:10A4F0005A40464BE2739A449AF80B0191F890A0A7
:10A50000994480EA0A00207099F80BA191F8949080
:10A5100098448AEA090984F8049098F80B9191F814
:10A5200098809C4489EA080884F808809CF80B818C
:10A5300091F89CC09E4488EA0C0C84F80CC09EF8EC
:10A540000BC191F891E01F448CEA0E0E97F80BC1F5
:10A5500091F89D701E448CEA0707677396F80B719B
:10A5600091F899601D447E406672079E0D981E44C6
:10A5700096F80B7191F8956084F801E07E40667161
:10A58000059E18441E4496F80B7191F89A60774026
:10A59000089E1E4496F80BE191F89E608EEA06062E
:10A5A000DDF824E09E449EF80BC191F892E08CEA1D
:10A5B0000E0E84F802E095F80BE191F89650A77220
:10A5C0008EEA0505A571069DA6731D4495F80B61DD
:10A5D00091F89F5075400C9E1E4496F80B7191F8AF
:10A5E000936013447E40E67090F80B6191F89700F9
:10A5F0007040E07193F80B2191F89B30CDF81CB0BE
:10A600005340E573E3720D4602E000BF4A3501088E
:10A61000A77894F80090103D87EA0900FFF7F4FE50
:10A62000FFF7F2FEE67894F801B0824686EA0B0066
:10A63000FFF7EAFEFFF7E8FE2179A37980EA060832
:10A6400080EA0B0B83EA010003910293FFF7DCFE23
:10A65000FFF7DAFE8AEA0909E6798AEA070A6779E2
:10A66000024686EA07000492FFF7CEFEFFF7CCFE13
:10A67000049A029B03995340DBB294F808C00693F6
:10A68000A37A51404640C9B24740F6B283EA0C0073
:10A690000293CDF804C005910896FFF7B5FEFFF7C9
:10A6A000B3FE617AE67A024686EA010003910492DB
:10A6B000FFF7AAFEFFF7A8FE049ADDF804C003998D
:10A6C000029B82EA0C0C53404140C9B25FFA8CFCF9
:10A6D000DBB20A91CDF824C00B9394F80CC0A37B95
:10A6E0004640F6B283EA0C000293CDF804C00C9603
:10A6F000FFF78AFEFFF788FE617BE67B024686EA6B
:10A70000010003910492FFF77FFEFFF77DFE049A9C
:10A71000029BDDF804C00399534082EA0C0C5FFAF7
:10A7200089F95FFA8BFB5FFA8AFA5FFA88F8414091
:10A73000DBB24640C9B28BEA09005FFA8CFC0F938A
:10A74000F6B288EA0A030E910293CDF834C010964F
:10A7500083EA0006FFF758FE89EA000086EA000C4B
:10A760005FFA8CFC84F800C08AEA0B00CDF804C0C4
:10A77000FFF74AFE8BEA0000029B86EA000B5FFAB5
:10A780008BFB184684F801B0CDF844B0FFF73CFECF
:10A790008AEA000086EA000A5FFA8AFA88EA090073
:10A7A00084F802A0CDF848A0FFF72EFE88EA00004A
:10A7B000059BDDF818B0DDF820A04640FFB2F6B2E8
:10A7C00087EA03008AEA0B08E670139688EA000617
:10A7D000FFF71AFE059948407040C0B214902071EE
:10A7E0008BEA0700FFF710FE784086EA0007FFB209
:10A7F000677140461597FFF707FE8BEA0000059A40
:10A800007040C0B20690A0718AEA0200FFF7FCFD1A
:10A810008AEA00000B990A9BDDF824A0DDF830B02D
:10A820004640F6B283EA0A000596E6718BEA010615
:10A8300086EA0007FFF7E8FD8AEA00000A9B0B9A08
:10A8400087EA00085FFA88F882EA030084F8088043
:10A85000FFF7DAFDDDF828A08AEA000087EA0009A0
:10A860005FFA89F9304684F80990FFF7CDFDDDF8ED
:10A870002CB00C998BEA0000099A87EA000B5FFA6A
:10A880008BFB81EA020084F80AB0FFF7BDFD0C9B48
:10A890000D99DDF838A05840109A47408AEA010027
:10A8A000DDF83CA0FFB282EA0A03E77283EA000AFD
:10A8B0000293FFF7A9FD0D990F9A48408AEA000616
:10A8C0000E99F6B282EA01002673FFF79DFD0E9AFB
:10A8D000029B50408AEA0001C9B261731846039195
:10A8E000FFF792FD0F9BDDF834E058408AEA000242
:10A8F000109BD2B2A27383EA0E000492FFF784FD8C
:10A90000109BDDF804C058408AEA000A494B5FFA00
:10A910008AFA84F80FA003EB0C0090F80BC195F8AD
:10A9200090001E448CEA0000207014981F441844C4
:10A9300090F80BC195F894008CEA0000207103EBAD
:10A94000080090F80BC195F898008CEA000020727E
:10A9500095F89C0096F80B61039970402073194498
:10A9600091F80B0195F89110049A414003EB09000E
:10A9700090F80B6195F89D001A447040607315982B
:10A98000184490F80B6195F8990070406072119826
:10A99000184490F80B6195F8950061701299704019
:10A9A0006071194491F80B0195F89A104840069986
:10A9B000194491F80B6195F89E10714003EB0B065A
:10A9C00096F80BC195F892608CEA0606A67092F88C
:10A9D0000B6195F89620A0727240139EA1731E44DD
:10A9E00096F80B11A271059E95F89F201E4496F8CB
:10A9F0000B014A4095F8931053444140E17095F89B
:10AA0000971097F80B01DDF81CA04140E17193F815
:10AA10000B1195F89B30AAF1100A4B401AF1900FD8
:10AA2000E372E273CDF81CA07FF4F2AD17B0BDE87D
:10AA3000F08F00BF4A35010838B5054C0546204661
:10AA4000FFF76EFC28462146BDE83840FFF7E6BC1C
:10AA500015210020034610210C200022FFF7C6BB61
:10AA6000034610210C200022FFF7EEBB38B5054647
:10AA70000E4CE36A4BB104F0DBFCE36A0360002395
:10AA8000E36204F0D5FC006838BD2846FFF748FAB9
:10AA900048B9228E92B2002AEAD0228E92B2013AAE
:10AAA00092B2228638BD4FF0FF3038BD0C22002014
:10AAB000F7B5174602AC4FF0FF3244F8042D124AA6
:10AAC000034695680E4605F109001946FEF7D8FEC3
:10AAD0003146FEF7D5FE3946FEF7D2FE0C22294656
