:020000040800F2
:1050000000500020019E0008F5890008F78900087B
:10501000F9890008FB890008FD89000800000000EC
:10502000000000000000000000000000FF890008F0
:10503000018A000800000000038A0008058A0008B1
:10504000519E0008519E0008519E0008218C0008C6
:10505000519E0008519E0008598A0008798A00086C
:10506000998A0008CD8A0008ED8A0008519E000840
:10507000519E0008519E0008519E00087D8C00083A
:10508000519E0008519E0008098A0008519E0008A0
:10509000818C0008519E0008519E00080D8B00086D
:1050A000519E0008519E0008519E0008D58B0008B3
:1050B000519E0008519E0008519E0008298A000850
:1050C000398A0008519E0008519E0008498A00084C
:1050D000519E0008519E0008198A0008519E000840
:1050E0005D8B00083D8C0008519E00080000000008
:1050F00000000000000000000000000000000000B0
:0C51000000000000000000005FF808F153
:1051100081F0004102E000BF83F0004330B54FEA68
:1051200041044FEA430594EA050F08BF90EA020FD5
:105130001FBF54EA000C55EA020C7FEA645C7FEA68
:10514000655C00F0E2804FEA5454D4EB5555B8BF8B
:105150006D420CDD2C4480EA020281EA030382EAFC
:10516000000083EA010180EA020281EA0303362D8E
:1051700088BF30BD11F0004F4FEA01314FF4801C61
:105180004CEA113102D0404261EB410113F0004F73
:105190004FEA03334CEA133302D0524263EB43032A
:1051A00094EA050F00F0A780A4F10104D5F1200EC8
:1051B0000DDB02FA0EFC22FA05F2801841F1000123
:1051C00003FA0EF2801843FA05F359410EE0A5F1F7
:1051D00020050EF1200E012A03FA0EFC28BF4CF028
:1051E000020C43FA05F3C01851EBE37101F00045DE
:1051F00007D54FF0000EDCF1000C7EEB00006EEBEB
:105200000101B1F5801F1BD3B1F5001F0CD3490874
:105210005FEA30004FEA3C0C04F101044FEA4452CB
:1052200012F5800F80F09A80BCF1004F08BF5FEA52
:10523000500C50F1000041EB045141EA050130BD32
:105240005FEA4C0C404141EB010111F4801FA4F1D5
:105250000104E9D191F0000F04BF01460020B1FA2A
:1052600081F308BF2033A3F10B03B3F120020CDA62
:105270000C3208DD02F1140CC2F10C0201FA0CF040
:1052800021FA02F10CE002F11402D8BFC2F1200CA5
:1052900001FA02F120FA0CFCDCBF41EA0C0190405B
:1052A000E41AA2BF01EB0451294330BD6FEA0404A4
:1052B0001F3C1CDA0C340EDC04F11404C4F120028F
:1052C00020FA04F001FA02F340EA030021FA04F3A1
:1052D00045EA030130BDC4F10C04C4F1200220FAF8
:1052E00002F001FA04F340EA0300294630BD21FA36
:1052F00004F0294630BD94F0000F83F4801306BFFC
:1053000081F480110134013D4EE77FEA645C18BFEF
:105310007FEA655C29D094EA050F08BF90EA020F86
:1053200005D054EA000C04BF1946104630BD91EA7E
:10533000030F1EBF0021002030BD5FEA545C05D181
:105340004000494128BF41F0004130BD14F58004C0
:105350003CBF01F5801130BD01F0004545F0FE4134
:1053600041F470014FF0000030BD7FEA645C1ABF69
:10537000194610467FEA655C1CBF0B46024650EAA0
:10538000013406BF52EA033591EA030F41F40021CC
:1053900030BD00BF90F0000F04BF0021704730B552
:1053A0004FF4806404F132044FF000054FF0000127
:1053B00050E700BF90F0000F04BF0021704730B5E8
:1053C0004FF4806404F1320410F0004548BF4042BD
:1053D0004FF000013EE700BF42004FEAE2014FEA12
:1053E00031014FEA02701FBF12F07F4393F07F4FED
:1053F00081F06051704792F0000F14BF93F07F4F1F
:10540000704730B54FF4607401F0004521F0004161
:1054100020E700BF50EA010208BF704730B54FF0E7
:1054200000050AE050EA010208BF704730B511F0EC
:10543000004502D5404261EB41014FF4806404F124
:1054400032045FEA915C3FF4DCAE4FF003025FEAA6
:10545000DC0C18BF03325FEADC0C18BF033202EB2E
:10546000DC02C2F1200300FA03FC20FA02F001FA88
:1054700003FE40EA0E0021FA02F11444C1E600BF27
:1054800070B54FF0FF0C4CF4E06C1CEA11541DBFDA
:105490001CEA135594EA0C0F95EA0C0F00F0DEF8A5
:1054A0002C4481EA030621EA4C5123EA4C5350EA8A
:1054B000013518BF52EA033541F4801143F48013DB
:1054C00038D0A0FB02CE4FF00005E1FB02E506F06C
:1054D0000042E0FB03E54FF00006E1FB03569CF0C1
:1054E000000F18BF4EF0010EA4F1FF04B6F5007FC7
:1054F00064F5407404D25FEA4E0E6D4146EB060639
:1055000042EAC62141EA55514FEAC52040EA5E50C1
:105510004FEACE2EB4F1FD0C88BFBCF5E06F1ED86B
:10552000BEF1004F08BF5FEA500E50F1000041EBA2
:10553000045170BD06F0004646EA010140EA02004F
:1055400081EA0301B4EB5C04C2BFD4EB0C0541EA71
:10555000045170BD41F480114FF0000E013C00F386
:10556000AB8014F1360FDEBF002001F0004170BDAA
:10557000C4F10004203C35DA0C341BDC04F11404C3
:10558000C4F1200500FA05F320FA04F001FA05F24F
:1055900040EA020001F0004221F0004110EBD3701C
:1055A00021FA04F642EB06015EEA430E08BF20EA48
:1055B000D37070BDC4F10C04C4F1200500FA04F3EB
:1055C00020FA05F001FA04F240EA020001F000417D
:1055D00010EBD37041F100015EEA430E08BF20EAF0
:1055E000D37070BDC4F1200500FA05F24EEA020E38
:1055F00020FA04F301FA05F243EA020321FA04F067
:1056000001F0004121FA04F220EA020000EBD3701D
:105610005EEA430E08BF20EAD37070BD94F0000F1D
:105620000FD101F00046400041EB010111F4801F51
:1056300008BF013CF7D041EA060195F0000F18BF02
:10564000704703F00046520043EB030313F4801F3E
:1056500008BF013DF7D043EA0603704794EA0C0FF8
:105660000CEA135518BF95EA0C0F0CD050EA41060E
:1056700018BF52EA4306D1D181EA030101F000418B
:105680004FF0000070BD50EA410606BF10461946B3
:1056900052EA430619D094EA0C0F02D150EA0136BF
:1056A00013D195EA0C0F05D152EA03361CBF104600
:1056B00019460AD181EA030101F0004141F0FE419F
:1056C00041F470014FF0000070BD41F0FE4141F423
:1056D000780170BD70B54FF0FF0C4CF4E06C1CEA23
:1056E00011541DBF1CEA135594EA0C0F95EA0C0FD8
:1056F00000F0A7F8A4EB050481EA030E52EA033593
:105700004FEA013100F088804FEA03334FF08055B3
:1057100045EA131343EA12634FEA022245EA1115E0
:1057200045EA10654FEA00260EF000419D4208BF91
:10573000964244F1FD0404F5407402D25B084FEA3E
:105740003202B61A65EB03055B084FEA32024FF4EA
:1057500080104FF4002CB6EB020E75EB030E22BF47
:10576000B61A754640EA0C005B084FEA3202B6EB07
:10577000020E75EB030E22BFB61A754640EA5C00B6
:105780005B084FEA3202B6EB020E75EB030E22BF46
:10579000B61A754640EA9C005B084FEA3202B6EB47
:1057A000020E75EB030E22BFB61A754640EADC0006
:1057B00055EA060E18D04FEA051545EA16754FEA68
:1057C00006164FEAC30343EA52734FEAC2025FEA86
:1057D0001C1CC0D111F4801F0BD141EA00014FF015
:1057E00000004FF0004CB6E711F4801F04BF0143E6
:1057F0000020B4F1FD0C88BFBCF5E06F3FF6AFAE02
:10580000B5EB030C04BFB6EB020C5FEA500C50F191
:10581000000041EB045170BD0EF0004E4EEA113114
:1058200014EB5C04C2BFD4EB0C0541EA045170BD1B
:1058300041F480114FF0000E013C90E645EA060E5F
:105840008DE60CEA135594EA0C0F08BF95EA0C0F8D
:105850003FF43BAF94EA0C0F0AD150EA01347FF4D5
:1058600034AF95EA0C0F7FF425AF104619462CE7AC
:1058700095EA0C0F06D152EA03353FF4FDAE10460F
:10588000194622E750EA410618BF52EA43067FF460
:10589000C5AE50EA41047FF40DAF52EA43057FF4F0
:1058A000EBAE12E74FF0FF3C06E000BF4FF0010CFB
:1058B00002E000BF4FF0010C4DF804CD4FEA410C5F
:1058C0007FEA6C5C4FEA430C18BF7FEA6C5C1BD02C
:1058D00001B050EA410C0CBF52EA430C91EA030FAD
:1058E00002BF90EA020F0020704710F1000F91EA0A
:1058F000030F58BF994208BF90422CBFD8176FEAD8
:10590000E37040F0010070474FEA410C7FEA6C5CA5
:1059100002D150EA013C07D14FEA430C7FEA6C5CAC
:10592000D6D152EA033CD3D05DF8040B704700BFD8
:105930008446104662468C461946634600E000BF26
:1059400001B5FFF7B7FF002848BF10F1000F01BDF8
:105950004DF808EDFFF7F4FF0CBF012000205DF8C3
:1059600008FB00BF4DF808EDFFF7EAFF34BF012048
:1059700000205DF808FB00BF4DF808EDFFF7E0FFE1
:1059800094BF012000205DF808FB00BF4DF808ED32
:10599000FFF7CEFF94BF012000205DF808FB00BF99
:1059A0004DF808EDFFF7C4FF34BF012000205DF87B
:1059B00008FB00BF4FEA410212F5001215D211D5C3
:1059C0006FF47873B3EB625212D94FEAC12343F0FC
:1059D000004343EA505311F0004F23FA02F018BF7E
:1059E000404270474FF00000704750EA013005D147
:1059F00011F0004008BF6FF0004070474FF000000A
:105A0000704700BF4A0011D212F5001211D20DD515
:105A10006FF47873B3EB62520ED44FEAC12343F0B4
:105A2000004343EA505323FA02F070474FF000005E
:105A3000704750EA013002D14FF0FF3070474FF00D
:105A400000007047844641EA000313F0030349D184
:105A5000403A23D30B6803604B6843608B688360D4
:105A6000CB68C3600B6903614B6943618B698361D8
:105A7000CB69C3610B6A03624B6A43628B6A8362C0
:105A8000CB6AC3620B6B03634B6B43638B6B8363A8
:105A9000CB6BC36340304031403ADBD230320BD362
:105AA0000B6803604B6843608B688360CB68C3609E
:105AB00010301031103AF3D20C3205D351F8043BB8
:105AC00040F8043B043AF9D2043208D0D2071CBF94
:105AD00011F8013B00F8013B01D30B8803806046BD
:105AE000704700BF082A13D38B07B1D010F003030F
:105AF000AED0C3F10403D21ADB071CBF11F8013B7F
:105B000000F8013BA4D331F8023B20F8023B9FE7A9
:105B1000043AD9D3013A11F8013B00F8013BF9D21C
:105B20000B7803704B7843708B78837060467047B6
:105B300040EA010C1CF0070F27D1BDF1100DCDE993
:105B40000245CDE900676FF000064FF0000700BF87
:105B5000F0E80223F1E80245A242A2F1013C2CEA5E
:105B6000020C0CF0803C08BFBCF1000F40F0E58057
:105B7000AB42A3F1013C2CEA030C0CF0803C08BFC3
:105B8000BCF1000F40F0D680E2E710F0030C21D00A
:105B900020F0030050F8042B5FEACC7C08D00FD231
:105BA00011F801CB5FFA92F3B3EB0C0C10D17BB17F
:105BB00011F801CB5FFAA2F3B3EB0C0C08D13BB1A7
:105BC00011F801CB5FFAB2F3B3EB0C0C00D10BB9B7
:105BD00060467047BDF1100DCDE90245CDE9006783
:105BE0006FF000064FF0000711F0030C33D110F0F6
:105BF000040F0FD050F8042B51F8044BA242A2F12D
:105C0000013C2CEA020C0CF0803C08BFBCF1000FF8
:105C100040F0938011F0040F99D051F8045B00BF5D
:105C2000F0E80223AA42A2F1013C2CEA020C0CF09B
:105C3000803C08BFBCF1000F79D1F1E80245A342D6
:105C4000A3F1013C2CEA030C0CF0803C08BFBCF132
:105C5000000F69D1E4E721F00301BCF1020F20D06D
:105C60003FDA51F8045B00BF50F8043B4FEA1525BA
:105C7000A3F1013C2CEA030C0CF0803CB7EB0C2F99
:105C800003EA162208BFAA4251D151F8045BBCF1C5
:105C9000000F82EA03034FEA056208BF934240D136
:105CA000E2E751F8045B00BF50F8043B4FEA1545AA
:105CB000A3F1013C2CEA030C0CF0803CB7EB0C4F39
:105CC00003EA164208BFAA4231D151F8045BBCF185
:105CD000000F82EA03034FEA054208BF934220D136
:105CE000E2E751F8045B00BF50F8043B4FEA15654A
:105CF000A3F1013C2CEA030C0CF0803CB7EB0C6FD9
:105D000003EA166208BFAA4211D151F8045BBCF144
:105D1000000F82EA03034FEA052208BF934200D135
:105D2000E2E719BA12BA0AE019BA22BA07E011BAC0
:105D30002ABA04E019BA2ABA01E011BA22BA9CFAC6
:105D40008CF0DDE90067DDE902451DF1100D38B189
:105D5000B0FA80F0C0F1180021FA00F122FA00F246
:105D60000120914298BF8041704700BF4BB942B9B2
:105D7000002908BF002802D04FF0FF31084600F08C
:105D80003BB882B0EC462DE9005000F01DF8DDF87C
:105D900004E002B00CBC70472DE9704F089E144619
:105DA0001D468046894600F029F804FB01F3A4FB58
:105DB00000AB00FB05329344B8EB0A0869EB0B0912
:105DC000C6E90089BDE8708F2DE9704F089E144622
:105DD0001D468046894600F061F900FB05F5A0FBF1
:105DE00004AB04FB0154A344B8EB0A0869EB0B09AC
:105DF000C6E90089BDE8708F704700BF00292DE912
:105E0000F00FC0F2A1800024002BC0F2988015464C
:105E100006460F46002B3FD18A4258D9B2FA82F388
:105E20004BB1C3F1200201FA03F720FA02F29D40C0
:105E300000FA03F61743290CB7FBF1F201FB1277C6
:105E4000A8B200FB02F34FEA164C4CEA0747BB42EC
:105E500009D97F1902F1FF3C80F00581BB4240F275
:105E60000281023A2F44FF1AB7FBF1F301FB1371D1
:105E700000FB03F0B6B246EA0141884208D949194D
:105E800003F1FF3780F0F180884240F2EE80023B60
:105E900043EA0242002303E08B420AD900231A4658
:105EA0001046194614B1404261EB4101BDE8F00FC4
:105EB0007047B3FA83F8B8F1000F40F088808B4246
:105EC00002D3824200F2E28000230122E8E712B905
:105ED0000123B3FBF2F5B5FA85F2002A3AD17F1B14
:105EE000280C1FFA85FC0123B7FBF0F100FB1177AA
:105EF0000CFB01F24FEA164848EA0747BA4207D9B5
:105F00007F1901F1FF3802D2BA4200F2C480414643
:105F1000BF1AB7FBF0F200FB12700CFB02FCB6B22A
:105F200046EA0040844507D9401902F1FF3702D202
:105F3000844500F2AE803A4642EA0142B0E7E443CB
:105F4000524263EB430362E7404261EB41014FF091
:105F5000FF3459E79540C2F1200927FA09F126FAE2
:105F600009F99740280CB1FBF0F800FB18111FFA53
:105F700085FC0CFB08F349EA07094FEA194747EA91
:105F800001418B4206FA02F608D9491908F1FF329D
:105F90007AD28B4278D9A8F102082944C91AB1FBF8
:105FA000F0F300FB13170CFB03F21FFA89F949EA1F
:105FB0000747BA4207D97F1903F1FF3160D2BA42CD
:105FC0005ED9023B2F44BF1A43EA08438CE7C8F16D
:105FD000200225FA02F103FA08FC27FA02F320FA5C
:105FE00002F207FA08F741EA0C0C4FEA1C49B3FB2E
:105FF000F9F109FB11331FFA8CFA0AFB01FB174375
:106000003A0C42EA03439B4505FA08F008D913EB22
:106010000C0301F1FF3235D29B4533D90239634479
:10602000CBEB0303B3FBF9F209FB12330AFB02FAD1
:10603000BFB247EA0347BA4508D917EB0C0702F18C
:10604000FF331BD2BA4519D9023A674442EA0145E7
:10605000A5FB0001CAEB07078F424FF000030AD3EC
:1060600005D02A461CE76246FDE63B4610E706FAE5
:1060700008F68642F5D26A1E002311E71A46E5E7C4
:106080000B46A0E71146CBE7904687E743464246DA
:1060900006E7023A50E702392F4439E72DE9F00FBD
:1060A000144605460E46002B43D18A4253D9B2FA14
:1060B00082F757B1C7F1200620FA06F601FA07F376
:1060C00002FA07F400FA07F51E43210CB6FBF1F2C1
:1060D00001FB1266A0B200FB02F32F0C47EA064652
:1060E000B34209D9361902F1FF3780F0FD80B3427F
:1060F00040F2FA80023A2644F61AB6FBF1F301FBAD
:10610000136100FB03F0ADB245EA0141884208D9B2
:10611000091903F1FF3680F0E980884240F2E680F9
:10612000023B43EA0242002310461946BDE8F00F45
:1061300070478B424CD8B3FA83F6002E4FD18B4276
:1061400002D3824200F2DD80BDE8F00F002301227D
:1061500010461946704712B90124B4FBF2F4B4FAA0
:1061600084F2002A40F08280091B260CA7B201238A
:10617000B1FBF6F006FB101107FB00F24FEA154CDD
:106180004CEA01418A4207D9091900F1FF3C02D2C9
:106190008A4200F2C8806046891AB1FBF6F206FB1B
:1061A000121107FB02F7ADB245EA0145AF4208D92B
:1061B0002C1902F1FF3180F09B80A74240F29880B9
:1061C000023A42EA004210461946BDE8F00F704715
:1061D00000231A4610461946BDE8F00F7047C6F175
:1061E000200522FA05F703FA06F421FA05F301FA6D
:1061F00006FB20FA05F53C434FEA1448B3FBF8FCD4
:1062000008FB1C331FFA84F909FB0CFA45EA0B0B57
:106210004FEA1B4545EA03439A4502FA06F204D9C0
:106220001B190CF1FF356FD3AC46CAEB0303B3FB6C
:10623000F8F508FB153309FB05F91FFA8BFB4BEA50
:106240000347B94504D93F1905F1FF3362D31D4611
:1062500045EA0C4CACFB0223C9EB07079F424FF009
:1062600000054AD346D062462B465DE79440C2F112
:10627000200921FA09FC914020FA09F9260CBCFBFF
:10628000F6F806FB18CCA7B207FB08F349EA0109A8
:106290004FEA194141EA0C4C634500FA02F509D96D
:1062A0001CEB040C08F1FF323BD2634539D9A8F14D
:1062B0000208A444C3EB0C0CBCFBF6F306FB13C1B1
:1062C00007FB03F21FFA89F949EA01418A4207D91B
:1062D000091903F1FF3022D28A4220D9023B21441E
:1062E000891A43EA084343E73A4605E7334618E785
:1062F0000A4666E7B0409042B5D20CF1FF32002367
:1063000012E7334632460FE79A458DD9ACF1020CBD
:1063100023448AE7B9459AD9023D274498E70346C2
:10632000DEE79046C6E70238214435E710B503782A
:10633000A3F13002D1B2092901D813460CE0A3F130
:106340004102D2B2052A01D8373B05E0A3F1610230
:10635000D2B2052A46D8573B42781B01A2F1300140
:10636000CCB2092C01D8CA180DE0A2F14101C9B282
:10637000052901D8373A05E0A2F16101C9B2052922
:1063800030D8573A1A4483781201A3F13001CCB2C5
:10639000092C01D80A440DE0A3F14101C9B2052935
:1063A00001D8373B05E0A3F16101C9B2052919D82D
:1063B000573B1A44C3781201A3F13000C1B2092936
:1063C0000ED9A3F14101C9B2052902D8A3F13700C2
:1063D00006E0A3F16101C9B2052903D8A3F1570072
:1063E000104410BD002010BD2DE9F0410B78074688
:1063F000222B01F1010602D13346002008E05B4B5D
:1064000019600020BDE8F0814AB15C2A05D1023351
:106410001A780130222AF7D101E00133F8E7544B12
:106420001B68984780460028EBD004463378222B1F
:1064300007D1002323703378222B40F08F80013660
:106440008CE0002BF5D05C2B06F1010103D023700A
:106450000E460134EAE773786E2B14D007D8622B0E
:1064600004F101020BD0662B74D10C2308E0742BCD
:106470000BD0752B0BD0722B6CD10D236AE0082347
:106480002370144668E00A2364E0092362E0B01C2C
:10649000FFF74CFFA0F55C43B3F5806F054606F1AE
:1064A000050159D3002857D0A0F55843B3F5806FA4
:1064B00019D2B3795C2B4FD1F379752B4CD106F1FE
:1064C0000800FFF733FFA0F55C43B3F5806F06F1DA
:1064D0000B0141D2C0F30900C5F3090540EA852547
:1064E00005F5803504E07F2808D9B0F5006F07D3A3
:1064F000B5F5803F34BF0322042202E0012200E010
:106500000222032A04EB02030CD0042A02D0022A3E
:1065100018D10FE005F03F0060F07F0003F8010C98
:10652000AD09E31C05F03F0060F07F0003F8010CAB
:10653000AD09013B05F03F0060F07F0003F8010C5E
:10654000AD09013B0B485C1E805C1444054303F815
:10655000015C01E0237001344E1C67E70423C7F897
:106560001080FB603046BDE8F08100BF5C0B00206E
:1065700000000020B0580108034618462BB10278ED
:106580000133013AD2B21F2AF7D97047064B10B532
:106590001B6828209847044618B10021282209F0DA
:1065A000E3FE204610BD00BF000000202DE9F74F9C
:1065B000814688460846002900F0A781B149042297
:1065C0000AF000FB18B90223C9F80C3015E0404668
:1065D000AD4905220AF0F6FA20B9C9F80C0008F115
:1065E000050092E14046A94904220AF0EBFA38B9C5
:1065F0000123C9F80C30C9F8143008F1040084E113
:1066000098F80030222B06D14846414603B0BDE839
:10661000F04FFFF7E9BE2D2B08D0A3F13002D2B224
:10662000092A00F2B9800022994B03E0994B08F146
:1066300001080022CDE9002398F800300024302B17
:1066400008BF08F1010898F800300025313BDBB2A3
:10665000082B1AD80022904B20462946FEF710FF3F
:10666000044618F8010B0D463038FEF7A3FE0B4622
:10667000024629462046FEF751FD98F800300446B0
:10668000303BDBB20D46092BE3E798F800302E2BA8
:106690002ED198F80130303BDBB2092B28D8C24606
:1066A0000026002700227C4B20462946FEF7E8FE04
:1066B0000AF1020804461AF8010F0D463038FEF7B9
:1066C00079FE02460B4620462946FEF727FD704B11
:1066D00004460D46304639460022FEF71DFD9AF865
:1066E00001300646303BDBB2092B0F46DAD901E018
:1066F0000026002798F8003003F0DF03452B1ED159
:1067000098F801302B2B02D108F1020303E02D2B66
:1067100004D008F101034FF0010B03E008F102037C
:106720004FF0FF3B4FF0000A984613F8012B303A28
:10673000D1B2092907D80A2101FB0A2AF4E74FF050
:10674000010B4FF0000A22462B46DDE90001FEF75F
:1067500097FE04460BFB0AF00D46FEF72BFE0246A1
:106760000B4630463946FEF7D9FC02460B46002060
:10677000494908F06DF80B46024629462046FEF7C7
:106780007FFEC9E90601FFF715F90323C9F81400D4
:10679000C9F80C304046B8E05B2B3FD10523C9F85F
:1067A0000C3008F10100FFF7E7FE037804465D2B8B
:1067B0002FD0FFF7EBFE0546C9F80800002800F0CF
:1067C000A3802046FFF7D8FE01462846FFF7EEFEDD
:1067D000FFF7D2FE0446002800F0968023782C2B89
:1067E00015D1FFF7D3FE0646002800F08D80286003
:1067F0004560601CFFF7C0FE01463046FFF7D6FE3D
:10680000FFF7BAFE044600287ED03546E6E75D2B4A
:1068100001D1601C79E0214B1C6075E07B2B70D1AD
:106820000623C9F80C3008F10100FFF7A5FE037834
:1068300005467D2B01D1013067E0FFF7A7FE044636
:10684000C9F8080000285FD02846FFF795FE0146EA
:106850002046FFF7C9FDFFF78FFE002854D02369BB
:1068600000222362226103783A2B3FD10130FFF7E7
:1068700083FE01462046FFF799FEFFF77DFE0646A0
:10688000D0B941E0325D0108375D01083D5D010886
:106890000000F03F0000F0BF000024405C0B00202F
:1068A0000130FFF769FE01462846FFF77FFEFFF73C
:1068B00063FE064640B32C4633782C2B1AD1FFF7E3
:1068C00065FE054600B320604460701CFFF754FE6F
:1068D00001462846FFF788FDFFF74EFEA0B12B6961
:1068E00000222B622A6103783A2BD9D0084B18601A
:1068F00010460AE07D2B01D1701C06E0044B1E609F
:1069000002E0034BC3F80080002003B0BDE8F08F25
:106910005C0B002070B50446CCB1E3682668DB054B
:1069200003D4A06808B1FFF7F5FFE368084D13F43E
:10693000807F03D1206908B16B689847206A08B14D
:106940006B68984720466B6898473446E4E770BD0B
:10695000000000202DE9F84305460E469146FFF75A
:1069600015FEDFF854800027C8F80070044600B315
:106970002846FFF701FE01462046FFF717FE0546B1
:1069800028B92046FFF7C6FF2846BDE8F883B9F1CD
:10699000000F0CD0FFF7F0FD037805463BB1204611
:1069A000FFF7B8FFC8F800503846BDE8F88306B1D5
:1069B00035602046BDE8F8835C0B002000210A46C4
:1069C000FFF7C8BF806820B1002902DD01390068E7
:1069D000F9E7704710B504462146104800F056FE0E
:1069E0000F490E4800F052FE0A22D4F80C110B4851
:1069F00000F0C3FE0B4B01211970D4F80C310020BC
:106A0000002BB8BF014600F0B1FCD4F80C21064BB6
:106A1000002AB8BF52421A6010BD00BFAC1F002050
:106A2000EC5D010808000020600B00200000000061
:106A300073B51B4C05462946204600F027FE02266A
:106A40001849204600F022FE0096F5E9442320462E
:106A500000F05CFFD5E9002300201349FEF73AFE61
:106A60000DA3D3E90023FEF70BFDFEF7A3FF0F4BA9
:106A700080EAE075A5EBE0750D4920465D6000F009
:106A800005FE2846FEF796FC009602460B46204679
:106A900000F03CFF02B070BD0000000080841E4189
:106AA000AC1F0020EC5D01080000F03F0800002052
:106AB000505D0108AFF3008008B50146044800F0BE
:106AC00002FE044B01221A70034B00221A6008BD1B
:106AD000AC1F002008000020600B002010B5044609
:106AE00000F5287002F0E0FD204610BD114B70B596
:106AF0001A781E46104D0AB12A68CAB100F07EFC11
:106B00006B687268C01A90420B4C11D900F076FC89
:106B1000217A606081F001010120217200F026FCE1
:106B2000237A2BB1034B1B7813B12368013B2360FD
:106B300070BD00BF08000020600B002010B50120D0
:106B4000002100F099FB134C0020014600F094FB5B
:106B500020464FF4165101F0B1FB322000F05EFCEC
:106B600020460D4C0D4900F0AEFD20460C490D4A63
:106B700002F0C4FE20460C490C4A02F0BFFE20463B
:106B80000B490C4A02F0BAFE2046BDE8104002F064
:106B90002DBF00BFAC1F00206C0B0020615D010801
:106BA000755D0108D56900087D5D0108316A00083E
:106BB000895D0108B96A000813B500F019FC0D4C95
:106BC000D4F8EC35C01A192807D904F10C0002F0EA
:106BD0009BFF00F00DFCC4F8EC05227A064B0092F6
:106BE0001A7860680192596822680123FFF77EFFD6
:106BF00002B010BD600B00200800002037B5114C1A
:106C000000210B4600910A4604F10C0504F5BE6014
:106C100000F0E0FC28460C490C4A02F017FE0C4933
:106C20000C4A284607F0E6FD00F0E2FBC4F8EC054C
:106C300000F0E4FB606000F0DBFBC4F8F80503B093
:106C400030BD00BF600B0020965D0108A55D010806
:106C5000DD6A0008E0120020013101EB420291429E
:106C60000BD0030F092B94BF3033373301F8013CAD
:106C70000023000101F8023BF1E7704710B54FF027
:106C800000604FF4A04106F0E1F90124284B2948A7
:106C900021461C7006F0ECFB05F00AFD05F0F2F948
:106CA0002146402006F09CFC6FF07F4005F062FB1F
:106CB000E72005F0DBFB204B1C7005F023FA7D205C
:106CC00006F0B2FC18B11D4B1C7006F0C1FC40F67A
:106CD000B83005F080FA05F0BBFF06F05BF8184805
:106CE00001F084FC174B01221A7001F00BFD164BCA
:106CF0001B781BB9154B1B78002BF6D0144B1B7857
:106D0000002BF2D10D4B1B78002BEED10F4C2378CA
:106D1000012B01D00F4B33B90F4B0BB1FFF74CFFD9
:106D200000F08EFAE1E7FFF709FF01232370F3E794
:106D3000AE20002000043000D71F0020682A002069
:106D400073710008EC1F0020D51F00206011002087
:106D5000D61F00203D6B0008B96B00082DE9F041FB
:106D6000644D6B6801336B60634B1A6812B11A682B
:106D7000013A1A60614B624E1B7833B1614B1B784C
:106D8000F3B1614B002B3CD11AE0604C236813B186
:106D90002368013B13E0337893B95D4B1B787BB9D3
:106DA0005C4B1B7863B9DFF898815B4F98F8003033
:106DB00063B3E72005F0C6FB3B782BB314232360B5
:106DC000564B1B7803F0FF0263B1A9684EF65F22B1
:106DD0009142484B02D901221A7304E09A680132A9
:106DE0009A6000E0AA6033784D4C03F0FF07002B57
:106DF00034D1384605F0A6FC40F6B73398421CD88B
:106E00002CE000F0B7F9DBE70123D8E73B7853B17A
:106E10004FF6FF7005F0AEFAE72005F027FB0123DF
:106E200088F80030CCE7E72005F046FB3D4B1B78A7
:106E30000BB13223C3E76423C1E7384605F08AFC6F
:106E40002378C3B9384B1B782BB1364B324A1B78A9
:106E500012781A4248D0012333700CE0002005F06C
:106E600071FC41F65733984205D9002005F072FCB9
:106E70002E4B01221A702378A3B92A691D4B1AB12F
:106E80001A69013A1A610DE0214A127852B1596922
:106E900047F22F52914202D901221A7302E05A6935
:106EA00001325A61224B1A68B2F57A7F04D300226C
:106EB0001A6006F035FB02E01A6801321A602B7B7B
:106EC0005BB1BFF34F8F1B4A1B4BD16801F4E061EC
:106ED0000B43D360BFF34F8FFEE7184B1B783BB1DA
:106EE000BDE8F04100F09EB9144B01221A70B2E7E0
:106EF000BDE8F08160110020702A00209820002059
:106F0000D21F002014150020757100086C2A002083
:106F1000D61F0020D81F0020D51F002004210020EC
:106F2000EB1F0020D41F0020D31F0020E21F0020F1
:106F3000742A002000ED00E00400FA05EA1F00209A
:106F4000D71F002008B5094B186005F027FE002068
:106F500005F070FE064805F0BDF805F037FE05F0B7
:106F600055FEBDE8084007F0FFB900BFD80100207A
:106F7000A0860100074B1B68052B08D1064B1A7E23
:106F8000012A04D1987E1B7FC01AC0B2704700202E
:106F9000704700BFC8200020601100200D4B10B5C5
:106FA0001B68052B13D10C4C237E012B0FD1628B58
:106FB000A38BD31A012B04D100230320237607F0DF
:106FC0002AFBA38B5A1CA2831C44A07F10BD4FF048
:106FD000FF3010BDC820002060110020084B1B6846
:106FE000052B0CD1074B1A6E99180132B2F5807F30
:106FF0001A6608BF002281F8640008BF1A6670474D
:10700000C820002060110020F8B5234B93F86421BC
:10701000012A3FD0D3F86821196EB2F5807F04BFF2
:107020000022C3F86821D3F868411B4A8C4203D17F
:10703000002382F86431F8BD8CBFC4F58071C4EBC5
:107040000101C2F86C11D3F86C61134D402EA2B24D
:1070500007D94034403EC5F86841C5F86C61402707
:1070600006E034440021B7B2C5F86841C5F86C1198
:107070000A4801241044C0213A4683F8644107F0CD
:1070800045FA2046394607F049FB2046BDE8F8405E
:1070900007F0AEBAF8BD00BF60110020C411002097
:1070A000094B10B593E8140008331B68D0180AD0B8
:1070B00006490822FFF7D0FD204605490422BDE815
:1070C0001040FFF7C9BD10BDE8F7FF1F8701002082
:1070D0009701002007B5002100910A460B4603489E
:1070E00000F078FA03B05DF804FB00BFD012002076
:1070F00038B504460D46AC4203D254F8043B9847D9
:10710000F9E738BD08B507480749FFF7F1FF074819
:107110000749FFF7EDFFBDE8084006480649FFF7BD
:10712000E7BF00BF7067010870670108706701085A
:10713000E4670108E4670108E4670108FEE700006E
:10714000054A08B5136818441060044A904201D9F2
:1071500008F040FC184608BD100000200048002040
:107160004FF0FF307047012070470020704701202A
:107170007047704738B5114CD4F8445B2DB1D4F842
:10718000443B013BC4F8443B38BDD4F8483B0C4A6F
:1071900052F8230005F016F9E72005F067F964239B
:1071A000084AC4F8443BD4F8483B12680133934280
:1071B000C4F8483BA8BFC4F8485B38BDE4120020BF
:1071C000B85801081400002030B5022085B0012114
:1071D000062203F057FF041E1BDB0223ADF800302C
:1071E00000238DF8023035238DF8033069460823DB
:1071F00010228DF804308DF805308DF806308DF8AA
:10720000073004F051F80546204603F069FF284690
:1072100001E04FF0FF3005B030BD01207047002085
:1072200070470000044B012200215A801980D98642
:10723000024B1A70704700BFFC210020EA1F00209B
:10724000084B0022D3F83C1203F510738A4208DA87
:1072500093F8500010B1002083F8500001325133F0
:10726000F4E77047E412002004F01EB8014807F06C
:10727000ABBA00BF1816002014282DE9F3410446CC
:107280000E4669D8FF2967D000F06AFB20B1A4F14F
:107290000D039BB2022B5FD900F03EF908B1012C1F
:1072A0005AD900F0D7FF20B1A4F112039BB2012BF1
:1072B00052D92B4D24012B192F59B3F80480294B97
:1072C0009F4201D1042003E0274B9F4203D10820B5
:1072D000012106F091F9ADF80480062E38D8DFE8D8
:1072E00006F0040D13191F28310010238DF8073004
:1072F00003238DF806302C44002328E004238DF866
:1073000007302C44012322E048238DF807302C4419
:1073100002231CE028238DF807302C44032316E0B9
:1073200018238DF8073003238DF806302C440423EE
:107330000DE01C238DF8073003238DF806302C4414
:10734000052304E000238DF807302C440623A373A3
:10735000384601A906F034F802B0BDE8F08100BF5C
:107360001800002000080140000C01401428F8B566
:1073700005460F4638D81D4E040133199B7B5A1E13
:10738000D2B2022A30D9062B2ED0FF2B2CD000F0FF
:10739000E7FA28B1A5F10D039BB2022B00D8F8BD86
:1073A00000F0BAF810B1012D00D8F8BD00F052FF7E
:1073B00028B1A5F112039BB2012B00D8F8BD3319F7
:1073C0009B7B042B03D128460021FFF755FF012F9B
:1073D00004D13219335992881A61F8BD27B932198C
:1073E000335992885A61F8BDF8BD00BF18000020DB
:1073F000014B1868704700BF64110020044B5868A7
:10740000044B1A68044BB2FBF3F3B0FBF3F0704784
:10741000001000E0C802002040420F00034B1A6831
:10742000104419688842FCD8704700BF64110020DE
:1074300007B5002100910A460B46034800F0CAF840
:1074400003B05DF804FB00BF441E0020024B187817
:107450005B78C01A704700BF4C1E0020064B5A785C
:107460001978914204D99918013288785A70704776
:107470004FF0FF30704700BF4C1E0020054B5A787C
:107480001978914202D91344987870474FF0FF3031
:10749000704700BF4C1E002070470000F8B5094B34
:1074A000054693F82230164653B10C468F18BC425D
:1074B00006D02B6828461B6814F8011B9847F6E78E
:1074C0003046F8BD4C1E002010B50C4B012293F83D
:1074D00022408CB193F823401F2C02D94260002037
:1074E00010BD93F824001C1884F82510411CC9B263
:1074F00083F8241083F82310104610BD4C1E002082
:10750000002242604FF47A728260014A0260704742
:10751000E858010870477047014B93F859007047CD
:107520004C1E002013B5084C0021009104F16400AA
:107530000A460B4600F04EF804F16C0002B0BDE8BC
:107540001040FFF7DDBF00BF4C1E002008B5034B05
:1075500053F8203003B1984708BD00BFC81E002073
:1075600007B5002100910A460B46034800F032F8A7
:1075700003B05DF804FB00BF081F00202DE9F041B7
:10758000002407460E4625463B1919790A22304643
:1075900000F009F92E218046304600F07BF80134D6
:1075A0004044032C0544EFD13046F9790A2200F01B
:1075B000FAF82844BDE8F08110B5054A04460021D8
:1075C00040F8042B042208F0CFFE204610BD00BF77
:1075D0000859010830B58371034D9DF80C300560E2
:1075E00001714271C37130BD08590108044B054A4D
:1075F0001A6000221A715A719A71DA71704700BFCD
:10760000101F00200859010837B5064C0546E178DF
:10761000A278637824780094FFF7DCFF284603B053
:1076200030BD00BFEE1F002000487047082000203A
:1076300007B5002100910A460B460348FFF7CAFF31
:1076400003B05DF804FB00BF181F0020F8B5064624
:107650000C468F180025BC4207D0336830461B68A3
:1076600014F8011B98470544F5E72846F8BD38B5DE
:1076700005460C46084641B109F074FA2B680246EB
:107680005B6828462146984738BD38BD08B5FFF7E6
:10769000EEFF08BD08B503681B68984708BD10B524
:1076A0000A680446126808462146904710BD38B55E
:1076B0000D210546FFF7EEFF0A2104462846FFF795
:1076C000E9FF204438BD38B50446FFF7D0FF054632
:1076D0002046FFF7ECFF284438BD38B50446FFF7D5
:1076E000DEFF05462046FFF7E2FF284438BD30B5EF
:1076F00000238BB08DF82430012A98BF0A220DF1A7
:107700002304B1FBF2F303FB1211CDB2092D94BF98
:1077100030353735EDB2214604F801590BB1194621
:10772000EFE7FFF7A4FF0BB030BDF8B506460D46F6
:10773000144622B90368C9B21B689847F8BD0A2AE3
:107740000CD100290BDA2D21FFF7A4FF694207466F
:1077500022463046FFF7CBFF3844F8BDD2B2BDE831
:10776000F840FFF7C4BF38B50446FFF7DEFF054613
:107770002046FFF79CFF284438BD38B50446FFF784
:10778000D4FF05462046FFF792FF284438BD10B5C8
:1077900022B90268C9B21268904710BDD2B2BDE8E2
:1077A0001040FFF7A4BFFFF7F2BF38B50446FFF75C
:1077B000EEFF05462046FFF77AFF284438BD00005B
:1077C0002DE9F84319460646104614461D469DF815
:1077D000207007F015F810B93046444907E02046FC
:1077E000294607F00DF8012805D141493046FFF739
:1077F0003EFFBDE8F883204629464FF060423D4BEE
:10780000FEF7CEF810B130463B49F0E72046294656
:107810004FF06042394BFEF7A5F80028F3D120461F
:10782000294600220023FEF79DF840B130462D2165
:10783000FFF730FF05F1004380461D4600E080461B
:107840002F4B4FF0000900225FFA89F1B9420AD2AA
:107850001046194600222B4BFDF73CFF09F10109A8
:1078600002460B46F0E720462946FDF757FC0D4639
:107870000446FEF7C7F88146FDF78CFD02460B462D
:1078800020462946FDF748FC0A2204460D463046AC
:107890004946FFF72CFF804427B130461A49FFF7CD
:1078A000E6FE8044F7B1174B002220462946FDF73B
:1078B000E7FD0D460446FEF77DF881460A2249465B
:1078C0003046FFF732FF80444846FDF773FD02461D
:1078D0000B4620462946FDF71FFC013F04460D4696
:1078E000FFB2DFE74046BDE8F88300BFB45D0108A2
:1078F000B85D0108FFFFEF41BC5D0108FFFFEFC16C
:107900000000E03F00002440735D010837B59DF89A
:10791000181004460091FFF753FF05462046FFF775
:10792000C6FE284403B030BD07B5002100910A46C9
:107930000B460348FFF74EFE03B05DF804FB00BFA3
:10794000241F002007B5002100910A460B4603487A
:10795000FFF740FE03B05DF804FB00BF2C1F0020C2
:10796000014B587D704700BF341F00207047000056
:1079700007B5002100910A460B460348FFF72AFE8F
:1079800003B05DF804FB00BF4C1F002007B50021C9
:1079900000910A460B460348FFF71CFE03B05DF852
:1079A00004FB00BF581F0020C069704713B5026870
:1079B00069469469034A009242690192028BA0478A
:1079C00002B010BD0859010813B5026802AB03F8F4
:1079D000011D546819460122A04702B010BD0000E5
:1079E0000A4B1A78D2B2012A0DD1C369082B0AD0EA
:1079F000838C43B1418C31B9428490F82020013B03
:107A00008384104670474FF0FF307047D31F00202B
:107A1000036810B59B680446984720B12368204648
:107A2000DB68984710BD4FF0FF3010BD10B504461D
:107A3000236820469B68984720B123682046DB686E
:107A40009847F5E710BDC069083818BF0120704796
:107A50002DE9F04188B0002608AC054608460F46DF
:107A6000904644F8146D09F07DF8224681B23846FC
:107A700003F0E2FBB04215DD039B04A8DAB20092EA
:107A8000190EC3F30742C3F30723FFF7A3FD2B68C7
:107A900028469C69054B06A90693059B4246079319
:107AA000A04700E0304608B0BDE8F0810859010861
:107AB00038B5134B04461B780846012B154602D0F7
:107AC0004FF0FF3038BDE369082BF9D0A38C002BB1
:107AD000F6D0618C0029F3D1AB4204F1200105D826
:107AE0001A46FDF7AFFFA38C638402E0FDF7AAFFFF
:107AF0006584608C0028E3D0A38C1B1AA38438BD56
:107B0000D31F002070B50D4B04461E78F6B2012E2F
:107B100010D1C369082B0DD003689B6898470546B0
:107B200050B9E369064AD15C31B1D5542368204687
:107B30009B6A9847002070BD304670BDD31F00205F
:107B4000DA1F0020064B1B78012B05D1C0690828DD
:107B500002D0002303F03CBD4FF0FF30704700BF60
:107B6000D31F002070B52C4B86B01B780546012B27
:107B700002D1C369082B01D100204AE0828C2AB1CE
:107B80006A8CE88C824201D2801A42E003F01F0026
:107B9000012606FA00F000245A0906A98DF80C40C7
:107BA0008DF80D408DF80E408DF80F4001EB8202EC
:107BB00052F80C1C0494014342F80C1C41F2883228
:107BC000059204AA0092981903A92246234603F0BD
:107BD00099FBA0421CDDE86906A9420901EB82027B
:107BE00052F80C2C00F01F0342FA03F313F00103C8
:107BF0000CD005F120013246234603F05BFC00283F
:107C000007DD83B26C84AB84EB8402E0184600E0AD
:107C1000204606B070BD00BFD31F002010B5064B34
:107C200004461B78012B06D1C069082803D003F055
:107C300057FA0823E36110BDD31F00202DE9FF414F
:107C40004B68044643611D4B0E461F789046FFB2B9
:107C5000012F22832ED102203946062203F012FA88
:107C60000028E0614FF0000524DB02236584A58431
:107C7000E584ADF800304FEA18238DF802303379EF
:107C800069468DF8043073792A468DF80530B3794A
:107C90008DF803808DF80630F3798DF80730FFF703
:107CA000E3FA28B1E369064AD5540823E36101E009
:107CB000384600E0002004B0BDE8F081D31F00206A
:107CC000DA1F0020002310B543604FF47A738360FD
:107CD000044B044640F8103BFFF76EFC0823E361B9
:107CE000204610BD1859010870B54FF47A738360AF
:107CF000074B002504460E46456040F8103BFFF751
:107D00005BFCE6616584A584E584204670BD00BF08
:107D10001859010807B5002100910A460B4603488F
:107D2000FFF758FC03B05DF804FB00BF601F0020A4
:107D300013B5026802AB03F8011D5468194601220D
:107D4000A04702B010BD0000F0B51C4B87B01978F9
:107D50000746C9B201292FD1038902261A0A002435
:107D60008DF80A2030460622ADF808608DF80B30F9
:107D70008DF80C408DF80D408DF80E408DF80F40B9
:107D800003F080F9051E17DB042300934FF6FF7103
:107D90003246234603F01EFBA0420DDB284602A913
:107DA000102203F0F5F9A04206DB2846214603F035
:107DB0001DFAA042A8BFFD6007B0F0BDD31F002090
:107DC0001030FFF7BFBE000010B500234360054B25
:107DD0000181082104460360C1601030FFF784FF71
:107DE000204610BD585901084A6842608A6882607E
:107DF000CA68C2604A6942610A8B0283CA69C26169
:107E000091F8202080F820204A8C42848A8C828439
:107E1000CA8CC284704700004A6842608A688260E7
:107E2000CA68C2600A4A02600A4A02614A6942613B
:107E30000A8B0283CA69C26191F8202080F8202051
:107E40004A8C42848A8C8284CA8CC284704700BF68
:107E5000185901080859010870B5CB6890B0082B73
:107E600006460C4603D10B6808469B689847134B9F
:107E700004F110051B78012B02D1E06808280FD10E
:107E80000821E16006A8FFF72FFF06A92846FFF7A3
:107E9000ABFF30462946FFF7BFFF304610B070BD3C
:107EA000102302A901AA019303F040F9011E02DA8E
:107EB00006A80821E7E706A8C9B2E4E7D31F002017
:107EC00007B5002100910A460B460348FFF782FBE5
:107ED00003B05DF804FB00BF681F002008B503680D
:107EE0001B6B984708BD0000024A02608A69426025
:107EF000704700BF08590108808B7047B0F8360200
:107F000070474B6802218283C18380F82120110AC7
:107F1000C3F30722836180F8223080F82320C3F363
:107F200007421B0E80F82530102380F8201080F8BF
:107F300024200363012070470120704713B50268B5
:107F400002AB03F8011D546819460122A04702B094
:107F500010BDB0F836227AB1B0F83432B3F5007FF4
:107F60000AD2591C034493F83430013AA0F8341271
:107F7000A0F83622184670474FF0FF30704703686C
:107F800010B59B680446984720B123682046DB68FB
:107F9000984710BD4FF0FF3010BD10B50446236860
:107FA00020469B68984720B123682046DB689847A5
:107FB000F5E710BD30B50446022085B00D4611220C
:107FC000014603F05FF800284FF000031DDB02229A
:107FD000ADF800202A0A20748DF802206582A4F8EA
:107FE0003432A4F83632C0B2694610228DF80350FC
:107FF0008DF804308DF805308DF806308DF8073097
:1080000003F0C6F8C043C00F00E0184605B030BD0D
:1080100010B50446007C03F063F808B90823237404
:1080200010BD00002DE9F04188B0002608AC0546DF
:1080300008460F46904644F8146D08F093FD22461A
:1080400081B2384603F0F8F8B04215DD039B04A86E
:10805000DAB20092190EC3F30742C3F30723FFF706
:10806000B9FA2B6828461C6A054B06A90693059B9E
:1080700042460793A04700E0304608B0BDE8F081D3
:108080000859010813B5034603F11E04007C00944F
:108090001B6B0193002303F0A5FA02B010BD30B5AD
:1080A0000446007C87B0430906AA02EB8303012142
:1080B00000F01F02914000258DF80C508DF80D50F6
:1080C0008DF80E508DF80F5053F80C2C01300A43E8
:1080D00043F80C2C41F28833059304AB009303A9B9
:1080E0002A462B46049503F00DF9A84234DD207C86
:1080F00006AB420903EB820252F80C2C00F01F037E
:1081000042FA03F313F0010328D004F11E03009395
:1081100004F13003019304F134014FF400722B4653
:1081200003F0D3F900281ADD94F8202094F82130C8
:10813000A4F8345243EA0223A38394F82230A4F82B
:108140003602237694F82330637694F82430A376AD
:1081500094F82530E37602E0284600E0184607B0A0
:1081600030BD38B50446B4F836320846154613B962
:108170004FF0FF3038BDB4F83412B1F5007FF7D2BC
:10818000934204F1340107D81A46FDF75BFCB4F8BA
:108190003632A4F8343203E0FDF754FCA4F834522C
:1081A000B4F834020028E3D0B4F836321B1AA4F82D
:1081B000363238BD002310B543604FF47A738360C4
:1081C000044B04460360082303741430FFF7F4F9EA
:1081D000204610BD7059010807B5002100910A46DC
:1081E0000B460348FFF7F6F903B05DF804FB00BF48
:1081F000701F00204FF0FF307047704708B52021F6
:10820000034805F092FC003018BF012008BD00BFF4
:108210000044004008B5024805F083FC08BD00BFDB
:108220000044004008B5054805F077FC034880216C
:1082300005F07BFC0028F9D0012008BD0044004077
:10824000002242604FF47A728260014A02607047F5
:10825000B8590108014B187C704700BF781F0020F7
:1082600013B5084C0021009104F114000A460B4696
:10827000FFF7B0F904F11C0002B0BDE81040FFF7B1
:10828000DFBF00BF781F002070474FF0FF307047FE
:10829000FEF784BE08B5FEF76DFE08BD08B50846BA
:1082A000FEF79CFE012008BD002242604FF47A7266
:1082B0008260014A02607047D85901080846FEF7FB
:1082C00041BE000013B5074C0021009120460A462C
:1082D0000B46FFF77FF904F1080002B0BDE810403B
:1082E000FFF7E2BFA41F0020002303601846704779
:1082F0000023036018467047002303601846704748
:108300002DE9F0410B7886B0002B0C4614BF904647
:108310004FF00008064608F025FC0746204608F006
:1083200021FC182301931E230125029302230393AA
:10833000059000950494404631463A46002303F0E8
:1083400095FA034B18705D7006B0BDE8F08100BF70
:10835000BC1F002048F20203984210B50C461ED004
:1083600006DC99284AD048F20103984213D010BD88
:1083700048F28003984207D0B0F5084F42D048F247
:108380001003984252D128E0294B01229A70DA70EA
:1083900000221A7110BD264B01225A7110BD244CC7
:1083A000637953B1234B00224FF47F401A7003F0DE
:1083B000E1FFE72004F05AF806E0A37913B1013B8E
:1083C000A37101E00123A37500236371E375237694
:1083D0006376A376E376237710BD0A7D144B52B9FA
:1083E00001224FF47F40DA7503F0C4FFBDE810406E
:1083F000E72004F03BB80022DA7510BD0C4B0122D7
:108400005A7710BD0C490D48FFF740F924780C4904
:108410000A48FFF73BF9094821460A22FFF7C5F948
:10842000072C03D8024B1C440123A37710BD00BFC7
:10843000BC1F002098200020C05D0108AC1F002058
:10844000EF5D01081FB54FF461504FF461610A22DE
:1084500014238DE80F00684601A902AA03AB02F0BD
:1084600057F905B05DF804FB1FB500230093019395
:108470000293039301A8694602AA03AB02F00EF926
:1084800005B05DF804FB000030B5524D00249FB0EC
:10849000FF20AC70EC706C706C71EC756C772C76A6
:1084A0006C76AC76EC7603F065FFE72003F0DEFF38
:1084B00021462246204603F0B5F92B46012103F858
:1084C000074F0E200A4602F0A9F96B79012B05D15E
:1084D000642003F0F3FD01F031FEF6E710210C20DB
:1084E00002F0E8F93C4802F0A5FD3C4803F00EFB21
:1084F000012003F0EFFA6846394900F0A3FDAB789C
:108500006A78344C1A431CD194F82630002B57D08B
:10851000FF2003F091FA002852D11A24013C06D022
:10852000E72003F0C9FF322003F0C8FDF6E70E2074
:10853000012122462B4BAC7102F070F985F82640E0
:10854000DDE7E72003F092FFA31D0E2001210022AA
:1085500002F036F9A37813B103F0F8FA20702B7803
:1085600001210133AB7100221E4B0E2002F056F99F
:10857000002001240146012203F054F9214622463D
:10858000194B0E20EC7102F049F903F0CFF864208A
:1085900003F094FD002003F07FF848F2442085F8B2
:1085A000274003F065FA4FF47F4003F0E3FEE72035
:1085B00003F05CFFFFF746FF0023AB751FB030BD33
:1085C000E72003F079FFFA2003F078FD684600F019
:1085D0009DFD94E7BC1F0020F05901086C010020AC
:1085E00001830008C21F0020C31F0020F0B5394CD2
:1085F00085B0A06204F000FA04F040F9364B374A27
:108600000093374B37490193374B38480293384B27
:1086100000250393374B03F02BF8642003F04EFD45
:10862000002003F039F8012348F24420E57684F86D
:10863000273003F01DFA304BA61D1A881F46012A69
:1086400006D00E2010212A46334602F0B9F8A0B118
:10865000FF2003F0F1F910210E2002F02BF9002188
:108660000025755401311029FAD10E202A46234BDA
:1086700002F0D4F83D8004F00DFB2379154D93B939
:10868000AB7913B90123AB750DE0E87958B9014610
:10869000012203F0C7F801212B4603F8071F0E2023
:1086A0000A4602F0BBF8237963B90A4B9B7D4BB1B4
:1086B000134802F0E5F8FFF7D7FE05B0BDE8F0403B
:1086C000FFF7C0BE4FF47F4003F054FEE72003F0F5
:1086D000CDFEEDE7BC1F002035C90008F18200087F
:1086E00049C90008E9820008B5C900085583000897
:1086F000DDC90008F9820008BA020020C21F00206C
:10870000E81F00202DE9F341A94C94F82E30002BEE
:1087100040F0C58094F82F30002B40F0C08094F8D2
:10872000273003F0FF0023B902F0B6FF012384F8DD
:108730002730A37D9E4E13B1FFF7A6FE07E03379E5
:108740002BB1F37D03F0FF05002B00F0D780E2781A
:10875000974B012A13D1DA7D012A10D15B79012BC5
:108760000DD10325934808F0FDF9013D82B29149EE
:10877000012002F043FF15F0FF05F3D1E57094F8F6
:1087800030308B4D43B92B7E002B40F0CE806B7E7A
:10879000002B40F0CA8008E1874B1A681E46002A69
:1087A00040F00381EB7D93B395F82F307BBB2B7E9C
:1087B000002B00F0CB802AE02B4603F8091F0E2087
:1087C0000121032202F02AF84FF6FF7003F0D2FDD8
:1087D000E72003F04BFEFEF720FD002880F2DF804B
:1087E00094F82E30724D002B40F0DF80FEF7ECFC49
:1087F0000028B4BF022303232B77237F0E2063724C
:1088000001216E4B032202F009F800232376237E18
:10881000674D002B00F0C9806B7E3BBBFEF7A5FCCB
:1088200000281DD002DA4FF47F0007E0012801D1B3
:10883000634803E0022803D14FF0FF1003F09AFDD4
:10884000E72003F013FE94F8313047F23052013341
:10885000DBB284F8313094F831305343336005E0B3
:1088600001236B76574B85F831001860FEF77FFCCB
:10887000002840F09A80544B1B780BB103F0CAFDDE
:108880000023A376E376637623764E4B1B68002B9A
:1088900000F08B80464B012283F82E2085E094F86F
:1088A0002730002B3FF445AF474B1B780BB103F04B
:1088B000B1FD002528466571E57584F82E5084F8D1
:1088C000275025766576A576E576257704F086F837
:1088D000642003F0F3FBA37D43B1284602F0DCFEE5
:1088E000334B012283F82720FFF7CEFD4FF47F4062
:1088F00003F040FDE72003F0B9FD1AE729462A46B8
:10890000284602F08FFF314808F02CF9304F80469E
:10891000384608F027F900970190791F0320424656
:108920002B4602F019FF357111E7FEF778FC0023A2
:108930004FF47F40A376E3766376237603F01AFD47
:10894000E72002B0BDE8F04103F090BD642003F0E1
:10895000B5FB05F1320001F021FF2B7F002B3FF426
:1089600033AF4FF47F0003F005FD227F104D02F07E
:10897000FF01002A3FF420AFE72003F077FD4FF41A
:10898000FA7003F09BFBE72003F07EFD4FF4FA70D2
:1089900003F094FB2B7F013BDBB22B77E5E7012350
:1089A00023760C4B00221A6031E702B0BDE8F0815B
:1089B000BC1F00206F01002070110020C51F002087
:1089C0000060FF00D81200209820002076010020CF
:1089D0007B010020DC12002007B5002100910A462F
:1089E0000B460348FEF7F6FD03B05DF804FB00BF3D
:1089F000282000207047FEE7FEE7FEE7FEE770470D
:108A000070477047FEF7AAB908B5024B0BB1AFF338
:108A1000008008BD0000000008B5024B0BB1AFF3A9
:108A2000008008BD0000000008B5024B0BB1FEF746
:108A300071FD08BD1575000808B5024B0BB1FEF7B6
:108A40006AFD08BD1775000808B5024B0BB1FEF7AB
:108A50008DFF08BD6D79000808B5012004F022FCE7
:108A600038B1012004F02CFC024B13B10020FEF7BA
:108A70006DFD08BD4D75000808B5022004F012FC1C
:108A800038B1022004F01CFC024B13B10120FEF7A8
:108A90005DFD08BD4D75000808B5042004F002FC1A
:108AA00078B1042004F00CFC0020064B014618802D
:108AB00003F08AFDBDE8084003481021012204F0BC
:108AC000E4BF08BDAA200020002C014008B5082002
:108AD00004F0E8FB38B1082004F0F2FB024B13B1BC
:108AE0000320FEF733FD08BD4D75000808B51020C2
:108AF00004F0D8FB38B1102004F0E2FB024B13B1B4
:108B00000420FEF723FD08BD4D75000808B52020A0
:108B100004F0C8FB38B1202004F0D2FB0E4B13B197
:108B20000520FEF713FD402004F0BCFB38B14020C7
:108B300004F0C6FB084B13B10620FEF707FD8020AA
:108B400004F0B0FB38B1802004F0BAFB024B13B143
:108B50000720FEF7FBFC08BD4D75000808B54FF473
:108B6000005004F09FFB40B14FF4005004F0A8FB0C
:108B7000174B13B10D20FEF7E9FC4FF4804004F0D1
:108B800091FB40B14FF4804004F09AFB104B13B1BD
:108B90000E20FEF7DBFC4FF4004004F083FB40B1F5
:108BA0004FF4004004F08CFB094B13B10F20FEF78B
:108BB000CDFC4FF4006004F075FB38B14FF4006059
:108BC00004F07EFBBDE8084003F004BA08BD00BF16
:108BD0004D75000808B51048102104F08FFFC8B18A
:108BE0000D48102104F095FF002003F09BFD30B9E3
:108BF0000A4B1A8892B20A3292B21A8008BD06480D
:108C00001021002204F041FFBDE8084000200121AE
:108C100003F0DABC08BD00BF002C0140AA200020F0
:108C200008B5012004F062FD30B1012004F06EFDB2
:108C3000BDE8084004F044BD08BD000008B50220AE
:108C400004F054FDB0B10C4B00224FF400301A7008
:108C500004F036FB012004F08DFC10B1012004F07B
:108C600093FC04F02DFD022004F050FDBDE8084007
:108C700004F026BD08BD00BFEB1F002003F03CB987
:108C800000F062B838B514490B78012B23D1134A90
:108C900013680BB90B7038BD114C402B206881B2A2
:108CA00005D94030403B20601360402504E09DB270
:108CB00003442360002313600A482A460844C02165
:108CC00005F024FC0120294605F028FDBDE83840C8
:108CD000012005F08DBC38BDC4120020CC1200204C
:108CE000C8120020C411002008B5094B01221A70D7
:108CF000084B002203201A8005F040FD064B024677
:108D000018804FF488710548BDE8084005F016BC8E
:108D1000781100207C1100207A1100207E110020A3
:108D2000074B1B68052B09D1064B1A68511C052AF5
:108D3000196003D100221A60FEF766B9704700BFC0
:108D4000C82000203020002070B52B4D2B4C2B6804
:108D50002B4E9BB22380228833881340990508D577
:108D60004FF6FF532B60A3780133DBB2A370FFF7FC
:108D7000D7FF2288338813401A0401D505F010FB71
:108D80002288338813405B0505D54FF6FF332B60EF
:108D90001C4B5B689847228833881A40900444BF74
:108DA0004DF6FF722A6022881340D90405D54EF68D
:108DB000FF732B60002004F0C9F822883388134029
:108DC0001A050BD5104B1B7813B104F09FF802E085
:108DD000022004F0BBF84FF2FF732B602288338827
:108DE0001340DB0507D54FF6FF632B600720BDE876
:108DF000704004F0ABB870BD445C004034200020EB
:108E0000B42A0020E0010020DC020020034B9B7A02
:108E100013B1034B05221A60704700BF902A00204F
:108E2000C8200020014B04221A607047C82000208F
:108E3000034B1A78202A04BF00221A70704700BF23
:108E40003820002070470000212810B508D1114BB0
:108E50001B681B7803F07F03212B10D0022010BD6C
:108E60002028FBD10B4B0C4A1B681B78107003F0B9
:108E70007F03212B094B18BF00230BB9EEE7084BEA
:108E8000044A002412682046936154829847204681
:108E900010BD00BFB02A002038200020F18E00084D
:108EA000D98E0008074B1B681B7803F07F03212B2A
:108EB00006D100F0DF00022814BF02200020704716
:108EC00002207047B02A002009B102207047012813
:108ED000FBD808467047000020B9034B08221B68E6
:108EE0001A82704701487047B02A0020D80100203C
:108EF00020B9034B08221B681A827047014870474B
:108F0000B02A0020D801002010B5FEF7C9F8054BA3
:108F100000241B689C7203F0E1FF05F045FC024B46
:108F20001C6010BDB02A0020C8200020334B344AFA
:108F30001B68D27910B500245A729C72DC722046EC
:108F400005F00EFB20464FF4007105F011FB2046A2
:108F5000102105F01BFB2046402105F0B3FB8021CA
:108F6000204605F09FFB204605F068FB254B204678
:108F700093F8341005F0E0FB204605F04CFB01208F
:108F8000214605F0F5FA0120C02105F08BFB0120F8
:108F9000202105F0FBFA0120214605F010FB0220FC
:108FA0004FF4C06105F0E4FA02204FF4807105F03F
:108FB00079FB0220214605F002FB0220202105F06A
:108FC000E5FA0320214605F0D3FA03204FF4887117
:108FD00005F078FB0320402105F0AEFB03204FF4A1
:108FE000405105F0ECFA0320214605F0CFFA204667
:108FF00005F06AF9044B01221A6010BDB02A002066
:109000005D5A0108D8010020C8200020014904F061
:1090100057BF00BF10020020014904F051BF00BF3C
:1090200018020020054B1B68DB78042B04D8044988
:1090300001EBC30104F044BF00207047B02A0020B8
:109040002002002038B504460D46FFF72DF92046D2
:1090500025614FF41651FFF731F9204638BD000065
:1090600007B5002100910A460B460348FEF7B2FA05
:1090700003B05DF804FB00BF3C20002070B506463D
:109080000D460024284607F06DFD844208D2295D74
:109090003046FFF703F9012003F010F80134F1E73F
:1090A00070BD00002DE9F84304460F4690460D467A
:1090B000C7EB05095FFA89F92046FFF7EBF80028AE
:1090C000FADD2046FFF7E4F8C145C6B206D1002319
:1090D0002B7020460C49FFF7D1FF0AE00D2EF6D089
:1090E0000A2EF4D020463146FFF7D8F805F8016B78
:1090F000DEE72046FFF7CEF8002803DD2046FFF725
:10910000C7F8F6E7BDE8F883A85F0108F0B585B0B9
:109110000446FFF7BFF8002840F39D802046FFF784
:10912000B7F8C0B2772868D104F1140600212122D3
:10913000304604F1350507F017F941220021284691
:1091400007F012F904F17607002384F87630204600
:1091500042497B70FFF792FF204631462022FFF7FD
:10916000A1FF20463E49FFF789FF012220463946EC
:10917000FFF798FF94F87630A3F13002D2B2032AB9
:10918000EFD8312B0BD120463649FFF777FF204629
:109190003549FFF773FF20463449FFF76FFF94F816
:1091A0007620B2F1300708D020463149FFF766FF3C
:1091B000204629464022FFF775FF20462D49FFF73C
:1091C0005DFF23693A4630462946984720462A499A
:1091D000FFF754FF20462949FFF750FF2046284952
:1091E000FFF74CFF20462749FFF748FF2046264956
:1091F000FFF744FF2046254928E069282BD1244B5E
:1092000001AD93E8070085E8070020462149FFF7F4
:1092100035FF0026AF5D20463B0903F130013929B7
:1092200084BF03F15701C9B207F00F07FFF736F803
:1092300007F13001392984BF5737F9B2204601368A
:10924000FFF72CF80C2EE5D11349204605B0BDE8F8
:10925000F040FFF713BF05B0F0BD00BFFC5D010893
:10926000035E0108305E0108665E0108915E010838
:10927000D75E0108E25E0108255F0108455F01082D
:10928000785F0108AB5F0108EA5F01081B60010815
:10929000E8F7FF1F31600108A85F010838B5002515
:1092A0000446016042618361858380F82450283040
:1092B000FEF782F92571A5772562204638BD002387
:1092C00010B503718383044600684FF4816103681D
:1092D0009B699847012384F8243010BD70B58369D9
:1092E000ADF5067D05461D4A00934FF400716B698C
:1092F00006A807F0C3FA1A491A48FEF7C7F906A9E3
:109300001848FEF7E0F9FF210A460B46009102A833
:10931000FEF760F9286804A9036840F206421C6A57
:10932000114B4FF47A760493039B0593A0470024D6
:1093300006A807F017FC024684422868036801D09B
:10934000013E04D19B6A98470DF5067D70BD06A9C4
:109350002144121B5B6898470444E9E74260010816
:1093600068600108AC1F002008590108F0B590F8AA
:109370002430ADF5257D04460BB9FFF7A0FFFEF7BD
:1093800037F8236A40F2D372C01A904205D92046BA
:10939000FFF7A4FFFEF72CF8206220680368DB6A61
:1093A0009847002851D0264656F81C0B24AD036878
:1093B0004FF400725B6B2946984700272F542449CD
:1093C0002448FEF763F929462248FEF77CF928462F
:1093D00004A98022334600F05DF805461D48002DA3
:1093E0002BD01D49FEF76FF9216802A80B68251DD7
:1093F0009B6B9847039B1949E362C3F307420092B2
:1094000094F82F2028460192DAB2C3F3072307F01D
:1094100069FA13490F48FEF739F929460D48FEF756
:1094200052F910490B48FEF731F90A48A18B0A227C
:10943000FEF799F984F8247003E00B49FEF743F92D
:10944000A58320680368DB6998470DF5257DF0BD8D
:1094500080600108AC1F00208F600108AB6001082C
:10946000B7600108CE600108E760010800790030AC
:1094700018BF01207047000007B5002100910A467F
:109480000B460348FEF7A6F803B05DF804FB00BFE7
:10949000442000202DE9F041884617461E46FDF77E
:1094A0008DFA044610B90020BDE8F081C568052D8D
:1094B000F9D10021FDF786FA20460121FDF782FA55
:1094C00005460028EFD0296940463A4607F0D4FB0C
:1094D00020460221FDF776FA0028E4D043690120F6
:1094E0003380BDE8F081F0B50446C9B00846FDF709
:1094F00065FAC3680546052B03D0684600F0CAFB31
:1095000028E00221FDF75EFA032107462846FDF711
:1095100059FAC3680646002B14DB012B0CDD032B24
:1095200010D139697269684600F0F4FBD6E9062368
:1095300044A9C1E900230AE068463969726900F06C
:10954000E9FB04E068463969326900F0B5FB28465A
:10955000FDF7E0F92046694600F006FC204649B0D8
:10956000F0BD01607047F8B506460F461546002469
:10957000AC4210D03068391903682A1B5B6A9847DF
:10958000002806DA306803689B6898470028EFD106
:10959000F8BD0444ECE7F8BD07B506226946FFF7BD
:1095A000E2FF002368468DF8063006F01FFA03B08C
:1095B0005DF804FB70B50646481C0D4606F044FBFA
:1095C000044630B1304621462A46FFF7CCFF00233F
:1095D0006355204670BD0000F8B50446FFF7DCFF78
:1095E00001462046FFF7E6FF03780446302B43D1BF
:1095F00083795B2B40D107F0B5FA231813F8013CAF
:1096000005465D2B38D120461C4907F0BBFC78B3DA
:10961000031B033DAB422BD2871C384607F0A2FA4E
:1096200000F10E05284606F00FFB2A4600210646EB
:1096300006F09AFE124B324603F1080E186859687C
:10964000154603C5083373452A46F7D118681B79B8
:1096500028602B71384607F085FA3946024606F134
:109660000D00FCF7EFF9204606F0F6FA344603E069
:10967000204606F0F1FA00242046F8BD1B610108DF
:109680001F61010807B5002100910A460B460348F7
:10969000FDF7A0FF03B05DF804FB00BF4C200020E5
:1096A0000022C0F80023704738B505460024D5F8DD
:1096B00000339C4207DA05EBC403D3F8000106F03F
:1096C000CBFA0134F3E7284638BD2DE9F041D0F854
:1096D000005304466B1CC0F80033084690460F4602
:1096E00007F040FA013006F0AFFA04EBC506C6F801
:1096F0000001394607F0BCF9D6F80031C6F80481FC
:1097000044F82530BDE8F081F8B507460E4604461A
:109710000025D7F800339D420CDA3046D4F800110A
:10972000FCF706FA18B9D4F80431304698470135E9
:109730000834EEE7F8BDD0F800037047704700002A
:1097400007B5002100910A460B460348FDF742FF8A
:1097500003B05DF804FB00BF5420002007B50021D2
:1097600000910A460B460348FDF734FF03B05DF84D
:1097700004FB00BF5C20002038B50446154600F00D
:10978000D3F96560204638BD70B5044640680D4683
:109790000268D26A9047B0B1284600F065FA0546E3
:1097A00029466068FDF772FF0646606802685269E4
:1097B0009047284607F0D6F9331A5C4228465C41A8
:1097C00006F04AFA00E00446204670BD37B5069C14
:1097D00005460094079C019400F0ACF9044621462C
:1097E0002846FFF7D1FF0546204606F035FA284601
:1097F00003B030BD38B5054600F010FA04462146E6
:109800002846FFF7C1FF0546204606F025FA284600
:1098100038BD000007B5002100910A460B460348F9
:10982000FDF7D8FE03B05DF804FB00BF6420002004
:1098300007B5002100910A460B460348FDF7CAFE12
:1098400003B05DF804FB00BF6C2000202DE9F0415F
:1098500004460D4604F1400742F2CD6108309046BF
:1098600004F16806FEF7B0FA3846FEF72BFA3046E8
:10987000FEF7A0FC04F52870FFF712FF294604F25A
:10988000A45000F051F929463A4604F5B560FFF7B7
:1098900073FF31462A46434604F5B660FFF7FEFCE7
:1098A000FDF7A6FD60602046BDE8F08173B50F4C62
:1098B0000F4D06460F492046FDF7E8FE684629464B
:1098C000FDF7A2FE69462046FDF707FF0A4920463C
:1098D000FDF7DCFE2846FDF7A7FE01462046FDF712
:1098E000F2FE0023337002B070BD00BFAC1F002039
:1098F000201F00202D6101084361010800F5287038
:10990000FFF7E3BE07B5002100910A460B46034866
:10991000FDF760FE03B05DF804FB00BF742000207B
:1099200010B504464030FEF7EDF8207010BD000081
:10993000F0B5057885B00446002D49D100F5B6662E
:109940003046FFF713FD3046FFF790FD00283FD06B
:1099500020492148FDF7B7FE20491F48FDF796FE34
:109960001F4ED4F8803002A91B4803930296FDF7DE
:1099700096FE1C491848FDF789FE41F635610A221A
:109980001548FDF7F0FED4F8803004F1400002A93C
:1099900041F6356202960393FEF750F9C0B11249C1
:1099A0000D48FDF790FE04F528760123237030461C
:1099B000FFF7C4FE07463046FFF7BDFE009503469D
:1099C000019504F5B56042F2CD613A46FFF7FEFE1F
:1099D00005B0F0BD55610108AC1F002062610108AF
:1099E000085901087D6101087F61010838B5084CFC
:1099F0000546FFF75BFF20460649FDF764FE20465B
:109A00000549FDF760FE2846BDE83840FFF790BFE6
:109A1000AC1F002096610108AE61010830B50378E3
:109A2000D5B0054663B302A805F10801FEF714FAA4
:109A3000099B082B24D002A901A8FFF792FD01A8D9
:109A4000FFF7CAFD044602A8FEF7E8F8A4B10CA887
:109A50002146FFF748FD0CA905F52870FFF754FED5
:109A6000204607F07FF800210246204606F07CFCE5
:109A7000204606F0F1F803E002480349FDF723FE13
:109A800055B030BDAC1F00200662010838B5037820
:109A900004467BB3FDF7ACFC636841F25632C01A52
:109AA000904227D9FDF7A4FC606004F5B560FFF78C
:109AB000A1FE114905461148FDF7E8FDFDF798FCA8
:109AC0000A2201460D48FDF762FE0D490B48FDF7DD
:109AD000DDFD0A4829460A22FDF745FE55B907482B
:109AE0000849FDF7F0FD204600F8405BBDE838402E
:109AF000FEF794B838BD00BF27620108AC1F0020F4
:109B0000336201083A62010810B50446FFF708FF06
:109B10002046FFF70DFF2046FFF780FF2046BDE8F7
:109B20001040FFF7B3BF0000014B016019607047A0
:109B30007C200020F0B5ADF2044D0C461646002105
:109B40004FF4806268461F46DDF81C5406F00CFC9A
:109B50002A4B2B491A686846234606F0C3FE68461E
:109B6000284906F0E5FE0024BC42684613DA26497F
:109B700006F0DEFE56F82410684606F0D9FE234BA8
:109B8000214A791E8C42ACBF11461946684606F040
:109B9000CFFE0134E8E71E4906F0CAFE68461949BF
:109BA00006F0C6FE0024AC42684615DA164906F0F7
:109BB000BFFEDDF81834684653F8241006F0B8FEEE
:109BC000124B114A691E8C42ACBF114619466846B9
:109BD00006F0AEFE0134E6E70D4906F0A9FE684640
:109BE0000C4906F0A5FE0C49684606F0A1FE684641
:109BF00006F09CFF0DF2044DF0BD00BF7C2000205C
:109C0000EB620108C86201081D6101080F630108C9
:109C100003630108076301081363010800B5C1B0BD
:109C2000684600214FF4807206F09EFB054B064902
:109C30001A68684606F056FE684606F077FF41B09F
:109C40005DF804FB7C2000201A63010807B50021A1
:109C500000910A460B460348FDF7BCFC03B05DF8D3
:109C600004FB00BF8020002038B5054606F07AFFCF
:109C7000073005F0E9FF0446284606F073FF044963
:109C800002462B46204606F02DFE204638BD00BF7A
:109C90002E63010830B50022002400F588750023EA
:109CA000047080F88840C0F80841C0F80C41C5E94C
:109CB000002380F8184130BD38B50446154680228F
:109CC00006F0DAFF294604F18800802206F0D4FF6E
:109CD00000234FF0FF32C4F88030C4F81C31C4F8C0
:109CE0008420284605F082FEC4F80801284605F0C5
:109CF0007DFEC4F80C01284605F074FE003504F51D
:109D0000887318BF0125C3E9000184F81851204663
:109D100038BD000070B504461546802206F0ACFF41
:109D20002B4604F1880080210E4A06F0A7FD00238F
:109D30004FF0FF32C4F80851C4F80C51C4F8803019
:109D4000C4F88420C4F81C312846FBF733FB0035E7
:109D500004F5887618BF0125C6E9000184F818517A
:109D6000204670BDB460010838B5802204460D4617
:109D700006F082FF05F1880104F18800802206F0D8
:109D80007BFFD5F8803004F58871C4F88030D5F8B1
:109D900084302046C4F88430D5F81C31C4F81C3116
:109DA000D5F80831C4F80831D5F80C31C4F80C31B5
:109DB00005F58873D3E90023C1E9002395F818312C
:109DC00084F8183138BD000007B5002100910A461B
:109DD0000B460348FDF7FEFB03B05DF804FB00BF34
:109DE0008820002007B5002100910A460B46034851
:109DF000FDF7F0FB03B05DF804FB00BF90200020EE
:109E0000002100F004B80D4B5B58435004310C485E
:109E10000C4B42189A42FFF4F6AF0B4A00F003B81D
:109E2000002342F8043B094B9A42FFF4F9AF02F0D9
:109E3000DBFFFDF767F9FCF721FF7047E4670108D6
:109E4000000000205C0B00205C0B0020C02A0020DA
:109E5000FFF7FEBF0B0A017043700B0C090E8370F5
:109E6000C170043070470170090A417002307047B8
:109E700043185A78435C03EB022080B2704710B558
:109E800043189A78DC78415C120402EB046258783B
:109E90000A4402EB002010BD73B544790023022C64
:109EA00001930FD0032C19D0012C2BD1164D2B6907
:109EB0002E4623B12B6901A898470246B8B9B1686C
:109EC00001201BE0104DEB682E4623B1EB6801A882
:109ED0009847024658B9B16802200FE00A4D6B69F5
:109EE0002E464BB16B6901A89847024620B1A9687C
:109EF0002046BDF8043003E0B16803200022134679
:109F000000F068FB02B070BDFC210020072810B5EE
:109F10000BD8012909D80124844001FA00F0034B31
:109F20001A6822EA040202431A6010BD6802002087
:109F300070B5012186B00546FFF79AFF4304044639
:109F40002AD5B0F5824F27D128460521FFF790FF8B
:109F500005EB8000EE1D0024C51DAE4206D0304644
:109F60000221FFF785FF04360444F6E7724B1A8E90
:109F700092B2224492B21A86DA6B1444DC63D96B33
:109F80009A6B914240F0CA8093F84020002A00F07A
:109F9000C5809B69992031E024F4FF4020F07F00C8
:109FA00080B2002800F0978048F210039C4228D02D
:109FB0000CD8B4F5004F40F2BC8048F202039C423A
:109FC00015D948F204039C4211D0B2E048F2800354
:109FD0009C420CD004D848F240039C424FD0A8E0E9
:109FE000B4F5024F03D0B4F5084F6BD0A1E0524B4B
:109FF0009A69002A00F092809B69204600210A4657
:10A0000067E00023EA1852790DF803200133042B8E
:10A01000F8D16B7A05F10D008DF80430AB7A8DF82C
:10A020000530EB7A8DF806302B7B8DF80730002356
:10A0300000AA1A44C15C0133042B1172F8D105F156
:10A040001100002300AA1A44C15C0133042B1173D0
:10A05000F8D105F11500002300AA1A44C15C0133B0
:10A06000042B1174F8D12B798DF81430324B9A6986
:10A07000002A53D09B6920466946152229E0053500
:10A0800000212846FFF7FBFE042100902846FFF739
:10A09000F6FE082101902846FFF7F1FE0C21029000
:10A0A0002846FFF7ECFE102103902846FFF7E7FE55
:10A0B000214B04909A69002A30D09B69204669465A
:10A0C000142206E01C4B9A6942B39B692046691D25
:10A0D0000122984722E041F203039C4205D0A4F5F7
:10A0E00080530E3B9BB2012B1AD86C1D20460421D5
:10A0F000FFF7C5FE39301CD12A790F4B00212046CD
:10A10000DA62FFF7BCFE042105462046FFF7B7FEE2
:10A11000393003D128460121FFF7F8FE012009E07C
:10A12000054B1B889BB29C4204D0B4F5805FF5D1EF
:10A1300000E0002006B070BDFC21002038B50A4CBC
:10A1400063889BB20BB9002038BD60680378042B8C
:10A15000F9D1FFF7EDFE01280546F4D10023638015
:10A1600001F07AFD284638BDFC2100202DE9F84F8A
:10A170000446894692460025DFF87483B8F8023019
:10A180009BB2002BF8D0D8F804603378042B40F051
:10A19000738130460121FFF76BFE05463046FFF71D
:10A1A000C7FE002840F05F8141F207039D4206F19F
:10A1B000050755D841F206039D4280F0AE8040F27B
:10A1C00002239D4200F0A98014D80C2D09D8082D37
:10A1D00080F0A380002D00F04681062D00F2E18082
:10A1E0009BE00D2D00F0968040F201239D4200F08F
:10A1F000918038E141F202039D4218D8B5F5805FA5
:10A2000000F28B80B5F5017F40F2848040F2072395
:10A210009D4240F028813379384604F8013B002103
:10A22000FFF72DFE01462046FFF714FE1BE141F229
:10A2300004039D4200F08B8040F2A180002138464B
:10A24000FFF71DFE042120603846FFF718FE083492
:10A2500044F8040C06F10D03224606F11D016FE0DF
:10A2600041F211039D4255D02BD841F20B039D4280
:10A2700053D01CD841F209039D424ED000F28C808D
:10A2800000213846FFF7FBFD042120603846FFF728
:10A29000F6FD082160603846FFF7F1FD0C21A06053
:10A2A0003846FFF7ECFD04F10C0BE060DAE041F218
:10A2B0000F039D4263D036D841F20D039D4246D034
:10A2C000D1E042F206039D4224D00BD8B5F5005FE1
:10A2D00040F2C98042F204039D4288BF002300F28D
:10A2E000848017E042F208039D42C0F0BC8042F235
:10A2F00009039D420ED944F20B039D4240F0B38006
:10A30000737938460121A8F83030FFF7B1FDA8F87D
:10A310003200A8E033792370A5E038460021FFF72A
:10A32000AEFD20609FE000213846FFF7A8FDA34660
:10A330004BF8040B04213846FFF7A1FD606091E063
:10A3400053F8040B8B4242F8040BF9D18BE0002147
:10A350003846FFF794FD042120603846FFF78FFD53
:10A36000082160603846FFF78AFDE36804F1080BB6
:10A370003933A06076D10121FFF7C8FD72E00021DA
:10A380003846FFF77CFD042120603846FFF777FD53
:10A39000083444F8040C66E0337923713B68236089
:10A3A00061E000213846FFF76AFD0421206038464D
:10A3B000FFF765FD082160603846FFF759FD0A2167
:10A3C000A0603846FFF754FD0C3444F8020C06F147
:10A3D0001103224606F1350153F8040B8B4242F873
:10A3E000040BF9D11B8813803DE0F2185279E25436
:10A3F0000133042BF9D106F109000023C15CE218F6
:10A400000133042B1171F9D106F10D000023C15C59
:10A41000E2180133042B1172F9D106F11100002367
:10A42000C15CE2180133042B1173F9D106F1150058
:10A430000023C15CE2180133042B1174F9D106F139
:10A4400019000023C15CE2180133062B1175F9D104
:10A4500006F11F000023C15CE2180133202B917626
:10A46000F9D100E05C46B8F800309BB29D4223D1A0
:10A470001F4B00221A801FE030460321B778FFF7F8
:10A48000F7FC8346B9F1000F0CD00421701DFFF7D3
:10A49000F6FC0246CAF8000006F115014846D2B2A1
:10A4A000FBF7D0FA791D20463144C7EB0B02FBF7CE
:10A4B000C9FA0023A8F836300023A8F8023001F0CA
:10A4C000CBFB3378042B05D1B5F5805F02D1304644
:10A4D000FFF7E2FCB8F800309BB2002B7FF44CAEE3
:10A4E000034BD88E80B200287FF446AEBDE8F88FCB
:10A4F000FC21002007284FF0010308D803FA00F0E0
:10A50000044B1A6810420CBF002001207047184607
:10A51000704700BF68020020064B10B51880064C3B
:10A520000846002101230A462370FFF71FFE00237F
:10A53000237010BDFC2100200421002010B5054C23
:10A540000123E386044C2370FFF710FE00232370E1
:10A5500010BD00BFFC2100200421002038B50346B7
:10A56000154601224A710C46881D1946FFF77BFCEF
:10A57000291D0570204601F031FC002038BD38B59A
:10A58000BDF814500C462B44D518ADB202216171B0
:10A59000A071E271294604F10800FFF764FC691D0F
:10A5A000204689B201F01AFC002038BD38B51344AA
:10A5B0000C469DB202216171A0712946E27104F13D
:10A5C0000800FFF750FC691D204689B2BDE83840FD
:10A5D00001F004BC2DE9F84F1C4604F1020B0323E3
:10A5E00001F107091FFA8BFB88710D464B71484634
:10A5F00059461646FFF737FCB4F57A7F824605F1D7
:10A600000B0812D82146FFF72EFC21465046FFF7D3
:10A610002AFC314640462246FBF714FAA11D284683
:10A6200089B2BDE8F84F01F0D9BB4FF47A77B4FB9B
:10A63000F7F30BEB430189B2FFF715FC394650469F
:10A64000FFF711FC314640463A46FBF7FBF9A4F50B
:10A650007A74284640F2EE31A4B23E4401F0BEFBCB
:10A66000B4F57A7F84BFA4F57A74A7B2A84688BFF0
:10A670004FF47A74314628F8054F4846224698BF71
:10A680000027FBF7DFF9A11C404689B2264401F000
:10A69000A5FB0FB13C46E3E7BDE8F88FF7B51E46D2
:10A6A000FF238DF80730194B00259C68475D63191F
:10A6B0000135042D5F72F9D100200D5C23180130A3
:10A6C00004285D73F9D10021505C6318013104291D
:10A6D0005874F9D104F115000021FFF7BBFB0022EB
:10A6E000B35C83540132042AFAD12146142242F287
:10A6F0000100FFF733FF42F201000DF10701FFF700
:10A700000BFF9DF9070003B0F0BD00BFFC21002046
:10A710002DE9F3411F46FF238DF807301E4B0646F7
:10A72000D3F8088033680C46013B122B9CBF1423DE
:10A7300033600B6808F10900013B122B9CBF142306
:10A740000B6013681546013B122B9CBF142313604A
:10A750003B68013B122B9CBF14233B603168FFF721
:10A7600079FB2168FFF776FB2968FFF773FB3968EF
:10A77000FFF770FB4146142242F20900FFF7EEFE9C
:10A7800042F209000DF10701FFF7C6FE9DF907002F
:10A7900002B0BDE8F08100BFFC21002010B5074BDE
:10A7A0000446996842F205000022FFF7D7FE2146D1
:10A7B00042F20500BDE81040FFF7AEBEFC210020CC
:10A7C0002DE9F3411F4602ACFF2304F8013D124B73
:10A7D00086469D680E4605F1090071469046FFF7D2
:10A7E00039FB3146FFF736FB4146FFF733FB29467D
:10A7F0000C2240F20120FFF7B1FE214640F2012079
:10A80000FFF78AFE002138460A46FFF797FE9DF8BB
:10A81000070002B0BDE8F081FC2100202DE9F341E2
:10A82000984602AD4FF0FF3345F8043D134B864682
:10A830009E680C4606F10A0071461746FFF70AFBB0
:10A840000C21FFF707FB2146FFF704FB3946FFF712
:10A8500001FB4146224606F11A00FBF7F3F83146A8
:10A860001022A3B29020FFF7A1FE40F20220294659
:10A87000FFF752FE019802B0BDE8F081FC210020F4
:10A8800013B50B4B04469968002240F20720FFF7EE
:10A8900065FE40F207206946FFF73EFE9DF8033053
:10A8A0009DF8000023709DF80430637002B010BD65
:10A8B000FC21002037B50E4A034694680D4604F18A
:10A8C00009001946FFF7C6FA2946FFF7C3FA2146E1
:10A8D000082240F20320FFF741FE40F203200DF171
:10A8E0000601FFF719FEBDF8060003B030BD00BF3A
:10A8F000FC2100202DE9F0430023CA5CC25401333F
:10A90000102BFAD10022344B467B991891F8018024
:10A910000178847B88EA01089919C97A90F80CC0FB
:10A9200088EA01081919CF7A417880F810804F40E1
:10A93000C17B47745D1895F80B908578634489EA6C
:10A94000050593F80B90C378FFB289EA030390F8EA
:10A950000490857488EA090890F80590EDB287EABA
:10A96000090790F80690C37485EA090590F80790E6
:10A97000DBB283EA090390F8089080F814805FFA4C
:10A9800088F888EA090890F809904775FFB287EAC5
:10A99000090790F80A908575EDB285EA090590F8E7
:10A9A0000B90C375DBB283EA0903013288EA0C0C11
:10A9B0007E406C4059400A2A80F818804776857698
:10A9C000C37680F81CC046778477C17700F1100009
:10A9D00099D1BDE8F08300BFB25A010810F0800F92
:10A9E0004FEA400018BF80F01B00C0B27047000063
:10A9F0002DE9F04F91F8A03090F800A042788AEA53
:10AA0000030A80F800A091F8A13097B0534043703A
:10AA10008278079391F8A23090F8049053408370A5
:10AA2000C278059391F8A33046795340C3700693DA
:10AA300091F8A430827989EA030980F8049091F8AA
:10AA4000A53090F808805E40467191F8A630477AAC
:10AA500053408371C279089391F8A730044653405C
:10AA6000C3710C9391F8A8304FF0000B88EA0308EB
:10AA700080F8088091F8A9305F404772827A91F897
:10AA8000AA30534083720993C07A91F8AB3094F89E
:10AA90000CC04340E3720D9391F8AC3094F80DE094
:10AAA0008CEA030C84F80CC091F8AD30A57B8EEADB
:10AAB000030E84F80DE091F8AE30E27B5D40A573A3
:10AAC00091F8AF305A40464BE2739A449AF80B0122
:10AAD00091F890A0994480EA0A00207099F80BA19F
