:020000040800F2
:1050000000500020C1940008C9800008CB8000082F
:10501000CD800008CF800008D1800008000000008B
:10502000000000000000000000000000D380000825
:10503000D580000800000000D7800008D980000853
:1050400011950008119500081195000801830008CA
:105050001195000811950008398100085981000850
:1050600079810008AD810008CD8100081195000804
:105070001195000811950008119500085D8300083E
:105080001195000811950008E980000811950008A5
:10509000618300081195000811950008ED81000852
:1050A000119500081195000811950008B5820008B7
:1050B0001195000811950008119500080981000854
:1050C0001981000811950008119500082981000830
:1050D0001195000811950008F98000081195000845
:1050E0003D8200081D8300081195000800000000A3
:1050F00000000000000000000000000000000000B0
:0C51000000000000000000005FF808F153
:1051100081F0004102E000BF83F0004330B54FEA68
:1051200041044FEA430594EA050F08BF90EA020FD5
:105130001FBF54EA000C55EA020C7FEA645C7FEA68
:10514000655C00F0E2804FEA5454D4EB5555B8BF8B
:105150006D420CDD2C4480EA020281EA030382EAFC
:10516000000083EA010180EA020281EA0303362D8E
:1051700088BF30BD11F0004F4FEA01314FF4801C61
:105180004CEA113102D0404261EB410113F0004F73
:105190004FEA03334CEA133302D0524263EB43032A
:1051A00094EA050F00F0A780A4F10104D5F1200EC8
:1051B0000DDB02FA0EFC22FA05F2801841F1000123
:1051C00003FA0EF2801843FA05F359410EE0A5F1F7
:1051D00020050EF1200E012A03FA0EFC28BF4CF028
:1051E000020C43FA05F3C01851EBE37101F00045DE
:1051F00007D54FF0000EDCF1000C7EEB00006EEBEB
:105200000101B1F5801F1BD3B1F5001F0CD3490874
:105210005FEA30004FEA3C0C04F101044FEA4452CB
:1052200012F5800F80F09A80BCF1004F08BF5FEA52
:10523000500C50F1000041EB045141EA050130BD32
:105240005FEA4C0C404141EB010111F4801FA4F1D5
:105250000104E9D191F0000F04BF01460020B1FA2A
:1052600081F308BF2033A3F10B03B3F120020CDA62
:105270000C3208DD02F1140CC2F10C0201FA0CF040
:1052800021FA02F10CE002F11402D8BFC2F1200CA5
:1052900001FA02F120FA0CFCDCBF41EA0C0190405B
:1052A000E41AA2BF01EB0451294330BD6FEA0404A4
:1052B0001F3C1CDA0C340EDC04F11404C4F120028F
:1052C00020FA04F001FA02F340EA030021FA04F3A1
:1052D00045EA030130BDC4F10C04C4F1200220FAF8
:1052E00002F001FA04F340EA0300294630BD21FA36
:1052F00004F0294630BD94F0000F83F4801306BFFC
:1053000081F480110134013D4EE77FEA645C18BFEF
:105310007FEA655C29D094EA050F08BF90EA020F86
:1053200005D054EA000C04BF1946104630BD91EA7E
:10533000030F1EBF0021002030BD5FEA545C05D181
:105340004000494128BF41F0004130BD14F58004C0
:105350003CBF01F5801130BD01F0004545F0FE4134
:1053600041F470014FF0000030BD7FEA645C1ABF69
:10537000194610467FEA655C1CBF0B46024650EAA0
:10538000013406BF52EA033591EA030F41F40021CC
:1053900030BD00BF90F0000F04BF0021704730B552
:1053A0004FF4806404F132044FF000054FF0000127
:1053B00050E700BF90F0000F04BF0021704730B5E8
:1053C0004FF4806404F1320410F0004548BF4042BD
:1053D0004FF000013EE700BF42004FEAE2014FEA12
:1053E00031014FEA02701FBF12F07F4393F07F4FED
:1053F00081F06051704792F0000F14BF93F07F4F1F
:10540000704730B54FF4607401F0004521F0004161
:1054100020E700BF50EA010208BF704730B54FF0E7
:1054200000050AE050EA010208BF704730B511F0EC
:10543000004502D5404261EB41014FF4806404F124
:1054400032045FEA915C3FF4DCAE4FF003025FEAA6
:10545000DC0C18BF03325FEADC0C18BF033202EB2E
:10546000DC02C2F1200300FA03FC20FA02F001FA88
:1054700003FE40EA0E0021FA02F11444C1E600BF27
:1054800070B54FF0FF0C4CF4E06C1CEA11541DBFDA
:105490001CEA135594EA0C0F95EA0C0F00F0DEF8A5
:1054A0002C4481EA030621EA4C5123EA4C5350EA8A
:1054B000013518BF52EA033541F4801143F48013DB
:1054C00038D0A0FB02CE4FF00005E1FB02E506F06C
:1054D0000042E0FB03E54FF00006E1FB03569CF0C1
:1054E000000F18BF4EF0010EA4F1FF04B6F5007FC7
:1054F00064F5407404D25FEA4E0E6D4146EB060639
:1055000042EAC62141EA55514FEAC52040EA5E50C1
:105510004FEACE2EB4F1FD0C88BFBCF5E06F1ED86B
:10552000BEF1004F08BF5FEA500E50F1000041EBA2
:10553000045170BD06F0004646EA010140EA02004F
:1055400081EA0301B4EB5C04C2BFD4EB0C0541EA71
:10555000045170BD41F480114FF0000E013C00F386
:10556000AB8014F1360FDEBF002001F0004170BDAA
:10557000C4F10004203C35DA0C341BDC04F11404C3
:10558000C4F1200500FA05F320FA04F001FA05F24F
:1055900040EA020001F0004221F0004110EBD3701C
:1055A00021FA04F642EB06015EEA430E08BF20EA48
:1055B000D37070BDC4F10C04C4F1200500FA04F3EB
:1055C00020FA05F001FA04F240EA020001F000417D
:1055D00010EBD37041F100015EEA430E08BF20EAF0
:1055E000D37070BDC4F1200500FA05F24EEA020E38
:1055F00020FA04F301FA05F243EA020321FA04F067
:1056000001F0004121FA04F220EA020000EBD3701D
:105610005EEA430E08BF20EAD37070BD94F0000F1D
:105620000FD101F00046400041EB010111F4801F51
:1056300008BF013CF7D041EA060195F0000F18BF02
:10564000704703F00046520043EB030313F4801F3E
:1056500008BF013DF7D043EA0603704794EA0C0FF8
:105660000CEA135518BF95EA0C0F0CD050EA41060E
:1056700018BF52EA4306D1D181EA030101F000418B
:105680004FF0000070BD50EA410606BF10461946B3
:1056900052EA430619D094EA0C0F02D150EA0136BF
:1056A00013D195EA0C0F05D152EA03361CBF104600
:1056B00019460AD181EA030101F0004141F0FE419F
:1056C00041F470014FF0000070BD41F0FE4141F423
:1056D000780170BD70B54FF0FF0C4CF4E06C1CEA23
:1056E00011541DBF1CEA135594EA0C0F95EA0C0FD8
:1056F00000F0A7F8A4EB050481EA030E52EA033593
:105700004FEA013100F088804FEA03334FF08055B3
:1057100045EA131343EA12634FEA022245EA1115E0
:1057200045EA10654FEA00260EF000419D4208BF91
:10573000964244F1FD0404F5407402D25B084FEA3E
:105740003202B61A65EB03055B084FEA32024FF4EA
:1057500080104FF4002CB6EB020E75EB030E22BF47
:10576000B61A754640EA0C005B084FEA3202B6EB07
:10577000020E75EB030E22BFB61A754640EA5C00B6
:105780005B084FEA3202B6EB020E75EB030E22BF46
:10579000B61A754640EA9C005B084FEA3202B6EB47
:1057A000020E75EB030E22BFB61A754640EADC0006
:1057B00055EA060E18D04FEA051545EA16754FEA68
:1057C00006164FEAC30343EA52734FEAC2025FEA86
:1057D0001C1CC0D111F4801F0BD141EA00014FF015
:1057E00000004FF0004CB6E711F4801F04BF0143E6
:1057F0000020B4F1FD0C88BFBCF5E06F3FF6AFAE02
:10580000B5EB030C04BFB6EB020C5FEA500C50F191
:10581000000041EB045170BD0EF0004E4EEA113114
:1058200014EB5C04C2BFD4EB0C0541EA045170BD1B
:1058300041F480114FF0000E013C90E645EA060E5F
:105840008DE60CEA135594EA0C0F08BF95EA0C0F8D
:105850003FF43BAF94EA0C0F0AD150EA01347FF4D5
:1058600034AF95EA0C0F7FF425AF104619462CE7AC
:1058700095EA0C0F06D152EA03353FF4FDAE10460F
:10588000194622E750EA410618BF52EA43067FF460
:10589000C5AE50EA41047FF40DAF52EA43057FF4F0
:1058A000EBAE12E74FF0FF3C06E000BF4FF0010CFB
:1058B00002E000BF4FF0010C4DF804CD4FEA410C5F
:1058C0007FEA6C5C4FEA430C18BF7FEA6C5C1BD02C
:1058D00001B050EA410C0CBF52EA430C91EA030FAD
:1058E00002BF90EA020F0020704710F1000F91EA0A
:1058F000030F58BF994208BF90422CBFD8176FEAD8
:10590000E37040F0010070474FEA410C7FEA6C5CA5
:1059100002D150EA013C07D14FEA430C7FEA6C5CAC
:10592000D6D152EA033CD3D05DF8040B704700BFD8
:105930008446104662468C461946634600E000BF26
:1059400001B5FFF7B7FF002848BF10F1000F01BDF8
:105950004DF808EDFFF7F4FF0CBF012000205DF8C3
:1059600008FB00BF4DF808EDFFF7EAFF34BF012048
:1059700000205DF808FB00BF4DF808EDFFF7E0FFE1
:1059800094BF012000205DF808FB00BF4DF808ED32
:10599000FFF7CEFF94BF012000205DF808FB00BF99
:1059A0004DF808EDFFF7C4FF34BF012000205DF87B
:1059B00008FB00BF4FEA410212F5001215D211D5C3
:1059C0006FF47873B3EB625212D94FEAC12343F0FC
:1059D000004343EA505311F0004F23FA02F018BF7E
:1059E000404270474FF00000704750EA013005D147
:1059F00011F0004008BF6FF0004070474FF000000A
:105A0000704700BF4A0011D212F5001211D20DD515
:105A10006FF47873B3EB62520ED44FEAC12343F0B4
:105A2000004343EA505323FA02F070474FF000005E
:105A3000704750EA013002D14FF0FF3070474FF00D
:105A4000000070474FEA4102B2F1E04324BFB3F5D2
:105A5000001CDCF1FE5C0DD901F0004C4FEAC002E5
:105A60004CEA5070B2F1004F40EB830008BF20F0C9
:105A70000100704711F0804F21D113F13872BCBF83
:105A800001F00040704741F480114FEA5252C2F1D8
:105A90001802C2F1200C10FA0CF320FA02F018BF21
:105AA00040F001004FEAC1234FEAD32303FA0CFC74
:105AB00040EA0C0023FA02F34FEA4303CCE77FEA03
:105AC000625307D150EA01331EBF4FF0FE4040F44D
:105AD0004000704701F0004040F0FE4040F40000FC
:105AE000704700BF844641EA000313F0030349D125
:105AF000403A23D30B6803604B6843608B68836034
:105B0000CB68C3600B6903614B6943618B69836137
:105B1000CB69C3610B6A03624B6A43628B6A83621F
:105B2000CB6AC3620B6B03634B6B43638B6B836307
:105B3000CB6BC36340304031403ADBD230320BD3C1
:105B40000B6803604B6843608B688360CB68C360FD
:105B500010301031103AF3D20C3205D351F8043B17
:105B600040F8043B043AF9D2043208D0D2071CBFF3
:105B700011F8013B00F8013B01D30B88038060461C
:105B8000704700BF082A13D38B07B1D010F003036E
:105B9000AED0C3F10403D21ADB071CBF11F8013BDE
:105BA00000F8013BA4D331F8023B20F8023B9FE709
:105BB000043AD9D3013A11F8013B00F8013BF9D27C
:105BC0000B7803704B7843708B7883706046704716
:105BD0004BB942B9002908BF002802D04FF0FF316D
:105BE000084600F03BB882B0EC462DE9005000F0CA
:105BF0001DF8DDF804E002B00CBC70472DE9704FD1
:105C0000089E14461D468046894600F029F804FB8C
:105C100001F3A4FB00AB00FB05329344B8EB0A0888
:105C200069EB0B09C6E90089BDE8708F2DE9704F5B
:105C3000089E14461D468046894600F061F900FB27
:105C400005F5A0FB04AB04FB0154A344B8EB0A0820
:105C500069EB0B09C6E90089BDE8708F704700BF8A
:105C600000292DE9F00FC0F2A1800024002BC0F222
:105C70009880154606460F46002B3FD18A4258D9D8
:105C8000B2FA82F34BB1C3F1200201FA03F720FA12
:105C900002F29D4000FA03F61743290CB7FBF1F21C
:105CA00001FB1277A8B200FB02F34FEA164C4CEA54
:105CB0000747BB4209D97F1902F1FF3C80F00581FB
:105CC000BB4240F20281023A2F44FF1AB7FBF1F3C4
:105CD00001FB137100FB03F0B6B246EA01418842B2
:105CE00008D9491903F1FF3780F0F180884240F26A
:105CF000EE80023B43EA0242002303E08B420AD9D2
:105D000000231A461046194614B1404261EB410186
:105D1000BDE8F00F7047B3FA83F8B8F1000F40F018
:105D200088808B4202D3824200F2E280002301226B
:105D3000E8E712B90123B3FBF2F5B5FA85F2002AC0
:105D40003AD17F1B280C1FFA85FC0123B7FBF0F129
:105D500000FB11770CFB01F24FEA164848EA0747AF
:105D6000BA4207D97F1901F1FF3802D2BA4200F2D4
:105D7000C4804146BF1AB7FBF0F200FB12700CFB67
:105D800002FCB6B246EA0040844507D9401902F148
:105D9000FF3702D2844500F2AE803A4642EA014221
:105DA000B0E7E443524263EB430362E7404261EBF6
:105DB00041014FF0FF3459E79540C2F1200927FA1D
:105DC00009F126FA09F99740280CB1FBF0F800FB1D
:105DD00018111FFA85FC0CFB08F349EA07094FEA82
:105DE000194747EA01418B4206FA02F608D94919D8
:105DF00008F1FF327AD28B4278D9A8F102082944FF
:105E0000C91AB1FBF0F300FB13170CFB03F21FFAE6
:105E100089F949EA0747BA4207D97F1903F1FF31E7
:105E200060D2BA425ED9023B2F44BF1A43EA08430C
:105E30008CE7C8F1200225FA02F103FA08FC27FAE0
:105E400002F320FA02F207FA08F741EA0C0C4FEAD3
:105E50001C49B3FBF9F109FB11331FFA8CFA0AFB59
:105E600001FB17433A0C42EA03439B4505FA08F04D
:105E700008D913EB0C0301F1FF3235D29B4533D91E
:105E800002396344CBEB0303B3FBF9F209FB123392
:105E90000AFB02FABFB247EA0347BA4508D917EB33
:105EA0000C0702F1FF331BD2BA4519D9023A6744F5
:105EB00042EA0145A5FB0001CAEB07078F424FF0FC
:105EC00000030AD305D02A461CE76246FDE63B469E
:105ED00010E706FA08F68642F5D26A1E002311E79B
:105EE0001A46E5E70B46A0E71146CBE7904687E761
:105EF0004346424606E7023A50E702392F4439E763
:105F00002DE9F00F144605460E46002B43D18A4278
:105F100053D9B2FA82F757B1C7F1200620FA06F634
:105F200001FA07F302FA07F400FA07F51E43210C01
:105F3000B6FBF1F201FB1266A0B200FB02F32F0CDC
:105F400047EA0646B34209D9361902F1FF3780F015
:105F5000FD80B34240F2FA80023A2644F61AB6FBBC
:105F6000F1F301FB136100FB03F0ADB245EA01411F
:105F7000884208D9091903F1FF3680F0E980884288
:105F800040F2E680023B43EA0242002310461946F3
:105F9000BDE8F00F70478B424CD8B3FA83F6002E61
:105FA0004FD18B4202D3824200F2DD80BDE8F00F78
:105FB0000023012210461946704712B90124B4FB90
:105FC000F2F4B4FA84F2002A40F08280091B260C15
:105FD000A7B20123B1FBF6F006FB101107FB00F29C
:105FE0004FEA154C4CEA01418A4207D9091900F1E0
:105FF000FF3C02D28A4200F2C8806046891AB1FB97
:10600000F6F206FB121107FB02F7ADB245EA0145B5
:10601000AF4208D92C1902F1FF3180F09B80A742D2
:1060200040F29880023A42EA004210461946BDE822
:10603000F00F704700231A4610461946BDE8F00FCE
:106040007047C6F1200522FA05F703FA06F421FA93
:1060500005F301FA06FB20FA05F53C434FEA144824
:10606000B3FBF8FC08FB1C331FFA84F909FB0CFA9C
:1060700045EA0B0B4FEA1B4545EA03439A4502FAF2
:1060800006F204D91B190CF1FF356FD3AC46CAEBED
:106090000303B3FBF8F508FB153309FB05F91FFAF9
:1060A0008BFB4BEA0347B94504D93F1905F1FF3390
:1060B00062D31D4645EA0C4CACFB0223C9EB070733
:1060C0009F424FF000054AD346D062462B465DE71B
:1060D0009440C2F1200921FA09FC914020FA09F903
:1060E000260CBCFBF6F806FB18CCA7B207FB08F39E
:1060F00049EA01094FEA194141EA0C4C634500FAAB
:1061000002F509D91CEB040C08F1FF323BD26345C0
:1061100039D9A8F10208A444C3EB0C0CBCFBF6F37C
:1061200006FB13C107FB03F21FFA89F949EA014193
:106130008A4207D9091903F1FF3022D28A4220D9B5
:10614000023B2144891A43EA084343E73A4605E7FC
:10615000334618E70A4666E7B0409042B5D20CF1E4
:10616000FF32002312E7334632460FE79A458DD9B6
:10617000ACF1020C23448AE7B9459AD9023D274481
:1061800098E70346DEE79046C6E70238214435E744
:1061900010B5044600F52F7002F03AFD204610BD00
:1061A00008B50A20022100F0ABFC0B20022100F010
:1061B000A7FC0C20022100F0A3FC0D20022100F01E
:1061C0009FFC0E20022100F09BFC0F20022100F01A
:1061D00097FC0220014600F093FC0320022100F00E
:1061E0008FFC0420022100F08BFC0520022100F02E
:1061F00087FCBDE808400348034940F2064202F02C
:10620000D5BE00BF780B00200000002008B56C4808
:1062100002F034FF6B4803F015F96B4803F012F9F4
:106220006A4803F00FF96A4803F00CF9694803F073
:1062300009F9694803F006F9684803F003F968486A
:1062400003F000F9674803F0FDF8674803F0FAF837
:106250005C4803F01DF920B159486449012202F05D
:10626000EBFD584803F00BF920B155486049012275
:1062700002F0E2FD544803F00BF920B150485D49AB
:10628000012202F0D9FD504803F0F9F820B14C4842
:106290005949012202F0D0FD4C4803F0F9F820B131
:1062A00047485649012202F0C7FD484803F0E7F885
:1062B00020B143485249012202F0BEFD444803F098
:1062C000E7F820B13E484F49012202F0B5FD4048B1
:1062D00003F0D5F820B13A484B49012202F0ACFD59
:1062E0003C4803F0D5F820B135484849012202F076
:1062F000A3FD384803F0C3F820B1314844490122D6
:1063000002F09AFD344803F0C3F820B12C4841490B
:10631000012202F091FD304803F0B1F820B1284885
:106320003D49012202F088FD2C4803F0B1F820B16C
:1063300023483A49012202F07FFD284803F09FF8E4
:1063400020B11F483649012202F076FD244803F0AF
:106350009FF820B11A483349012202F06DFD204810
:1063600003F08DF820B116482F49012202F064FD98
:106370001C4803F08DF820B111482C49012202F08D
:106380005BFD184803F07BF820B10D482849012235
:1063900002F052FD144803F07BF820B1084825496B
:1063A000012202F049FD104803F069F830B10448B9
:1063B00021490122BDE8084002F03EBD08BD00BFF2
:1063C000780B00205C1100206C1100207C11002053
:1063D0008C1100209C110020AC110020BC11002069
:1063E000CC110020DC110020EC1100201C58010809
:1063F0002858010835580108415801084E5801082D
:106400005A58010867580108735801088058010854
:106410008C58010899580108A5580108B25801087C
:10642000BE580108CB580108D7580108E4580108A4
:10643000F0580108FD5801080A59010813B5284C05
:1064400000210B4600910A4604F2846000F0EAFC49
:1064500004F2E4500A21322202F0CCFF04F2F4509C
:106460000B21322202F0C6FF04F204600C2132221A
:1064700002F0C0FF04F214600D21322202F0BAFFD4
:1064800004F224600E21322202F0B4FF04F23460E0
:106490000F21322202F0AEFF04F2446002213222C8
:1064A00002F0A8FF04F254600321322202F0A2FF9E
:1064B00004F264600421322202F09CFF322204F2D2
:1064C0007460052102F096FF2046064902F042FC66
:1064D0000549064A204602B0BDE8104007F0CEBE8E
:1064E000780B0020185901089161000884130020DE
:1064F000013101EB420291420BD0030F092B94BFF3
:106500003033373301F8013C0023000101F8023B2E
:10651000F1E7704710B54FF000604FF4A04106F06E
:1065200015FA0124284B294821461C7006F01EFC50
:1065300005F030FD05F018FA2146402006F0CEFCAB
:106540006FF07F4005F088FBE72005F001FC204B51
:106550001C7005F049FA7D2006F0E4FC18B11D4BD3
:106560001C7006F0F3FC40F6B83005F0A6FA05F012
:10657000E1FF06F08FF8184801F0A2FB174B01224B
:106580001A7001F029FC164B1B781BB9154B1B78B0
:10659000002BF6D0144B1B78002BF2D10D4B1B783F
:1065A000002BEED10F4C2378012B01D00F4B33B9C8
:1065B0000F4B0BB1FFF72AFE00F086FAE1E7FFF779
:1065C000EFFD01232370F3E7662100200004300073
:1065D0007B200020282B0020FB690008932000204E
:1065E00079200020041200207A200020A1610008F8
:1065F0000D620008F8B5614B1A6812B11A68013AC9
:106600001A605F4B5F4D1B7833B15F4B1B78E3B172
:106610005E4B002B3AD118E05D4C236813B1236820
:10662000013B11E02B7883B95A4B1B786BB95A4B5D
:106630001B7853B9594F5A4E3B7863B3E72005F0A6
:10664000F3FB33782BB314232360564B564C1B7843
:1066500003F0FF025BB162684EF65F239A4202D9F3
:106660000123237204E063680133636000E0626029
:106670002B784E4E03F0FF07002B33D1384605F040
:10668000D3FC40F6B73398421BD82BE000F0B6F9A4
:10669000DBE70123D8E733784BB14FF6FF7005F005
:1066A000DBFAE72005F054FB01233B70CDE7E72040
:1066B00005F074FB3E4B1B780BB13223C4E7642317
:1066C000C2E7384605F0B8FC3378C3B9394B1B78BC
:1066D0002BB1374B324A1B7812781A4248D001232B
:1066E0002B700CE0002005F09FFC41F657339842D8
:1066F00005D9002005F0A0FC2F4B01221A70337839
:10670000A3B9E268284B1AB1DA68013ADA600DE001
:10671000204A127852B1196947F22F52914202D998
:1067200001221A7202E01A6901321A61234B1A68B7
:10673000B2F57A7F04D300221A6006F06FFB02E004
:106740001A6801321A60237A5BB1BFF34F8F1C4A7B
:106750001C4BD16801F4E0610B43D360BFF34F8F52
:10676000FEE7194B1B783BB1BDE8F84000F09EB93D
:10677000154B01221A70B2E7F8BD00BF302B002084
:106780005021002076200020B8150020FD69000867
:106790002C2B00207A2000207C2000207B20002051
:1067A00079200020C0210020041200209220002027
:1067B000782000207720002087200020342B002024
:1067C00000ED00E00400FA058620002008B5094B22
:1067D000186005F055FE002005F09EFE064805F005
:1067E000EBF805F065FE05F083FEBDE8084007F014
:1067F00039BA00BFD0010020A0860100074B1B68FA
:10680000052B08D1064B1A7D012A04D1987D1B7EE9
:10681000C01AC0B270470020704700BF842100201A
:10682000041200200D4B10B51B68052B13D10C4C26
:10683000237D012B0FD1E28A238BD31A012B04D1A4
:1068400000230320237507F064FB238B5A1C22834B
:106850001C44A07E10BD4FF0FF3010BD84210020ED
:1068600004120020084B1B68052B0CD1074BDA6D76
:1068700099180132B2F5807FDA6508BF002281F8ED
:10688000600008BFDA6570478421002004120020F0
:10689000F8B5234B93F86021012A3FD0D3F8642147
:1068A000D96DB2F5807F04BF0022C3F86421D3F80C
:1068B00064411B4A8C4203D1002382F86031F8BD49
:1068C0008CBFC4F58071C4EB0101C2F86811D3F824
:1068D0006861134D402EA2B207D94034403EC5F83E
:1068E0006441C5F86861402706E034440021B7B22E
:1068F000C5F86441C5F868110A4801241044C02154
:106900003A4683F8604107F07FFA2046394607F09F
:1069100083FB2046BDE8F84007F0E8BAF8BD00BFA9
:106920000412002064120020094B10B593E81400F3
:1069300008331B68D0180AD006490822FFF7D8FD93
:10694000204605490422BDE81040FFF7D1BD10BD27
:10695000E8F7FF1F7F0100208F01002007B500210D
:1069600000910A460B46034800F05CFA03B05DF85C
:1069700004FB00BF7013002038B504460D46AC423E
:1069800003D254F8043B9847F9E738BD08B50748E7
:106990000749FFF7F1FF07480749FFF7EDFFBDE89B
:1069A000084006480649FFF7E7BF00BFB06401088A
:1069B000B0640108B0640108286501082865010871
:1069C00028650108FEE70000054A08B51368184469
:1069D0001060044A904201D907F07EFC184608BDB9
:1069E00008000020004800204FF0FF3070470120D1
:1069F00070470020704701207047704738B5114C30
:106A0000D4F8445B2DB1D4F8443B013BC4F8443B7B
:106A100038BDD4F8483B0C4A52F8230005F044F93D
:106A2000E72005F095F96423084AC4F8443BD4F8FC
:106A3000483B126801339342C4F8483BA8BFC4F8EE
:106A4000485B38BD88130020F45201080C00002078
:106A500030B5022085B00121062203F097FF041E05
:106A60001BDB0223ADF8003000238DF80230352304
:106A70008DF803306946082310228DF804308DF814
:106A800005308DF806308DF8073004F091F8054692
:106A9000204603F0A9FF284601E04FF0FF3005B083
:106AA00030BD01207047002070470000044B0122D8
:106AB00000215A801980D986024B1A70704700BF96
:106AC000B822002086200020084B0022D3F83C1278
:106AD00003F510738A4208DA93F8500010B10020D1
:106AE00083F8500001325133F4E7704788130020D7
:106AF00004F05EB8014807F0ABBB00BFBC16002035
:106B000014282DE9F34104460E4669D8FF2967D0C1
:106B100000F088FA20B1A4F10D039BB2022B5FD9DB
:106B200000F022F908B1012C5AD900F005FF20B17C
:106B3000A4F112039BB2012B52D92B4D24012B1926
:106B40002F59B3F80480294B9F4201D1042003E060
:106B5000274B9F4203D10820012106F0CBF9ADF865
:106B60000480062E38D8DFE806F0040D13191F281C
:106B7000310010238DF8073003238DF806302C44A4
:106B8000002328E004238DF807302C44012322E061
:106B900048238DF807302C4402231CE028238DF86D
:106BA00007302C44032316E018238DF80730032305
:106BB0008DF806302C4404230DE01C238DF807309B
:106BC00003238DF806302C44052304E000238DF8C0
:106BD00007302C440623A373384601A906F06EF84B
:106BE00002B0BDE8F08100BF1000002000080140A5
:106BF000000C0140142870B5044602D94FF0FF3054
:106C000070BD184E050173199B7B013BDBB2FD2B58
:106C1000F4D800F007FA20B1A4F10D039BB2022BC7
:106C2000ECD900F0A1F808B1012CE7D900F084FEFE
:106C300020B1A4F112039BB2012BDFD973199B7B06
:106C4000062B09D1074B93F850114B1EDBB2FD2BDD
:106C5000D4D82046FFF754FF73197059998806F06D
:106C60007BF870BD1000002005F0D0BC10B50446C4
:106C700005F0CCFC044405F0C9FC8442FBD810BDEF
:106C800007B5002100910A460B46034800F0CAF8F8
:106C900003B05DF804FB00BFE81E0020024B18782B
:106CA0005B78C01A704700BFF01E0020064B5A7870
:106CB0001978914204D99918013288785A7070472E
:106CC0004FF0FF30704700BFF01E0020054B5A7890
:106CD0001978914202D91344987870474FF0FF30E9
:106CE000704700BFF01E002070470000F8B5094B48
:106CF000054693F82230164653B10C468F18BC4215
:106D000006D02B6828461B6814F8011B9847F6E745
:106D10003046F8BDF01E002010B50C4B012293F850
:106D200022408CB193F823401F2C02D942600020EE
:106D300010BD93F824001C1884F82510411CC9B21A
:106D400083F8241083F82310104610BDF01E002095
:106D5000002242604FF47A728260014A02607047FA
:106D60002853010870477047014B93F8590070474A
:106D7000F01E002013B5084C0021009104F16400BE
:106D80000A460B4600F04EF804F16C0002B0BDE874
:106D90001040FFF7DDBF00BFF01E002008B5034B19
:106DA00053F8203003B1984708BD00BF6C1F002086
:106DB00007B5002100910A460B46034800F032F85F
:106DC00003B05DF804FB00BFAC1F00202DE9F041CB
:106DD000002407460E4625463B1919790A223046FB
:106DE00000F001F92E218046304600F07BF8013496
:106DF0004044032C0544EFD13046F9790A2200F0D3
:106E0000F2F82844BDE8F08110B5054A0446002197
:106E100040F8042B042207F021FF204610BD00BFDC
:106E20004853010830B58371034D9DF80C3005605F
:106E300001714271C37130BD48530108044B054ACA
:106E40001A6000221A715A719A71DA71704700BF84
:106E5000B41F00204853010837B5064C0546E178B9
:106E6000A278637824780094FFF7DCFF284603B00B
:106E700030BD00BF9520002000487047AF200020A3
:106E800007B5002100910A460B460348FFF7CAFFE9
:106E900003B05DF804FB00BFBC1F0020F8B5064638
:106EA0000C468F180025BC4207D0336830461B685B
:106EB00014F8011B98470544F5E72846F8BD38B596
:106EC00005460C46084641B108F0F6FA2B68024622
:106ED0005B6828462146984738BD38BD08B5FFF79E
:106EE000EEFF08BD08B503681B68984708BD10B5DC
:106EF0000A680446126808462146904710BD38B516
:106F00000D210546FFF7EEFF0A2104462846FFF74C
:106F1000E9FF204438BD38B50446FFF7D0FF0546E9
:106F20002046FFF7ECFF284438BD38B50446FFF78C
:106F3000DEFF05462046FFF7E2FF284438BD30B5A6
:106F400000238BB08DF82430012A98BF0A220DF15E
:106F50002304B1FBF2F303FB1211CDB2092D94BF50
:106F600030353735EDB2214604F801590BB11946D9
:106F7000EFE7FFF7A4FF0BB030BDF8B506460D46AE
:106F8000144622B90368C9B21B689847F8BD0A2A9B
:106F90000CD100290BDA2D21FFF7A4FF6942074627
:106FA00022463046FFF7CBFF3844F8BDD2B2BDE8E9
:106FB000F840FFF7C4BFFFF7E0BF38B50446FFF75E
:106FC000DCFF05462046FFF79AFF284438BD10B580
:106FD00022B90268C9B21268904710BDD2B2BDE8AA
:106FE0001040FFF7ACBFFFF7F2BF000007B500216C
:106FF00000910A460B460348FFF714FF03B05DF803
:1070000004FB00BFC81F002007B5002100910A46FD
:107010000B460348FFF706FF03B05DF804FB00BF13
:10702000D01F0020014B587D704700BFD81F0020A3
:107030007047000007B5002100910A460B4603483F
:10704000FFF7F0FE03B05DF804FB00BFF01F002067
:1070500007B5002100910A460B460348FFF7E2FE00
:1070600003B05DF804FB00BFFC1F002013B50268ED
:1070700069469469034A009242690192028BA047D3
:1070800002B010BD4853010813B5026802AB03F803
:10709000011D546819460122A04702B010BD00002E
:1070A0000B4B1B78012B10D1C369082B0DD0428EDE
:1070B0005AB1038E0F2B08D8591C034493F8203083
:1070C000013A01864286184670474FF0FF307047FC
:1070D00077200020036810B59B680446984720B1CC
:1070E00023682046DB68984710BD4FF0FF3010BD85
:1070F00010B50446236820469B68984720B1236852
:107100002046DB689847F5E710BDC069083818BF0E
:10711000012070472DE9F04188B0002608AC0546F3
:1071200008460F46904644F8146D08F0C5F922460B
:1071300081B2384603F004FDB04215DD039B04A87C
:10714000DAB20092190EC3F30742C3F30723FFF725
:1071500069FE2B6828469C69054B06A90693059B8A
:1071600042460793A04700E0304608B0BDE8F081F2
:107170004853010838B5134B04461B780846012BC9
:10718000154602D04FF0FF3038BDE369082BF9D027
:10719000638E002BF6D0218E0F29F3D8AB4204F179
:1071A000200105D81A46FEF79DFC638E238602E077
:1071B000FEF798FC2586208E0028E3D0638E1B1AEC
:1071C000638638BD77200020F8B50E4B04461E7844
:1071D000F6B2012E11D1C369082B0ED003689B684B
:1071E0009847054658B9084FE369FB5C3BB12368F3
:1071F00020469B6A9847E369FD540020F8BD30465D
:10720000F8BD00BF772000207E200020064B1B78B1
:10721000012B05D1C069082802D0002303F066BE07
:107220004FF0FF30704700BF7720002030B52B4B68
:1072300087B01B780546012B02D1C369082B01D109
:10724000002049E0428E2AB12A8EA88E824201D2C5
:10725000801A41E05A0906A901EB8202012003F0DD
:107260001F01884000248DF80C408DF80D408DF8EA
:107270000E408DF80F4052F80C1C0494014342F864
:107280000C1C41F28832059204AA0092581C03A9F2
:107290002246234603F0BAFCA0421CDDE86906A999
:1072A000420901EB820252F80C2C00F01F0342FA53
:1072B00003F313F001030CD005F120011022234643
:1072C00003F084FD002807DD83B22C866B86AB8635
:1072D00002E0184600E0204607B030BD77200020CD
:1072E00010B5084B04461B78012B0AD1C369082B43
:1072F00007D06420FFF7BAFCE06903F075FB0823B0
:10730000E36110BD772000202DE9FF414B68044662
:1073100043611D4B0E461F789046FFB2012F22831A
:107320002ED102203946062203F030FB0028E0610E
:107330004FF0000524DB022325866586A586ADF87F
:1073400000304FEA18238DF80230337969468DF802
:107350000430737910228DF80530B3798DF80380ED
:107360008DF80630F3798DF80730FFF7C1FBA8429E
:1073700004DA0823E361054B1D7201E0384600E0A2
:10738000002004B0BDE8F081772000207E2000209E
:10739000002310B543604FF47A738360044B0446B6
:1073A00040F8103BFFF730FD0823E361204610BD95
:1073B0005853010870B54FF47A738360074B00256A
:1073C00004460E46456040F8103BFFF71DFDE661A0
:1073D00025866586A586204670BD00BF58530108E6
:1073E00007B5002100910A460B460348FFF71AFD36
:1073F00003B05DF804FB00BF0420002013B5026851
:1074000002AB03F8011D546819460122A04702B0DF
:1074100010BD0000F0B51C4B87B019780746C9B203
:1074200001292FD1038902261A0A00248DF80A2087
:1074300030460622ADF808608DF80B308DF80C4010
:107440008DF80D408DF80E408DF80F4003F09EFA38
:10745000051E17DB042300934FF6FF7132462346C7
:1074600003F03CFCA0420DDB284602A9102203F0E9
:1074700013FBA04206DB2846214603F03BFBA0425B
:10748000A8BFFD6007B0F0BD772000201030FFF7E7
:10749000BDBE000010B500234360054B01810821EB
:1074A00004460360C1601030FFF784FF204610BD22
:1074B000985301084B6870B543608B680D46836034
:1074C000CB6800F12006C3604B69044643610B8B17
:1074D0000383CB69C36101F120030FCB86E80F0062
:1074E0002B8E204623866B8E6386AB8EA38670BD63
:1074F0004B6870B543608B680D468360CB6800F1C4
:107500002006C3600B4B044603600B4B03614B69C1
:1075100043610B8B0383CB69C36101F120030FCB64
:1075200086E80F002B8E204623866B8E6386AB8EFB
:10753000A38670BD585301084853010870B5CB6845
:1075400094B0082B06460C4603D10B6808469B688E
:107550009847134B04F110051B78012B02D1E0680A
:1075600008280FD10821E16006A8FFF723FF06A92C
:107570002846FFF79FFF30462946FFF7B9FF304600
:1075800014B070BD102302A901AA019303F052FAAE
:10759000011E02DA06A80821E7E706A8C9B2E4E757
:1075A0007720002007B5002100910A460B460348CA
:1075B000FFF738FC03B05DF804FB00BF0C2000208F
:1075C00008B503681B6B984708BD0000024A0260BB
:1075D0008A694260704700BF48530108808B70473A
:1075E000B0F8360270474B6802218283C18380F86D
:1075F0002120110AC3F30722836180F8223080F82A
:107600002320C3F307421B0E80F82530102380F897
:10761000201080F824200363012070470120704768
:1076200013B5026802AB03F8011D54681946012224
:10763000A04702B010BDB0F836227AB1B0F83432AB
:10764000B3F5007F0AD2591C034493F83430013A51
:10765000A0F83412A0F83622184670474FF0FF30D9
:107660007047036810B59B680446984720B12368AB
:107670002046DB68984710BD4FF0FF3010BD10B5B5
:107680000446236820469B68984720B1236820461B
:10769000DB689847F5E710BD30B50446022085B099
:1076A0000D461122014603F071F900284FF0000346
:1076B0001DDB0222ADF800202A0A20748DF802207A
:1076C0006582A4F83432A4F83632C0B2694610227A
:1076D0008DF803508DF804308DF805308DF80630A4
:1076E0008DF8073003F0D8F9C043C00F00E018460A
:1076F00005B030BD10B50446007C03F075F908B93B
:107700000823237410BD00002DE9F04188B0002645
:1077100008AC054608460F46904644F8146D07F03D
:10772000CBFE224681B2384603F00AFAB04215DD9C
:10773000039B04A8DAB20092190EC3F30742C3F305
:107740000723FFF76FFB2B6828461C6A054B06A929
:107750000693059B42460793A04700E0304608B0D9
:10776000BDE8F0814853010813B5034603F11E0438
:10777000007C00941B6B0193002303F0C1FB02B05B
:1077800010BD30B50446007C87B0430906AA02EB61
:107790008303012100F01F02914000258DF80C5059
:1077A0008DF80D508DF80E508DF80F5053F80C2CAD
:1077B00001300A4343F80C2C41F28833059304ABA3
:1077C000009303A92A462B46049503F01FFAA8420A
:1077D00034DD207C06AB420903EB820252F80C2C0C
:1077E00000F01F0342FA03F313F0010328D004F161
:1077F0001E03009304F13003019304F134014FF4AC
:1078000000722B4603F0EDFA00281ADD94F82020D0
:1078100094F82130A4F8345243EA0223A38394F865
:107820002230A4F83602237694F82330637694F855
:107830002430A37694F82530E37602E0284600E071
:10784000184607B030BD38B50446B4F8363208469D
:10785000154613B94FF0FF3038BDB4F83412B1F506
:10786000007FF7D2934204F1340107D81A46FEF79D
:1078700039F9B4F83632A4F8343203E0FEF732F9BD
:10788000A4F83452B4F834020028E3D0B4F8363205
:107890001B1AA4F8363238BD002310B543604FF4EC
:1078A0007A738360044B0446036008230374143026
:1078B000FFF7AAFA204610BDB053010807B5002112
:1078C00000910A460B460348FFF7ACFA03B05DF897
:1078D00004FB00BF142000204FF0FF3070477047BA
:1078E00008B52021034805F09EFD003018BF012097
:1078F00008BD00BF0044004008B5024805F08FFDF8
:1079000008BD00BF0044004008B5054805F083FDF0
:107910000348802105F087FD0028F9D0012008BD2B
:1079200000440040002242604FF47A728260014AB3
:1079300002607047F8530108014B187C704700BF84
:107940001C20002013B5084C0021009104F1140004
:107950000A460B46FFF766FA04F11C0002B0BDE8C8
:107960001040FFF7DFBF00BF1C20002070474FF022
:10797000FF307047FEF756BF08B5FEF73FFF08BD62
:1079800008B50846FEF76EFF012008BD00224260E0
:107990004FF47A728260014A0260704718540108FD
:1079A0000846FEF713BF000013B5074C00210091F5
:1079B00020460A460B46FFF735FA04F1080002B0EC
:1079C000BDE81040FFF7E2BF48200020002303601D
:1079D0001846704700230360184670470023036071
:1079E000184670472DE9F0410B7886B0002B0C4605
:1079F00014BF90464FF00008064607F05DFD0746AD
:107A0000204607F059FD182301931E2301250293F8
:107A100002230393059000950494404631463A466C
:107A2000002303F0A1FB034B18705D7006B0BDE8A6
:107A3000F08100BF6020002048F20203984210B598
:107A40001ED006DC99284AD048F20103984213D090
:107A500010BD48F28003984207D0B0F5084F42D0DD
:107A600048F21003984250D128E0284B01229A7026
:107A7000DA7000221A7110BD244B01225A7110BD18
:107A8000224C637953B1224B00224FF47F401A708D
:107A900004F0E2F8E72004F05BF906E0A37913B103
:107AA000013BA37101E00123A37500236371E3751A
:107AB00023766376A376E376237710BD0A7D134B96
:107AC00052B901224FF47F40DA7504F0C5F8BDE8E1
:107AD0001040E72004F03CB90022DA7510BD0B4BD2
:107AE00001225A7710BD0A78072A0ED8074B0121C8
:107AF0009818817707480068824206D100229A765A
:107B0000DA765A761A7683F8261010BD60200020A7
:107B100050210020BC1500201FB54FF461504FF4D8
:107B200061610A223C238DE80F00684601A902AA80
:107B300003AB02F06BFA05B05DF804FB1FB5002340
:107B4000009301930293039301A8694602AA03AB31
:107B500002F022FA05B05DF804FB000030B5524D8A
:107B600000249FB0FF20AC70EC706C706C71EC75F1
:107B70006C772C766C76AC76EC7604F06DF8E720BA
:107B800004F0E6F821462246204603F0C9FA2B46C7
:107B9000012103F8074F0E200A4602F0BDFA6B7967
:107BA000012B05D1642003F0FBFE01F027FEF6E770
:107BB00010210C2002F0FCFA3C4802F0BFFE3C48C9
:107BC00003F024FC012003F005FC6846394900F06D
:107BD000A9FDAB786A78344C1A431CD194F827304D
:107BE000002B57D0FF2003F0A7FB002852D11A2406
:107BF000013C06D0E72004F0D1F8322003F0D0FE9B
:107C0000F6E70E20012122462B4BAC7102F084FADC
:107C100085F82740DDE7E72004F09AF8A31D0E2041
:107C20000121002202F04AFAA37813B103F00EFCFE
:107C300020702B7801210133AB7100221E4B0E20E6
:107C400002F06AFA002001240146012203F068FADA
:107C500021462246194B0E20EC7102F05DFA03F02A
:107C6000E3F9642003F09CFE002003F0A7F948F23A
:107C7000442085F8284003F07BFB4FF47F4003F05D
:107C8000EBFFE72004F064F8FFF746FF0023AB7535
:107C90001FB030BDE72004F081F8FA2003F080FE29
:107CA000684600F0A3FD94E76020002030540108EE
:107CB00064010020E579000866200020672000208C
:107CC000F0B5394C85B0E06204F008FB04F048FAE6
:107CD000364B374A0093374B37490193374B384877
:107CE0000293384B00250393374B03F04FF9642080
:107CF00003F056FE002003F061F9012348F244200E
:107D0000E57684F8283003F033FB304BA61D1A8843
:107D10001F46012A06D00E2010212A46334602F0C3
:107D2000CDF9A0B1FF2003F007FB10210E2002F0D7
:107D30003FFA00210025755401311029FAD10E2097
:107D40002A46234B02F0E8F93D8004F015FC237924
:107D5000154D93B9AB7913B90123AB750DE0E879F3
:107D600058B90146012203F0DBF901212B4603F843
:107D7000071F0E200A4602F0CFF9237963B90A4B98
:107D80009B7D4BB1134802F0F9F9FFF7D7FE05B020
:107D9000BDE8F040FFF7C0BE4FF47F4003F05CFF4A
:107DA000E72003F0D5FFEDE76020002019C20008AE
:107DB000D57900082DC20008CD79000899C20008C5
:107DC000397A0008C1C20008DD790008B20200203B
:107DD00066200020902000202DE9F341A94C94F862
:107DE0002630002B40F0C58094F83230002B40F054
:107DF000C08094F8283003F0FF0023B903F0DEF8C8
:107E0000012384F82830A37D9E4E13B1FFF7A6FE10
:107E100007E033792BB1F37D03F0FF05002B00F071
:107E2000D780E278974B012A13D1DA7D012A10D14D
:107E30005B79012B0DD10325934807F03DFB013DF4
:107E400082B29149012003F067F815F0FF05F3D1E4
:107E5000E57094F833308B4D43B92B7E002B40F006
:107E6000CE806B7E002B40F0CA8008E1874B1A68F9
:107E70001E46002A40F00381EB7D93B395F8323023
:107E80007BBB2B7E002B00F0CB802AE02B4603F837
:107E9000091F0E200121032202F03EF94FF6FF7068
:107EA00003F0DAFEE72003F053FFFEF7FAFD0028A7
:107EB00080F2DF8094F82630724D002B40F0DF8096
:107EC000FEF7C6FD0028B4BF022303232B77237FD0
:107ED0000E20637201216E4B032202F01DF9002374
:107EE0002376237E674D002B00F0C9806B7E3BBB61
:107EF000FEF77FFD00281DD002DA4FF47F0007E077
:107F0000012801D1634803E0022803D14FF0FF109C
:107F100003F0A2FEE72003F01BFF94F8343047F291
:107F200030520133DBB284F8343094F834305343A8
:107F3000336005E001236B76574B85F834001860F9
:107F4000FEF759FD002840F09A80544B1B780BB186
:107F500003F0D2FE0023A376E376637623764E4BBE
:107F60001B68002B00F08B80464B012283F82620F3
:107F700085E094F82830002B3FF445AF474B1B7841
:107F80000BB103F0B9FE002528466571E57584F84C
:107F9000265084F8285025766576A576E5762577EF
:107FA00004F08EF9642003F0FBFCA37D43B1284666
:107FB00003F004F8334B012283F82820FFF7CEFDAD
:107FC0004FF47F4003F048FEE72003F0C1FE1AE7BC
:107FD00029462A46284603F0A3F8314807F06CFAF0
:107FE000304F8046384607F067FA00970190791FB6
:107FF000032042462B4603F02DF8357111E7FEF7BA
:1080000052FD00234FF47F40A376E3766376237618
:1080100003F022FEE72002B0BDE8F04103F098BE75
:10802000642003F0BDFC05F1350002F035F82B7F2C
:10803000002B3FF433AF4FF47F0003F00DFE227F9F
:10804000104D02F0FF01002A3FF420AFE72003F0BB
:108050007FFE4FF4FA7003F0A3FCE72003F086FEE6
:108060004FF4FA7003F09CFC2B7F013BDBB22B77C3
:10807000E5E7012323760C4B00221A6031E702B0BA
:10808000BDE8F08160200020670100201012002070
:10809000692000200060FF007C1300205021002098
:1080A0006E010020730100208013002007B500211D
:1080B00000910A460B460348FEF7B4FE03B05DF894
:1080C00004FB00BFD02000207047FEE7FEE7FEE77C
:1080D000FEE770477047704708B504F08FFABDE8B7
:1080E0000840FEF787BA000008B5024B0BB1AFF3AA
:1080F000008008BD0000000008B5024B0BB1AFF3D3
:10810000008008BD0000000008B5024B0BB1FEF76F
:1081100029FE08BD656D000808B5024B0BB1FEF7DE
:1081200022FE08BD676D000808B5024B0BB1FEF7D3
:108130007FFF08BD3170000808B5012004F030FD54
:1081400038B1012004F03AFD024B13B10020FEF7D4
:1081500025FE08BD9D6D000808B5022004F020FD35
:1081600038B1022004F02AFD024B13B10120FEF7C2
:1081700015FE08BD9D6D000808B5042004F010FD33
:1081800078B1042004F01AFD0020064B0146188047
:1081900003F08CFEBDE8084003481021012205F0E1
:1081A000F2B808BD62210020002C014008B508206B
:1081B00004F0F6FC38B1082004F000FD024B13B1C6
:1081C0000320FEF7EBFD08BD9D6D000808B51020EB
:1081D00004F0E6FC38B1102004F0F0FC024B13B1BF
:1081E0000420FEF7DBFD08BD9D6D000808B52020CA
:1081F00004F0D6FC38B1202004F0E0FC0E4B13B1A3
:108200000520FEF7CBFD402004F0CAFC38B1402029
:1082100004F0D4FC084B13B10620FEF7BFFD80200C
:1082200004F0BEFC38B1802004F0C8FC024B13B14E
:108230000720FEF7B3FD08BD9D6D000808B54FF49B
:10824000005004F0ADFC40B14FF4005004F0B6FC17
:10825000174B13B10D20FEF7A1FD4FF4804004F041
:108260009FFC40B14FF4804004F0A8FC104B13B1C8
:108270000E20FEF793FD4FF4004004F091FC40B156
:108280004FF4004004F09AFC094B13B10F20FEF7A5
:1082900085FD4FF4006004F083FC38B14FF40060BA
:1082A00004F08CFCBDE8084003F014BB08BD00BF1F
:1082B0009D6D000808B51048102105F09DF8C8B163
:1082C0000D48102105F0A3F8002003F09DFE30B901
:1082D0000A4B1A8892B20A3292B21A8008BD064836
:1082E0001021002205F04FF8BDE8084000200121D0
:1082F00003F0DCBD08BD00BF002C0140622100205E
:1083000008B5012004F070FE30B1012004F07CFEBD
:10831000BDE8084004F052BE08BD000008B50220C8
:1083200004F062FEB0B10C4B00224FF400301A7022
:1083300004F044FC012004F09BFD10B1012004F086
:10834000A1FD04F03BFE022004F05EFEBDE8084003
:1083500004F034BE08BD00BF9220002003F02EBA06
:1083600000F062B838B514490B78012B23D1134AB9
:1083700013680BB90B7038BD114C402B206881B2CB
:1083800005D94030403B20601360402504E09DB299
:1083900003442360002313600A482A460844C0218E
:1083A00005F032FD0120294605F036FEBDE83840D3
:1083B000012005F09BBD38BD641300206C13002024
:1083C000681300206412002008B5094B01221A70BE
:1083D000084B002203201A8005F04EFE064B024691
:1083E00018804FF488710548BDE8084005F024BDA9
:1083F000181200201C1200201A1200201E12002049
:10840000074B1B68052B09D1064B1A68511C052A1E
:10841000196003D100221A60FEF73ABA704700BF14
:1084200084210020D820002070B52B4D2B4C2B68C8
:108430002B4E9BB22380228833881340990508D5A0
:108440004FF6FF532B60A3780133DBB2A370FFF725
:10845000D7FF2288338813401A0401D505F01EFC8B
:108460002288338813405B0505D54FF6FF332B6018
:108470001C4B5B689847228833881A40900444BF9D
:108480004DF6FF722A6022881340D90405D54EF6B6
:10849000FF732B60002004F0D9F922883388134041
:1084A0001A050BD5104B1B7813B104F0AFF902E09D
:1084B000022004F0CBF94FF2FF732B60228833883F
:1084C0001340DB0507D54FF6FF632B600720BDE89F
:1084D000704004F0BBB970BD445C0040DC2000205B
:1084E000742B0020D8010020D4020020034B9B7A7B
:1084F00013B1034B05221A60704700BF502B0020B8
:1085000084210020014B04221A607047842100203E
:10851000034B1A78202A04BF00221A70704700BF4C
:10852000E020002070470000212810B508D1114B31
:108530001B681B7803F07F03212B10D0022010BD95
:108540002028FBD10B4B0C4A1B681B78107003F0E2
:108550007F03212B094B18BF00230BB9EEE7084B13
:10856000044A0024126820469361548298472046AA
:1085700010BD00BF702B0020E0200020D185000836
:10858000B9850008074B1B681B7803F07F03212B7C
:1085900006D100F0DF00022814BF0220002070473F
:1085A00002207047702B002009B10220704701287B
:1085B000FBD808467047000020B9034B08221B680F
:1085C0001A82704701487047702B0020D0010020AC
:1085D00020B9034B08221B681A8270470148704774
:1085E000702B0020D001002010B5FEF79DF9054B3F
:1085F00000241B689C7204F0F1F805F053FD024B57
:108600001C6010BD702B002084210020334B344AA5
:108610001B68D27910B500245A729C72DC72204615
:1086200005F01CFC20464FF4007105F01FFC2046AD
:10863000102105F029FC2046402105F0C1FC8021D5
:10864000204605F0ADFC204605F076FC254B204683
:1086500093F8341005F0EEFC204605F05AFC01209A
:10866000214605F003FC0120C02105F099FC012002
:10867000202105F009FC0120214605F01EFC022006
:108680004FF4C06105F0F2FB02204FF4807105F059
:1086900087FC0220214605F010FC0220202105F075
:1086A000F3FB0320214605F0E1FB03204FF4887122
:1086B00005F086FC0320402105F0BCFC03204FF4AC
:1086C000405105F0FAFB0320214605F0DDFB204672
:1086D00005F078FA044B01221A6010BD702B0020BF
:1086E0009D540108D001002084210020014905F09B
:1086F00065B800BF08020020014905F05FB800BF5F
:1087000010020020054B1B68DB78042B04D80449B9
:1087100001EBC30105F052B800207047702B002018
:108720001802002038B504460D46FFF72FF9204601
:1087300025614FF41651FFF733F9204638BD00008C
:1087400007B5002100910A460B460348FEF76AFB75
:1087500003B05DF804FB00BFE420002070B50646BE
:108760000D460024284606F0A7FE844208D2295D63
:108770003046FFF705F9012003F012F90134F1E763
:1087800070BD00002DE9F84304460F4690460D46A3
:10879000C7EB05095FFA89F92046FFF7EDF80028D5
:1087A000FADD2046FFF7E6F8C145C6B206D1002340
:1087B0002B7020460C49FFF7D1FF0AE00D2EF6D0B2
:1087C0000A2EF4D020463146FFF7DAF805F8016B9F
:1087D000DEE72046FFF7D0F8002803DD2046FFF74C
:1087E000C9F8F6E7BDE8F883D35A0108F0B585B0BB
:1087F0000446FFF7C1F8002840F39D802046FFF7AC
:10880000B9F8C0B2772868D104F1140600212122FA
:10881000304604F1350506F021FA412200212846B0
:1088200006F01CFA04F17607002384F8763020461F
:1088300042497B70FFF792FF204631462022FFF726
:10884000A1FF20463E49FFF789FF01222046394615
:10885000FFF798FF94F87630A3F13002D2B2032AE2
:10886000EFD8312B0BD120463649FFF777FF204652
:108870003549FFF773FF20463449FFF76FFF94F83F
:108880007620B2F1300708D020463149FFF766FF65
:10889000204629464022FFF775FF20462D49FFF765
:1088A0005DFF23693A4630462946984720462A49C3
:1088B000FFF754FF20462949FFF750FF204628497B
:1088C000FFF74CFF20462749FFF748FF204626497F
:1088D000FFF744FF2046254928E069282BD1244B87
:1088E00001AD93E8070085E8070020462149FFF71E
:1088F00035FF0026AF5D20463B0903F130013929E1
:1089000084BF03F15701C9B207F00F07FFF738F82A
:1089100007F13001392984BF5737F9B220460136B3
:10892000FFF72EF80C2EE5D11349204605B0BDE81F
:10893000F040FFF713BF05B0F0BD00BF2759010895
:108940002E5901085B59010891590108BC590108C9
:10895000025A01080D5A0108505A0108705A0108BC
:10896000A35A0108D65A0108155B0108465B0108A5
:10897000E8F7FF1F5C5B0108D35A01080022016081
:10898000828202718275704710B503790446E3B1A3
:10899000002303718382837DBBB901230B49837557
:1089A0000B48FEF7B8FA20680368DB6998474FF474
:1089B000FA70FEF75BF907490548FEF7ACFA206844
:1089C00040F2064103689B69984710BD6D5B010842
:1089D00050200020805B01080079003018BF012082
:1089E000704710B508460C4606F066FD204410F8A6
:1089F000010CB0F15D035842584110BD70B500261E
:108A000094B00446067186823D493E48FEF766FAF8
:108A1000216804A80B689B6B984704A93948FEF7A6
:108A200066FA39493748FEF759FA20680368DB6B64
:108A300098470A2201463348FEF7BFFA20680368C8
:108A4000DB6A984700284ED0254655F8140B3F2284
:108A5000036804A95B6B984714AB184400F8406C9A
:108A60002A492848FEF73AFA04A92648FEF736FABA
:108A70002448FEF744FA04A825492A4606F0D2FB0A
:108A8000012835D1204604A9FFF7ABFF00282FD0DD
:108A9000254620491B48FEF73EFA55F8041B02A85C
:108AA0000B689B6B98479DF80E109DF80C20009169
:108AB0009DF80F109DF80D3001912846164906F0DB
:108AC0008BFB16490F48FEF709FA29460D48FEF7B9
:108AD00022FA13490B48FEF701FAA18A0A22094833
:108AE000FEF76BFA0AE00F490648FEF714FA05E0B4
:108AF00004480D49FEF70FFA0023A38214B070BD9D
:108B0000965B010850200020BB5B0108CB5B01088D
:108B1000DA5B0108025C01081E5C01082A5C01089E
:108B2000415C0108E75B01085A5C010807B50021B8
:108B300000910A460B460348FEF774F903B05DF84E
:108B400004FB00BFEC20002007B5002100910A467D
:108B50000B460348FEF766F903B05DF804FB00BF5F
:108B6000F420002001607047F8B506460F46154610
:108B70000024AC4210D03068391903682A1B5B6AA4
:108B80009847002806DA306803689B6898470028F1
:108B9000EFD1F8BD0444ECE7F8BD07B506226946FD
:108BA000FFF7E2FF002368468DF8063005F09CFBD6
:108BB00003B05DF804FB70B50646481C0D4605F091
:108BC000F1FC044630B1304621462A46FFF7CCFF7F
:108BD00000236355204670BD10B50446FFF7DDFF46
:108BE00001462046BDE81040FFF7E5BF07B500216C
:108BF00000910A460B460348FEF714F903B05DF8EE
:108C000004FB00BFFC2000200022C0F800237047B6
:108C100038B505460024D5F800339C4207DA05EB49
:108C2000C403D3F8000105F0C5FC0134F3E728467E
:108C300038BDD0F8000370477047000007B5002129
:108C400000910A460B460348FEF7ECF803B05DF8C6
:108C500004FB00BF0421002007B5002100910A4653
:108C60000B460348FEF7DEF803B05DF804FB00BFD7
:108C70000C21002038B50446154600F00FFB656056
:108C8000204638BD70B5044640680D460268D26A79
:108C90009047B0B1284600F089FB05462946606838
:108CA000FEF71CF90646606802685269904728463C
:108CB00006F002FC331A5C4228465C4105F07AFC5F
:108CC00000E00446204670BD37B5069C054600947A
:108CD000079C019400F0E8FA044621462846FFF775
:108CE000D1FF0546204605F065FC284603B030BD9F
:108CF00037B502AB43F8042D1A4605460846002155
:108D000000F076FA044621462846FFF7BBFF0546E9
:108D1000204605F04FFC284603B030BD07B50021C2
:108D200000910A460B460348FEF77CF803B05DF855
:108D300004FB00BF1421002007B5002100910A4662
:108D40000B460348FEF76EF803B05DF804FB00BF66
:108D50001C210020F8B504460D4604F14C0742F2F0
:108D6000CD610430FEF796FB04F184063846FEF729
:108D70000FFB3046FEF790FD04F52F70FFF744FF20
:108D8000294604F5B86000F089FA29463A4604F20B
:108D9000C450FFF76FFF04F2CC503146FFF7EEFDF1
:108DA0002046F8BD73B50F4C0F4D06460F492046BF
:108DB000FEF794F868462946FEF74EF869462046C5
:108DC000FEF7B3F80A492046FEF788F82846FEF772
:108DD00053F801462046FEF79EF80023337002B098
:108DE00070BD00BF50200020C41F00208E5C010811
:108DF000A45C010807B5002100910A460B46034810
:108E0000FEF710F803B05DF804FB00BF242100203A
:108E100010B5074904460748FEF77DF804F14C00F9
:108E2000FEF75EFA04F2CC50BDE81040FFF7ACBD8F
:108E3000B65C010850200020037810B504464BB101
:108E400000F2C450FFF754FF20B92046BDE810409F
:108E5000FFF7DEBF10BD0000F0B500F14C0685B095
:108E600004463046FEF7B0F9054600287FD1414957
:108E70004148FEF750F804F2CC573046FEF730FA7E
:108E80003846FFF781FD3D4925703B48FEF726F83F
:108E900002A83B49FDF7E0FF02A93748FEF745F875
:108EA00038493548FEF737F83846FFF7A7FD38460A
:108EB000FFF792FD002852D033492F48FEF72BF8D8
:108EC00032492D48FEF70AF8314FD4F89C3002A9F8
:108ED000294803930297FEF70AF82E492648FDF722
:108EE000FDFF41F635610A222348FEF766F8D4F803
:108EF0009C30304602A941F6356202970393FEF793
:108F000003FA18B324491C48FEF705F8012323701F
:108F100022491948FDF7FFFF04F52F7604F184007C
:108F200084F8E255FEF7E6FB3046FFF785FE07467C
:108F30003046FFF77EFE00950346019504F2C450CB
:108F400042F2CD613A46FFF7BFFE0CE014490A48F1
:108F5000FDF7E1FF4FF4FA60FDF788FE03E00648F5
:108F60001049FDF7D8FF04480F49FDF7D4FF05B0BD
:108F7000F0BD00BFF95C0108502000208E5C0108A4
:108F8000C41F0020165D01082F5D01083F5D010828
:108F90004853010871600108FD5C01086D5B010820
:108FA000555D0108775D0108965D010870B50D4DAE
:108FB00016460446FFF7F6FE0B492846FDF7ABFFC1
:108FC000201DFEF727FA28460849FDF7A4FF04F103
:108FD00084003146FEF760FB2046BDE87040FFF795
:108FE0003BBF00BF50200020BE5D0108D65D0108D8
:108FF00030B5037891B00546002B34D01B4C4C3073
:10900000A3680133A360FEF7DFF858B302A8291D57
:10901000FEF794FA02A8FEF709F920B302A901A805
:10902000FFF7A0FD01A8FFF7D7FD054602A8FEF750
:1090300057F90F48A1680A226DB1FDF7BCFF0D4931
:109040000B48FDF74BFF29460948FDF764FF28460A
:1090500005F0B0FA07E0FDF7AEFF07490448FDF759
:109060005AFF00E0287011B030BD00BF242100205D
:1090700050200020EB5D0108F95D010810B50446A1
:10908000FFF7EAFE2046BDE81040FFF7B1BFF0B59C
:1090900085B061B36AB300240A26B0FBF6F506FB7F
:1090A0001500013404AF3030274407F80D0C284672
:1090B0000DB1B442F0D1A34286BFC4EB0303DBB2CF
:1090C0000023013A30200025954201EB050612D01D
:1090D0001CB983B1013BDBB206E0002BFAD1013CA5
:1090E00004A8204410F80C0C48550135ECE708465C
:1090F00004E0104602E000233370284605B0F0BDBE
:109100002DE9F84FDDF828900446B9F101070D4626
:1091100090461E4663D000220023FCF723FC30B1AA
:1091200005F100412D230D463370A9F102072E4BA6
:10913000B8F1060F28BF4FF006084FF0000A4FF0B5
:10914000010900225FFA8AF141450DD21046194605
:109150000022264BFCF7BEFA0B460A21024601FB11
:1091600009F90AF1010AEDE7002F38D02046294617
:10917000FBF7D4FF0D460446FCF744FC31463A4663
:1091800000238346FFF783FF06443F1AB8F1000F20
:1091900025D027B32E23013F06F1010A33701DD0DD
:1091A0005846FCF7F7F802460B4620462946FBF7DF
:1091B000B3FF044648460D46FCF7ECF802460B4662
:1091C00020462946FCF75CF9FCF71CFC51463A4660
:1091D0004346FFF75CFF0AEB000600E0564600231B
:1091E0003370BDE8F88F00BF0000E03F000024406E
:1091F000F0B5ADF5037D0F4604460021154602A8E3
:109200004FF4807242AE05F029FD304600214FF444
:10921000807205F023FD042F30D8DFE807F0030546
:10922000121F23002B6821E02868FCF7D5F8CDE950
:109230000001154B02A81A681449234605F0CCFF1B
:109240001CE04FF48073D5E90001009306223346F9
:10925000FFF756FF009602A80D490AE0009502A804
:109260000C4906E02B68003318BF01230A4900931C
:1092700002A8054B1A68234605F0AEFF02A806F0C7
:10928000FFF80DF5037DF0BD30210020335E0108AD
:109290004D5E0108675E0108195E0108014B01601F
:1092A0001960704730210020F0B5ADF2044D0C4636
:1092B000164600214FF4806268461F46DDF81C54B4
:1092C00005F0CCFC2A4B2B491A686846234605F06A
:1092D00083FF6846284905F0D5FF0024BC42684654
:1092E00013DA264905F0CEFF56F82410684605F03B
:1092F000C9FF234B214A791E8C42ACBF1146194647
:10930000684605F0BFFF0134E8E71E4905F0BAFFE3
:109310006846194905F0B6FF0024AC42684615DAE4
:10932000164905F0AFFFDDF81834684653F82410ED
:1093300005F0A8FF124B114A691E8C42ACBF1146C2
:109340001946684605F09EFF0134E6E70D4905F031
:1093500099FF68460C4905F095FF0C49684605F0F1
:1093600091FF684606F08CF80DF2044DF0BD00BF89
:1093700030210020A65E0108835E0108885E010896
:10938000CA5E0108BE5E0108C25E0108CE5E010829
:1093900007B5002100910A460B460348FDF742FD40
:1093A00003B05DF804FB00BF3421002038B505464A
:1093B00006F082F8073005F0F5F80446284606F076
:1093C0007BF8044902462B46204605F005FF20465F
:1093D00038BD00BFD55E010807B5002100910A46DF
:1093E0000B460348FDF71EFD03B05DF804FB00BF0C
:1093F0003C21002038B500234260836004460D46BE
:10940000FDF732FC20602846FDF7F4FB65732073FE
:10941000204638BD38B50446407BFDF7EBFB237B87
:10942000C5B2AB4201D1002038BDFDF71DFC236859
:109430006268C01A9042F6D3FDF716FC25732060CF
:10944000012038BD38B50446FFF7E4FF054610B1EA
:109450000023A3600CE0A3686BB1FDF705FC236853
:10946000A268C01A904206D3FDF7FEFBA5602060FB
:109470000125A57301E00023A373284638BD837B33
:1094800023B1007B003018BF012070471846704799
:10949000837B2BB1007BD0F1010038BF00207047E7
:1094A0001846704707B5002100910A460B4603484D
:1094B000FDF7B8FC03B05DF804FB00BF44210020B9
:1094C000002100F004B80D4B5B58435004310C48A8
:1094D0000C4B42189A42FFF4F6AF0B4A00F003B867
:1094E000002342F8043B094B9A42FFF4F9AF03F022
:1094F000FBF8FDF74BFAFDF70DF8704728650108FA
:1095000000000020780B0020780B0020802B00202A
:10951000FFF7FEBF0B0A017043700B0C090E83703E
:10952000C170043070470170090A41700230704701
:1095300043185A78435C03EB022080B2704710B5A1
:1095400043189A78DC78415C120402EB0462587884
:109550000A4402EB002010BD73B544790023022CAD
:1095600001930FD0032C19D0012C2BD1164D2B6950
:109570002E4623B12B6901A898470246B8B9B168B5
:1095800001201BE0104DEB682E4623B1EB6801A8CB
:109590009847024658B9B16802200FE00A4D6B693E
:1095A0002E464BB16B6901A89847024620B1A968C5
:1095B0002046BDF8043003E0B168032000221346C2
:1095C00000F086FC02B070BDB8220020072810B55C
:1095D0000BD8012909D80124844001FA00F0034B7B
:1095E0001A6822EA040202431A6010BD60020020D9
:1095F00070B5012186B00546FFF79AFF4304044683
:109600002AD5B0F5824F27D128460521FFF790FFD4
:1096100005EB8000EE1D0024C51DAE4206D030468D
:109620000221FFF785FF04360444F6E7724B1A8ED9
:1096300092B2224492B21A86DA6B1444DC63D96B7C
:109640009A6B914240F0CA8093F84020002A00F0C3
:10965000C5809B69992031E024F4FF4020F07F0011
:1096600080B2002800F0978048F210039C4228D076
:109670000CD8B4F5004F40F2BC8048F202039C4283
:1096800015D948F204039C4211D0B2E048F280039D
:109690009C420CD004D848F240039C424FD0A8E032
:1096A000B4F5024F03D0B4F5084F6BD0A1E0524B94
:1096B0009A69002A00F092809B69204600210A46A0
:1096C00067E00023EA1852790DF803200133042BD8
:1096D000F8D16B7A05F10D008DF80430AB7A8DF876
:1096E0000530EB7A8DF806302B7B8DF807300023A0
:1096F00000AA1A44C15C0133042B1172F8D105F1A0
:109700001100002300AA1A44C15C0133042B117319
:10971000F8D105F11500002300AA1A44C15C0133F9
:10972000042B1174F8D12B798DF81430324B9A69CF
:10973000002A53D09B6920466946152229E0053549
:1097400000212846FFF7FBFE042100902846FFF782
:10975000F6FE082101902846FFF7F1FE0C21029049
:109760002846FFF7ECFE102103902846FFF7E7FE9E
:10977000214B04909A69002A30D09B6920466946A3
:10978000142206E01C4B9A6942B39B692046691D6E
:109790000122984722E041F203039C4205D0A4F540
:1097A00080530E3B9BB2012B1AD86C1D204604211E
:1097B000FFF7C5FE39301CD12A790F4B0021204616
:1097C000DA62FFF7BCFE042105462046FFF7B7FE2C
:1097D000393003D128460121FFF7F8FE012009E0C6
:1097E000054B1B889BB29C4204D0B4F5805FF5D139
:1097F00000E0002006B070BDB8220020F0B51F4E7A
:109800008DB07588ADB2002D34D0746827783B1FB9
:109810005F425F4137B12046FFF7EAFE003018BFD4
:10982000012000E03846054600BB1FB396F84130E2
:1098300003BB134B04200093237840F213310193B0
:109840006378104A0293A3780393E378049323790F
:10985000059363790693A3790793E3790893237AB1
:109860000993637A0A932B4604F02CFC002373803F
:1098700001F0BAFE28460DB0F0BD00BFB8220020AE
:10988000DC5E0108F25401082DE9F04F8BB004466C
:109890008A46914602F0BAFE00250790DFF824833D
:1098A000B8F802704646BFB2002F40F0B18002F017
:1098B000ADFE0890089A079BD31A0993099BBC4BED
:1098C0001B68002BEAD0099A9A42E7D30898B94D51
:1098D0000799099A01900291039204930420F821B8
:1098E000B54A3B46009504F0EDFB3388B34A9BB282
:1098F0008DE80C000420B04A3B46F92104F0E2FB5D
:10990000338841F207029BB2934227D841F2060204
:1099100093426DD240F20222934269D00FD80C2BB1
:1099200008D8082B64D2002B4FD0062B88BF002309
:1099300066D85DE00D2B58D040F201220BE041F2D9
:109940000202934257D8B3F5805F51D8B3F5017F37
:109950004BD940F20722934237D146E041F211023F
:10996000934242D014D841F20B02934240D005D822
:1099700041F2090293423BD03DD836E041F20F025A
:10998000934238D034D841F20D02934233D01CE0D8
:1099900042F20602934228D007D8B3F5005F14D9EB
:1099A00042F2040293422DD81FE0B3F5804F00F03D
:1099B000158205D8A3F50053083B012B15D904E007
:1099C00044F20B02934200F0098233887C4A9BB236
:1099D0008DE80C00052040F20111774A002304F0C5
:1099E00071FB0B2004F0BCFBF8E1FF232370F5E1D1
:1099F0004FF0FF3304E04FF0FF3323606360EDE18D
:109A00002360EBE1204600213A2205F027F9E5E149
:109A1000D8F804603278042A40F081813046012170
:109A2000FFF786FD05463046FFF7E2FD002840F0CF
:109A30006B8141F207039D4206F1050755D841F2BB
:109A400006039D4280F0AE8040F202239D4200F06A
:109A5000A98014D80C2D09D8082D80F0A380002DE2
:109A600000F05281062D00F2ED809BE00D2D00F0FC
:109A7000968040F201239D4200F0918044E141F242
:109A800002039D4218D8B5F5805F00F28B80B5F5D2
:109A9000017F40F2848040F207239D4240F03481F0
:109AA0003379384604F8013B0021FFF748FD0146B1
:109AB0002046FFF72FFD27E141F204039D4200F00D
:109AC000978040F2AD8000213846FFF738FD042131
:109AD00020603846FFF733FD083444F8040C06F1E3
:109AE0000D03224606F11D017BE041F211039D4268
:109AF00055D02BD841F20B039D4253D01CD841F2D4
:109B000009039D424ED000F2988000213846FFF7AD
:109B100016FD042120603846FFF711FD0821606022
:109B20003846FFF70CFD0C21A0603846FFF707FD13
:109B300004F10C0BE060E6E041F20F039D426FD0B0
:109B400042D841F20D039D4252D0DDE042F20603BD
:109B50009D4224D00BD8B5F5005F40F2D58042F28B
:109B600004039D4288BF002300F2908017E042F278
:109B700008039D42C0F0C88042F209039D420ED9FD
:109B800044F20B039D4240F0BF80737938460121B7
:109B9000A8F83030FFF7CCFCA8F83200B4E03379F5
:109BA0002370B1E038460021FFF7C9FC2060ABE02C
:109BB0004C210020385F0108105501087B5F010827
:109BC000B45F0108B822002000213846FFF7B7FC37
:109BD000A3464BF8040B04213846FFF7B0FC606045
:109BE00091E053F8040B8B4242F8040BF9D18BE05F
:109BF00000213846FFF7A3FC042120603846FFF718
:109C00009EFC082160603846FFF799FCE36804F188
:109C1000080B3933A06076D10121FFF7D7FC72E041
:109C200000213846FFF78BFC042120603846FFF7FF
:109C300086FC083444F8040C66E0337923713B68F1
:109C4000236061E000213846FFF779FC04212060A1
:109C50003846FFF774FC082160603846FFF768FC5F
:109C60000A21A0603846FFF763FC0C3444F8020C6C
:109C700006F11103224606F1350153F8040B8B421D
:109C800042F8040BF9D11B8813803DE0F218527999
:109C9000E2540133042BF9D106F109000023C15C21
:109CA000E2180133042B1171F9D106F10D000023E4
:109CB000C15CE2180133042B1172F9D106F11100D5
:109CC0000023C15CE2180133042B1173F9D106F1B2
:109CD00015000023C15CE2180133042B1174F9D183
:109CE00006F119000023C15CE2180133062B11753F
:109CF000F9D106F11F000023C15CE2180133202BCB
:109D00009176F9D100E05C46B8F80020354B92B26C
:109D1000954249D100221A8083F8412044E0B8F8E6
:109D200036309BB293B9B8F83600B8F800102E4F11
:109D300080B289B2019202900391009704950420A9
:109D400040F20F21294A04F0BDF92DE030460321ED
:109D500096F802B0FFF7ECFB0746BAF1000F0BD004
:109D60000421701DFFF7EBFB06F115010246C9F84F
:109D700000005046FBF7B6FECBEB07077B1EB3F5A2
:109D8000806F07D20BF10501204631443A46FBF7BC
:109D9000A9FE01E04FF0FF37B9F1000F01D0C9F87B
:109DA00000700023A8F836300023A8F8023001F034
:109DB0001BFC3378042B05D1B5F5805F02D130460A
:109DC000FFF7CAFBB8F800309BB2002B7FF466ADFA
:109DD000044BDB8E9BB2002B7FF460AD00200BB0F8
:109DE000BDE8F08FB8220020C45F010810550108BB
:109DF00007284FF0010308D803FA00F0044B1A6853
:109E000010420CBF0020012070471846704700BF69
:109E100060020020064B10B51880064C0846002151
:109E200001230A462370FFF72FFD0023237010BD86
:109E3000B8220020C021002010B5054C0123E38684
:109E4000044C2370FFF720FD0023237010BD00BFDA
:109E5000B8220020C021002038B503461546012253
:109E60004A710C46881D1946FFF75DFB291D0570D8
:109E7000204601F029FC002038BD38B5BDF814504B
:109E80000C462B44D518ADB202216171A071E2716C
:109E9000294604F10800FFF746FB691D204689B2F8
:109EA00001F012FC002038BD38B513440C469DB2B9
:109EB00002216171A0712946E27104F10800FFF7E7
:109EC00032FB691D204689B2BDE8384001F0FCBB79
:109ED0002DE9F84F1C4604F1020B032301F1070999
:109EE0001FFA8BFB88710D464B7148465946164642
:109EF000FFF719FBB4F57A7F824605F10B0812D8FB
:109F00002146FFF710FB21465046FFF70CFB314678
:109F100040462246FBF7E6FDA11D284689B2BDE872
:109F2000F84F01F0D1BB4FF47A77B4FBF7F30BEBAA
:109F3000430189B2FFF7F7FA39465046FFF7F3FAC3
:109F4000314640463A46FBF7CDFDA4F57A742846E3
:109F500040F2EE31A4B23E4401F0B6FBB4F57A7F94
:109F600084BFA4F57A74A7B2A84688BF4FF47A7468
:109F7000314628F8054F4846224698BF0027FBF790
:109F8000B1FDA11C404689B2264401F09DFB0FB1F2
:109F90003C46E3E7BDE8F88FF7B51E46FF238DF892
:109FA0000730194B00259C68475D63190135042D66
:109FB0005F72F9D100200D5C2318013004285D7315
:109FC000F9D10021505C6318013104295874F9D18A
:109FD00004F115000021FFF79DFA0022B35C8354C1
:109FE0000132042AFAD12146142242F20100FFF77D
:109FF00033FF42F201000DF10701FFF70BFF9DF95E
:10A00000070003B0F0BD00BFB82200202DE9F341E6
:10A010001F46FF238DF807301E4B0646D3F80880F5
:10A0200033680C46013B122B9CBF142333600B6832
:10A0300008F10900013B122B9CBF14230B6013682D
:10A040001546013B122B9CBF142313603B68013B58
:10A05000122B9CBF14233B603168FFF75BFA216829
:10A06000FFF758FA2968FFF755FA3968FFF752FAEF
:10A070004146142242F20900FFF7EEFE42F20900C7
:10A080000DF10701FFF7C6FE9DF9070002B0BDE81C
:10A09000F08100BFB822002010B5074B0446996834
:10A0A00042F205000022FFF7D7FE214642F20500EA
:10A0B000BDE81040FFF7AEBEB82200202DE9F34105
:10A0C0001F4602ACFF2304F8053D124B86469D68EF
:10A0D0000E4605F1090071469046FFF71BFA31461E
:10A0E000FFF718FA4146FFF715FA29460C2240F20D
:10A0F0000120FFF7B1FE214640F20120FFF78AFE62
:10A100003846002101AAFFF797FE019802B0BDE88A
:10A11000F08100BFB82200202DE9F341984602AD3E
:10A120004FF0FF3345F8043D134B86469E680C46BE
:10A1300006F10A0071461746FFF7ECF90C21FFF70C
:10A14000E9F92146FFF7E6F93946FFF7E3F9414619
:10A15000224606F11A00FBF7C5FC31461022A3B2D5
:10A160009020FFF7A1FE40F202202946FFF752FEA1
:10A17000019802B0BDE8F081B822002013B50B4B66
:10A1800004469968002240F20720FFF765FE40F27E
:10A1900007206946FFF73EFE9DF803309DF800005A
:10A1A00023709DF80430637002B010BDB822002007
:10A1B00037B50E4A034694680D4604F10900194666
:10A1C000FFF7A8F92946FFF7A5F92146082240F232
:10A1D0000320FFF741FE40F203200DF10601FFF7D7
:10A1E00019FEBDF8060003B030BD00BFB822002044
:10A1F0002DE9F0430023CA5CC2540133102BFAD17D
:10A200000022344B467B991891F801800178847BB9
:10A2100088EA01089919C97A90F80CC088EA0108FF
:10A220001919CF7A417880F810804F40C17B47746C
:10A230005D1895F80B908578634489EA050593F8D5
:10A240000B90C378FFB289EA030390F804908574F9
:10A2500088EA090890F80590EDB287EA090790F8B6
:10A260000690C37485EA090590F80790DBB283EA8B
:10A27000090390F8089080F814805FFA88F888EA5B
:10A28000090890F809904775FFB287EA090790F826
:10A290000A908575EDB285EA090590F80B90C375B3
:10A2A000DBB283EA0903013288EA0C0C7E406C4081
:10A2B00059400A2A80F8188047768576C37680F858
:10A2C0001CC046778477C17700F1100099D1BDE8B2
:10A2D000F08300BF2255010810F0800F4FEA4000C4
:10A2E00018BF80F01B00C0B2704700002DE9F04F8E
:10A2F00091F8A03090F800A042788AEA030A80F82A
:10A3000000A091F8A13097B0534043708278079332
:10A3100091F8A23090F8049053408370C27805936E
:10A3200091F8A33046795340C370069391F8A43056
:10A33000827989EA030980F8049091F8A53090F8B1
:10A3400008805E40467191F8A630477A5340837189
:10A35000C279089391F8A73004465340C3710C9317
:10A3600091F8A8304FF0000B88EA030880F80880C5
:10A3700091F8A9305F404772827A91F8AA30534031
:10A3800083720993C07A91F8AB3094F80CC04340C3
:10A39000E3720D9391F8AC3094F80DE08CEA030C65
:10A3A00084F80CC091F8AD30A57B8EEA030E84F8DA
:10A3B0000DE091F8AE30E27B5D40A57391F8AF30CF
:10A3C0005A40464BE2739A449AF80B0191F890A0D8
:10A3D000994480EA0A00207099F80BA191F89490B2
:10A3E00098448AEA090984F8049098F80B9191F846
:10A3F00098809C4489EA080884F808809CF80B81BE
:10A4000091F89CC09E4488EA0C0C84F80CC09EF81D
:10A410000BC191F891E01F448CEA0E0E97F80BC126
:10A4200091F89D701E448CEA0707677396F80B71CC
:10A4300091F899601D447E406672079E0D981E44F7
:10A4400096F80B7191F8956084F801E07E40667192
:10A45000059E18441E4496F80B7191F89A60774057
:10A46000089E1E4496F80BE191F89E608EEA06065F
:10A47000DDF824E09E449EF80BC191F892E08CEA4E
:10A480000E0E84F802E095F80BE191F89650A77251
:10A490008EEA0505A571069DA6731D4495F80B610E
:10A4A00091F89F5075400C9E1E4496F80B7191F8E0
:10A4B000936013447E40E67090F80B6191F897002A
:10A4C0007040E07193F80B2191F89B30CDF81CB0EF
:10A4D0005340E573E3720D4602E000BF22550108C8
:10A4E000A77894F80090103D87EA0900FFF7F4FE82
:10A4F000FFF7F2FEE67894F801B0824686EA0B0098
:10A50000FFF7EAFEFFF7E8FE2179A37980EA060863
:10A5100080EA0B0B83EA010003910293FFF7DCFE54
:10A52000FFF7DAFE8AEA0909E6798AEA070A677913
:10A53000024686EA07000492FFF7CEFEFFF7CCFE44
:10A54000049A029B03995340DBB294F808C0069327
:10A55000A37A51404640C9B24740F6B283EA0C00A4
:10A560000293CDF804C005910896FFF7B5FEFFF7FA
:10A57000B3FE617AE67A024686EA0100039104920C
:10A58000FFF7AAFEFFF7A8FE049ADDF804C00399BE
:10A59000029B82EA0C0C53404140C9B25FFA8CFC2A
:10A5A000DBB20A91CDF824C00B9394F80CC0A37BC6
:10A5B0004640F6B283EA0C000293CDF804C00C9634
:10A5C000FFF78AFEFFF788FE617BE67B024686EA9C
:10A5D000010003910492FFF77FFEFFF77DFE049ACE
:10A5E000029BDDF804C00399534082EA0C0C5FFA29
:10A5F00089F95FFA8BFB5FFA8AFA5FFA88F84140C3
:10A60000DBB24640C9B28BEA09005FFA8CFC0F93BB
:10A61000F6B288EA0A030E910293CDF834C0109680
:10A6200083EA0006FFF758FE89EA000086EA000C7C
:10A630005FFA8CFC84F800C08AEA0B00CDF804C0F5
:10A64000FFF74AFE8BEA0000029B86EA000B5FFAE6
:10A650008BFB184684F801B0CDF844B0FFF73CFE00
:10A660008AEA000086EA000A5FFA8AFA88EA0900A4
:10A6700084F802A0CDF848A0FFF72EFE88EA00007B
:10A68000059BDDF818B0DDF820A04640FFB2F6B219
:10A6900087EA03008AEA0B08E670139688EA000648
:10A6A000FFF71AFE059948407040C0B2149020711F
:10A6B0008BEA0700FFF710FE784086EA0007FFB23A
:10A6C000677140461597FFF707FE8BEA0000059A71
:10A6D0007040C0B20690A0718AEA0200FFF7FCFD4C
:10A6E0008AEA00000B990A9BDDF824A0DDF830B05F
:10A6F0004640F6B283EA0A000596E6718BEA010647
:10A7000086EA0007FFF7E8FD8AEA00000A9B0B9A39
:10A7100087EA00085FFA88F882EA030084F8088074
:10A72000FFF7DAFDDDF828A08AEA000087EA0009D1
:10A730005FFA89F9304684F80990FFF7CDFDDDF81E
:10A740002CB00C998BEA0000099A87EA000B5FFA9B
:10A750008BFB81EA020084F80AB0FFF7BDFD0C9B79
:10A760000D99DDF838A05840109A47408AEA010058
:10A77000DDF83CA0FFB282EA0A03E77283EA000A2E
:10A780000293FFF7A9FD0D990F9A48408AEA000647
:10A790000E99F6B282EA01002673FFF79DFD0E9A2C
:10A7A000029B50408AEA0001C9B2617318460391C6
:10A7B000FFF792FD0F9BDDF834E058408AEA000273
:10A7C000109BD2B2A27383EA0E000492FFF784FDBD
:10A7D000109BDDF804C058408AEA000A494B5FFA32
:10A7E0008AFA84F80FA003EB0C0090F80BC195F8DF
:10A7F00090001E448CEA0000207014981F441844F6
:10A8000090F80BC195F894008CEA0000207103EBDE
:10A81000080090F80BC195F898008CEA00002072AF
:10A8200095F89C0096F80B610399704020731944C9
:10A8300091F80B0195F89110049A414003EB09003F
:10A8400090F80B6195F89D001A447040607315985C
:10A85000184490F80B6195F8990070406072119857
:10A86000184490F80B6195F895006170129970404A
:10A870006071194491F80B0195F89A1048400699B7
:10A88000194491F80B6195F89E10714003EB0B068B
:10A8900096F80BC195F892608CEA0606A67092F8BD
:10A8A0000B6195F89620A0727240139EA1731E440E
:10A8B00096F80B11A271059E95F89F201E4496F8FC
:10A8C0000B014A4095F8931053444140E17095F8CC
:10A8D000971097F80B01DDF81CA04140E17193F847
:10A8E0000B1195F89B30AAF1100A4B401AF1900F0A
:10A8F000E372E273CDF81CA07FF4F2AD17B0BDE8AF
:10A90000F08F00BF2255010838B5054C054620469A
:10A91000FFF76EFC28462146BDE83840FFF7E6BC4D
:10A92000C121002008B51021034600220C20FFF7AA
:10A93000C5FB103818BF6FF0000008BD034610219A
:10A940000C200022FFF7E8BB38B505460E4CE36A41
:10A950004BB103F007FDE36A03600023E36203F0F9
:10A9600001FD006838BD2846FFF742FA48B9228E3B
:10A9700092B2002AEAD0228E92B2013A92B2228694
:10A9800038BD4FF0FF3038BDB8220020F7B517466C
:10A9900002AC4FF0FF3244F8042D124A034695688A
:10A9A0000E4605F109001946FEF7B4FD3146FEF7E3
:10A9B000B1FD3946FEF7AEFD0C22294641F20100F9
:10A9C000FFF74AFA214641F20100FFF723FA03F0AC
:10A9D000C9FC019B002103601846FEF7F7FD0198B2
:10A9E00003B0F0BDB822002073B54FF0FF3302ACC6
:10A9F00044F8043D0E4B05469E68294606F10900C1
:10AA0000FEF788FD0422314641F20B00FFF724FADD
:10AA1000214641F20B00FFF7FDF903F0A3FC019B77
:10AA2000012103602846FEF7D1FD019802B070BDF8
:10AA3000B8220020F0B5174B05469E6887B00C463B
:10AA400006F1090029461746FEF764FD0422314647
:10AA500041F20500FFF700FA694641F20500FFF7F1
:10AA6000D9F902AB03CB0823616020603B6003F09F
:10AA700079FC019B036003F075FC0468072C95BF0B
:10AA80002046284600210121FEF7A0FD204607B000
:10AA9000F0BD00BFB822002037B54FF0FF32019261
:10AAA000134A034694680D4604F109001946FEF75F
:10AAB00031FD0821FEF72EFD0821FEF72BFD0023B6
:10AAC000EA5CC2540133082BFAD11422214641F228
:10AAD0000200FFF7C1F901A941F20200FFF79AF95C
