:020000040800F2
:105000000050002055AA00089590000897900008CD
:10501000999000089B9000089D90000800000000F7
:105020000000000000000000000000009F90000849
:10503000A190000800000000A3900008A5900008BF
:10504000A5AA0008A5AA0008A5AA0008C192000800
:10505000A5AA0008A5AA0008F9900008199100085F
:10506000399100086D9100088D910008A5AA0008EB
:10507000A5AA0008A5AA0008A5AA00081D93000873
:10508000A5AA0008A5AA0008A9900008A5AA0008DA
:1050900021930008A5AA0008A5AA0008AD91000860
:1050A000A5AA0008A5AA0008A5AA000875920008EC
:1050B000A5AA0008A5AA0008A5AA0008C99000088A
:1050C000D9900008A5AA0008A5AA0008E990000840
:1050D000A5AA0008A5AA0008B9900008A5AA00087A
:1050E000FD910008DD920008A5AA0008000000005C
:1050F00000000000000000000000000000000000B0
:0C51000000000000000000005FF808F153
:1051100081F0004102E000BF83F0004330B54FEA68
:1051200041044FEA430594EA050F08BF90EA020FD5
:105130001FBF54EA000C55EA020C7FEA645C7FEA68
:10514000655C00F0E2804FEA5454D4EB5555B8BF8B
:105150006D420CDD2C4480EA020281EA030382EAFC
:10516000000083EA010180EA020281EA0303362D8E
:1051700088BF30BD11F0004F4FEA01314FF4801C61
:105180004CEA113102D0404261EB410113F0004F73
:105190004FEA03334CEA133302D0524263EB43032A
:1051A00094EA050F00F0A780A4F10104D5F1200EC8
:1051B0000DDB02FA0EFC22FA05F2801841F1000123
:1051C00003FA0EF2801843FA05F359410EE0A5F1F7
:1051D00020050EF1200E012A03FA0EFC28BF4CF028
:1051E000020C43FA05F3C01851EBE37101F00045DE
:1051F00007D54FF0000EDCF1000C7EEB00006EEBEB
:105200000101B1F5801F1BD3B1F5001F0CD3490874
:105210005FEA30004FEA3C0C04F101044FEA4452CB
:1052200012F5800F80F09A80BCF1004F08BF5FEA52
:10523000500C50F1000041EB045141EA050130BD32
:105240005FEA4C0C404141EB010111F4801FA4F1D5
:105250000104E9D191F0000F04BF01460020B1FA2A
:1052600081F308BF2033A3F10B03B3F120020CDA62
:105270000C3208DD02F1140CC2F10C0201FA0CF040
:1052800021FA02F10CE002F11402D8BFC2F1200CA5
:1052900001FA02F120FA0CFCDCBF41EA0C0190405B
:1052A000E41AA2BF01EB0451294330BD6FEA0404A4
:1052B0001F3C1CDA0C340EDC04F11404C4F120028F
:1052C00020FA04F001FA02F340EA030021FA04F3A1
:1052D00045EA030130BDC4F10C04C4F1200220FAF8
:1052E00002F001FA04F340EA0300294630BD21FA36
:1052F00004F0294630BD94F0000F83F4801306BFFC
:1053000081F480110134013D4EE77FEA645C18BFEF
:105310007FEA655C29D094EA050F08BF90EA020F86
:1053200005D054EA000C04BF1946104630BD91EA7E
:10533000030F1EBF0021002030BD5FEA545C05D181
:105340004000494128BF41F0004130BD14F58004C0
:105350003CBF01F5801130BD01F0004545F0FE4134
:1053600041F470014FF0000030BD7FEA645C1ABF69
:10537000194610467FEA655C1CBF0B46024650EAA0
:10538000013406BF52EA033591EA030F41F40021CC
:1053900030BD00BF90F0000F04BF0021704730B552
:1053A0004FF4806404F132044FF000054FF0000127
:1053B00050E700BF90F0000F04BF0021704730B5E8
:1053C0004FF4806404F1320410F0004548BF4042BD
:1053D0004FF000013EE700BF42004FEAE2014FEA12
:1053E00031014FEA02701FBF12F07F4393F07F4FED
:1053F00081F06051704792F0000F14BF93F07F4F1F
:10540000704730B54FF4607401F0004521F0004161
:1054100020E700BF50EA010208BF704730B54FF0E7
:1054200000050AE050EA010208BF704730B511F0EC
:10543000004502D5404261EB41014FF4806404F124
:1054400032045FEA915C3FF4DCAE4FF003025FEAA6
:10545000DC0C18BF03325FEADC0C18BF033202EB2E
:10546000DC02C2F1200300FA03FC20FA02F001FA88
:1054700003FE40EA0E0021FA02F11444C1E600BF27
:1054800070B54FF0FF0C4CF4E06C1CEA11541DBFDA
:105490001CEA135594EA0C0F95EA0C0F00F0DEF8A5
:1054A0002C4481EA030621EA4C5123EA4C5350EA8A
:1054B000013518BF52EA033541F4801143F48013DB
:1054C00038D0A0FB02CE4FF00005E1FB02E506F06C
:1054D0000042E0FB03E54FF00006E1FB03569CF0C1
:1054E000000F18BF4EF0010EA4F1FF04B6F5007FC7
:1054F00064F5407404D25FEA4E0E6D4146EB060639
:1055000042EAC62141EA55514FEAC52040EA5E50C1
:105510004FEACE2EB4F1FD0C88BFBCF5E06F1ED86B
:10552000BEF1004F08BF5FEA500E50F1000041EBA2
:10553000045170BD06F0004646EA010140EA02004F
:1055400081EA0301B4EB5C04C2BFD4EB0C0541EA71
:10555000045170BD41F480114FF0000E013C00F386
:10556000AB8014F1360FDEBF002001F0004170BDAA
:10557000C4F10004203C35DA0C341BDC04F11404C3
:10558000C4F1200500FA05F320FA04F001FA05F24F
:1055900040EA020001F0004221F0004110EBD3701C
:1055A00021FA04F642EB06015EEA430E08BF20EA48
:1055B000D37070BDC4F10C04C4F1200500FA04F3EB
:1055C00020FA05F001FA04F240EA020001F000417D
:1055D00010EBD37041F100015EEA430E08BF20EAF0
:1055E000D37070BDC4F1200500FA05F24EEA020E38
:1055F00020FA04F301FA05F243EA020321FA04F067
:1056000001F0004121FA04F220EA020000EBD3701D
:105610005EEA430E08BF20EAD37070BD94F0000F1D
:105620000FD101F00046400041EB010111F4801F51
:1056300008BF013CF7D041EA060195F0000F18BF02
:10564000704703F00046520043EB030313F4801F3E
:1056500008BF013DF7D043EA0603704794EA0C0FF8
:105660000CEA135518BF95EA0C0F0CD050EA41060E
:1056700018BF52EA4306D1D181EA030101F000418B
:105680004FF0000070BD50EA410606BF10461946B3
:1056900052EA430619D094EA0C0F02D150EA0136BF
:1056A00013D195EA0C0F05D152EA03361CBF104600
:1056B00019460AD181EA030101F0004141F0FE419F
:1056C00041F470014FF0000070BD41F0FE4141F423
:1056D000780170BD70B54FF0FF0C4CF4E06C1CEA23
:1056E00011541DBF1CEA135594EA0C0F95EA0C0FD8
:1056F00000F0A7F8A4EB050481EA030E52EA033593
:105700004FEA013100F088804FEA03334FF08055B3
:1057100045EA131343EA12634FEA022245EA1115E0
:1057200045EA10654FEA00260EF000419D4208BF91
:10573000964244F1FD0404F5407402D25B084FEA3E
:105740003202B61A65EB03055B084FEA32024FF4EA
:1057500080104FF4002CB6EB020E75EB030E22BF47
:10576000B61A754640EA0C005B084FEA3202B6EB07
:10577000020E75EB030E22BFB61A754640EA5C00B6
:105780005B084FEA3202B6EB020E75EB030E22BF46
:10579000B61A754640EA9C005B084FEA3202B6EB47
:1057A000020E75EB030E22BFB61A754640EADC0006
:1057B00055EA060E18D04FEA051545EA16754FEA68
:1057C00006164FEAC30343EA52734FEAC2025FEA86
:1057D0001C1CC0D111F4801F0BD141EA00014FF015
:1057E00000004FF0004CB6E711F4801F04BF0143E6
:1057F0000020B4F1FD0C88BFBCF5E06F3FF6AFAE02
:10580000B5EB030C04BFB6EB020C5FEA500C50F191
:10581000000041EB045170BD0EF0004E4EEA113114
:1058200014EB5C04C2BFD4EB0C0541EA045170BD1B
:1058300041F480114FF0000E013C90E645EA060E5F
:105840008DE60CEA135594EA0C0F08BF95EA0C0F8D
:105850003FF43BAF94EA0C0F0AD150EA01347FF4D5
:1058600034AF95EA0C0F7FF425AF104619462CE7AC
:1058700095EA0C0F06D152EA03353FF4FDAE10460F
:10588000194622E750EA410618BF52EA43067FF460
:10589000C5AE50EA41047FF40DAF52EA43057FF4F0
:1058A000EBAE12E74FF0FF3C06E000BF4FF0010CFB
:1058B00002E000BF4FF0010C4DF804CD4FEA410C5F
:1058C0007FEA6C5C4FEA430C18BF7FEA6C5C1BD02C
:1058D00001B050EA410C0CBF52EA430C91EA030FAD
:1058E00002BF90EA020F0020704710F1000F91EA0A
:1058F000030F58BF994208BF90422CBFD8176FEAD8
:10590000E37040F0010070474FEA410C7FEA6C5CA5
:1059100002D150EA013C07D14FEA430C7FEA6C5CAC
:10592000D6D152EA033CD3D05DF8040B704700BFD8
:105930008446104662468C461946634600E000BF26
:1059400001B5FFF7B7FF002848BF10F1000F01BDF8
:105950004DF808EDFFF7F4FF0CBF012000205DF8C3
:1059600008FB00BF4DF808EDFFF7EAFF34BF012048
:1059700000205DF808FB00BF4DF808EDFFF7E0FFE1
:1059800094BF012000205DF808FB00BF4DF808ED32
:10599000FFF7CEFF94BF012000205DF808FB00BF99
:1059A0004DF808EDFFF7C4FF34BF012000205DF87B
:1059B00008FB00BF4FEA410212F5001215D211D5C3
:1059C0006FF47873B3EB625212D94FEAC12343F0FC
:1059D000004343EA505311F0004F23FA02F018BF7E
:1059E000404270474FF00000704750EA013005D147
:1059F00011F0004008BF6FF0004070474FF000000A
:105A0000704700BF4A0011D212F5001211D20DD515
:105A10006FF47873B3EB62520ED44FEAC12343F0B4
:105A2000004343EA505323FA02F070474FF000005E
:105A3000704750EA013002D14FF0FF3070474FF00D
:105A4000000070474FEA4102B2F1E04324BFB3F5D2
:105A5000001CDCF1FE5C0DD901F0004C4FEAC002E5
:105A60004CEA5070B2F1004F40EB830008BF20F0C9
:105A70000100704711F0804F21D113F13872BCBF83
:105A800001F00040704741F480114FEA5252C2F1D8
:105A90001802C2F1200C10FA0CF320FA02F018BF21
:105AA00040F001004FEAC1234FEAD32303FA0CFC74
:105AB00040EA0C0023FA02F34FEA4303CCE77FEA03
:105AC000625307D150EA01331EBF4FF0FE4040F44D
:105AD0004000704701F0004040F0FE4040F40000FC
:105AE000704700BF80F0004002E000BF81F000413D
:105AF00042001FBF5FEA410392EA030F7FEA226C74
:105B00007FEA236C6AD04FEA1262D2EB1363C1BF03
:105B1000D218414048404140B8BF5B42192B88BF72
:105B2000704710F0004F40F4000020F07F4018BF95
:105B3000404211F0004F41F4000121F07F4118BFB5
:105B4000494292EA030F3FD0A2F1010241FA03FC5D
:105B500010EB0C00C3F1200301FA03F100F0004345
:105B600002D5494260EB4000B0F5000F13D3B0F10D
:105B7000807F06D340084FEA310102F10102FE2A7C
:105B800051D2B1F1004F40EBC25008BF20F00100EC
:105B900040EA03007047490040EB000010F4000F9A
:105BA000A2F10102EDD1B0FA80FCACF1080CB2EB2D
:105BB0000C0200FA0CF0AABF00EBC250524218438C
:105BC000BCBFD0401843704792F0000F81F4000131
:105BD00006BF80F400000132013BB5E74FEA410304
:105BE0007FEA226C18BF7FEA236C21D092EA030F70
:105BF00004D092F0000F08BF0846704790EA010FEA
:105C00001CBF0020704712F07F4F04D1400028BF16
:105C100040F00040704712F100723CBF00F50000F8
:105C2000704700F0004343F0FE4040F4000070472E
:105C30007FEA226216BF08467FEA236301464202DA
:105C400006BF5FEA412390EA010F40F480007047ED
:105C50004FF0000304E000BF10F0004348BF404293
:105C60005FEA000C08BF704743F0964301464FF0CF
:105C700000001CE050EA010208BF70474FF000032B
:105C80000AE000BF50EA010208BF704711F000436C
:105C900002D5404261EB41015FEA010C02BF84463C
:105CA0000146002043F0B64308BFA3F18053A3F59B
:105CB0000003BCFA8CF2083AA3EBC25310DB01FAE2
:105CC00002FC634400FA02FCC2F12002BCF1004F66
:105CD00020FA02F243EB020008BF20F001007047F7
:105CE00002F1200201FA02FCC2F1200250EA4C004B
:105CF00021FA02F243EB020008BF20EADC70704791
:105D00004FF0FF0C1CEAD0521EBF1CEAD15392EA9E
:105D10000C0F93EA0C0F6FD01A4480EA010C40027A
:105D200018BF5FEA41211ED04FF0006343EA5010D4
:105D300043EA5111A0FB01310CF00040B1F5000F16
:105D40003EBF490041EAD3715B0040EA010062F1C5
:105D50007F02FD2A1DD8B3F1004F40EBC25008BFAF
:105D600020F00100704790F0000F0CF0004C08BFCD
:105D700049024CEA502040EA51207F3AC2BFD2F19A
:105D8000FF0340EAC250704740F400004FF00003A8
:105D9000013A5DDC12F1190FDCBF00F000407047E2
:105DA000C2F10002410021FA02F1C2F1200200FA20
:105DB00002FC5FEA310040F1000053EA4C0308BFE7
:105DC00020EADC70704792F0000F00F0004C02BF38
:105DD000400010F4000F013AF9D040EA0C0093F0B3
:105DE000000F01F0004C02BF490011F4000F013B0D
:105DF000F9D041EA0C018FE70CEAD15392EA0C0F7B
:105E000018BF93EA0C0F0AD030F0004C18BF31F0E5
:105E1000004CD8D180EA010000F00040704790F0BB
:105E2000000F17BF90F0004F084691F0000F91F05F
:105E3000004F14D092EA0C0F01D142020FD193EA25
:105E40000C0F03D14B0218BF084608D180EA0100AD
:105E500000F0004040F0FE4040F40000704740F089
:105E6000FE4040F4400070474FF0FF0C1CEAD05257
:105E70001EBF1CEAD15392EA0C0F93EA0C0F69D0B3
:105E8000A2EB030280EA010C49024FEA402037D01E
:105E90004FF0805343EA111143EA10130CF0004015
:105EA0008B4238BF5B0042F17D024FF4000C8B4205
:105EB00024BF5B1A40EA0C00B3EB510F24BFA3EBE5
:105EC000510340EA5C00B3EB910F24BFA3EB9103B5
:105ED00040EA9C00B3EBD10F24BFA3EBD10340EA0F
:105EE000DC001B0118BF5FEA1C1CE0D1FD2A3FF655
:105EF00050AF8B4240EBC25008BF20F0010070470A
:105F00000CF0004C4CEA50207F32C2BFD2F1FF03AC
:105F100040EAC250704740F400004FF00003013ADD
:105F200037E792F0000F00F0004C02BF400010F481
:105F3000000F013AF9D040EA0C0093F0000F01F095
:105F4000004C02BF490011F4000F013BF9D041EAB7
:105F50000C0195E70CEAD15392EA0C0F08D14202EA
:105F60007FF47DAF93EA0C0F7FF470AF084676E7BD
:105F700093EA0C0F04D14B023FF44CAF08466EE796
:105F800030F0004C18BF31F0004CCAD130F0004264
:105F90007FF45CAF31F000437FF43CAF5FE700BFBC
:105FA0004FF0FF3C06E000BF4FF0010C02E000BFE5
:105FB0004FF0010C4DF804CD4FEA40024FEA410387
:105FC0007FEA226C18BF7FEA236C11D001B052EA3D
:105FD000530C18BF90EA010F58BFB2EB030088BF03
:105FE000C81738BF6FEAE17018BF40F00100704772
:105FF0007FEA226C02D15FEA402C05D17FEA236C54
:10600000E4D15FEA412CE1D05DF8040B704700BF9A
:10601000844608466146FFE70FB5FFF7C9FF002831
:1060200048BF10F1000F0FBD4DF808EDFFF7F4FF6A
:106030000CBF012000205DF808FB00BF4DF808ED03
:10604000FFF7EAFF34BF012000205DF808FB00BF26
:106050004DF808EDFFF7E0FF94BF012000205DF848
:1060600008FB00BF4DF808EDFFF7D2FF94BF0120F9
:1060700000205DF808FB00BF4DF808EDFFF7C8FFF2
:1060800034BF012000205DF808FB00BF4FEA40024A
:10609000B2F1FE4F0FD34FF09E03B3EB12620DD956
:1060A0004FEA002343F0004310F0004F23FA02F0C0
:1060B00018BF404270474FF00000704712F1610F67
:1060C00001D1420205D110F0004008BF6FF000403E
:1060D00070474FF00000704742000ED2B2F1FE4F01
:1060E0000BD34FF09E03B3EB126209D44FEA0023A7
:1060F00043F0004323FA02F070474FF0000070476E
:1061000012F1610F01D1420202D14FF0FF3070470E
:106110004FF00000704700BF844641EA000313F0CF
:10612000030349D1403A23D30B6803604B684360B3
:106130008B688360CB68C3600B6903614B69436103
:106140008B698361CB69C3610B6A03624B6A4362EB
:106150008B6A8362CB6AC3620B6B03634B6B4363D3
:106160008B6B8363CB6BC36340304031403ADBD2EF
:1061700030320BD30B6803604B6843608B688360DD
:10618000CB68C36010301031103AF3D20C3205D313
:1061900051F8043B40F8043B043AF9D2043208D0E9
:1061A000D2071CBF11F8013B00F8013B01D30B885B
:1061B00003806046704700BF082A13D38B07B1D015
:1061C00010F00303AED0C3F10403D21ADB071CBFE7
:1061D00011F8013B00F8013BA4D331F8023B20F851
:1061E000023B9FE7043AD9D3013A11F8013B00F88A
:1061F000013BF9D20B7803704B7843708B78837036
:10620000604670474BB942B9002908BF002802D048
:106210004FF0FF31084600F03BB882B0EC462DE964
:10622000005000F01DF8DDF804E002B00CBC70472F
:106230002DE9704F089E14461D468046894600F0A1
:1062400029F804FB01F3A4FB00AB00FB05329344E7
:10625000B8EB0A0869EB0B09C6E90089BDE8708F45
:106260002DE9704F089E14461D468046894600F071
:1062700061F900FB05F5A0FB04AB04FB0154A3444A
:10628000B8EB0A0869EB0B09C6E90089BDE8708F15
:10629000704700BF00292DE9F00FC0F2A180002453
:1062A000002BC0F29880154606460F46002B3FD1C2
:1062B0008A4258D9B2FA82F34BB1C3F1200201FAF3
:1062C00003F720FA02F29D4000FA03F61743290C67
:1062D000B7FBF1F201FB1277A8B200FB02F34FEA21
:1062E000164C4CEA0747BB4209D97F1902F1FF3C23
:1062F00080F00581BB4240F20281023A2F44FF1A2E
:10630000B7FBF1F301FB137100FB03F0B6B246EAF1
:106310000141884208D9491903F1FF3780F0F18023
:10632000884240F2EE80023B43EA0242002303E04F
:106330008B420AD900231A461046194614B140422E
:1063400061EB4101BDE8F00F7047B3FA83F8B8F193
:10635000000F40F088808B4202D3824200F2E2803C
:1063600000230122E8E712B90123B3FBF2F5B5FAE5
:1063700085F2002A3AD17F1B280C1FFA85FC0123E5
:10638000B7FBF0F100FB11770CFB01F24FEA164866
:1063900048EA0747BA4207D97F1901F1FF3802D20C
:1063A000BA4200F2C4804146BF1AB7FBF0F200FBCC
:1063B00012700CFB02FCB6B246EA0040844507D9D5
:1063C000401902F1FF3702D2844500F2AE803A460E
:1063D00042EA0142B0E7E443524263EB430362E71F
:1063E000404261EB41014FF0FF3459E79540C2F163
:1063F000200927FA09F126FA09F99740280CB1FB80
:10640000F0F800FB18111FFA85FC0CFB08F349EAB1
:1064100007094FEA194747EA01418B4206FA02F69B
:1064200008D9491908F1FF327AD28B4278D9A8F1FC
:1064300002082944C91AB1FBF0F300FB13170CFB47
:1064400003F21FFA89F949EA0747BA4207D97F19C7
:1064500003F1FF3160D2BA425ED9023B2F44BF1A2A
:1064600043EA08438CE7C8F1200225FA02F103FA57
:1064700008FC27FA02F320FA02F207FA08F741EAC9
:106480000C0C4FEA1C49B3FBF9F109FB11331FFA5D
:106490008CFA0AFB01FB17433A0C42EA03439B4583
:1064A00005FA08F008D913EB0C0301F1FF3235D2DD
:1064B0009B4533D902396344CBEB0303B3FBF9F2B9
:1064C00009FB12330AFB02FABFB247EA0347BA4597
:1064D00008D917EB0C0702F1FF331BD2BA4519D9C3
:1064E000023A674442EA0145A5FB0001CAEB0707EF
:1064F0008F424FF000030AD305D02A461CE76246BC
:10650000FDE63B4610E706FA08F68642F5D26A1E1B
:10651000002311E71A46E5E70B46A0E71146CBE753
:10652000904687E74346424606E7023A50E702397B
:106530002F4439E72DE9F00F144605460E46002B8F
:1065400043D18A4253D9B2FA82F757B1C7F1200634
:1065500020FA06F601FA07F302FA07F400FA07F543
:106560001E43210CB6FBF1F201FB1266A0B200FB48
:1065700002F32F0C47EA0646B34209D9361902F155
:10658000FF3780F0FD80B34240F2FA80023A2644A1
:10659000F61AB6FBF1F301FB136100FB03F0ADB299
:1065A00045EA0141884208D9091903F1FF3680F014
:1065B000E980884240F2E680023B43EA024200233F
:1065C00010461946BDE8F00F70478B424CD8B3FA1D
:1065D00083F6002E4FD18B4202D3824200F2DD803F
:1065E000BDE8F00F0023012210461946704712B98A
:1065F0000124B4FBF2F4B4FA84F2002A40F0828061
:10660000091B260CA7B20123B1FBF6F006FB101103
:1066100007FB00F24FEA154C4CEA01418A4207D9C8
:10662000091900F1FF3C02D28A4200F2C88060469C
:10663000891AB1FBF6F206FB121107FB02F7ADB2A5
:1066400045EA0145AF4208D92C1902F1FF3180F02B
:106650009B80A74240F29880023A42EA00421046EC
:106660001946BDE8F00F704700231A461046194638
:10667000BDE8F00F7047C6F1200522FA05F703FACE
:1066800006F421FA05F301FA06FB20FA05F53C436E
:106690004FEA1448B3FBF8FC08FB1C331FFA84F9DB
:1066A00009FB0CFA45EA0B0B4FEA1B4545EA03438D
:1066B0009A4502FA06F204D91B190CF1FF356FD383
:1066C000AC46CAEB0303B3FBF8F508FB153309FB33
:1066D00005F91FFA8BFB4BEA0347B94504D93F196B
:1066E00005F1FF3362D31D4645EA0C4CACFB022397
:1066F000C9EB07079F424FF000054AD346D06246D8
:106700002B465DE79440C2F1200921FA09FC914033
:1067100020FA09F9260CBCFBF6F806FB18CCA7B248
:1067200007FB08F349EA01094FEA194141EA0C4C19
:10673000634500FA02F509D91CEB040C08F1FF329D
:106740003BD2634539D9A8F10208A444C3EB0C0C31
:10675000BCFBF6F306FB13C107FB03F21FFA89F932
:1067600049EA01418A4207D9091903F1FF3022D2CF
:106770008A4220D9023B2144891A43EA084343E76D
:106780003A4605E7334618E70A4666E7B0409042C6
:10679000B5D20CF1FF32002312E7334632460FE741
:1067A0009A458DD9ACF1020C23448AE7B9459AD9B0
:1067B000023D274498E70346DEE79046C6E70238E5
:1067C000214435E710B50378A3F13002D1B209298D
:1067D00001D813460CE0A3F14102D2B2052A01D838
:1067E000373B05E0A3F16102D2B2052A46D8573BF8
:1067F00042781B01A2F13001CCB2092C01D8CA1891
:106800000DE0A2F14101C9B2052901D8373A05E0EE
:10681000A2F16101C9B2052930D8573A1A448378E8
:106820001201A3F13001CCB2092C01D80A440DE0C9
:10683000A3F14101C9B2052901D8373B05E0A3F115
:106840006101C9B2052919D8573B1A44C37812010E
:10685000A3F13000C1B209290ED9A3F14101C9B297
:10686000052902D8A3F1370006E0A3F16101C9B2FE
:10687000052903D8A3F15700104410BD002010BD16
:106880002DE9F0410B780746222B01F1010602D1D8
:106890003346002008E05B4B19600020BDE8F08122
:1068A0004AB15C2A05D102331A780130222AF7D185
:1068B00001E00133F8E7544B1B68984780460028F5
:1068C000EBD004463378222B07D100232370337892
:1068D000222B40F08F8001368CE0002BF5D05C2B12
:1068E00006F1010103D023700E460134EAE7737804
:1068F0006E2B14D007D8622B04F101020BD0662B4B
:1069000074D10C2308E0742B0BD0752B0BD0722B99
:106910006CD10D236AE008232370144668E00A2333
:1069200064E0092362E0B01CFFF74CFFA0F55C4374
:10693000B3F5806F054606F1050159D3002857D0FD
:10694000A0F55843B3F5806F19D2B3795C2B4FD1C2
:10695000F379752B4CD106F10800FFF733FFA0F552
:106960005C43B3F5806F06F10B0141D2C0F309001F
:10697000C5F3090540EA852505F5803504E07F2843
:1069800008D9B0F5006F07D3B5F5803F34BF0322B7
:10699000042202E0012200E00222032A04EB0203A7
:1069A0000CD0042A02D0022A18D10FE005F03F00D3
:1069B00060F07F0003F8010CAD09E31C05F03F0017
:1069C00060F07F0003F8010CAD09013B05F03F00CA
:1069D00060F07F0003F8010CAD09013B0B485C1E21
:1069E000805C1444054303F8015C01E0237001342A
:1069F0004E1C67E70423C7F81080FB603046BDE8F3
:106A0000F08100BF540B0020000000206C450108FD
:106A1000034618462BB102780133013AD2B21F2A3D
:106A2000F7D97047064B10B51B68282098470446D5
:106A300018B1002128220AF08BFA204610BD00BFB1
:106A4000000000202DE9F74F8146884608460029BE
:106A500000F0A781B14904220AF02EFE18B90223E2
:106A6000C9F80C3015E04046AD4905220AF024FE75
:106A700020B9C9F80C0008F1050092E14046A94987
:106A800004220AF019FE38B90123C9F80C30C9F8FC
:106A9000143008F1040084E198F80030222B06D16C
:106AA0004846414603B0BDE8F04FFFF7E9BE2D2B45
:106AB00008D0A3F13002D2B2092A00F2B980002234
:106AC000994B03E0994B08F101080022CDE900231E
:106AD00098F800300024302B08BF08F1010898F81E
:106AE00000300025313BDBB2082B1AD80022904B36
:106AF00020462946FEF7C4FC044618F8010B0D4653
:106B00003038FEF757FC0B46024629462046FEF772
:106B100005FB98F800300446303BDBB20D46092BEC
:106B2000E3E798F800302E2B2ED198F80130303B57
:106B3000DBB2092B28D8C2460026002700227C4B56
:106B400020462946FEF79CFC0AF1020804461AF882
:106B5000010F0D463038FEF72DFC02460B4620464D
:106B60002946FEF7DBFA704B04460D46304639469F
:106B70000022FEF7D1FA9AF801300646303BDBB22C
:106B8000092B0F46DAD901E00026002798F80030DB
:106B900003F0DF03452B1ED198F801302B2B02D1D7
:106BA00008F1020303E02D2B04D008F101034FF09C
:106BB000010B03E008F102034FF0FF3B4FF0000A26
:106BC000984613F8012B303AD1B2092907D80A2187
:106BD00001FB0A2AF4E74FF0010B4FF0000A2246AE
:106BE0002B46DDE90001FEF74BFC04460BFB0AF0E7
:106BF0000D46FEF7DFFB02460B4630463946FEF7F0
:106C00008DFA02460B460020494908F04BFC0B4622
:106C1000024629462046FEF733FCC9E90601FEF785
:106C2000C9FE0323C9F81400C9F80C304046B8E087
:106C30005B2B3FD10523C9F80C3008F10100FFF7A9
:106C4000E7FE037804465D2B2FD0FFF7EBFE0546E9
:106C5000C9F80800002800F0A3802046FFF7D8FEFE
:106C600001462846FFF7EEFEFFF7D2FE0446002855
:106C700000F0968023782C2B15D1FFF7D3FE064623
:106C8000002800F08D8028604560601CFFF7C0FE82
:106C900001463046FFF7D6FEFFF7BAFE044600284D
:106CA0007ED03546E6E75D2B01D1601C79E0214BB3
:106CB0001C6075E07B2B70D10623C9F80C3008F1FD
:106CC0000100FFF7A5FE037805467D2B01D10130B9
:106CD00067E0FFF7A7FE0446C9F8080000285FD068
:106CE0002846FFF795FE01462046FFF7C9FDFFF74E
:106CF0008FFE002854D0236900222362226103788A
:106D00003A2B3FD10130FFF783FE01462046FFF7C3
:106D100099FEFFF77DFE0646D0B941E02E4A0108F4
:106D2000334A0108394A01080000F03F0000F0BF73
:106D300000002440540B00200130FFF769FE01469B
:106D40002846FFF77FFEFFF763FE064640B32C465A
:106D500033782C2B1AD1FFF765FE054600B320606F
:106D60004460701CFFF754FE01462846FFF788FD7B
:106D7000FFF74EFEA0B12B6900222B622A61037837
:106D80003A2BD9D0084B186010460AE07D2B01D170
:106D9000701C06E0044B1E6002E0034BC3F8008049
:106DA000002003B0BDE8F08F540B002070B50446FE
:106DB000CCB1E3682668DB0503D4A06808B1FFF70F
:106DC000F5FFE368084D13F4807F03D1206908B113
:106DD0006B689847206A08B16B68984720466B68D3
:106DE00098473446E4E770BD000000202DE9F843E1
:106DF00005460E469146FFF715FEDFF85480002742
:106E0000C8F80070044600B32846FFF701FE0146AB
:106E10002046FFF717FE054628B92046FFF7C6FFB4
:106E20002846BDE8F883B9F1000F0CD0FFF7F0FD5C
:106E3000037805463BB12046FFF7B8FFC8F800507D
:106E40003846BDE8F88306B135602046BDE8F883D2
:106E5000540B002000210A46FFF7C8BF806820B10C
:106E6000002902DD01390068F9E77047044A03464A
:106E7000012111700348D3F80C1103F0A8BC00BF26
:106E800008000020580B0020044A0346012111701D
:106E90000348D3F80C1103F09ABC00BF080000208F
:106EA000580B0020044A0346012151700348D3F8CF
:106EB0000C1103F08CBC00BF08000020AC0B0020BC
:106EC000044A0346012151700348D3F80C1103F022
:106ED0007EBC00BF08000020AC0B0020044A034623
:106EE000012191700348D3F80C1103F070BC00BF6E
:106EF00008000020000C0020044A03460121917084
:106F00000348D3F80C1103F062BC00BF0800002056
:106F1000000C002008B5074B002200F588701A709D
:106F200003C8FEF78FFDBDE808400146024803F0A4
:106F30000FBD00BF08000020580B002008B5074B0C
:106F4000002200F588705A7003C8FEF77BFDBDE88B
:106F500008400146024803F0FBBC00BF08000020C7
:106F6000AC0B002008B5074B002200F588709A7022
:106F700003C8FEF767FDBDE808400146024803F07C
:106F8000E7BC00BF08000020000C002000F588705E
:106F900008B503C8FEF756FDBDE8084001460148A4
:106FA00003F060BC580B002000F5887008B503C8DA
:106FB000FEF748FDBDE808400146014803F052BC19
:106FC000AC0B002000F5887008B503C8FEF73AFD49
:106FD000BDE808400146014803F044BC000C002015
:106FE00000F5887008B503C8FEF72CFDBDE8084021
:106FF0000146014803F068BC580B002000F588707A
:1070000008B503C8FEF71EFDBDE80840014601486B
:1070100003F05ABCAC0B002000F5887008B503C81B
:10702000FEF710FDBDE808400146014803F04CBCE6
:10703000000C00200148002103F01ABB580B00206F
:107040000148002103F014BBAC0B002001480021D3
:1070500003F00EBB000C0020024B012202481A7004
:1070600003F0BABC08000020580B0020024B01229C
:1070700002485A7003F0B0BC08000020AC0B00209E
:10708000024B012202489A7003F0A6BC08000020BF
:10709000000C002010B5044600F52F7002F0C6FD6C
:1070A000204610BD10B54FF461413A4C3A4801F00A
:1070B0005DFC322000F0BCFD20463849384A02F021
:1070C000CBFE20463749384A02F0C6FE20463749F3
:1070D000374A02F0C1FE20463649374A02F0BCFE6C
:1070E00020463649364A02F0B7FE20463549364A30
:1070F00002F0B2FE20463549354A02F0ADFE204688
:107100003449354A02F0A8FE20463449344A02F098
:10711000A3FE20463349344A02F09EFE20463349FE
:10712000334A02F099FE20463249334A02F094FE77
:1071300020463249324A02F08FFE20463149324A17
:1071400002F08AFE20463149314A02F085FE20468F
:107150003049314A02F080FE20463049304A02F080
:107160007BFE20462F49304A02F076FE20462F490A
:107170002F4A02F071FE20462E492F4A02F06CFE83
:1071800020462E492E4A02F067FE2046BDE81040F8
:1071900002F0D6BE540C0020BC2000204C4A01084E
:1071A0006D6E00085D4A0108896E00086E4A01088C
:1071B000156F0008804A01088D6F0008904A010889
:1071C000E16F0008A44A010835700008B04A0108C0
:1071D00059700008BE4A0108A56E0008CF4A010890
:1071E000C16E0008E04A01083D6F0008F24A01083C
:1071F000A96F0008024B0108FD6F0008164B01083B
:1072000041700008224B01086D700008304B0108E6
:10721000DD6E0008414B0108F96E0008524B010871
:10722000656F0008644B0108C56F0008744B0108C6
:1072300019700008884B01084D700008944B010834
:107240008170000870B5584D584802F0F5FE584C52
:107250002B78204613B103F0BEFA01E003F0DEF90B
:10726000534803F0FFF9002840F089802B78002B69
:1072700000F0858000F0C6FCD4F8F8364C4EC01AF9
:10728000C82818D900F0BEFC96F8FC36C6F8F806F7
:1072900043B1304603F0EAF94649024606F1FC00E4
:1072A00002F076FE424E304603F0DCF918B996F84B
:1072B000FC36002B67D16B783F4813B103F08BFA93
:1072C00001E003F0ABF93C4803F0CCF900285DD1B4
:1072D0006B78002B5AD000F095FCD4F80037344E70
:1072E000C01AC8281AD900F08DFC96F80437C6F8E1
:1072F00000074BB106F1540003F0B8F92F490246DC
:1073000006F1FC0002F044FE294E06F1540003F0A1
:10731000A9F918B996F80437002B3BD1AB78284867
:1073200013B103F058FA01E003F078F9244803F0B0
:1073300099F990BBAB7883B300F064FCD4F80837BC
:107340001B4DC01AC8282ED900F05CFC95F80C37EC
:10735000C5F808074BB105F1A80003F087F91949F2
:10736000024605F1FC0002F013FE114C04F1A800E6
:1073700003F078F9B8B994F80C3793B970BD0123CC
:1073800084F8FC3676E786F8FC0694E7012384F857
:107390000437A0E786F80407C0E7012384F80C3718
:1073A000CAE784F80C0770BD08000020540C0020C8
:1073B000580B0020A24B0108AC0B0020B34B010876
:1073C000000C0020C44B01082DE9FF41224C00268F
:1073D000334604F1FC0531463246009604F5E2607E
:1073E00000F004FD28461D491D4A02F0DFFC1D493E
:1073F0001D4A284608F028F800F004FCC4F8F806F6
:1074000000F000FCC4F8000700F0FCFB0125042795
:107410004FF00508C4F8080729462A4633468DE888
:1074200080010295204603F0EBF929468DE88001A2
:10743000029504F154000322022303F0E1F98DE8E0
:107440008001029504F1A800294642463B4603F01C
:10745000D7F904B0BDE8F081580B0020D54B0108E6
:10746000E44B010895700008F0130020013101EB96
:10747000420291420BD0030F092B94BF30333733B4
:1074800001F8013C0023000101F8023BF1E77047DD
:1074900010B54FF000604FF4A04106F001FC01244C
:1074A000284B294821461C7006F00CFE05F02AFFE7
:1074B00005F012FC2146402006F0BCFE6FF07F4034
:1074C00005F082FDE72005F0FBFD204B1C7005F068
:1074D00043FC7D2006F0D2FE18B11D4B1C7006F057
:1074E000E1FE40F6B83005F0A0FC06F0DBF906F04E
:1074F0007BFA184801F0CAFB174B01221A7001F001
:1075000051FC164B1B781BB9154B1B78002BF6D082
:10751000144B1B78002BF2D10D4B1B78002BEED1B6
:107520000F4C2378012B01D00F4B33B90F4B0BB10C
:10753000FFF788FE00F08EFAE1E7FFF7B3FD0123C5
:107540002370F3E7C621002000043000E72000206C
:10755000802B002087790008FF200020E5200020F4
:1075600070120020E6200020A57000084572000877
:107570002DE9F041644D6B6801336B60634B1A6811
:1075800012B11A68013A1A60614B624E1B7833B12E
:10759000614B1B78F3B1614B002B3CD11AE0604C7E
:1075A000236813B12368013B13E0337893B95D4B33
:1075B0001B787BB95C4B1B7863B9DFF898815B4F14
:1075C00098F8003063B3E72005F0E6FD3B782BB375
:1075D00014232360564B1B7803F0FF0263B1A968A4
:1075E0004EF65F229142484B02D901221A7304E001
:1075F0009A6801329A6000E0AA6033784D4C03F03B
:10760000FF07002B34D1384605F0C6FE40F6B733ED
:1076100098421CD82CE000F0B7F9DBE70123D8E74B
:107620003B7853B14FF6FF7005F0CEFCE72005F034
:1076300047FD012388F80030CCE7E72005F066FD20
:107640003D4B1B780BB13223C3E76423C1E73846B7
:1076500005F0AAFE2378C3B9384B1B782BB1364B03
:10766000324A1B7812781A4248D0012333700CE05A
:10767000002005F091FE41F65733984205D90020CD
:1076800005F092FE2E4B01221A702378A3B92A69C5
:107690001D4B1AB11A69013A1A610DE0214A12789C
:1076A00052B1596947F22F52914202D901221A73FD
:1076B00002E05A6901325A61224B1A68B2F57A7FA8
:1076C00004D300221A6006F055FD02E01A68013268
:1076D0001A602B7B5BB1BFF34F8F1B4A1B4BD168EA
:1076E00001F4E0610B43D360BFF34F8FFEE7184B0B
:1076F0001B783BB1BDE8F04100F09EB9144B01226C
:107700001A70B2E7BDE8F08170120020882B0020CB
:10771000B0210020E22000202416002089790008F2
:10772000842B0020E6200020E8200020E520002017
:107730001C220020FE200020E4200020E320002066
:10774000F32000208C2B002000ED00E00400FA055F
:10775000F2200020E720002008B5094B186006F051
:1077600047F8002006F090F8064805F0DDFA06F02C
:1077700057F806F075F8BDE8084007F01FBC00BFD9
:10778000D4010020A0860100074B1B68052B08D1FF
:10779000064B1A7E012A04D1987E1B7FC01AC0B204
:1077A00070470020704700BFE021002070120020C9
:1077B0000D4B10B51B68052B13D10C4C237E012BF0
:1077C0000FD1628BA38BD31A012B04D1002303208A
:1077D000237607F04AFDA38B5A1CA2831C44A07F8A
:1077E00010BD4FF0FF3010BDE021002070120020CE
:1077F000084B1B68052B0CD1074B1A6E99180132E8
:10780000B2F5807F1A6608BF002281F8640008BFC5
:107810001A667047E021002070120020F8B5234B53
:1078200093F86421012A3FD0D3F86821196EB2F58C
:10783000807F04BF0022C3F86821D3F868411B4A47
:107840008C4203D1002382F86431F8BD8CBFC4F5AB
:107850008071C4EB0101C2F86C11D3F86C61134D57
:10786000402EA2B207D94034403EC5F86841C5F861
:107870006C61402706E034440021B7B2C5F8684186
:10788000C5F86C110A4801241044C0213A4683F817
:10789000644107F065FC2046394607F069FD204643
:1078A000BDE8F84007F0CEBCF8BD00BF7012002064
:1078B000D4120020094B10B593E8140008331B685C
:1078C000D0180AD006490822FFF7D0FD2046054906
:1078D0000422BDE81040FFF7C9BD10BDE8F7FF1F47
:1078E000830100209301002007B5002100910A4682
:1078F0000B46034800F07AFA03B05DF804FB00BFC2
:10790000E013002038B504460D46AC4203D254F8CB
:10791000043B9847F9E738BD08B507480749FFF722
:10792000F1FF07480749FFF7EDFFBDE808400648AB
:107930000649FFF7E7BF00BFB0530108B053010885
:10794000B0530108245401082454010824540108A8
:10795000FEE70000054A08B5136818441060044AA1
:10796000904201D908F062FE184608BD0C000020C4
:10797000004800204FF0FF30704701207047002082
:10798000704701207047704738B5114CD4F8445BFC
:107990002DB1D4F8443B013BC4F8443B38BDD4F886
:1079A000483B0C4A52F8230005F036FBE72005F06F
:1079B00087FB6423084AC4F8443BD4F8483B126868
:1079C00001339342C4F8483BA8BFC4F8485B38BDB4
:1079D000F4130020744501081000002030B5022087
:1079E00085B00121062204F077F9041E1BDB022377
:1079F000ADF8003000238DF8023035238DF80330C8
:107A00006946082310228DF804308DF805308DF872
:107A100006308DF8073004F071FA0546204604F070
:107A200089F9284601E04FF0FF3005B030BD012054
:107A30007047002070470000044B012200215A804B
:107A40001980D986024B1A70704700BF142300209A
:107A5000F2200020084B0022D3F83C1203F51073EB
:107A60008A4208DA93F8500010B1002083F85000E1
:107A700001325133F4E77047F413002004F03EBAAA
:107A8000014807F0CBBC00BF2817002014282DE9BF
:107A9000F34104460E4669D8FF2967D000F0A6FAE4
:107AA00020B1A4F10D039BB2022B5FD900F040F985
:107AB00008B1012C5AD900F025FF20B1A4F112031E
:107AC0009BB2012B52D92B4D24012B192F59B3F8FE
:107AD0000480294B9F4201D1042003E0274B9F42A1
:107AE00003D10820012106F0B1FBADF80480062E79
:107AF00038D8DFE806F0040D13191F2831001023D1
:107B00008DF8073003238DF806302C44002328E03D
:107B100004238DF807302C44012322E048238DF8FC
:107B200007302C4402231CE028238DF807302C4416
:107B3000032316E018238DF8073003238DF8063051
:107B40002C4404230DE01C238DF8073003238DF80B
:107B500006302C44052304E000238DF807302C4424
:107B60000623A373384601A906F054FA02B0BDE813
:107B7000F08100BF1400002000080140000C01400B
:107B80001428F8B505460F4638D81D4E04013319A0
:107B90009B7B5A1ED2B2022A30D9062B2ED0FF2B45
:107BA0002CD000F023FA28B1A5F10D039BB2022BD3
:107BB00000D8F8BD00F0BCF810B1012D00D8F8BD18
:107BC00000F0A0FE28B1A5F112039BB2012B00D852
:107BD000F8BD33199B7B042B03D128460021FFF706
:107BE00055FF012F04D13219335992881A61F8BD1B
:107BF00027B93219335992885A61F8BDF8BD00BFD0
:107C000014000020014B1868704700BF7412002058
:107C1000044B5868044B1A68044BB2FBF3F3B0FBF7
:107C2000F3F07047001000E0C402002040420F0053
:107C3000034B1A68104419688842FCD8704700BF8B
:107C40007412002005F070B807B5002100910A46B3
:107C50000B46034800F0CAF803B05DF804FB00BF10
:107C6000541F0020024B18785B78C01A704700BF81
:107C70005C1F0020064B5A781978914204D9991854
:107C8000013288785A7070474FF0FF30704700BF5C
:107C90005C1F0020054B5A781978914202D9134491
:107CA000987870474FF0FF30704700BF5C1F00208E
:107CB00070470000F8B5094B054693F82230164688
:107CC00053B10C468F18BC4206D02B6828461B685F
:107CD00014F8011B9847F6E73046F8BD5C1F0020FA
:107CE00010B50C4B012293F822408CB193F823403D
:107CF0001F2C02D94260002010BD93F824001C18EC
:107D000084F82510411CC9B283F8241083F823108D
:107D1000104610BD5C1F0020002242604FF47A72B2
:107D20008260014A02607047A845010870477047A9
:107D3000014B93F8590070475C1F002013B5084CA5
:107D40000021009104F164000A460B4600F04EF851
:107D500004F16C0002B0BDE81040FFF7DDBF00BFCA
:107D60005C1F002008B5034B53F8203003B198473F
:107D700008BD00BFD81F002007B5002100910A46AA
:107D80000B46034800F032F803B05DF804FB00BF77
:107D9000182000202DE9F041002407460E46254614
:107DA0003B1919790A22304600F001F92E2180464C
:107DB000304600F07BF801344044032C0544EFD1F9
:107DC0003046F9790A2200F0F2F82844BDE8F08143
:107DD00010B5054A0446002140F8042B042209F09E
:107DE000B7F8204610BD00BFC845010830B5837103
:107DF000034D9DF80C30056001714271C37130BDB7
:107E0000C8450108044B054A1A6000221A715A71CC
:107E10009A71DA71704700BF20200020C845010820
:107E200037B5064C0546E178A2786378247800944B
:107E3000FFF7DCFF284603B030BD00BF0121002062
:107E4000004870471B21002007B5002100910A4619
:107E50000B460348FFF7CAFF03B05DF804FB00BF01
:107E600028200020F8B506460C468F180025BC4295
:107E700007D0336830461B6814F8011B9847054447
:107E8000F5E72846F8BD38B505460C46084641B129
:107E900009F0E2FB2B6802465B68284621469847BA
:107EA00038BD38BD08B5FFF7EEFF08BD08B503685B
:107EB0001B68984708BD10B50A6804461268084652
:107EC0002146904710BD38B50D210546FFF7EEFF5E
:107ED0000A2104462846FFF7E9FF204438BD38B59B
:107EE0000446FFF7D0FF05462046FFF7ECFF284485
:107EF00038BD38B50446FFF7DEFF05462046FFF7DC
:107F0000E2FF284438BD30B500238BB08DF8243013
:107F1000012A98BF0A220DF12304B1FBF2F303FBFF
:107F20001211CDB2092D94BF30353735EDB221464F
:107F300004F801590BB11946EFE7FFF7A4FF0BB0A6
:107F400030BDF8B506460D46144622B90368C9B2DD
:107F50001B689847F8BD0A2A0CD100290BDA2D219D
:107F6000FFF7A4FF6942074622463046FFF7CBFFE2
:107F70003844F8BDD2B2BDE8F840FFF7C4BFFFF700
:107F8000E0BF38B50446FFF7DCFF05462046FFF7A3
:107F90009AFF284438BD10B522B90268C9B21268E8
:107FA000904710BDD2B2BDE81040FFF7ACBFFFF75D
:107FB000F2BF000007B5002100910A460B460348B6
:107FC000FFF714FF03B05DF804FB00BF342000206E
:107FD00007B5002100910A460B460348FFF706FF4C
:107FE00003B05DF804FB00BF3C200020014B587D2E
:107FF000704700BF442000207047000007B50021F3
:1080000000910A460B460348FFF7F0FE03B05DF807
:1080100004FB00BF5C20002007B5002100910A4648
:108020000B460348FFF7E2FE03B05DF804FB00BF18
:1080300068200020C069704713B5026869469469DA
:10804000034A009242690192028BA04702B010BD20
:10805000C845010813B5026802AB03F8011D546856
:1080600019460122A04702B010BD00000B4B1B783F
:10807000012B10D1C369082B0DD0428E5AB1038E4B
:108080000F2B08D8591C034493F82030013A01867D
:108090004286184670474FF0FF307047E3200020BB
:1080A000036810B59B680446984720B123682046B2
:1080B000DB68984710BD4FF0FF3010BD10B5044687
:1080C000236820469B68984720B123682046DB68D8
:1080D0009847F5E710BDC069083818BF0120704700
:1080E0002DE9F04188B0002608AC054608460F4649
:1080F000904644F8146D09F0AFFA224681B2384632
:1081000003F0C4FEB04215DD039B04A8DAB200926E
:10811000190EC3F30742C3F30723FFF767FE2B686B
:1081200028469C69054B06A90693059B4246079382
:10813000A04700E0304608B0BDE8F081C84501081E
:1081400038B5134B04461B780846012B154602D060
:108150004FF0FF3038BDE369082BF9D0638E002B58
:10816000F6D0218E0F29F3D8AB4204F1200105D8B7
:108170001A46FDF7D1FF638E238602E0FDF7CCFFA0
:108180002586208E0028E3D0638E1B1A638638BDB7
:10819000E3200020F8B50E4B04461E78F6B2012EFF
:1081A00011D1C369082B0ED003689B689847054618
:1081B00058B9084FE369FB5C3BB1236820469B6AD2
:1081C0009847E369FD540020F8BD3046F8BD00BF74
:1081D000E3200020EA200020064B1B78012B05D16C
:1081E000C069082802D0002304F01CB84FF0FF300B
:1081F000704700BFE320002030B52B4B87B01B78C1
:108200000546012B02D1C369082B01D1002049E0AA
:10821000428E2AB12A8EA88E824201D2801A41E073
:108220005A0906A901EB8202012003F01F018840D0
:1082300000248DF80C408DF80D408DF80E408DF81F
:108240000F4052F80C1C0494014342F80C1C41F2FC
:108250008832059204AA0092581C03A9224623469C
:1082600003F07AFEA0421CDDE86906A9420901EB91
:10827000820252F80C2C00F01F0342FA03F313F0B1
:1082800001030CD005F120011022234603F03CFF2E
:10829000002807DD83B22C866B86AB8602E0184689
:1082A00000E0204607B030BDE320002010B5084BA9
:1082B00004461B78012B0AD1C369082B07D0642020
:1082C000FFF7B6FCE06903F035FD0823E36110BD5C
:1082D000E32000202DE9FF414B68044643611D4B1C
:1082E0000E461F789046FFB2012F22832ED1022026
:1082F0003946062203F0F0FC0028E0614FF000054B
:1083000024DB022325866586A586ADF800304FEA7A
:1083100018238DF80230337969468DF8043073796B
:1083200010228DF80530B3798DF803808DF8063072
:10833000F3798DF80730FFF7A1FBA84204DA082390
:10834000E361054B1D7201E0384600E0002004B0F7
:10835000BDE8F081E3200020EA200020002310B5D2
:1083600043604FF47A738360044B044640F8103B3B
:10837000FFF72EFD0823E361204610BDD845010814
:1083800070B54FF47A738360074B002504460E46A0
:10839000456040F8103BFFF71BFDE66125866586CA
:1083A000A586204670BD00BFD845010807B500214D
:1083B00000910A460B460348FFF718FD03B05DF82D
:1083C00004FB00BF7020002013B5026802AB03F865
:1083D000011D546819460122A04702B010BD0000DB
:1083E000F0B51C4B87B019780746C9B201292FD1C7
:1083F000038902261A0A00248DF80A203046062234
:10840000ADF808608DF80B308DF80C408DF80D40FC
:108410008DF80E408DF80F4003F05EFC051E17DB53
:10842000042300934FF6FF713246234603F0FCFD10
:10843000A0420DDB284602A9102203F0D3FCA04283
:1084400006DB2846214603F0FBFCA042A8BFFD60E6
:1084500007B0F0BDE32000201030FFF7BDBE0000E4
:1084600010B500234360054B0181082104460360D9
:10847000C1601030FFF784FF204610BD1846010888
:108480004B6870B543608B680D468360CB6800F124
:108490002006C3604B69044643610B8B0383CB69A1
:1084A000C36101F120030FCB86E80F002B8E20461D
:1084B00023866B8E6386AB8EA38670BD4B6870B5CA
:1084C00043608B680D468360CB6800F12006C36073
:1084D0000B4B044603600B4B03614B6943610B8BF1
:1084E0000383CB69C36101F120030FCB86E80F0042
:1084F0002B8E204623866B8E6386AB8EA38670BD43
:10850000D8450108C845010870B5CB6894B0082B60
:1085100006460C4603D10B6808469B689847134BE8
:1085200004F110051B78012B02D1E06808280FD157
:108530000821E16006A8FFF723FF06A92846FFF7F8
:108540009FFF30462946FFF7B9FF304614B070BD93
:10855000102302A901AA019303F012FC011E02DA02
:1085600006A80821E7E706A8C9B2E4E7E32000204F
:1085700007B5002100910A460B460348FFF736FC79
:1085800003B05DF804FB00BF7820002008B5036845
:108590001B6B984708BD0000024A02608A6942606E
:1085A000704700BFC8450108808B7047B0F836029D
:1085B00070474B6802218283C18380F82120110A11
:1085C000C3F30722836180F8223080F82320C3F3AD
:1085D00007421B0E80F82530102380F8201080F809
:1085E00024200363012070470120704713B50268FF
:1085F00002AB03F8011D546819460122A04702B0DE
:1086000010BDB0F836227AB1B0F83432B3F5007F3D
:108610000AD2591C034493F83430013AA0F83412BA
:10862000A0F83622184670474FF0FF3070470368B5
:1086300010B59B680446984720B123682046DB6844
:10864000984710BD4FF0FF3010BD10B504462368A9
:1086500020469B68984720B123682046DB689847EE
:10866000F5E710BD30B50446022085B00D46112255
:10867000014603F031FB00284FF000031DDB02220E
:10868000ADF800202A0A20748DF802206582A4F833
:108690003432A4F83632C0B2694610228DF8035045
:1086A0008DF804308DF805308DF806308DF80730E0
:1086B00003F098FBC043C00F00E0184605B030BD82
:1086C00010B50446007C03F035FB08B90823237479
:1086D00010BD00002DE9F04188B0002608AC054629
:1086E00008460F46904644F8146D08F0B5FF224640
:1086F00081B2384603F0CAFBB04215DD039B04A8E3
:10870000DAB20092190EC3F30742C3F30723FFF74F
:108710006DFB2B6828461C6A054B06A90693059B32
:1087200042460793A04700E0304608B0BDE8F0811C
:10873000C845010813B5034603F11E04007C0094EC
:108740001B6B0193002303F077FD02B010BD30B521
:108750000446007C87B0430906AA02EB830301218B
:1087600000F01F02914000258DF80C508DF80D503F
:108770008DF80E508DF80F5053F80C2C01300A4331
:1087800043F80C2C41F28833059304AB009303A902
:108790002A462B46049503F0DFFBA84234DD207CFB
:1087A00006AB420903EB820252F80C2C00F01F03C7
:1087B00042FA03F313F0010328D004F11E030093DF
:1087C00004F13003019304F134014FF400722B469D
:1087D00003F0A5FC00281ADD94F8202094F821303D
:1087E000A4F8345243EA0223A38394F82230A4F875
:1087F0003602237694F82330637694F82430A376F7
:1088000094F82530E37602E0284600E0184607B0E9
:1088100030BD38B50446B4F836320846154613B9AB
:108820004FF0FF3038BDB4F83412B1F5007FF7D205
:10883000934204F1340107D81A46FDF76DFCB4F8F1
:108840003632A4F8343203E0FDF766FCA4F8345263
:10885000B4F834020028E3D0B4F836321B1AA4F876
:10886000363238BD002310B543604FF47A7383600D
:10887000044B04460360082303741430FFF7A8FA7E
:10888000204610BD3046010807B5002100910A4678
:108890000B460348FFF7AAFA03B05DF804FB00BFDC
:1088A000802000204FF0FF307047704708B520212E
:1088B000034805F064FF003018BF012008BD00BF69
:1088C0000044004008B5024805F055FF08BD00BF50
:1088D0000044004008B5054805F049FF03488021E1
:1088E00005F04DFF0028F9D0012008BD00440040EC
:1088F000002242604FF47A728260014A026070473F
:1089000078460108014B187C704700BF8820002082
:1089100013B5084C0021009104F114000A460B46DF
:10892000FFF764FA04F11C0002B0BDE81040FFF745
:10893000DFBF00BF8820002070474FF0FF30704736
:10894000FEF736BF08B5FEF71FFF08BD08B508469D
:10895000FEF74EFF012008BD002242604FF47A72FC
:108960008260014A02607047984601080846FEF797
:10897000F3BE000013B5074C0021009120460A46C3
:108980000B46FFF733FA04F1080002B0BDE81040CF
:10899000FFF7E2BFB42000200023036018467047B1
:1089A0000023036018467047002303601846704791
:1089B0002DE9F0410B7886B0002B0C4614BF904691
:1089C0004FF00008064608F047FE0746204608F02C
:1089D00043FE182301931E230125029302230393D0
:1089E000059000950494404631463A46002303F032
:1089F00067FD034B18705D7006B0BDE8F08100BFE5
:108A0000CC20002048F20203984210B51ED006DCAC
:108A100099284AD048F20103984213D010BD48F279
:108A20008003984207D0B0F5084F42D048F21003B7
:108A3000984250D128E0284B01229A70DA70002227
:108A40001A7110BD244B01225A7110BD224C63795A
:108A500053B1224B00224FF47F401A7004F0B4FA55
:108A6000E72004F02DFB06E0A37913B1013BA371CD
:108A700001E00123A37500236371E3752376637618
:108A8000A376E376237710BD0A7D134B52B90122FA
:108A90004FF47F40DA7504F097FABDE81040E72004
:108AA00004F00EBB0022DA7510BD0B4B01225A7781
:108AB00010BD0A78072A0ED8074B01219818817734
:108AC00007480068824206D100229A76DA765A7602
:108AD0001A7683F8261010BDCC200020B02100208B
:108AE000281600201FB54FF461504FF461610A222F
:108AF0003C238DE80F00684601A902AA03AB02F0EF
:108B000031FC05B05DF804FB1FB500230093019311
:108B10000293039301A8694602AA03AB02F0E8FBA3
:108B200005B05DF804FB000030B5524D00249FB045
:108B3000FF20AC70EC706C706C71EC756C772C76FF
:108B40006C76AC76EC7604F03FFAE72004F0B8FAE5
:108B500021462246204603F08FFC2B46012103F8D4
:108B6000074F0E200A4602F083FC6B79012B05D1DA
:108B7000642004F0CDF802F00BF9F6E710210C2088
:108B800002F0C2FC3C4803F07FF83C4803F0E8FDEB
:108B9000012003F0C9FD6846394900F0A3FDAB7818
:108BA0006A78344C1A431CD194F82730002B57D0E4
:108BB000FF2003F06BFD002852D11A24013C06D09F
:108BC000E72004F0A3FA322004F0A2F8F6E70E2022
:108BD000012122462B4BAC7102F04AFC85F827405C
:108BE000DDE7E72004F06CFAA31D0E20012100222E
:108BF00002F010FCA37813B103F0D2FD20702B78A3
:108C000001210133AB7100221E4B0E2002F030FC1B
:108C1000002001240146012203F02EFC21462246B9
:108C2000194B0E20EC7102F023FC03F0A9FB642029
:108C300004F06EF8002003F059FB48F2442085F858
:108C4000284003F03FFD4FF47F4004F0BDF9E720DA
:108C500004F036FAFFF746FF0023AB751FB030BDB6
:108C6000E72004F053FAFA2004F052F8684600F0C6
:108C70009DFD94E7CC200020B0460108680100204B
:108C8000B1890008D2200020D3200020F0B5394C53
:108C900085B0E06204F0DAFC04F01AFC364B374A87
:108CA0000093374B37490193374B38480293384B81
:108CB00000250393374B03F005FB642004F028F8EC
:108CC000002003F013FB012348F24420E57684F8EA
:108CD000283003F0F7FC304BA61D1A881F46012AE6
:108CE00006D00E2010212A46334602F093FBA0B195
:108CF000FF2003F0CBFC10210E2002F005FC002128
:108D00000025755401311029FAD10E202A46234B33
:108D100002F0AEFB3D8004F0E7FD2379154D93B9D9
:108D2000AB7913B90123AB750DE0E87958B9014669
:108D3000012203F0A1FB01212B4603F8071F0E209F
:108D40000A4602F095FB237963B90A4B9B7D4BB130
:108D5000134802F0BFFBFFF7D7FE05B0BDE8F040B7
:108D6000FFF7C0BE4FF47F4004F02EF9E72004F077
:108D7000A7F9EDE7CC20002089D50008A1890008DB
:108D80009DD500089989000809D60008058A0008C1
:108D900031D60008A9890008B6020020D2200020A0
:108DA000FC2000202DE9F341A94C94F82630002B3B
:108DB00040F0C58094F83230002B40F0C08094F829
:108DC000283003F0FF0023B903F090FA012384F860
:108DD0002830A37D9E4E13B1FFF7A6FE07E033793E
:108DE0002BB1F37D03F0FF05002B00F0D780E27874
:108DF000974B012A13D1DA7D012A10D15B79012B1F
:108E00000DD10325934808F027FC013D82B291491A
:108E1000012003F01DFA15F0FF05F3D1E57094F879
:108E200033308B4D43B92B7E002B40F0CE806B7ED0
:108E3000002B40F0CA8008E1874B1A681E46002AC2
:108E400040F00381EB7D93B395F832307BBB2B7EF2
:108E5000002B00F0CB802AE02B4603F8091F0E20E0
:108E60000121032202F004FB4FF6FF7004F0ACF87E
:108E7000E72004F025F9FEF7DAFD002880F2DF8014
:108E800094F82630724D002B40F0DF80FEF7A6FDEF
:108E90000028B4BF022303232B77237F0E206372A5
:108EA00001216E4B032202F0E3FA00232376237E96
:108EB000674D002B00F0C9806B7E3BBBFEF75FFD6A
:108EC00000281DD002DA4FF47F0007E0012801D10D
:108ED000634803E0022803D14FF0FF1004F074F858
:108EE000E72004F0EDF894F8343047F230520133C3
:108EF000DBB284F8343094F834305343336005E007
:108F000001236B76574B85F834001860FEF739FD66
:108F1000002840F09A80544B1B780BB104F0A4F861
:108F20000023A376E376637623764E4B1B68002BF3
:108F300000F08B80464B012283F8262085E094F8D0
:108F40002830002B3FF445AF474B1B780BB104F0A2
:108F50008BF8002528466571E57584F8265084F85D
:108F6000285025766576A576E576257704F060FBB2
:108F7000642003F0CDFEA37D43B1284603F0B6F98B
:108F8000334B012283F82820FFF7CEFD4FF47F40BA
:108F900004F01AF8E72004F093F81AE729462A4665
:108FA000284603F069FA314808F056FB304F8046F6
:108FB000384608F051FB00970190791F0320424684
:108FC0002B4603F0F3F9357111E7FEF732FD00236C
:108FD0004FF47F40A376E3766376237603F0F4FFC5
:108FE000E72002B0BDE8F04104F06AB8642003F065
:108FF0008FFE05F1350002F0FBF92B7F002B3FF4CB
:1090000033AF4FF47F0003F0DFFF227F104D02F0FB
:10901000FF01002A3FF420AFE72004F051F84FF49D
:10902000FA7003F075FEE72004F058F84FF4FA7078
:1090300003F06EFE2B7F013BDBB22B77E5E70123CC
:1090400023760C4B00221A6031E702B0BDE8F081B4
:10905000CC2000206B01002080120020D5200020B1
:109060000060FF00E8130020B02100207201002002
:1090700077010020EC13002007B5002100910A467B
:109080000B460348FEF7B2FE03B05DF804FB00BFD9
:109090003C2100207047FEE7FEE7FEE7FEE7704751
:1090A00070477047FEF764BA08B5024B0BB1AFF3D7
:1090B000008008BD0000000008B5024B0BB1AFF303
:1090C000008008BD0000000008B5024B0BB1FEF7A0
:1090D0002DFE08BD2D7D000808B5024B0BB1FEF733
:1090E00026FE08BD2F7D000808B5024B0BB1FEF728
:1090F00083FF08BDF97F000808B5012004F0FCFEDD
:1091000038B1012004F006FF024B13B10020FEF736
:1091100029FE08BD657D000808B5022004F0ECFEBC
:1091200038B1022004F0F6FE024B13B10120FEF725
:1091300019FE08BD657D000808B5042004F0DCFEBA
:1091400078B1042004F0E6FE0020064B01461880AA
:1091500004F064F8BDE8084003481021012205F03E
:10916000BEBA08BDC2210020002C014008B508206D
:1091700004F0C2FE38B1082004F0CCFE024B13B15B
:109180000320FEF7EFFD08BD657D000808B510203F
:1091900004F0B2FE38B1102004F0BCFE024B13B153
:1091A0000420FEF7DFFD08BD657D000808B520201E
:1091B00004F0A2FE38B1202004F0ACFE0E4B13B137
:1091C0000520FEF7CFFD402004F096FE38B1402088
:1091D00004F0A0FE084B13B10620FEF7C3FD80206B
:1091E00004F08AFE38B1802004F094FE024B13B1E3
:1091F0000720FEF7B7FD08BD657D000808B54FF4F0
:10920000005004F079FE40B14FF4005004F082FEAB
:10921000174B13B10D20FEF7A5FD4FF4804004F06D
:109220006BFE40B14FF4804004F074FE104B13B15C
:109230000E20FEF797FD4FF4004004F05DFE40B1B4
:109240004FF4004004F066FE094B13B10F20FEF707
:1092500089FD4FF4006004F04FFE38B14FF4006018
:1092600004F058FEBDE8084003F0DEBC08BD00BFB6
:10927000657D000808B51048102105F069FAC8B1ED
:109280000D48102105F06FFA002004F075F830B990
:109290000A4B1A8892B20A3292B21A8008BD064866
:1092A0001021002205F01BFABDE808400020012132
:1092B00003F0B4BF08BD00BF002C0140C221002054
:1092C00008B5012005F03CF830B1012005F048F860
:1092D000BDE8084005F01EB808BD000008B5022032
:1092E00005F02EF8B0B10C4B00224FF400301A708C
:1092F00004F010FE012004F067FF10B1012004F01B
:109300006DFF05F007F8022005F02AF8BDE80840D7
:1093100005F000B808BD00BFFE20002003F016BC19
:1093200000F062B838B514490B78012B23D1134AE9
:1093300013680BB90B7038BD114C402B206881B2FB
:1093400005D94030403B20601360402504E09DB2C9
:1093500003442360002313600A482A460844C021BE
:1093600005F0FEFE0120294606F002F8BDE838406F
:10937000012005F067BF38BDD4130020DC130020A6
:10938000D8130020D412002008B5094B01221A700E
:10939000084B002203201A8006F01AF8064B0246FA
:1093A00018804FF488710548BDE8084005F0F0BE0C
:1093B000881200208C1200208A1200208E120020B9
:1093C000074B1B68052B09D1064B1A68511C052A4F
:1093D000196003D100221A60FEF720BA704700BF5F
:1093E000E02100204421002070B52B4D2B4C2B6830
:1093F0002B4E9BB22380228833881340990508D5D1
:109400004FF6FF532B60A3780133DBB2A370FFF755
:10941000D7FF2288338813401A0401D505F0EAFDEE
:109420002288338813405B0505D54FF6FF332B6048
:109430001C4B5B689847228833881A40900444BFCD
:109440004DF6FF722A6022881340D90405D54EF6E6
:10945000FF732B60002004F0A3FB228833881340A5
:109460001A050BD5104B1B7813B104F079FB02E001
:10947000022004F095FB4FF2FF732B6022883388A3
:109480001340DB0507D54FF6FF632B600720BDE8CF
:10949000704004F085BB70BD445C00404821002052
:1094A000CC2B0020DC010020D8020020034B9B7A4B
:1094B00013B1034B05221A60704700BFA82B002090
:1094C000E0210020014B04221A607047E0210020B7
:1094D000034B1A78202A04BF00221A70704700BF7D
:1094E0004C21002070470000212810B508D1114BF5
:1094F0001B681B7803F07F03212B10D0022010BDC6
:109500002028FBD10B4B0C4A1B681B78107003F012
:109510007F03212B094B18BF00230BB9EEE7084B43
:10952000044A0024126820469361548298472046DA
:1095300010BD00BFC82B00204C21002091950008D1
:1095400079950008074B1B681B7803F07F03212BDC
:1095500006D100F0DF00022814BF0220002070476F
:1095600002207047C82B002009B102207047012853
:10957000FBD808467047000020B9034B08221B683F
:109580001A82704701487047C82B0020D401002080
:1095900020B9034B08221B681A82704701487047A4
:1095A000C82B0020D401002010B5FEF783F9054B2D
:1095B00000241B689C7204F0BBFA05F01FFF024BED
:1095C0001C6010BDC82B0020E0210020334B344A22
:1095D0001B68D27910B500245A729C72DC72204646
:1095E00005F0E8FD20464FF4007105F0EBFD204644
:1095F000102105F0F5FD2046402105F08DFE80216B
:10960000204605F079FE204605F042FE254B204617
:1096100093F8341005F0BAFE204605F026FE01202E
:10962000214605F0CFFD0120C02105F065FE012097
:10963000202105F0D5FD0120214605F0EAFD02209C
:109640004FF4C06105F0BEFD02204FF4807105F0BB
:1096500053FE0220214605F0DCFD0220202105F00A
:10966000BFFD0320214605F0ADFD03204FF48871B6
:1096700005F052FE0320402105F088FE03204FF440
:10968000405105F0C6FD0320214605F0A9FD204606
:1096900005F044FC044B01221A6010BDC82B0020C9
:1096A0001D470108D4010020E0210020014905F0F8
:1096B00031BA00BF0C020020014905F02BBA00BFEF
:1096C00014020020054B1B68DB78042B04D80449E6
:1096D00001EBC30105F01EBA00207047C82B002023
:1096E0001C02002038B504460D46FFF735F9204628
:1096F00025614FF41651FFF739F9204638BD0000B7
:1097000007B5002100910A460B460348FEF76EFBA1
:1097100003B05DF804FB00BF5021002070B5064681
:109720000D460024284607F097FF844208D2295DA1
:109730003046FFF70BF9012003F0EAFA0134F1E7B4
:1097400070BD00002DE9F84304460F4690460D46D3
:10975000C7EB05095FFA89F92046FFF7F3F80028FF
:10976000FADD2046FFF7ECF8C145C6B206D100236A
:109770002B7020460C49FFF7D1FF0AE00D2EF6D0E2
:109780000A2EF4D020463146FFF7E0F805F8016BC9
:10979000DEE72046FFF7D6F8002803DD2046FFF776
:1097A000CFF8F6E7BDE8F8839F4D0108F0B585B026
:1097B0000446FFF7C7F8002840F39D802046FFF7D6
:1097C000BFF8C0B2772868D104F114060021212225
:1097D000304604F1350507F0BBFB41220021284645
:1097E00007F0B6FB04F17607002384F876302046B4
:1097F00042497B70FFF792FF204631462022FFF757
:10980000A1FF20463E49FFF789FF01222046394645
:10981000FFF798FF94F87630A3F13002D2B2032A12
:10982000EFD8312B0BD120463649FFF777FF204682
:109830003549FFF773FF20463449FFF76FFF94F86F
:109840007620B2F1300708D020463149FFF766FF95
:10985000204629464022FFF775FF20462D49FFF795
:109860005DFF23693A4630462946984720462A49F3
:10987000FFF754FF20462949FFF750FF20462849AB
:10988000FFF74CFF20462749FFF748FF20462649AF
:10989000FFF744FF2046254928E069282BD1244BB7
:1098A00001AD93E8070085E8070020462149FFF74E
:1098B00035FF0026AF5D20463B0903F13001392911
:1098C00084BF03F15701C9B207F00F07FFF73EF855
:1098D00007F13001392984BF5737F9B220460136E4
:1098E000FFF734F80C2EE5D11349204605B0BDE84A
:1098F000F040FFF713BF05B0F0BD00BFF34B010808
:10990000FA4B0108274C01085D4C0108884C0108FE
:10991000CE4C0108D94C01081C4D01083C4D0108F2
:109920006F4D0108A24D0108E14D0108124E0108DA
:10993000E8F7FF1F284E01089F4D010838B50025A4
:109940000446016042618361858380F82450283099
:10995000FEF73EFA2571A5772562204638BD002323
:1099600010B503718383044600684FF48161036876
:109970009B699847012384F8243010BD70B5836932
:10998000ADF5067D05461B4A00934FF400716B69E7
:1099900006A807F067FD18491848FEF7A0FAFF214E
:1099A0000A460B46009102A8FEF720FA286804A98F
:1099B000036840F206421C6A114B4FF47A76049316
:1099C000039B0593A047002406A807F045FE024626
:1099D00084422868036801D0013E04D19B6A9847FD
:1099E0000DF5067D70BD06A92144121B5B689847E2
:1099F0000444E9E7394E01085F4E0108BC2000200D
:109A0000C8450108F0B590F82430ADF5257D044631
:109A10000BB9FFF7A4FFFEF7F5F8236AC01AB0F5FB
:109A2000FA6F05D92046FFF7A9FFFEF7EBF8206291
:109A300020680368DB6A9847002851D0264656F80C
:109A40001C0B24AD03684FF400725B6B29469847EA
:109A500000272F5424492548FEF724FA2946234895
:109A6000FEF73DFA284604A98022334600F05EF84E
:109A700005461E48002D2BD01D49FEF730FA2168FF
:109A800002A80B68251D9B6B9847039B1949E3624D
:109A9000C3F30742009294F82F2028460192DAB2CD
:109AA000C3F3072307F012FD13491048FEF7FAF934
:109AB00029460E48FEF713FA10490C48FEF7F2F952
:109AC0000A48A18B0A22FEF75CFA84F8247003E0AE
:109AD0000B49FEF704FAA58320680368DB69984701
:109AE0000DF5257DF0BD00BF764E0108BC2000209D
:109AF000854E0108A14E0108AD4E0108C44E010873
:109B0000DD4E01080079003018BF012070470000C9
:109B100007B5002100910A460B460348FEF766F997
:109B200003B05DF804FB00BF582100202DE9F0418F
:109B3000884617461E46FDF78DF9044610B90020E9
:109B4000BDE8F081C568052DF9D10021FDF786F942
:109B500020460121FDF782F905460028EFD029694A
:109B600040463A4607F002FE20460221FDF776F90C
:109B70000028E4D0436901203380BDE8F081016012
:109B80007047F8B506460F4615460024AC4210D083
:109B90003068391903682A1B5B6A9847002806DA7F
:109BA000306803689B6898470028EFD1F8BD0444EB
:109BB000ECE7F8BD07B506226946FFF7E2FF002390
:109BC00068468DF8063006F039FD03B05DF804FBF9
:109BD00070B50646481C0D4606F05EFE044630B1E0
:109BE000304621462A46FFF7CCFF00236355204626
:109BF00070BD10B50446FFF7DDFF01462046BDE805
:109C00001040FFF7E5BF000007B5002100910A46AC
:109C10000B460348FEF7EAF803B05DF804FB00BF0B
:109C2000602100200022C0F80023704738B50546A7
:109C30000024D5F800339C4207DA05EBC403D3F8BF
:109C4000000106F031FE0134F3E7284638BD2DE966
:109C5000F041D0F8005304466B1CC0F800330846AE
:109C600090460F4607F0F8FC013006F015FE04EBB5
:109C7000C506C6F80001394607F074FCD6F8003175
:109C8000C6F8048144F82530BDE8F081D0F800031F
:109C90007047704707B5002100910A460B460348FC
:109CA000FEF7A4F803B05DF804FB00BF68210020B4
:109CB00007B5002100910A460B460348FEF796F8C7
:109CC00003B05DF804FB00BF7021002038B50446E6
:109CD000154600F0C3FA6560204638BD70B50446ED
:109CE00040680D460268D26A9047B0B1284600F03D
:109CF0003DFB054629466068FEF7D4F806466068D5
:109D0000026852699047284607F0A6FC331A5C4265
:109D100028465C4106F0C8FD00E00446204670BDC0
:109D200037B5069C05460094079C019400F09CFA08
:109D3000044621462846FFF7D1FF0546204606F097
:109D4000B3FD284603B030BD37B502AB43F8042D50
:109D50001A4605460846062100F028FA0446214620
:109D60002846FFF7BBFF0546204606F09DFD284626
:109D700003B030BD07B5002100910A460B460348E9
:109D8000FEF734F803B05DF804FB00BF7821002033
:109D900007B5002100910A460B460348FEF726F856
:109DA00003B05DF804FB00BF802100202DE9F041E5
:109DB00004460D4604F14C0742F2CD610430904652
:109DC00004F18406FEF74CFB3846FEF7C7FA30462E
:109DD000FEF748FD04F52F70FFF724FF294604F530
:109DE000B86000F03BFA29463A4604F2C450FFF747
:109DF0006DFF04F2CC5031462A464346FFF79EFDE4
:109E00002046BDE8F081000073B50F4C0F4D0646AB
:109E10000F492046FEF746F868462946FEF700F847
:109E200069462046FEF765F80A492046FEF73AF8EB
:109E30002846FEF705F801462046FEF750F80023B5
:109E4000337002B070BD00BFBC2000203020002065
:109E5000114F0108274F010800F52F70FFF7F7BEDB
:109E600007B5002100910A460B460348FDF7BEFFE7
:109E700003B05DF804FB00BF88210020F0B500F1BD
:109E80004C0685B004463046FEF784F905460028A6
:109E900048D104F2CC573846FFF7B4FD3846FFF7F7
:109EA00031FE00283ED020492048FEF718F820490E
:109EB0001E48FDF7F7FF1F4FD4F89C3002A91B483E
:109EC00003930297FDF7F7FF1B491848FDF7EAFFD8
:109ED00041F635610A221548FEF753F8D4F89C3054
:109EE000304602A941F6356202970393FEF7F2F974
:109EF000C0B112490D48FDF7F2FF04F52F7601239A
:109F000023703046FFF7C5FE07463046FFF7BEFE1A
:109F100000950346019504F2C45042F2CD613A46E1
:109F2000FFF7FEFE05B0F0BD394F0108BC20002050
:109F3000494F0108C84501085F4F0108614F0108FA
:109F400038B5084C0546FFF75FFF20460649FDF788
:109F5000C6FF20460549FDF7C2FF2846BDE8384048
:109F6000FFF78CBFBC2000207A4F0108924F0108F8
:109F700010B5054904460548FDF7B1FF04F14C0052
:109F8000BDE81040FEF792B9A74F0108BC200020A1
:109F9000037810B504464BB100F2C450FFF7D4FE6D
:109FA00020B92046BDE81040FFF7E2BF10BD000019
:109FB00030B5037891B00546002B33D01A4C4C30A5
:109FC000A3680133A360FEF7E5F850B302A8291D8A
:109FD000FEF79AFA099B082B24D002A901A8FFF7E3
:109FE000CEFD01A8FFF705FE054602A8FEF75EF9C3
:109FF0000E48A1680A226DB1FDF7C1FF0C490B485C
:10A00000FDF750FF29460948FDF769FF284606F08D
:10A010004BFC07E0FDF7B3FF06490448FDF75FFF7F
:10A0200000E0287011B030BD88210020BC20002045
:10A03000EA4F0108F84F010810B50446FFF71EFF6C
:10A040002046BDE81040FFF7B3BFF0B585B061B35F
:10A050006AB300240A26B0FBF6F506FB15000134AE
:10A0600004AF3030274407F80D0C28460DB1B44238
:10A07000F0D1A34286BFC4EB0303DBB20023013A55
:10A0800030200025954201EB050612D01CB983B1A2
:10A09000013BDBB206E0002BFAD1013C04A82044CE
:10A0A00010F80C0C48550135ECE7084604E0104662
:10A0B00002E000233370284605B0F0BD2DE9F84FCB
:10A0C000DDF828900446B9F101070D4690461E467A
:10A0D00063D000220023FBF745FC30B105F10041BD
:10A0E0002D230D463370A9F102072E4BB8F1060F50
:10A0F00028BF4FF006084FF0000A4FF00109002278
:10A100005FFA8AF141450DD2104619460022264BCE
:10A11000FBF7E0FA0B460A21024601FB09F90AF1B6
:10A12000010AEDE7002F38D020462946FAF7F6FF5E
:10A130000D460446FBF766FC31463A46002383464B
:10A14000FFF783FF06443F1AB8F1000F25D027B36D
:10A150002E23013F06F1010A33701DD05846FBF74C
:10A1600019F902460B4620462946FAF7D5FF044660
:10A1700048460D46FBF70EF902460B462046294697
:10A18000FBF77EF9FBF73EFC51463A464346FFF7A4
:10A190005CFF0AEB000600E0564600233370BDE882
:10A1A000F88F00BF0000E03F00002440F0B5ADF59F
:10A1B000037D0F4604460021154602A84FF4807225
:10A1C00042AE06F0C5FE304600214FF4807206F024
:10A1D000BFFE062F31D8DFE807F004061320243035
:10A1E00004002B6821E02868FBF7F6F8CDE90001B0
:10A1F000154B02A81A681549234607F067F91CE0B9
:10A200004FF48073D5E90001009306223346FFF72F
:10A2100055FF009602A80E490AE0009502A80D49D4
:10A2200006E02B68003318BF01230B49009302A8F6
:10A23000054B1A68234607F049F902A807F0F0F920
:10A240000DF5037DF0BD00BF9421002032500108C0
:10A250004C5001086650010818500108014B01607C
:10A260001960704794210020F0B5ADF2044D0C4602
:10A27000164600214FF4806268461F46DDF81C54E4
:10A2800006F066FE2A4B2B491A686846234607F0FB
:10A290001DF96846284907F03FF90024BC4268468A
:10A2A00013DA264907F038F956F82410684607F003
:10A2B00033F9234B214A791E8C42ACBF1146194613
:10A2C000684607F029F90134E8E71E4907F024F948
:10A2D0006846194907F020F90024AC42684615DAAF
:10A2E000164907F019F9DDF81834684653F82410B8
:10A2F00007F012F9124B114A691E8C42ACBF11468D
:10A300001946684607F008F90134E6E70D4907F0F9
:10A3100003F968460C4907F0FFF80C49684607F056
:10A32000FBF8684607F07CF90DF2044DF0BD00BF64
:10A3300094210020A550010882500108875001088F
:10A34000C9500108BD500108C1500108CD50010895
:10A3500007B5002100910A460B460348FDF746FD6C
:10A3600003B05DF804FB00BF9821002038B5054616
:10A3700007F072F9073006F08FFA0446284607F016
:10A380006BF9044902462B46204607F09FF8204609
:10A3900038BD00BFD450010807B5002100910A461E
:10A3A0000B460348FDF722FD03B05DF804FB00BF38
:10A3B000A021002008B50379082B1BD8DFE803F0A3
:10A3C00005080B0E111A141A170003681B6910E018
:10A3D00003685B690DE003689B690AE00368DB6959
:10A3E00007E003681B6A04E003685B6A01E0036836
:10A3F0009B6A984708BD08B5062391FBF3F202FB60
:10A40000131105291CD8DFE801F003070B0F131700
:10A41000036804219B6812E0036805219B680EE035
:10A42000036801219B680AE0036803219B6806E03A
:10A43000036802219B6802E0036806219B68984735
:10A4400008BD01F00701013908B50368062905D8E0
:10A45000DFE801F0070A0D10131619009B680121AF
:10A4600013E09B68052110E09B6804210DE09B68C8
:10A4700006210AE09B68022107E09B680A2104E0AC
:10A480009B68082101E09B680921984708BDF8B541
:10A4900003790F46042B04D0082B0CBF0426022698
:10A4A00000E01E46451E002447FA04F3013513F070
:10A4B000010F6B7A687914BF83F0010119460134EA
:10A4C000FDF75EFBE3B2B342EED3F8BD90F8502047
:10A4D0000368002A10B514BF0221002104469B68BE
:10A4E000984794F850202368002A0CBF01210321CB
:10A4F0009B6820469847206BFDF7A4FB94F85020FA
:10A500002368002A9B68204614BF02210021984737
:10A5100010BD10B5002104468069FBF7ADFD08B100
:10A52000A36B00E0E36B984710BD08B501F0030191
:10A53000036802299B6806D0032906D0012914BFAD
:10A540000221032102E0012100E00021984708BD1B
:10A55000032291FBF2F202EB4202891A012908B5AB
:10A56000034606D0022904D031B9036804219B6850
:10A5700001E01B689B68984708BD08B501F003011E
:10A58000036802299B6806D0032906D0012914BF5D
:10A590000521062102E00A2100E00921984708BDB3
:10A5A00010B5037904466BB1036800219B68984796
:10A5B00094F83500FF2805D094F83410BDE8104019
:10A5C000FDF7DEBA10BD10B5037904462BB3407910
:10A5D0000021FDF75BFAA0790021FDF757FA2379F6
:10A5E000042B01D0082B07D1E0790021FDF74EFAAA
:10A5F000207A0021FDF74AFA94F83500FF280CD0A4
:10A600000021FDF743FA94F8341094F8350081F0F6
:10A610000101BDE81040FDF7B3BA10BD38B50446DE
:10A62000806AF0B1FDF7F4FAE36AA26A05469A1867
:10A6300002D2904204D201E0904211D39D420FD247
:10A6400094F8502023690AB1013300E0013B2361F3
:10A6500023682046DB6821699847E562012038BD00
:10A66000002038BD42690069101A704700697047C0
:10A670000023016141610364836270472DE9F04E5C
:10A680000369074646698069F61A0146FBF738FBFD
:10A69000FAF7A2FE0446386A0D46FAF79DFE024616
:10A6A0000B46FAF73BFD02460B4620462946FBF7D0
:10A6B00011F8FBF77FF9002E07D101282ADC0023CF
:10A6C000BE62BB613E64BDE8F08E3B6C0EDD002BCC
:10A6D00005DDB04212DA97F85030DBB90EE019D040
:10A6E000B04217DA97F85020A2B111E0002B08DD34
:10A6F0007342984202DA97F850305BB140423864B6
:10A7000008E007D07242904204DA97F850200AB964
:10A710005B423B64D7F84090B9F1000F08D1002E9E
:10A720007B6CD4BF00260126BB6487F850602BE009
:10A73000B86CFAF751FE02460B4604460D46FAF78E
:10A74000EDFC824648468B46FAF734FE0022194B50
:10A75000FAF796FE0022184BFAF7E0FC02460B4689
:10A7600050465946FAF7B6FF02460B4620462946A0
:10A77000FAF7D2FCFBF766F9FC6C05462146FBF7BD
:10A780007BFC00B12C46BC64BC6C09F101033B644A
:10A790002046FBF7A1FC2146B8620848FBF764FBA2
:10A7A00097F85030B86113B900F10040B861BDE8C6
:10A7B000F08E00BF000010400000F03F00247449FC
:10A7C00042698A4202D04161FFF758BF704703696E
:10A7D0001944FFF7F5BF10B50446FFF71FFF10B18E
:10A7E0002046FFF74BFFA0690021FBF71DFC28B1B5
:10A7F00060692369C01A18BF012010BD012010BD77
:10A80000F8B583719DF81830154DC3719DF81C3053
:10A81000012703729DF820300026056001714FF07A
:10A820007E5500210763FF2704460161416186616F
:10A83000C56105624562816280F83570C16242710E
:10A84000016446648664C56480F850104172817268
:10A85000C17201730BB1FFF7B6FE2046F8BD00BF11
:10A860008047010870B50646C0690C46FBF7DCFB63
:10A8700028BBF46112482146FBF7F6FA336CF0640A
:10A88000002B1CDDB0690146FBF73AFAFAF7A4FD8C
:10A890000446306A0D46FAF79FFD02460B46FAF76A
:10A8A0003DFC02460B4620462946FAF713FFFBF70C
:10A8B00081F830643046BDE87040FFF7DFBE70BD00
:10A8C0000024744900000000F8B504460D4608460F
:10A8D0000021FBF7A9FB002830D1266A2946304623
:10A8E000FBF7A2FB50BB206CFBF7B6F929460746E5
:10A8F0003046FBF7B9FA01463846FBF701FAFBF799
:10A90000C5FB20642846FAF767FD02460B46002087
:10A910004FF08041FAF7DEFE09A3D3E90023FAF7EE
:10A92000AFFD094B002204F0BDFDFBF78BF825625B
:10A9300060642046BDE8F840FFF7A0BEF8BD00BF48
:10A940000000000080842E410000E03FAFF3008053
:10A95000F8B505460C460846A969FBF765FB0028D3
:10A9600032D1EE69204606F100473946FBF766FB17
:10A9700030B920463146FBF77FFB10B1344600E08A
:10A980003C4620460021FBF74FFB10B10023AB6291
:10A9900019E02046FAF720FD02460B460CA1D1E94A
:10A9A0000001FAF797FEFBF705F80028B8BF404210
:10A9B000A862002120464FF00106FBF75DFB00B9BD
:10A9C000064685F85060AC61F8BD00BFAFF300806B
:10A9D0000000000080842E41F8B5876906460021FA
:10A9E0003846FBF721FB28BB39463846FBF788F988
:10A9F000FAF7F2FC0446306A0D46FAF7EDFC02461F
:10AA00000B46FAF78BFB02460B4620462946FAF71F
:10AA100061FEFAF7CFFF0021441C3846FBF72CFB00
:10AA200010B13046214601E030466142BDE8F840B1
:10AA3000FFF7CDBEF8BD000007B5002100910A4622
:10AA40000B460348FDF7D2F903B05DF804FB00BFE5
:10AA5000A8210020002100F004B80D4B5B584350A2
:10AA600004310C480C4B42189A42FFF4F6AF0B4AE3
:10AA700000F003B8002342F8043B094B9A42FFF46C
:10AA8000F9AF02F0DBFFFCF747FFFCF701FD704771
:10AA90002454010800000020540B0020540B002017
:10AAA000D82B0020FFF7FEBF0B0A017043700B0C80
:10AAB000090E8370C170043070470170090A41703B
:10AAC0000230704743185A78435C03EB022080B28F
:10AAD000704710B543189A78DC78415C120402EB99
