:020000040800F2
:1050000000500020D1A90008918F0008958F00085A
:10501000B98F0008DD8F0008019000080000000033
:1050200000000000000000000000000025900008C3
:105030002790000800000000299000082B9000082D
:1050400021AA000821AA000821AA000851920008FC
:1050500021AA000821AA000889900008A990000848
:10506000C9900008FD9000081D91000821AA0008C1
:1050700021AA000821AA000821AA0008AD92000870
:1050800021AA000821AA00083990000821AA0008D6
:10509000B192000821AA000821AA00083D91000849
:1050A00021AA000821AA000821AA000805920008E8
:1050B00021AA000821AA000821AA00085990000886
:1050C0006990000821AA000821AA00087990000828
:1050D00021AA000821AA00084990000821AA000876
:1050E0008D9100086D92000821AA000800000000C0
:1050F00000000000000000000000000000000000B0
:0C51000000000000000000005FF808F153
:1051100081F0004102E000BF83F0004330B54FEA68
:1051200041044FEA430594EA050F08BF90EA020FD5
:105130001FBF54EA000C55EA020C7FEA645C7FEA68
:10514000655C00F0E2804FEA5454D4EB5555B8BF8B
:105150006D420CDD2C4480EA020281EA030382EAFC
:10516000000083EA010180EA020281EA0303362D8E
:1051700088BF30BD11F0004F4FEA01314FF4801C61
:105180004CEA113102D0404261EB410113F0004F73
:105190004FEA03334CEA133302D0524263EB43032A
:1051A00094EA050F00F0A780A4F10104D5F1200EC8
:1051B0000DDB02FA0EFC22FA05F2801841F1000123
:1051C00003FA0EF2801843FA05F359410EE0A5F1F7
:1051D00020050EF1200E012A03FA0EFC28BF4CF028
:1051E000020C43FA05F3C01851EBE37101F00045DE
:1051F00007D54FF0000EDCF1000C7EEB00006EEBEB
:105200000101B1F5801F1BD3B1F5001F0CD3490874
:105210005FEA30004FEA3C0C04F101044FEA4452CB
:1052200012F5800F80F09A80BCF1004F08BF5FEA52
:10523000500C50F1000041EB045141EA050130BD32
:105240005FEA4C0C404141EB010111F4801FA4F1D5
:105250000104E9D191F0000F04BF01460020B1FA2A
:1052600081F308BF2033A3F10B03B3F120020CDA62
:105270000C3208DD02F1140CC2F10C0201FA0CF040
:1052800021FA02F10CE002F11402D8BFC2F1200CA5
:1052900001FA02F120FA0CFCDCBF41EA0C0190405B
:1052A000E41AA2BF01EB0451294330BD6FEA0404A4
:1052B0001F3C1CDA0C340EDC04F11404C4F120028F
:1052C00020FA04F001FA02F340EA030021FA04F3A1
:1052D00045EA030130BDC4F10C04C4F1200220FAF8
:1052E00002F001FA04F340EA0300294630BD21FA36
:1052F00004F0294630BD94F0000F83F4801306BFFC
:1053000081F480110134013D4EE77FEA645C18BFEF
:105310007FEA655C29D094EA050F08BF90EA020F86
:1053200005D054EA000C04BF1946104630BD91EA7E
:10533000030F1EBF0021002030BD5FEA545C05D181
:105340004000494128BF41F0004130BD14F58004C0
:105350003CBF01F5801130BD01F0004545F0FE4134
:1053600041F470014FF0000030BD7FEA645C1ABF69
:10537000194610467FEA655C1CBF0B46024650EAA0
:10538000013406BF52EA033591EA030F41F40021CC
:1053900030BD00BF90F0000F04BF0021704730B552
:1053A0004FF4806404F132044FF000054FF0000127
:1053B00050E700BF90F0000F04BF0021704730B5E8
:1053C0004FF4806404F1320410F0004548BF4042BD
:1053D0004FF000013EE700BF42004FEAE2014FEA12
:1053E00031014FEA02701FBF12F07F4393F07F4FED
:1053F00081F06051704792F0000F14BF93F07F4F1F
:10540000704730B54FF4607401F0004521F0004161
:1054100020E700BF50EA010208BF704730B54FF0E7
:1054200000050AE050EA010208BF704730B511F0EC
:10543000004502D5404261EB41014FF4806404F124
:1054400032045FEA915C3FF4DCAE4FF003025FEAA6
:10545000DC0C18BF03325FEADC0C18BF033202EB2E
:10546000DC02C2F1200300FA03FC20FA02F001FA88
:1054700003FE40EA0E0021FA02F11444C1E600BF27
:1054800070B54FF0FF0C4CF4E06C1CEA11541DBFDA
:105490001CEA135594EA0C0F95EA0C0F00F0DEF8A5
:1054A0002C4481EA030621EA4C5123EA4C5350EA8A
:1054B000013518BF52EA033541F4801143F48013DB
:1054C00038D0A0FB02CE4FF00005E1FB02E506F06C
:1054D0000042E0FB03E54FF00006E1FB03569CF0C1
:1054E000000F18BF4EF0010EA4F1FF04B6F5007FC7
:1054F00064F5407404D25FEA4E0E6D4146EB060639
:1055000042EAC62141EA55514FEAC52040EA5E50C1
:105510004FEACE2EB4F1FD0C88BFBCF5E06F1ED86B
:10552000BEF1004F08BF5FEA500E50F1000041EBA2
:10553000045170BD06F0004646EA010140EA02004F
:1055400081EA0301B4EB5C04C2BFD4EB0C0541EA71
:10555000045170BD41F480114FF0000E013C00F386
:10556000AB8014F1360FDEBF002001F0004170BDAA
:10557000C4F10004203C35DA0C341BDC04F11404C3
:10558000C4F1200500FA05F320FA04F001FA05F24F
:1055900040EA020001F0004221F0004110EBD3701C
:1055A00021FA04F642EB06015EEA430E08BF20EA48
:1055B000D37070BDC4F10C04C4F1200500FA04F3EB
:1055C00020FA05F001FA04F240EA020001F000417D
:1055D00010EBD37041F100015EEA430E08BF20EAF0
:1055E000D37070BDC4F1200500FA05F24EEA020E38
:1055F00020FA04F301FA05F243EA020321FA04F067
:1056000001F0004121FA04F220EA020000EBD3701D
:105610005EEA430E08BF20EAD37070BD94F0000F1D
:105620000FD101F00046400041EB010111F4801F51
:1056300008BF013CF7D041EA060195F0000F18BF02
:10564000704703F00046520043EB030313F4801F3E
:1056500008BF013DF7D043EA0603704794EA0C0FF8
:105660000CEA135518BF95EA0C0F0CD050EA41060E
:1056700018BF52EA4306D1D181EA030101F000418B
:105680004FF0000070BD50EA410606BF10461946B3
:1056900052EA430619D094EA0C0F02D150EA0136BF
:1056A00013D195EA0C0F05D152EA03361CBF104600
:1056B00019460AD181EA030101F0004141F0FE419F
:1056C00041F470014FF0000070BD41F0FE4141F423
:1056D000780170BD70B54FF0FF0C4CF4E06C1CEA23
:1056E00011541DBF1CEA135594EA0C0F95EA0C0FD8
:1056F00000F0A7F8A4EB050481EA030E52EA033593
:105700004FEA013100F088804FEA03334FF08055B3
:1057100045EA131343EA12634FEA022245EA1115E0
:1057200045EA10654FEA00260EF000419D4208BF91
:10573000964244F1FD0404F5407402D25B084FEA3E
:105740003202B61A65EB03055B084FEA32024FF4EA
:1057500080104FF4002CB6EB020E75EB030E22BF47
:10576000B61A754640EA0C005B084FEA3202B6EB07
:10577000020E75EB030E22BFB61A754640EA5C00B6
:105780005B084FEA3202B6EB020E75EB030E22BF46
:10579000B61A754640EA9C005B084FEA3202B6EB47
:1057A000020E75EB030E22BFB61A754640EADC0006
:1057B00055EA060E18D04FEA051545EA16754FEA68
:1057C00006164FEAC30343EA52734FEAC2025FEA86
:1057D0001C1CC0D111F4801F0BD141EA00014FF015
:1057E00000004FF0004CB6E711F4801F04BF0143E6
:1057F0000020B4F1FD0C88BFBCF5E06F3FF6AFAE02
:10580000B5EB030C04BFB6EB020C5FEA500C50F191
:10581000000041EB045170BD0EF0004E4EEA113114
:1058200014EB5C04C2BFD4EB0C0541EA045170BD1B
:1058300041F480114FF0000E013C90E645EA060E5F
:105840008DE60CEA135594EA0C0F08BF95EA0C0F8D
:105850003FF43BAF94EA0C0F0AD150EA01347FF4D5
:1058600034AF95EA0C0F7FF425AF104619462CE7AC
:1058700095EA0C0F06D152EA03353FF4FDAE10460F
:10588000194622E750EA410618BF52EA43067FF460
:10589000C5AE50EA41047FF40DAF52EA43057FF4F0
:1058A000EBAE12E74FF0FF3C06E000BF4FF0010CFB
:1058B00002E000BF4FF0010C4DF804CD4FEA410C5F
:1058C0007FEA6C5C4FEA430C18BF7FEA6C5C1BD02C
:1058D00001B050EA410C0CBF52EA430C91EA030FAD
:1058E00002BF90EA020F0020704710F1000F91EA0A
:1058F000030F58BF994208BF90422CBFD8176FEAD8
:10590000E37040F0010070474FEA410C7FEA6C5CA5
:1059100002D150EA013C07D14FEA430C7FEA6C5CAC
:10592000D6D152EA033CD3D05DF8040B704700BFD8
:105930008446104662468C461946634600E000BF26
:1059400001B5FFF7B7FF002848BF10F1000F01BDF8
:105950004DF808EDFFF7F4FF0CBF012000205DF8C3
:1059600008FB00BF4DF808EDFFF7EAFF34BF012048
:1059700000205DF808FB00BF4DF808EDFFF7E0FFE1
:1059800094BF012000205DF808FB00BF4DF808ED32
:10599000FFF7CEFF94BF012000205DF808FB00BF99
:1059A0004DF808EDFFF7C4FF34BF012000205DF87B
:1059B00008FB00BF4FEA410212F5001215D211D5C3
:1059C0006FF47873B3EB625212D94FEAC12343F0FC
:1059D000004343EA505311F0004F23FA02F018BF7E
:1059E000404270474FF00000704750EA013005D147
:1059F00011F0004008BF6FF0004070474FF000000A
:105A0000704700BF4A0011D212F5001211D20DD515
:105A10006FF47873B3EB62520ED44FEAC12343F0B4
:105A2000004343EA505323FA02F070474FF000005E
:105A3000704750EA013002D14FF0FF3070474FF00D
:105A400000007047844641EA000313F0030349D184
:105A5000403A23D30B6803604B6843608B688360D4
:105A6000CB68C3600B6903614B6943618B698361D8
:105A7000CB69C3610B6A03624B6A43628B6A8362C0
:105A8000CB6AC3620B6B03634B6B43638B6B8363A8
:105A9000CB6BC36340304031403ADBD230320BD362
:105AA0000B6803604B6843608B688360CB68C3609E
:105AB00010301031103AF3D20C3205D351F8043BB8
:105AC00040F8043B043AF9D2043208D0D2071CBF94
:105AD00011F8013B00F8013B01D30B8803806046BD
:105AE000704700BF082A13D38B07B1D010F003030F
:105AF000AED0C3F10403D21ADB071CBF11F8013B7F
:105B000000F8013BA4D331F8023B20F8023B9FE7A9
:105B1000043AD9D3013A11F8013B00F8013BF9D21C
:105B20000B7803704B7843708B78837060467047B6
:105B300040EA010C1CF0070F27D1BDF1100DCDE993
:105B40000245CDE900676FF000064FF0000700BF87
:105B5000F0E80223F1E80245A242A2F1013C2CEA5E
:105B6000020C0CF0803C08BFBCF1000F40F0E58057
:105B7000AB42A3F1013C2CEA030C0CF0803C08BFC3
:105B8000BCF1000F40F0D680E2E710F0030C21D00A
:105B900020F0030050F8042B5FEACC7C08D00FD231
:105BA00011F801CB5FFA92F3B3EB0C0C10D17BB17F
:105BB00011F801CB5FFAA2F3B3EB0C0C08D13BB1A7
:105BC00011F801CB5FFAB2F3B3EB0C0C00D10BB9B7
:105BD00060467047BDF1100DCDE90245CDE9006783
:105BE0006FF000064FF0000711F0030C33D110F0F6
:105BF000040F0FD050F8042B51F8044BA242A2F12D
:105C0000013C2CEA020C0CF0803C08BFBCF1000FF8
:105C100040F0938011F0040F99D051F8045B00BF5D
:105C2000F0E80223AA42A2F1013C2CEA020C0CF09B
:105C3000803C08BFBCF1000F79D1F1E80245A342D6
:105C4000A3F1013C2CEA030C0CF0803C08BFBCF132
:105C5000000F69D1E4E721F00301BCF1020F20D06D
:105C60003FDA51F8045B00BF50F8043B4FEA1525BA
:105C7000A3F1013C2CEA030C0CF0803CB7EB0C2F99
:105C800003EA162208BFAA4251D151F8045BBCF1C5
:105C9000000F82EA03034FEA056208BF934240D136
:105CA000E2E751F8045B00BF50F8043B4FEA1545AA
:105CB000A3F1013C2CEA030C0CF0803CB7EB0C4F39
:105CC00003EA164208BFAA4231D151F8045BBCF185
:105CD000000F82EA03034FEA054208BF934220D136
:105CE000E2E751F8045B00BF50F8043B4FEA15654A
:105CF000A3F1013C2CEA030C0CF0803CB7EB0C6FD9
:105D000003EA166208BFAA4211D151F8045BBCF144
:105D1000000F82EA03034FEA052208BF934200D135
:105D2000E2E719BA12BA0AE019BA22BA07E011BAC0
:105D30002ABA04E019BA2ABA01E011BA22BA9CFAC6
:105D40008CF0DDE90067DDE902451DF1100D38B189
:105D5000B0FA80F0C0F1180021FA00F122FA00F246
:105D60000120914298BF8041704700BF4BB942B9B2
:105D7000002908BF002802D04FF0FF31084600F08C
:105D80003BB882B0EC462DE9005000F01DF8DDF87C
:105D900004E002B00CBC70472DE9704F089E144619
:105DA0001D468046894600F029F804FB01F3A4FB58
:105DB00000AB00FB05329344B8EB0A0869EB0B0912
:105DC000C6E90089BDE8708F2DE9704F089E144622
:105DD0001D468046894600F061F900FB05F5A0FBF1
:105DE00004AB04FB0154A344B8EB0A0869EB0B09AC
:105DF000C6E90089BDE8708F704700BF00292DE912
:105E0000F00FC0F2A1800024002BC0F2988015464C
:105E100006460F46002B3FD18A4258D9B2FA82F388
:105E20004BB1C3F1200201FA03F720FA02F29D40C0
:105E300000FA03F61743290CB7FBF1F201FB1277C6
:105E4000A8B200FB02F34FEA164C4CEA0747BB42EC
:105E500009D97F1902F1FF3C80F00581BB4240F275
:105E60000281023A2F44FF1AB7FBF1F301FB1371D1
:105E700000FB03F0B6B246EA0141884208D949194D
:105E800003F1FF3780F0F180884240F2EE80023B60
:105E900043EA0242002303E08B420AD900231A4658
:105EA0001046194614B1404261EB4101BDE8F00FC4
:105EB0007047B3FA83F8B8F1000F40F088808B4246
:105EC00002D3824200F2E28000230122E8E712B905
:105ED0000123B3FBF2F5B5FA85F2002A3AD17F1B14
:105EE000280C1FFA85FC0123B7FBF0F100FB1177AA
:105EF0000CFB01F24FEA164848EA0747BA4207D9B5
:105F00007F1901F1FF3802D2BA4200F2C480414643
:105F1000BF1AB7FBF0F200FB12700CFB02FCB6B22A
:105F200046EA0040844507D9401902F1FF3702D202
:105F3000844500F2AE803A4642EA0142B0E7E443CB
:105F4000524263EB430362E7404261EB41014FF091
:105F5000FF3459E79540C2F1200927FA09F126FAE2
:105F600009F99740280CB1FBF0F800FB18111FFA53
:105F700085FC0CFB08F349EA07094FEA194747EA91
:105F800001418B4206FA02F608D9491908F1FF329D
:105F90007AD28B4278D9A8F102082944C91AB1FBF8
:105FA000F0F300FB13170CFB03F21FFA89F949EA1F
:105FB0000747BA4207D97F1903F1FF3160D2BA42CD
:105FC0005ED9023B2F44BF1A43EA08438CE7C8F16D
:105FD000200225FA02F103FA08FC27FA02F320FA5C
:105FE00002F207FA08F741EA0C0C4FEA1C49B3FB2E
:105FF000F9F109FB11331FFA8CFA0AFB01FB174375
:106000003A0C42EA03439B4505FA08F008D913EB22
:106010000C0301F1FF3235D29B4533D90239634479
:10602000CBEB0303B3FBF9F209FB12330AFB02FAD1
:10603000BFB247EA0347BA4508D917EB0C0702F18C
:10604000FF331BD2BA4519D9023A674442EA0145E7
:10605000A5FB0001CAEB07078F424FF000030AD3EC
:1060600005D02A461CE76246FDE63B4610E706FAE5
:1060700008F68642F5D26A1E002311E71A46E5E7C4
:106080000B46A0E71146CBE7904687E743464246DA
:1060900006E7023A50E702392F4439E72DE9F00FBD
:1060A000144605460E46002B43D18A4253D9B2FA14
:1060B00082F757B1C7F1200620FA06F601FA07F376
:1060C00002FA07F400FA07F51E43210CB6FBF1F2C1
:1060D00001FB1266A0B200FB02F32F0C47EA064652
:1060E000B34209D9361902F1FF3780F0FD80B3427F
:1060F00040F2FA80023A2644F61AB6FBF1F301FBAD
:10610000136100FB03F0ADB245EA0141884208D9B2
:10611000091903F1FF3680F0E980884240F2E680F9
:10612000023B43EA0242002310461946BDE8F00F45
:1061300070478B424CD8B3FA83F6002E4FD18B4276
:1061400002D3824200F2DD80BDE8F00F002301227D
:1061500010461946704712B90124B4FBF2F4B4FAA0
:1061600084F2002A40F08280091B260CA7B201238A
:10617000B1FBF6F006FB101107FB00F24FEA154CDD
:106180004CEA01418A4207D9091900F1FF3C02D2C9
:106190008A4200F2C8806046891AB1FBF6F206FB1B
:1061A000121107FB02F7ADB245EA0145AF4208D92B
:1061B0002C1902F1FF3180F09B80A74240F29880B9
:1061C000023A42EA004210461946BDE8F00F704715
:1061D00000231A4610461946BDE8F00F7047C6F175
:1061E000200522FA05F703FA06F421FA05F301FA6D
:1061F00006FB20FA05F53C434FEA1448B3FBF8FCD4
:1062000008FB1C331FFA84F909FB0CFA45EA0B0B57
:106210004FEA1B4545EA03439A4502FA06F204D9C0
:106220001B190CF1FF356FD3AC46CAEB0303B3FB6C
:10623000F8F508FB153309FB05F91FFA8BFB4BEA50
:106240000347B94504D93F1905F1FF3362D31D4611
:1062500045EA0C4CACFB0223C9EB07079F424FF009
:1062600000054AD346D062462B465DE79440C2F112
:10627000200921FA09FC914020FA09F9260CBCFBFF
:10628000F6F806FB18CCA7B207FB08F349EA0109A8
:106290004FEA194141EA0C4C634500FA02F509D96D
:1062A0001CEB040C08F1FF323BD2634539D9A8F14D
:1062B0000208A444C3EB0C0CBCFBF6F306FB13C1B1
:1062C00007FB03F21FFA89F949EA01418A4207D91B
:1062D000091903F1FF3022D28A4220D9023B21441E
:1062E000891A43EA084343E73A4605E7334618E785
:1062F0000A4666E7B0409042B5D20CF1FF32002367
:1063000012E7334632460FE79A458DD9ACF1020CBD
:1063100023448AE7B9459AD9023D274498E70346C2
:10632000DEE79046C6E70238214435E710B503782A
:10633000A3F13002D1B2092901D813460CE0A3F130
:106340004102D2B2052A01D8373B05E0A3F1610230
:10635000D2B2052A46D8573B42781B01A2F1300140
:10636000CCB2092C01D8CA180DE0A2F14101C9B282
:10637000052901D8373A05E0A2F16101C9B2052922
:1063800030D8573A1A4483781201A3F13001CCB2C5
:10639000092C01D80A440DE0A3F14101C9B2052935
:1063A00001D8373B05E0A3F16101C9B2052919D82D
:1063B000573B1A44C3781201A3F13000C1B2092936
:1063C0000ED9A3F14101C9B2052902D8A3F13700C2
:1063D00006E0A3F16101C9B2052903D8A3F1570072
:1063E000104410BD002010BD2DE9F0410B78074688
:1063F000222B01F1010602D13346002008E05B4B5D
:1064000019600020BDE8F0814AB15C2A05D1023351
:106410001A780130222AF7D101E00133F8E7544B12
:106420001B68984780460028EBD004463378222B1F
:1064300007D1002323703378222B40F08F80013660
:106440008CE0002BF5D05C2B06F1010103D023700A
:106450000E460134EAE773786E2B14D007D8622B0E
:1064600004F101020BD0662B74D10C2308E0742BCD
:106470000BD0752B0BD0722B6CD10D236AE0082347
:106480002370144668E00A2364E0092362E0B01C2C
:10649000FFF74CFFA0F55C43B3F5806F054606F1AE
:1064A000050159D3002857D0A0F55843B3F5806FA4
:1064B00019D2B3795C2B4FD1F379752B4CD106F1FE
:1064C0000800FFF733FFA0F55C43B3F5806F06F1DA
:1064D0000B0141D2C0F30900C5F3090540EA852547
:1064E00005F5803504E07F2808D9B0F5006F07D3A3
:1064F000B5F5803F34BF0322042202E0012200E010
:106500000222032A04EB02030CD0042A02D0022A3E
:1065100018D10FE005F03F0060F07F0003F8010C98
:10652000AD09E31C05F03F0060F07F0003F8010CAB
:10653000AD09013B05F03F0060F07F0003F8010C5E
:10654000AD09013B0B485C1E805C1444054303F815
:10655000015C01E0237001344E1C67E70423C7F897
:106560001080FB603046BDE8F08100BF640B002066
:106570000000002088640108034618462BB1027809
:106580000133013AD2B21F2AF7D97047064B10B532
:106590001B6828209847044618B1002128220AF0D9
:1065A000CBFE204610BD00BF000000202DE9F74FB4
:1065B000814688460846002900F0A781B149042297
:1065C0000BF0F0FA18B90223C9F80C3015E0404678
:1065D000AD4905220BF0E6FA20B9C9F80C0008F124
:1065E000050092E14046A94904220BF0DBFA38B9D4
:1065F0000123C9F80C30C9F8143008F1040084E113
:1066000098F80030222B06D14846414603B0BDE839
:10661000F04FFFF7E9BE2D2B08D0A3F13002D2B224
:10662000092A00F2B9800022994B03E0994B08F146
:1066300001080022CDE9002398F800300024302B17
:1066400008BF08F1010898F800300025313BDBB2A3
:10665000082B1AD80022904B20462946FEF710FF3F
:10666000044618F8010B0D463038FEF7A3FE0B4622
:10667000024629462046FEF751FD98F800300446B0
:10668000303BDBB20D46092BE3E798F800302E2BA8
:106690002ED198F80130303BDBB2092B28D8C24606
:1066A0000026002700227C4B20462946FEF7E8FE04
:1066B0000AF1020804461AF8010F0D463038FEF7B9
:1066C00079FE02460B4620462946FEF727FD704B11
:1066D00004460D46304639460022FEF71DFD9AF865
:1066E00001300646303BDBB2092B0F46DAD901E018
:1066F0000026002798F8003003F0DF03452B1ED159
:1067000098F801302B2B02D108F1020303E02D2B66
:1067100004D008F101034FF0010B03E008F102037C
:106720004FF0FF3B4FF0000A984613F8012B303A28
:10673000D1B2092907D80A2101FB0A2AF4E74FF050
:10674000010B4FF0000A22462B46DDE90001FEF75F
:1067500097FE04460BFB0AF00D46FEF72BFE0246A1
:106760000B4630463946FEF7D9FC02460B46002060
:10677000494909F089F80B46024629462046FEF7AA
:106780007FFEC9E90601FFF715F90323C9F81400D4
:10679000C9F80C304046B8E05B2B3FD10523C9F85F
:1067A0000C3008F10100FFF7E7FE037804465D2B8B
:1067B0002FD0FFF7EBFE0546C9F80800002800F0CF
:1067C000A3802046FFF7D8FE01462846FFF7EEFEDD
:1067D000FFF7D2FE0446002800F0968023782C2B89
:1067E00015D1FFF7D3FE0646002800F08D80286003
:1067F0004560601CFFF7C0FE01463046FFF7D6FE3D
:10680000FFF7BAFE044600287ED03546E6E75D2B4A
:1068100001D1601C79E0214B1C6075E07B2B70D1AD
:106820000623C9F80C3008F10100FFF7A5FE037834
:1068300005467D2B01D1013067E0FFF7A7FE044636
:10684000C9F8080000285FD02846FFF795FE0146EA
:106850002046FFF7C9FDFFF78FFE002854D02369BB
:1068600000222362226103783A2B3FD10130FFF7E7
:1068700083FE01462046FFF799FEFFF77DFE0646A0
:10688000D0B941E0E26C0108E76C0108ED6C010849
:106890000000F03F0000F0BF00002440640B002027
:1068A0000130FFF769FE01462846FFF77FFEFFF73C
:1068B00063FE064640B32C4633782C2B1AD1FFF7E3
:1068C00065FE054600B320604460701CFFF754FE6F
:1068D00001462846FFF788FDFFF74EFEA0B12B6961
:1068E00000222B622A6103783A2BD9D0084B18601A
:1068F00010460AE07D2B01D1701C06E0044B1E609F
:1069000002E0034BC3F80080002003B0BDE8F08F25
:10691000640B002070B50446CCB1E3682668DB0543
:1069200003D4A06808B1FFF7F5FFE368084D13F43E
:10693000807F03D1206908B16B689847206A08B14D
:106940006B68984720466B6898473446E4E770BD0B
:10695000000000202DE9F84305460E469146FFF75A
:1069600015FEDFF854800027C8F80070044600B315
:106970002846FFF701FE01462046FFF717FE0546B1
:1069800028B92046FFF7C6FF2846BDE8F883B9F1CD
:10699000000F0CD0FFF7F0FD037805463BB1204611
:1069A000FFF7B8FFC8F800503846BDE8F88306B1D5
:1069B00035602046BDE8F883640B002000210A46BC
:1069C000FFF7C8BF806820B1002902DD01390068E7
:1069D000F9E77047014B0360704700BF0865010885
:1069E000014A0261026070472065010810B5034B3F
:1069F0000446036000F014FC204610BD0865010841
:106A000010B50446FFF7ECFF204600F009FC2046D5
:106A100010BD000038B505462946174800F02DFF87
:106A20001649154800F029FF0A22D5F80C11124822
:106A300000F09AFF124B01211970D5F80C3100209B
:106A4000002BB8BF014600F035FDD5F80C310D4CD8
:106A5000002BB8BF5B4207200121236000F02AFD14
:106A6000A26864236360531CA36004F10C00064910
:106A7000BDE8384003F066BC60230020D5750108EE
:106A800008000020680B0020006D010800000000D5
:106A900073B51F4C05462946204600F0EEFE02263F
:106AA0001C49204600F0E9FE0096F5E94423204603
:106AB00001F022F8D5E9002300201749FEF70AFE6D
:106AC00011A3D3E90023FEF7DBFCFEF773FF134BA2
:106AD00080EAE075A5EBE075114920465D6000F0A5
:106AE000CCFE2846FEF766FC009602460B46204682
:106AF00001F002F80720012100F0DCFC094B6422C0
:106B00005A6002B070BD00BF0000000080841E41CA
:106B100060230020D57501080000F03F0800002028
:106B2000066D0108680B002010B50146074800F00B
:106B3000C1FE074B0121074C197007200023236079
:106B400000F0B8FC6423636010BD00BF6023002028
:106B500008000020680B002038B50A4D0446C0F834
:106B6000B85900F5D06003F01FF9074BC4F85C5426
:106B7000C4F84834C4F8303204F10800FFF730FF9D
:106B8000204638BD0865010820650108134B70B523
:106B90001A781E46124D0AB12A68F2B100F0CEFCF6
:106BA000D5F8CC397268C01A90420D4C15D900F056
:106BB000C5FC94F8D019C4F8CC0981F0010101207A
:106BC00084F8D01900F076FC94F8D0392BB1034B3F
:106BD0001B7813B12368013B236070BD08000020BF
:106BE000680B002010B50120002100F0E9FB002017
:106BF0000146144C00F0E4FB0720002100F0E0FB0C
:106C000020464FF4165101F0D9FD322000F0A6FCC9
:106C100020460D4C0D4900F04DFE20460C490D4A12
:106C200003F09EFA20460C490C4A03F099FA2046DC
:106C30000B490C4A03F094FA2046BDE8104003F0DB
:106C400023BB00BF60230020740B0020176D0108D8
:106C50002B6D0108156A0008336D0108916A000860
:106C60003F6D0108296B000813B500F065FC0E4C60
:106C7000D4F8D439C01A192807D900F05DFCC4F83B
:106C8000D40904F10C0003F0E7FB94F8D029074B7A
:106C900000921A78D4F8CC0901925968226801232D
:106CA000FFF774FF02B010BD680B00200800002041
:106CB00073B5154C002104F6D815144E0B460091FF
:106CC0000A46284600F05CFD32462846104904F189
:106CD0000C0508F0ABFD28460E490F4A03F0D6F923
:106CE0000E493246284608F0A1FD00F025FCC4F804
:106CF000D40900F023FCC4F8CC0900F01DFCC4F852
:106D0000E00902B070BD00BF680B0020C81600206B
:106D1000D56900084C6D01085B6D0108596B0008CE
:106D2000013101EB420291420BD0030F092B94BFBA
:106D30003033373301F8013C0023000101F8023BF6
:106D4000F1E7704710B54FF000604FF4A04107F035
:106D500063F90124284B294821461C7007F06CFB7D
:106D600006F0BCFB06F0ACF82146402007F01CFC06
:106D70006FF07F4006F01CFAE72006F08DFA204BFA
:106D80001C7006F0DDF87D2007F032FC18B11D4BB9
:106D90001C7007F041FC40F6B83006F03AF906F0F6
:106DA0006BFE06F011FF184801F0CCFE174B0122D4
:106DB0001A7001F057FF164B1B781BB9154B1B7847
:106DC000002BF6D0144B1B78002BF2D10D4B1B7807
:106DD000002BEED10F4C2378012B01D00F4B2BB998
:106DE0000F4B002BE5D0FFF73FFFE2E7FFF7FAFE7E
:106DF00001232370F4E700BF70240020000430005A
:106E00008B230020342E0020A1720008A023002034
:106E100089230020541500208A230020E56B0008F8
:106E2000696C0008F8B5724B1A6812B11A68013A19
:106E30001A60704B704D1B7833B1704B1B78E3B107
:106E40006F4B002B3AD118E06E4C236813B12368C6
:106E5000013B11E02B7883B96B4B1B786BB96B4B03
:106E60001B7853B96A4F6B4E3B7863B3E72006F04B
:106E70007FFA33782BB314232360674B674C1B785E
:106E800003F0FF025BB162684EF65F239A4202D9BB
:106E90000123237204E063680133636000E06260F1
:106EA0002B785F4E03F0FF07002B33D1384606F0F6
:106EB0005FFB40F6B73398421BD82BE000F0F2F9A5
:106EC000DBE70123D8E733784BB14FF6FF7006F0CC
:106ED0006FF9E72006F0E0F901233B70CDE7E720EA
:106EE00006F000FA4F4B1B780BB13223C4E7642342
:106EF000C2E7384606F044FB3378C3B94A4B1B78E7
:106F00002BB1484B434A1B7812781A426BD00123AD
:106F10002B700CE0002006F02BFB41F65733984213
:106F200005D9002006F02CFB404B01221A70337863
:106F3000002B36D1E268394B1AB1DA68013ADA60CF
:106F40002FE0314A127802F0FF0042B1196947F28E
:106F50002F5291421FD81A6901321A6121E02D4A3D
:106F6000127802F0FF016AB1596947F22F5291423B
:106F700004D958612E4B01221A7012E05A6901326D
:106F80005A610EE0274A12785AB1986947F22F5297
:106F9000904203D9996101221A7202E09A69013282
:106FA0009A61244B1A68B2F57A7F04D300221A60E2
:106FB00007F09AFA02E01A6801321A60237A5BB18C
:106FC000BFF34F8F1C4A1D4BD16801F4E0610B43A6
:106FD000D360BFF34F8FFEE7154B1B783BB1BDE885
:106FE000F84000F0BFB9124B01221A708FE7F8BDCC
:106FF0003C2E00205024002086230020FC18002076
:10700000A5720008382E00208A2300208C2300203F
:107010008B23002089230020CC240020541500203D
:107020009A23002088230020872300208F2300201C
:107030008E230020402E002000ED00E00400FA0521
:1070400008B5094B186006F0BDFC002006F006FDEF
:10705000064805F05DFF06F0CDFC06F0EBFCBDE850
:10706000084008F09DB900BFE0010020A0860100A3
:10707000074B1B68052B09D1064B1A7F012A05D146
:10708000987F93F82030C01AC0B270470020704734
:1070900090240020541500200E4B10B51B68052BC2
:1070A00014D10D4C237F012B10D1E28B238CD31AEA
:1070B000012B04D100230320237708F0C8FA238C86
:1070C0005A1C22841C4494F8220010BD4FF0FF305B
:1070D00010BD00BF9024002054150020084B1B68F1
:1070E000052B0CD1074B5A6E99180132B2F5807FEF
:1070F0005A6608BF002281F8680008BF5A667047C8
:107100009024002054150020F8B5234B93F86821F3
:10711000012A3FD0D3F86C21596EB2F5807F04BFAD
:107120000022C3F86C21D3F86C411B4A8C4203D176
:10713000002382F86831F8BD8CBFC4F58071C4EBC0
:107140000101C2F87011D3F87061134D402EA2B244
:1071500007D94034403EC5F86C41C5F870614027FE
:1071600006E034440021B7B2C5F86C41C5F870118F
:107170000A4801241044C0213A4683F8684108F0C7
:10718000E1F92046394608F0E5FA2046BDE8F84026
:1071900008F04ABAF8BD00BF54150020BC15002005
:1071A000094B10B593E8140008331B68D0180AD0B7
:1071B00006490822FFF7B4FD204605490422BDE830
:1071C0001040FFF7ADBD10BDE8F7FF1F8F01002095
:1071D0009F01002038B504460D46AC4203D254F856
:1071E000043B9847F9E738BD08B507480749FFF75A
:1071F000F1FF07480749FFF7EDFFBDE808400648E3
:107200000649FFF7E7BF00BF287A0108287A01087E
:10721000287A0108987A0108987A0108987A010872
:1072200009F036BD07B5064B052000936E21054ACF
:10723000002306F0EDFD072006F038FEFEE700BF54
:10724000686D01088F64010807B50C4A136818447B
:1072500010600B4A90420CD90A4B052000938B21F9
:10726000094A002306F0D4FD082006F01FFE09F0AD
:10727000CDFB184603B05DF804FB00BF14000020EE
:1072800000480020746D01089F6401084FF0FF3032
:10729000704701207047FEE70020704701207047CB
:1072A0007047000038B5114CD4F8445A2DB1D4F8C9
:1072B000443A013BC4F8443A38BDD4F8483A0C4A41
:1072C00052F8230005F09CFFE72005F0E5FF64235A
:1072D000084AC4F8443AD4F8483A52680133934211
:1072E000C4F8483AA8BFC4F8485A38BDCC160020A4
:1072F000B0640108180000207FB502200121062299
:1073000004F0F6FD041E24DB0223ADF80030002358
:107310008DF8023035238DF803304FF4FA500823EE
:107320008DF804308DF805308DF806308DF8073073
:1073300001F000FC694610220546204604F0EAFEF2
:107340000646284601F0F6FB204604F0FFFD3046D5
:1073500001E04FF0FF3004B070BD01207047002005
:1073600070470000044B012200215A801980D98601
:10737000024B1A70704700BFC42500208E230020E6
:1073800004F0C8BE37B50B4C002104F64C250B4663
:1073900000910A46284600F0F3F928460649074AB4
:1073A00008F044FA04F50D7003B0BDE8304008F071
:1073B00027BA00BFCC160020D5690008C8160020E7
:1073C00014282DE9F34104460E4669D8FF2967D0F9
:1073D00000F0D0FB20B1A4F10D039BB2022B5FD9CA
:1073E00000F054F908B1012C5AD901F07FF920B10D
:1073F000A4F112039BB2012B52D92B4D24012B195E
:107400002F59B3F80480294B9F4201D1042003E097
:10741000274B9F4203D10820012107F0D1F8ADF896
:107420000480062E38D8DFE806F0040D13191F2853
:10743000310010238DF8073003238DF806302C44DB
:10744000002328E004238DF807302C44012322E098
:1074500048238DF807302C4402231CE028238DF8A4
:1074600007302C44032316E018238DF8073003233C
:107470008DF806302C4404230DE01C238DF80730D2
:1074800003238DF806302C44052304E000238DF8F7
:1074900007302C440623A373384601A906F074FF75
:1074A00002B0BDE8F08100BF2000002000080140CC
:1074B000000C01401428F8B505460F4638D81D4E7B
:1074C000040133199B7B5A1ED2B2022A30D9062BF3
:1074D0002ED0FF2B2CD000F04DFB28B1A5F10D03D1
:1074E0009BB2022B00D8F8BD00F0D0F810B1012DEE
:1074F00000D8F8BD01F0FAF828B1A5F112039BB24B
:10750000012B00D8F8BD33199B7B042B03D12846EF
:107510000021FFF755FF012F04D13219335992880A
:107520001A61F8BD27B93219335992885A61F8BDEA
:10753000F8BD00BF2000002006F00CBB044B5868CB
:10754000044B1A68044BB2FBF3F3B0FBF3F0704743
:10755000001000E0D002002040420F0010B50446A9
:1075600006F0F8FA044406F0F5FA8442FBD810BDA0
:1075700013B5084C002100910A460B46204600F046
:10758000FFF80549054A204602B0BDE8104008F062
:107590004DB900BF5C210020D5690008C816002045
:1075A000024B18785B78C01A704700BF6421002036
:1075B000064B5A781978914204D999180132887883
:1075C0005A7070474FF0FF30704700BF64210020B1
:1075D000054B5A781978914202D91344987870472C
:1075E0004FF0FF30704700BF64210020704700005B
:1075F000014B0360704700BF2065010810B5034BC5
:1076000004460360FFF70CFE204610BD206501080C
:10761000F8B5094B054693F82230164653B10C468F
:107620008F18BC4206D02B6828469B6814F8011BB3
:107630009847F6E73046F8BD6421002010B50C4BA2
:10764000012293F822408CB193F823401F2C02D9D9
:107650004260002010BD93F824001C1884F8251007
:10766000411CC9B283F8241083F82310104610BDC2
:1076700064210020002242604FF47A728260014A45
:1076800002607047E064010870477047014B93F84F
:10769000590070476421002073B50E4C002104F19D
:1076A00064050D4E0B4600910A46284600F068F826
:1076B0006C3432460949284608F0B8F82046FFF7EE
:1076C000D9FF07492046324602B0BDE8704008F0B5
:1076D000ADB800BF64210020C8160020D56900089D
:1076E000F175000808B5034B53F8203003B19847F3
:1076F00008BD00BFE021002013B5084C0021009117
:107700000A460B46204600F03BF80549054A20464C
:1077100002B0BDE8104008F089B800BF2022002068
:10772000D5690008C81600202DE9F041002407465D
:107730000E4625463B1919790A22304600F02AF9EF
:107740002E218046304600F09CF801344044032C42
:107750000544EFD13046F9790A2200F01BF928449C
:10776000BDE8F08110B5054A0446002140F8042B1D
:10777000042209F0E1FD204610BD00BF08650108A4
:1077800030B58371034D9DF80C3005600171427175
:10779000C37130BD086501080548064B0649036002
:1077A000064A0023037143718371C37108F03EB828
:1077B0002822002008650108D5690008C8160020A5
:1077C00037B5064C0546E178A278637824780094B2
:1077D000FFF7D6FF284603B030BD00BFA22300202C
:1077E00000487047BC23002013B5084C00210091CD
:1077F0000A460B462046FFF7C3FF0549054A2046C7
:1078000002B0BDE8104008F011B800BF30220020DF
:10781000D5690008C8160020014B0360704700BFFF
:1078200020650108F8B506460C468F180025BC42B5
:1078300007D0336830469B6814F8011B984705440D
:10784000F5E72846F8BD000010B5034B0446036079
:10785000FFF7E6FC204610BD2065010838B5054657
:107860000C46084641B10AF06DF92B680246DB6808
:1078700028462146984738BD38BD08B5FFF7EEFFCA
:1078800008BD08B503689B68984708BD10B50A682D
:107890000446126808462146904710BD38B50D21B0
:1078A0000546FFF7EEFF0A2104462846FFF7E9FFE9
:1078B000204438BD38B50446FFF7D0FF05462046C2
:1078C000FFF7ECFF284438BD38B50446FFF7DEFF6C
:1078D00005462046FFF7E2FF284438BD30B50023B7
:1078E0008BB08DF82430012A98BF0A220DF12304B1
:1078F000B1FBF2F303FB1211CDB2092D94BF303569
:107900003735EDB2214604F801590BB11946EFE7BE
:10791000FFF7A4FF0BB030BDF8B506460D46144680
:1079200022B90368C9B29B689847F8BD0A2A0CD1EE
:1079300000290BDA2D21FFF7A4FF694207462246F2
:107940003046FFF7CBFF3844F8BDD2B2BDE8F8406F
:10795000FFF7C4BF38B50446FFF7DEFF05462046F3
:10796000FFF79CFF284438BD38B50446FFF7D4FF25
:1079700005462046FFF792FF284438BD10B522B9CE
:107980000268C9B29268904710BDD2B2BDE81040FB
:10799000FFF7A4BFFFF7F2BF38B50446FFF7EEFFCD
:1079A00005462046FFF77AFF284438BD2DE9F84305
:1079B00019460646104614461D469DF8207007F0ED
:1079C0003BFF10B93046444907E02046294607F0FE
:1079D00033FF012805D141493046FFF73FFFBDE89D
:1079E000F883204629464FF060423D4BFDF7D8FF13
:1079F00010B130463B49F0E7204629464FF060423F
:107A0000394BFDF7AFFF0028F3D12046294600226D
:107A10000023FDF7A7FF40B130462D21FFF731FFCE
:107A200005F1004380461D4600E080462F4B4FF095
:107A3000000900225FFA89F1B9420AD210461946BC
:107A400000222B4BFDF746FE09F1010902460B46C9
:107A5000F0E720462946FDF761FB0D460446FDF799
:107A6000D1FF8146FDF796FC02460B46204629468B
:107A7000FDF752FB0A2204460D4630464946FFF701
:107A80002DFF804427B130461A49FFF7E7FE8044B6
:107A9000F7B1174B002220462946FDF7F1FC0D46B1
:107AA0000446FDF787FF81460A2249463046FFF724
:107AB00033FF80444846FDF77DFC02460B462046D6
:107AC0002946FDF729FB013F04460D46FFB2DFE7DB
:107AD0004046BDE8F88300BF806D0108846D010851
:107AE000FFFFEF41886D0108FFFFEFC10000E03F9D
:107AF00000002440D075010837B59DF818100446E1
:107B00000091FFF753FF05462046FFF7C7FE2844C4
:107B100003B030BD13B5084C002100910A460B4656
:107B20002046FFF72DFE0549054A204602B0BDE874
:107B3000104007F07BBE00BF3C220020D569000842
:107B4000C816002013B5084C002100910A460B46C8
:107B50002046FFF715FE0549054A204602B0BDE85C
:107B6000104007F063BE00BF44220020D569000822
:107B7000C8160020014B587D704700BF4C220020E2
:107B80007047000013B5084C002100910A460B46CF
:107B90002046FFF7F5FD0549054A204602B0BDE83D
:107BA000104007F043BE00BF64220020D5690008E2
:107BB000C816002013B5084C002100910A460B4658
:107BC0002046FFF7DDFD0549054A204602B0BDE825
:107BD000104007F02BBE00BF70220020D5690008BE
:107BE000C816002010B50446006809F051F8204678
:107BF00010BD10B50446006808B109F049F800232B
:107C00002360A360636010BD38B504460D4600686C
:107C1000013109F0DFFB10B184E82100012038BDFB
:107C2000036810B5044613B143688B4207D220465F
:107C3000FFF7EAFF20B1A3680BB922681370012097
:107C400010BD70B50E46114604461546FFF7E8FF15
:107C500018B92046FFF7CDFF04E0A5602068314643
:107C600009F0F6FE204670BD38B5002304460360D7
:107C70004360836003730D4639B1084609F062FF23
:107C8000294602462046FFF7DCFF204638BDF8B5FE
:107C9000836804469A4202D34FF0FF30F8BD036870
:107CA000551C00225F5D5A55066830460AF006F8FA
:107CB00077550028F0D02368C01AF8BD8268013AD1
:107CC000FFF7E5BF014B0360704700BF2065010867
:107CD00013B5026802AB03F8011DD46819460122EE
:107CE000A04702B010BD10B5B0F81622B0F814329B
:107CF00004469A4207D0B4F814325A1CA4F814224D
:107D00001C44207D10BD03681B6998470028F2D1F0
:107D10004FF0FF3010BD10B5B0F81622B0F8143295
:107D200004469A4204D0B4F814321C44207D10BD9D
:107D300003681B6998470028F5D14FF0FF3010BD4C
:107D40000023A0F81432A0F81632704710B5034B88
:107D500004460360FFF764FA204610BD2065010861
:107D600030B5B0F8163287B0044633B1B0F81422FB
:107D70009A4202D10368DB69984700F0CFFE0028E1
:107D800038D02069082835D0B4F81632B3F5007F12
:107D900030D2430906AA02EB8303012100F01F023F
:107DA000914000258DF80C508DF80D508DF80E5037
:107DB0008DF80F5053F80C2C01300A4343F80C2C6B
:107DC00041F28833059304AB009303A92A462B465E
:107DD000049504F0CDF9A8420CDD206906AB4209F8
:107DE00003EB820252F80C2C00F01F0342FA03F35B
:107DF000DB0706D4B4F81602B4F81432C01A07B080
:107E000030BDB4F816222B46A1181431C2F5007209
:107E100004F08EFA0028EDDDB4F816320BB9A4F8A0
:107E200014320344A4F81632E4E7F8B51746B0F864
:107E30001432B0F8162204469A420E4606D1036860
:107E40001B69984710B94FF0FF3512E0B4F81432AF
:107E5000B4F816523046ED1ABD4228BF3D4604F133
:107E600014012A46FDF7EEFDB4F814322B44A4F8B1
:107E700014322846F8BD10B504460069082801D020
:107E800004F064F80823236110BD00002DE9F041DF
:107E900088B005460E46904600F040FE20B300270D
:107EA00008AC304644F8147D09F04CFE224681B2FD
:107EB000304604F0F7F8B84215DD039B04A8DAB2A7
:107EC0000092190EC3F30742C3F30723FFF758FCD0
:107ED0002B6828461C6A064B06A90693059B42465A
:107EE0000793A04700E0384608B0BDE8F08100BF26
:107EF000086501087FB504460D46164600F00EFEE3
:107F0000002836D002200121062203F0F1FF0028CC
:107F100020612BDB23682046DB6998470223ADF8FC
:107F20000030330A8DF802302B794FF4FA508DF877
:107F300004306B798DF803608DF80530AB798DF8DE
:107F40000630EB798DF8073000F0F4FD6946054600
:107F500010222069FFF714FA0646284600F0EAFDD1
:107F6000002E05DA23682046DB6A9847002000E0EF
:107F7000012004B070BD00004FF47A7181600549A2
:107F800000220160082142600161A0F81422A0F8DB
:107F9000162270473865010810B54FF47A74846072
:107FA000044C0022426004600161A0F81422A0F891
:107FB000162210BD38650108036910B5082B044668
:107FC00001D1002010BD00F0A9FD0028F9D02069E2
:107FD00003F09CF9D0F1010038BF002010BD70B54E
:107FE00004460E461546FFF7E7FF38B120693146D3
:107FF0002A460023BDE8704004F024BA4FF0FF3059
:1080000070BD38B50446FFF7D7FF01281BD0B4F880
:108010001622B4F814329A4217D12069082803D0E6
:1080200003F074F9012801D000250FE023682046F1
:108030001B699847051C18BF01253DB923682046D8
:10804000DB6A984702E0054600E00125284638BD76
:1080500008B5FFF7B1FF003018BF012008BD0000D0
:1080600013B5084C002100910A460B462046FFF745
:1080700087FB0549054A204602B0BDE8104007F0DD
:10808000D5BB00BF78220020D5690008C8160020A3
:1080900013B5026802AB03F8011DD468194601222A
:1080A000A04702B010BD1030FFF799BFF0B589B0FE
:1080B000074600F033FD90B33B8902261A0A0024DC
:1080C0008DF81220304601210622ADF810608DF89F
:1080D00013308DF814408DF815408DF816408DF84A
:1080E000174003F005FF051E19DB08AB042243F817
:1080F000144D4FF6FF710092324604F0A1F8A042F1
:108100000DDB284604A9102203F078FFA04206DB0D
:108110002846214603F0A0FFA042A8BFFD6009B099
:10812000F0BD000010B500234360054B018108211C
:1081300004460360C1601030FFF72EFF204610BDDB
:108140007865010838B54B68044643608B680D4676
:108150008360CB684FF40072C3600B69143040F841
:10816000043C1431FDF76EFCB5F814322046A4F837
:108170001432B5F81632A4F8163238BD2DE9F043A2
:10818000CB68ADF50D7D082B05460C4603D10B6879
:1081900008461B69984700F0C1FC04F110061E4F09
:1081A00005F1140804F1240910B1E068082824D16D
:1081B0000821E16006A8FFF7EFFE06A93046FFF7A9
:1081C000C1FF636940466B60A3694946AB60E369E0
:1081D0004FF40072EB60236A2F602B61FDF732FCD5
:1081E000B4F824322846A5F81432B4F82632A5F89B
:1081F00016320DF50D7DBDE8F083102302A901AA0A
:10820000019303F0C9FE011E02DA06A80821D2E795
:1082100006A8C9B2CFE700BF3865010813B5084CFE
:10822000002100910A460B462046FFF7A9FA0549AE
:10823000054A204602B0BDE8104007F0F7BA00BF7B
:1082400080220020D5690008C816002008B5036800
:108250009B6B984708BD0000024A02608A69426031
:10826000704700BF08650108808B7047B0F8362260
:10827000B0F83402101A70474B6802218283C18320
:1082800080F82120110AC3F30722836180F822308D
:1082900080F82320C3F307421B0E80F825301023FB
:1082A00080F8201080F8242003630120704701200B
:1082B000704713B5026802AB03F8011DD468194674
:1082C0000122A04702B010BD036810B51B69044627
:1082D000984740B1B4F834325A1CA4F834221C44F4
:1082E00094F8340010BD4FF0FF3010BD036810B596
:1082F0001B690446984728B1B4F834321C4494F8FA
:10830000340010BD4FF0FF3010BD0023A0F8343210
:10831000A0F8363270470000024A4261024A026009
:10832000704700BF086501082065010810B5044BBF
:1083300004464361034B0360FEF772FF204610BD05
:10834000086501082065010830B585B004460D4672
:1083500000F0E4FB28B302200146112203F0C8FD1F
:1083600023682074DB69204698470021102265822B
:10837000684608F0E1FF0223ADF80030207C2B0AAC
:10838000694610228DF802308DF8035003F036FE56
:10839000002805DA236820465B6A9847002000E041
:1083A0000120C0B205B030BD10B50446007C0828DD
:1083B00001D003F0CBFD0823237410BD13B5034691
:1083C00003F11E04007C00941B6B0193002304F056
:1083D00043F802B010BD30B5036887B01B6904468E
:1083E0009847054600285CD100F098FB002858D03B
:1083F000207C082855D0430906AA02EB83030121FB
:1084000000F01F0291408DF80C508DF80D508DF842
:108410000E508DF80F5053F80C2C01300A4343F8DE
:108420000C2C41F28833059304AB009303A92A4630
:108430002B46049503F09CFE002832DD207C06AB21
:10844000420903EB820252F80C2C00F01F0342FA9F
:1084500003F3DB0725D504F11E03009304F1300379
:10846000019304F134014FF400722B4603F06BFFCB
:10847000002816DD94F8202094F82130A4F8345216
:1084800043EA0223A38394F82230A4F83602237629
:1084900094F82330637694F82430A37694F825304A
:1084A000E376236820461B69984707B030BD036810
:1084B00070B51B6904460E4615469847B0B123684F
:1084C00020461B699847854204D9236820461B69CA
:1084D00098470546304604F134012A46FDF7B2FAC2
:1084E000B4F834322B44A4F8343201E04FF0FF35B5
:1084F000284670BD2DE9F04188B005460E469046ED
:1085000000F00CFB20B3002708AC304644F8147D83
:1085100009F018FB224681B2304603F0C3FDB84291
:1085200015DD039B04A8DAB20092190EC3F30742CB
:10853000C3F30723FFF724F92B6828469C6A064BF0
:1085400006A90693059B42460793A04700E03846DC
:1085500008B0BDE8F08100BF08650108002310B530
:1085600043604FF47A738360044B0446036008232E
:1085700003741430FFF7F6F8204610BD9865010823
:1085800013B5084C002100910A460B462046FFF720
:10859000F7F80549054A204602B0BDE8104007F04B
:1085A00045B900BF88220020D5690008C816002000
:1085B000014B0360704700BF206501080369186C18
:1085C0005B6CC01A00F03F0070470369196C5A6C6D
:1085D000914202D05A6C985C70474FF0FF30704760
:1085E0000369196C5A6C914207D05A6C985C5A6CAA
:1085F000013202F03F025A6470474FF0FF3070477B
:1086000010B5034B04460360FEF70AFE204610BD7A
:1086100020650108436910B51A6C013202F03F026F
:108620005C6CA242FCD01C6C1955436901241A648D
:1086300040F2277104762246024806F052FA20469C
:1086400010BD00BF0044004010B50446237E13B99E
:108650000023237610BD0348802106F062FA00282B
:10866000F6D1F3E70044004008B51E4840F225511A
:1086700006F05DFA78B11B4806F04FFA1A4BC0B20B
:108680005A6D996D013202F03F028A4203D0596D52
:108690005A6519440875134840F2277106F047FAE5
:1086A000F8B1114BD3F89C10D3F8A020914207D118
:1086B000BDE808400B4840F22771002206F011BACD
:1086C000D3F8A02007481A4492F85C10D3F8A020F1
:1086D000013202F03F02C3F8A020BDE8084006F0D6
:1086E00018BA08BD0044004090220020014B187CBD
:1086F000704700BF90220020F7B5164C002504F10A
:10870000A406154F2B4629462A4600953046FFF70A
:1087100037F83A463046114907F088F84FF47A7333
:10872000C4F8B4300E4B0F49C4F8AC3004F1140354
:10873000C4F8BC3004F1AC0004F15C033A46C4F860
:10874000B050C4F8C03084F8C45003B0BDE8F04065
:1087500007F06CB890220020C8160020D5690008E8
:10876000E8650108B185000870474FF0FF30704799
:10877000014B0360704700BF2065010810B5034B33
:1087800004460360FEF74CFD204610BD206501083D
:10879000FEF782BC08B5FEF76BFC08BD08B50846BD
:1087A000FEF79CFC012008BD002242604FF47A7263
:1087B0008260014A02607047106601080846FEF7B1
:1087C0003FBC000037B50D4C00210D4D0B4600910C
:1087D0000A462046FEF7D4FF2A460A4920460834B6
:1087E00007F024F82046FFF7DFFF074920462A4616
:1087F00003B0BDE8304007F019B800BF582300208F
:10880000C8160020D569000871870008002303609E
:108810001846704700230360184670470023036022
:10882000184670472DE9F0410B7886B0002B0C46B6
:1088300014BF90464FF00008064609F083F907463A
:10884000204609F07FF9182301931E230125029386
:1088500002230393059000950494404631463A461E
:10886000002303F02DFF034B18705D7006B0BDE8C8
:10887000F08100BF7023002048F20202904210B540
:108880001ED006DC992851D048F20102904213D044
:1088900010BD48F28002904207D0B0F5084F49D091
:1088A00048F21002904259D12FE02D4B01229A70CC
:1088B000DA7000221A7110BD294B01225A7110BDC5
:1088C000274C637953B1274B00224FF47F401A7035
:1088D00004F06EFCE72004F0DFFC06E0A37913B19E
:1088E000013BA37101E00123A37523795BB201333E
:1088F00002D11B4B01221A7100236371E3752376A9
:108900006376A376E376237710BD0A7D144B52B9C4
:1089100001224FF47F40DA7504F04AFCBDE81040B4
:10892000E72004F0B9BC0022DA7510BD0C4B01221F
:108930005A7710BD0846002102F089F8012104464B
:1089400002F0CCF8084B1B689C4207D1044B002274
:108950009A76DA765A761A7601229A7710BD00BF97
:108960007023002050240020180000201FB54FF471
:1089700061504FF461610A2200238DE80F00064B1D
:1089800044F620621A60684601A902AA03AB02F00D
:10899000BDFD05B05DF804FB4C2400201FB500238D
:1089A000009301930293039301A8694602AA03ABC3
:1089B00002F072FD05B05DF804FB000030B5514DCA
:1089C00000249FB0FF20AC70EC706C706C71EC7583
:1089D0006C772C766C76AC76EC7604F0E9FBE720CD
:1089E00004F05AFC21462246204603F045FE2B4661
:1089F000012103F8074F0E200A4602F00DFE6B79A5
:108A0000012B05D1642004F077FA02F07FF9F6E734
:108A100010210C2002F04CFE3B4803F00FFA3B48BB
:108A200003F0A0FF012003F081FF6846384900F001
:108A300021FEAB786A78334C1A431AD1E37F002BBE
:108A400056D0FF2003F024FF002851D11A24013C06
:108A500006D0E72004F046FC322004F04DFAF6E799
:108A60000E20012122462B4BAC7102F0D5FDEC7794
:108A7000DFE7E72004F010FCA31D0E2001210022F7
:108A800002F09CFDA37813B103F08CFF20702B78CB
:108A900001210133AB7100221E4B0E2002F0BCFD00
:108AA000002001240146012203F0E6FD2146224672
:108AB000194B0E20EC7102F0AFFD03F061FD642054
:108AC00004F01AFA002003F025FD48F2442085F84E
:108AD000204003F0F9FE4FF47F4004F069FBE720EB
:108AE00004F0DAFBFFF742FF0023AB751FB030BD87
:108AF000E72004F0F7FBFA2004F0FEF9684600F0E6
:108B00000DFE96E7702300203066010874010020F6
:108B1000258800087623002077230020044BDA7D87
:108B200022B91879003018BF012070470120704722
:108B300070230020024B1A6818601046704700BF6F
:108B40004C2400207FB53B4C0025606204F06AFE97
:108B500004F0AAFD384B394A0093394B3949019347
:108B6000394B3A4802933A4B03933A4B03F0BAFC21
:108B7000642004F0C1F9002003F0CCFC012348F28A
:108B80004420E57684F8203003F09EFE324B1A88AC
:108B90001E46012A2ED00E2010212A46A31D02F0C7
:108BA0000DFD102826D12379224D93B9AB7913B945
:108BB0000123AB750DE0E87958B90146012203F0B5
:108BC0005BFD01212B4603F8071F0E200A4602F029
:108BD00023FD23795BB2002B23DC164B9B7D03B373
:108BE0001E4802F04BFDFFF7D9FE04B0BDE870400F
:108BF000FFF7BCBEFF2003F04BFE10210E2002F059
:108C000057FD00211022164808F096FB1021002283
:108C1000134B0E2002F000FD0023338004F04EFFC2
:108C2000C1E74FF47F4004F0C3FAE72004F034FBBF
:108C3000D6E700BF7023002061D700081588000820
:108C400075D700080D880008E1D70008798800086A
:108C500009D800081D880008C202002098230020BF
:108C6000762300202DE9F341B24CA37F002B40F086
:108C7000A68094F82A30002B40F0A18094F8203090
:108C800003F0FF0023B903F045FC012384F82030F2
:108C9000A37DA84E13B1FFF791FE09E033795BB2D3
:108CA000002B05DDF37D03F0FF05002B00F0B18004
:108CB000E278A04B012A13D1DA7D012A10D15B7929
:108CC000012B0DD103259C4808F03CFF013D82B2E9
:108CD0009949012003F0CCFB15F0FF05F3D1E570B5
:108CE00094F83030934D43B92B7E002B40F0A9808F
:108CF0006B7E002B40F0A58018E1904E3368002B6E
:108D000040F01481EB7D0BB395F82A30F3B92B7E3C
:108D1000002B00F0A78019E02B4603F8092F0E2046
:108D20000121032202F078FC4FF6FF7004F040FAB4
:108D3000E72004F0B1FAFEF710FB0028C0F2BB8078
:108D4000012222767E4A0023E3621360237E794D5E
:108D5000002B00F0EB806B7E3BBBFEF79DFA0028FA
:108D60001DD002DA4FF47F0007E0012801D17548D9
:108D700003E0022803D14FF0FF1004F019FAE720B6
:108D800004F08AFA94F8313047F230520133DBB202
:108D900084F8313094F831305343336005E00123D7
:108DA0006B76694B85F831001860FEF777FA00287A
:108DB00040F0BC80A076E07660762076B6E094F84D
:108DC00020305C4D002B3FF463AF002630466E71BF
:108DD000EE62EE75AE7785F820602E766E76AE7612
:108DE000EE762E7704F010FD642004F085F8AB7D5C
:108DF0003BB1304603F08EFB012385F82030FFF7AE
:108E0000DDFD4FF47F4004F0D3F9E72004F044FA8D
:108E10003EE729462A46284603F02EFC4B4808F038
:108E200091FE4B4F8046384608F08CFE2B46019051
:108E300000970320791F424603F0B8FBFF233371EC
:108E400036E7FEF78CFA00234FF47F40A376E376F3
:108E50006376237604F0ACF9E72002B0BDE8F04178
:108E600004F01ABA642004F047F805F1320002F069
:108E700093FB2B7F002B3FF457AF4FF47F0004F0A0
:108E800097F9237F2B4D03F0FF02002B3FF444AFF3
:108E9000E72004F001FA4FF4FA7004F02DF8E7200F
:108EA00004F008FA4FF4FA7004F026F82B7F013B27
:108EB000DBB22B77E5E7A17F1E4A01F0FF03002913
:108EC00034D1D16A01310229D1620AD101209077CF
:108ED000204A0191009204204FF40E711E4A04F0C2
:108EE00097FFFEF709FA002813DAE36A0133022B31
:108EF000E3620CD10F4A01219177164A04208DE8D4
:108F00000C0040F24221144A002304F081FF0223A6
:108F100000E003232377237F0E20637201210F4B90
:108F2000032202F079FB002323760FE702B0BDE8AD
:108F3000F08100BF70230020770100206015002021
:108F40006C1500200060FF00681500207E010020E5
:108F5000830100208C6D01084166010879230020FF
:108F600013B5084C002100910A460B462046FEF737
:108F700007FC0549054A204602B0BDE8104006F04E
:108F800055BC00BFDC230020D5690008C8160020AE
:108F90007047000007B5064B052000935221054A93
:108FA000002304F035FF012004F080FFFEE700BF3E
:108FB000BF6D01085866010807B5064B05200093F0
:108FC0006221054A002304F023FF032004F06EFF12
:108FD000FEE700BFC96D01087166010807B5064BC1
:108FE000052000937221054A002304F011FF04209C
:108FF00004F05CFFFEE700BFD36D01088A6601083C
:1090000007B5064B052000938221054A002304F092
:10901000FFFE052004F04AFFFEE700BFDC6D0108FB
:10902000A266010870477047704708B504F08AFDD2
:10903000BDE80840FDF7F6BE08B5024B0BB1AFF333
:10904000008008BD0000000008B5024B0BB1FFF71F
:109050000BFB08BD6986000808B5024B0BB1FEF793
:1090600013FB08BD8976000808B5024B0BB1FEF76B
:109070000CFB08BD8B76000808B5024B0BB1FEF760
:109080007FFD08BD817B000808B5012005F0EEF8E2
:1090900038B1012005F0F8F8024B13B10020FEF7BB
:1090A00021FB08BDE576000808B5022005F0DEF8D2
:1090B00038B1022005F0E8F8024B13B10120FEF7A9
:1090C00011FB08BDE576000808B5042005F0CEF8D0
:1090D00078B1042005F0D8F80020064B014618802E
:1090E00004F088F9BDE8084003481021012205F08A
:1090F000B0BC08BD6C240020002C014008B508203D
:1091000005F0B4F838B1082005F0BEF8024B13B1F1
:109110000320FEF7E7FA08BDE576000808B5102041
:1091200005F0A4F838B1102005F0AEF8024B13B1E9
:109130000420FEF7D7FA08BDE576000808B5202020
:1091400005F094F838B1202005F09EF80E4B13B1CD
:109150000520FEF7C7FA402005F088F838B1402016
:1091600005F092F8084B13B10620FEF7BBFA8020F9
:1091700005F07CF838B1802005F086F8024B13B179
:109180000720FEF7AFFA08BDE576000808B54FF4F2
:10919000005005F06BF840B14FF4005005F074F842
:1091A000174B13B10D20FEF79DFA4FF4804005F0E8
:1091B0005DF840B14FF4804005F066F8104B13B1F4
:1091C0000E20FEF78FFA4FF4004005F04FF840B143
:1091D0004FF4004005F058F8094B13B10F20FEF78B
:1091E00081FA4FF4006005F041F838B14FF40060A7
:1091F00005F04AF8BDE8084003F018BE08BD00BFFE
:10920000E576000808B51048102105F05BFCC8B1F0
:109210000D48102105F061FC002004F099F930B9E7
:109220000A4B1A8892B20A3292B21A8008BD0648D6
:109230001021002205F00DFCBDE8084000200121AE
:1092400004F0D8B808BD00BF002C01406C240020F9
:1092500008B5012005F02EFA30B1012005F03AFAE8
:10926000BDE8084005F010BA08BD000008B50220AE
:1092700005F020FAB0B10C4B00224FF400301A7008
:1092800005F002F8012005F059F910B1012005F0B0
:109290005FF905F0F9F9022005F01CFABDE8084075
:1092A00005F0F2B908BD00BF9A23002003F032BDDB
:1092B00000F062B838B514490B78012B23D1134A5A
:1092C00013680BB90B7038BD114C402B206881B26C
:1092D00005D94030403B20601360402504E09DB23A
:1092E00003442360002313600A482A460844C0212F
:1092F00006F028F90120294606F02CFABDE838408E
:10930000012006F091B938BDBC160020C41600201B
:10931000C0160020BC15002008B5094B01221A70A8
:10932000084B002203201A8006F044FA064B02463E
:1093300018804FF488710548BDE8084006F01AB956
:10934000701500207415002072150020761500207D
:10935000074B1B68052B09D1064B1A68511C052ABF
:10936000196003D100221A60FDF7CEBE704700BF1E
:1093700090240020E423002070B52B4D2B4C2B684B
:109380002B4E9BB22380228833881340990508D541
:109390004FF6FF532B60A3780133DBB2A370FFF7C6
:1093A000D7FF2288338813401A0401D506F014F839
:1093B0002288338813405B0505D54FF6FF332B60B9
:1093C0001C4B5B689847228833881A40900444BF3E
:1093D0004DF6FF722A6022881340D90405D54EF657
:1093E000FF732B60002004F0D1FC228833881340E7
:1093F0001A050BD5104B1B7813B104F0A7FC02E043
:10940000022004F0C3FC4FF2FF732B6022883388E4
:109410001340DB0507D54FF6FF632B600720BDE83F
:10942000704004F0B3BC70BD445C0040E8230020F1
:10943000802E0020E8010020E4020020034B9B7AEC
:1094400013B1034B05221A60704700BF5C2E002049
:1094500090240020014B04221A60704790240020C1
:10946000034B1A78202A04BF00221A70704700BFED
:10947000EC23002070470000212810B508D1114BC3
:109480001B681B7803F07F03212B10D0022010BD36
:109490002028FBD10B4B0C4A1B681B78107003F083
:1094A0007F03212B094B18BF00230BB9EEE7084BB4
:1094B000044A00241268204693615482984720464B
:1094C00010BD00BF7C2E0020EC2300202195000859
:1094D00009950008074B1B681B7803F07F03212BBD
:1094E00006D100F0DF00022814BF022000207047E0
:1094F000022070477C2E002009B10220704701280D
:10950000FBD808467047000020B9034B08221B68AF
:109510001A827047014870477C2E0020E00100202D
:1095200020B9034B08221B681A8270470148704714
:109530007C2E0020E001002010B5FDF731FE054B28
:1095400000241B689C7204F0E9FB06F049F9024B09
:109550001C6010BD7C2E002090240020334B344A28
:109560001B68D27910B500245A729C72DC722046B6
:1095700006F012F820464FF4007106F015F8204668
:10958000102106F01FF82046402106F0B7F8802190
:10959000204606F0A3F8204606F06CF8254B20463E
:1095A00093F8341006F0E4F8204606F050F8012055
:1095B000214605F0F9FF0120C02106F08FF80120B7
:1095C000202105F0FFFF0120214606F014F80220BB
:1095D0004FF4C06105F0E8FF02204FF4807106F0FF
:1095E0007DF80220214606F006F80220202105F031
:1095F000E9FF0320214605F0D7FF03204FF48871CF
:1096000006F07CF80320402106F0B2F803204FF466
:10961000405105F0F0FF0320214605F0D3FF20461E
:1096200005F06EFE044B01221A6010BD7C2E002056
:1096300018670108E001002090240020014905F08E
:109640005BBC00BF18020020014905F055BC00BFFB
:1096500020020020054B1B68DB78042B04D804494A
:1096600001EBC30105F048BC002070477C2E0020B0
:109670002802002038B504460D46FFF795F820462D
:1096800025614FF41651FFF799F8204638BD70B5A3
:1096900006460D460024284608F054FA844208D2B3
:1096A000295D3046FFF77AF8012003F025FC0134EC
:1096B000F1E770BD2DE9F84304460F4690460D468C
:1096C000C7EB05095FFA89F92046FFF763F8002820
:1096D000FADD2046FFF75CF8C145C6B206D100238B
:1096E0002B7020460C49FFF7D2FF0AE00D2EF6D072
:1096F0000A2EF4D020463146FFF750F805F8016BEA
:10970000DEE72046FFF746F8002803DD2046FFF796
:109710003FF8F6E7BDE8F883936F0108F0B585B030
:109720000446FFF737F8002840F39D802046FFF7F6
:109730002FF8C0B2772868D104F114060021212245
:10974000304604F1350507F0F7FD41220021284697
:1097500007F0F2FD04F17607002384F87630204606
:1097600042497B70FFF793FF204631462022FFF7E6
:10977000A1FF20463E49FFF78AFF012220463946D5
:10978000FFF798FF94F87630A3F13002D2B2032AA3
:10979000EFD8312B0BD120463649FFF778FF204612
:1097A0003549FFF774FF20463449FFF770FF94F8FE
:1097B0007620B2F1300708D020463149FFF767FF25
:1097C000204629464022FFF775FF20462D49FFF726
:1097D0005EFF23693A4630462946984720462A4983
:1097E000FFF755FF20462949FFF751FF204628493A
:1097F000FFF74DFF20462749FFF749FF204626493E
:10980000FFF745FF2046254928E069282BD1244B46
:1098100001AD93E8070085E8070020462149FFF7DE
:1098200036FF0026AF5D20463B0903F130013929A0
:1098300084BF03F15701C9B207F00F07FEF7AEFF6F
:1098400007F13001392984BF5737F9B22046013674
:10985000FEF7A4FF0C2EE5D11349204605B0BDE864
:10986000F040FFF714BF05B0F0BD00BFE76D010881
:10987000EE6D01081B6E0108516E01087C6E010837
:10988000C26E0108CD6E0108106F0108306F01082B
:10989000636F0108966F0108D56F01080670010813
:1098A000E8F7FF1F1C700108936F010813B5084CFF
:1098B000002100910A460B462046FDF761FF05494D
:1098C000054A204602B0BDE8104005F0AFBF00BF1A
:1098D000F0230020D5690008C816002038B50025FF
:1098E0000446016042618361858380F824502830FA
:1098F000FDF738FF2571A5772562204638BD002386
:1099000010B503718383044600684FF481610368D6
:109910001B6A9847012384F8243010BD70B5836911
:10992000ADF5067D0446204A00934FF4007163694B
:1099300006A807F093FF1D491D48FDF79EFF06A9E5
:109940001B48FDF7B7FFFF210A460B46009102A80E
:10995000FDF716FF206804A9036840F206429D6ADD
:10996000144B05260493039B0593A847002506A8DE
:1099700008F0E8F8024685422068036801D0013EFD
:1099800004D11B6B98470DF5067D70BDDB6806A9F9
:109990009847094905460648FDF76FFF29460A2200
:1099A0000348FDF7F9FFE2E72D7001085370010845
:1099B00060230020086501086B700108F0B590F87D
:1099C0002430ADF5257D04460BB9FFF798FFFDF770
:1099D000B3FD236A40F2D372C01A904205D92046E3
:1099E000FFF79CFFFDF7A8FD2062206803685B6B12
:1099F0009847002800F08D80264656F81C0B24ADB1
:109A000003684FF40072DB6B2946984700272F54F8
:109A100041494248FDF731FF41494048FDF72DFFDC
:109A200040493E48FDF729FF3F493C48FDF725FFE7
:109A300029463A48FDF73EFF284604A980223346CE
:109A400000F09CF8054634493448002D4ED0FDF70F
:109A500014FF33493148FDF710FF32492F48FDF715
:109A60000CFF32492D48FDF725FF216802A80B683D
:109A7000251D1B6C9847039B2D49E362C3F30742E6
:109A8000009294F82F2028460192DAB2C3F30723FC
:109A900007F018FF20492148FDF7EFFE20491F4835
:109AA000FDF7EBFE1F491D48FDF7E7FE21491B4866
:109AB000FDF7E3FE29461948FDF7FCFE1649174855
:109AC000FDF7DBFE16491548FDF7D7FE154913488B
:109AD000FDF7D3FE18491148FDF7CFFE0F48A18BC3
:109AE0000A22FDF737FF84F824700EE0FDF7C5FE6B
:109AF0000B490A48FDF7C1FE0A490848FDF7BDFEBB
:109B000006480E49FDF7D6FEA583206803685B6A08
:109B100098470DF5257DF0BD7C700108602300207D
:109B20006D6701087E70010881700108907001085E
:109B3000AC700108B8700108CF700108E870010826
:109B40000079003018BF01207047000013B5084CA1
:109B5000002100910A460B462046FDF711FE0549FB
:109B6000054A204602B0BDE8104005F05FBE00BFC8
:109B7000F8230020D5690008C81600202DE9F0411F
:109B8000884617461E46FCF719FF044610B9002008
:109B9000BDE8F081C568052DF9D10021FCF712FF61
:109BA00020460121FCF70EFF05460028EFD0296969
:109BB00040463A4608F050F820460221FCF702FFE2
:109BC0000028E4D0436901203380BDE8F081F0B57E
:109BD0000446C9B00846FCF7F1FEC3680546052BEC
:109BE00003D0684600F02AFE28E00221FCF7EAFED6
:109BF000032107462846FCF7E5FEC3680646002B0E
:109C000014DB012B0CDD032B10D139697269684616
:109C100000F054FED6E9062344A9C1E900230AE076
:109C200068463969726900F049FE04E0684639699E
:109C3000326900F015FE2846FCF76CFE20466946A6
:109C400000F066FE204649B0F0BD00220160C0F879
:109C5000042170472DE9F041064688461746042541
:109C60000024BC4216D0013D14D0306808EB04013A
:109C700003683A1B9B6A9847002809DA3068036832
:109C80001B6998470028ECDC0520FDF767FCE8E736
:109C90000444E6E7BDE8F08107B506226946FFF710
:109CA000D9FF002368468DF8063006F0BBFE03B0EE
:109CB0005DF804FB2DE9F043054685B0481C0E46CF
:109CC00006F0DEFF0446002841D02F1D2146D5F8BE
:109CD00004213846FBF7B6FE0021FF22384607F084
:109CE0002BFBD5F804212846A1184FF00009B21A21
:109CF000FFF7B0FF214604F806906846FDF7B4FF71
:109D00005D216846FDF7DAFF8046204607F01AFF1E
:109D1000C84501DA002417E0461EC8EB0606002EEF
:109D200009DD08F10100204439463246FBF78AFE7E
:109D3000C5F8046101E0C5F8049123785B2BE9D1F3
:109D400005482146FDF7B6FD6846FDF74BFF204666
:109D500005B0BDE8F08300BF6023002010B50446C5
:109D6000FFF79AFF01462046BDE81040FFF7A2BF6B
:109D700013B5084C002100910A460B462046FDF71A
:109D8000FFFC0549054A204602B0BDE8104005F039
:109D90004DBD00BF00240020D5690008C816002072
:109DA0000022C0F80023704738B505460024D5F8D6
:109DB00000339C4207DA05EBC403D3F8000106F038
:109DC00067FF0134F3E7284638BD2DE9F041D0F8AC
:109DD000005304466B1CC0F80033084690460F46FB
:109DE00007F0B0FE013006F04BFF04EBC506C6F8E5
:109DF0000001394607F02CFED6F80031C6F8048180
:109E000044F82530BDE8F081F8B507460E46044613
:109E10000025D7F800339D420CDA3046D4F8001103
:109E2000FBF786FE18B9D4F804313046984701355F
:109E30000834EEE7F8BDD0F8000370477047000023
:109E400013B5084C002100910A460B462046FDF749
:109E500097FC0549054A204602B0BDE8104005F0D0
:109E6000E5BC00BF08240020D5690008C816002002
:109E700013B5084C002100910A460B462046FDF719
:109E80007FFC0549054A204602B0BDE8104005F0B8
:109E9000CDBC00BF10240020D5690008C8160020E2
:109EA00038B50446154600F009FC6560204638BD0B
:109EB00070B5044640680D460268126B9047B0B119
:109EC000284600F0A5FC054629466068FDF7D5FC4C
:109ED000064660680268D2699047284607F032FE5D
:109EE000331A5C4228465C4106F0D2FE00E004468C
:109EF000204670BD2DE9F341184C05460E4620461C
:109F0000174917469846FDF7B8FC20461549FDF756
:109F1000B4FC20461449FDF7B0FC20461349FDF778
:109F2000ACFC314620460A22FDF714FD08993A465A
:109F300000910999434601912846314600F0C4FB3F
:109F4000044621462846FFF7B3FF0546204606F0A3
:109F50009FFE284602B0BDE8F08100BF60230020CC
:109F60007C7001088E6701087E7001081C71010871
:109F700038B5054600F01CFC044621462846FFF78C
:109F800097FF0546204606F083FE284638BD0000B0
:109F90002DE9F347204CDFF89080204F81468A4618
:109FA0001F4E414620460192FDF767FC3946204688
:109FB000FDF763FC02AD31462046FDF75EFC55F827
:109FC000041D20460A22FDF7C5FC2A465046002102
:109FD00000F01CFB414605462046FDF74EFC394685
:109FE0002046FDF74AFC31462046FDF746FC204658
:109FF0000C49FDF742FC29462046FDF75BFC29464B
:10A000004846FFF755FF0446284606F041FE204625
:10A0100002B0BDE8F08700BF602300201668010889
:10A020007E700108597101087C70010813B5084C55
:10A03000002100910A460B462046FDF7A1FB054989
:10A04000054A204602B0BDE8104005F0EFBB00BF56
:10A0500018240020D5690008C816002013B5084C44
:10A06000002100910A460B462046FDF789FB054971
:10A07000054A204602B0BDE8104005F0D7BB00BF3E
:10A0800020240020D5690008C81600202DE9F041E1
:10A0900004460D4604F50C7742F2CD610830904637
:10A0A00004F58966FEF73EF83846FDF765FF304651
:10A0B000FEF754FA04F5D060FFF772FE294604F665
:10A0C000841000F0FBFA29463A4604F68810FFF7A0
:10A0D000E7FE31462A46434604F51960FFF7FEFBCA
:10A0E000FDF72AFA60602046BDE8F08173B5154C93
:10A0F000064615492046FDF7C0FB20461349FDF7EB
:10A10000BCFB134D20461349FDF7B7FB204612490F
:10A11000FDF7B3FB68462946FDF752FB694620462A
:10A12000FDF7D2FB0D492046FDF7A7FB2846FDF7BA
:10A1300057FB01462046FDF7BDFB0023337002B0FC
:10A1400070BD00BF602300207C70010828690108F1
:10A15000382200207E700108DC710108F2710108CC
:10A1600000F5D060FFF731BE10B5044600F50C7065
:10A17000FDF747FF207010BDF0B5057885B00446A7
:10A18000002D6DD100F519663046FFF717FC3046FB
:10A19000FFF7D6FC002863D032493348FDF76DFB4A
:10A1A00032493148FDF769FB31492F48FDF765FB1E
:10A1B00030492D48FDF77EFB2A492B48FDF75DFB12
:10A1C0002A492948FDF759FB29492748FDF755FB3E
:10A1D00029492548FDF751FB284ED4F8603402A9DF
:10A1E000214803930296FDF751FB25491E48FDF7D0
:10A1F00044FB41F635610A221B48FDF7ABFBD4F85E
:10A20000603404F50C7002A941F63562029603939E
:10A21000FDF770FE20B313491348FDF72EFB1349D9
:10A220001148FDF72AFB12490F48FDF726FB154997
:10A230000D48FDF73FFB04F5D0660123237030463F
:10A24000FFF7FCFD07463046FFF7F5FD0095034696
:10A25000019504F6881042F2CD613A46FFF74AFEB6
:10A2600005B0F0BD7C700108602300204069010842
:10A270007E70010804720108117201080865010866
:10A28000CC7501082C7201082DE9F041154C164FD0
:10A29000164E8046164DFFF729FF39462046FDF73A
:10A2A000ECFA31462046FDF7E8FA29462046FDF74C
:10A2B000E4FA20460F49FDF7FDFA39462046FDF73E
:10A2C000DCFA31462046FDF7D8FA29462046FDF74C
:10A2D000D4FA20460849FDF7EDFA4046BDE8F041C2
:10A2E000FFF74ABF602300207C70010867690108FE
:10A2F0007E700108437201085B72010838B50C4C8E
:10A3000005460C492046FDF7B8FA20460A49FDF7F4
:10A31000B4FA20460949FDF7B0FA20460849FDF78E
:10A32000C9FA05F50C70BDE83840FDF7A4BD00BFC3
:10A33000602300207C7001087B6901087E700108A1
:10A340007072010838B50478054644B100F68810EB
:10A35000FFF71EFE044610B92846FFF7CFFF204640
:10A3600038BD000030B50378ADF2444D05466BB3FF
:10A370008AA805F10801FDF701FF8AA8FDF768FE2C
:10A3800020B38AA96846FFF760FC6846FFF7E6FC41
:10A3900004468AA8FDF76FFDA4B142A82146FFF745
:10A3A00016FC42A905F5D060FFF72EFD204607F008
:10A3B000C9FB00210246204606F0BEFF204606F0FB
:10A3C00067FC03E003480449FDF774FA0DF2444DBD
:10A3D00030BD00BF60230020B372010838B5037898
:10A3E00004467BB3FDF7A8F8636843F66622C01AFB
:10A3F000904227D9FDF7A0F8606004F68810FFF7B7
:10A40000B7FD114905461148FDF737FAFDF794F8F5
:10A410000A2201460D48FDF7B1FA0D490B48FDF738
:10A420002CFA0A4829460A22FDF794FA55B907483A
:10A430000849FDF73FFA257004F50C70BDE8384077
:10A44000FDF719BD38BD00BFD4720108602300209C
:10A45000E0720108E772010810B50446FFF784FEB8
:10A460002046FFF789FE2046FFF77CFF2046BDE827
:10A470001040FFF7B3BF000013B5084C0021009156
:10A480000A460B462046FDF77BF90549054A20465A
:10A4900002B0BDE8104005F0C9B900BF2824002073
:10A4A000D5690008C8160020F0B585B061B36AB35D
:10A4B00000240A26B0FBF6F506FB1500013404AFB4
:10A4C0003030274407F80D0C28460DB1B442F0D1C6
:10A4D000A34286BFC4EB0303DBB20023013A302062
:10A4E0000025954201EB050612D01CB983B1013B52
:10A4F000DBB206E0002BFAD1013C04A8204410F89E
:10A500000C0C48550135ECE7084604E0104602E023
:10A5100000233370284605B0F0BD00002DE9F84F48
:10A52000DDF828900446B9F101070D4690461E4615
:10A5300063D000220023FBF715FA30B105F100418A
:10A540002D230D463370A9F102072E4BB8F1060FEB
:10A5500028BF4FF006084FF0000A4FF00109002213
:10A560005FFA8AF141450DD2104619460022264B6A
:10A57000FBF7B0F80B460A21024601FB09F90AF184
:10A58000010AEDE7002F38D020462946FAF7C6FD2C
:10A590000D460446FBF736FA31463A460023834619
:10A5A000FFF782FF06443F1AB8F1000F25D027B30A
:10A5B0002E23013F06F1010A33701DD05846FAF7E9
:10A5C000E9FE02460B4620462946FAF7A5FD044659
:10A5D00048460D46FAF7DEFE02460B46204629465F
:10A5E000FAF74EFFFBF70EFA51463A464346FFF79D
:10A5F0005BFF0AEB000600E0564600233370BDE81F
:10A60000F88F00BF0000E03F00002440F0B5ADF53A
:10A61000037D0F4604460021154602A84FF48072C0
:10A6200042AE06F089FE304600214FF4807206F0FB
:10A6300083FE062F31D8DFE807F00406132024300C
:10A6400004002B6821E02868FAF7C6FECDE9000176
:10A65000154B02A81A681549234607F033F91CE088
:10A660004FF48073D5E90001009306223346FFF7CB
:10A6700055FF009602A80E490AE0009502A80D4970
:10A6800006E02B68003318BF01230B49009302A892
:10A69000054B1A68234607F015F902A807F036FAA9
:10A6A0000DF5037DF0BD00BF3024002025730108A7
:10A6B0003F730108597301080B730108014B0160D6
:10A6C0001960704730240020F0B5ADF2044D0C46FF
:10A6D000164600214FF4806268461F46DDF81C5480
:10A6E00006F02AFE2A4B2B491A686846234607F0D3
:10A6F000E9F86846284907F00BF90024BC4268468F
:10A7000013DA264907F004F956F82410684607F0D2
:10A71000FFF8234B214A791E8C42ACBF11461946E3
:10A72000684607F0F5F80134E8E71E4907F0F0F84D
:10A730006846194907F0ECF80024AC42684615DA7F
:10A74000164907F0E5F8DDF81834684653F8241088
:10A7500007F0DEF8124B114A691E8C42ACBF11465D
:10A760001946684607F0D4F80134E6E70D4907F0CA
:10A77000CFF868460C4907F0CBF80C49684607F05B
:10A78000C7F8684607F0C2F90DF2044DF0BD00BFEE
:10A7900030240020967301087C700108787301084A
:10A7A000B8730108AE730108B2730108BC730108E5
:10A7B00000B5C1B0684600214FF4807206F0BCFDC0
:10A7C000054B06491A68684607F07CF8684607F0AA
:10A7D0009DF941B05DF804FB30240020C3730108EB
:10A7E00013B5084C002100910A460B462046FCF7A1
:10A7F000C7FF0549054A204602B0BDE8104005F0F4
:10A8000015B800BF34240020D5690008C816002000
:10A8100038B5054607F096F9073006F031FA0446D8
:10A82000284607F08FF9044902462B46204607F0D8
:10A8300049F8204638BD00BFD773010830B5002263
:10A84000002400F588750023047080F88840C0F863
:10A850000841C0F80C41C5E9002380F8184130BD1B
:10A8600038B504461546802207F0F6F9294604F16A
:10A870008800802207F0F0F900234FF0FF32C4F87F
:10A880008030C4F81C31C4F88420284606F0CAF889
:10A89000C4F80801284606F0C5F8C4F80C0128469B
:10A8A00006F0BCF8003504F5887318BF0125C3E92C
:10A8B000000184F81851204638BD000070B50446E8
:10A8C0001546802207F0C8F92B4604F18800802144
:10A8D0000E4A06F0C3FF00234FF0FF32C4F80851C0
:10A8E000C4F80C51C4F88030C4F88420C4F81C317A
:10A8F0002846FAF75FFD003504F5887618BF012574
:10A90000C6E9000184F81851204670BDC3740108DF
:10A9100038B5802204460D4607F09EF905F18801FE
:10A9200004F18800802207F097F9D5F8803004F50B
:10A930008871C4F88030D5F884302046C4F884305B
:10A94000D5F81C31C4F81C31D5F80831C4F80831E9
:10A95000D5F80C31C4F80C3105F58873D3E9002320
:10A96000C1E9002395F8183184F8183138BD00008A
:10A9700013B5084C002100910A460B462046FCF70F
:10A98000FFFE0549054A204602B0BDE8104004F02C
:10A990004DBF00BF3C240020D5690008C816002028
:10A9A00013B5084C002100910A460B462046FCF7DF
:10A9B000E7FE0549054A204602B0BDE8104004F014
:10A9C00035BF00BF44240020D5690008C816002008
:10A9D000002100F004B80D4B5B58435004310C4883
:10A9E0000C4B42189A42FFF4F6AF0B4A00F003B842
:10A9F000002342F8043B094B9A42FFF4F9AF03F0FD
:10AA000013F9FCF7F1FBFCF79DF97047987A010800
:10AA100000000020640B0020640B00208C2E00201E
:10AA2000FFF7FEBF0B0A017043700B0C090E837019
:10AA3000C170043070470170090A417002307047DC
:10AA400043185A78435C03EB022080B2704710B57C
:10AA500043189A78DC78415C120402EB046258785F
:10AA60000A4402EB002010BD73B544790023022C88
:10AA700001930FD0032C19D0012C2BD1164D2B692B
:10AA80002E4623B12B6901A898470246B8B9B16890
:10AA900001201BE0104DEB682E4623B1EB6801A8A6
:10AAA0009847024658B9B16802200FE00A4D6B6919
:10AAB0002E464BB16B6901A89847024620B1A968A0
:10AAC0002046BDF8043003E0B1680320002213469D
:10AAD00000F07EFC02B070BDC4250020072810B530
