:020000040800F2
:1050000000500020C9A10008D58A0008D78A0008EE
:10501000D98A0008DB8A0008DD8A00080000000049
:10502000000000000000000000000000DF8A00080F
:10503000E18A000800000000E38A0008E58A000811
:1050400019A2000819A2000819A20008018D000881
:1050500019A2000819A20008398B0008598B000812
:10506000798B0008AD8B0008CD8B000819A20008D1
:1050700019A2000819A2000819A200085D8D0008F5
:1050800019A2000819A20008E98A000819A200085C
:10509000618D000819A2000819A20008ED8B000814
:1050A00019A2000819A2000819A20008B58C00086E
:1050B00019A2000819A2000819A20008098B00080B
:1050C000198B000819A2000819A20008298B0008F2
:1050D00019A2000819A20008F98A000819A20008FC
:1050E0003D8C00081D8D000819A20008000000007A
:1050F00000000000000000000000000000000000B0
:0C51000000000000000000005FF808F153
:1051100081F0004102E000BF83F0004330B54FEA68
:1051200041044FEA430594EA050F08BF90EA020FD5
:105130001FBF54EA000C55EA020C7FEA645C7FEA68
:10514000655C00F0E2804FEA5454D4EB5555B8BF8B
:105150006D420CDD2C4480EA020281EA030382EAFC
:10516000000083EA010180EA020281EA0303362D8E
:1051700088BF30BD11F0004F4FEA01314FF4801C61
:105180004CEA113102D0404261EB410113F0004F73
:105190004FEA03334CEA133302D0524263EB43032A
:1051A00094EA050F00F0A780A4F10104D5F1200EC8
:1051B0000DDB02FA0EFC22FA05F2801841F1000123
:1051C00003FA0EF2801843FA05F359410EE0A5F1F7
:1051D00020050EF1200E012A03FA0EFC28BF4CF028
:1051E000020C43FA05F3C01851EBE37101F00045DE
:1051F00007D54FF0000EDCF1000C7EEB00006EEBEB
:105200000101B1F5801F1BD3B1F5001F0CD3490874
:105210005FEA30004FEA3C0C04F101044FEA4452CB
:1052200012F5800F80F09A80BCF1004F08BF5FEA52
:10523000500C50F1000041EB045141EA050130BD32
:105240005FEA4C0C404141EB010111F4801FA4F1D5
:105250000104E9D191F0000F04BF01460020B1FA2A
:1052600081F308BF2033A3F10B03B3F120020CDA62
:105270000C3208DD02F1140CC2F10C0201FA0CF040
:1052800021FA02F10CE002F11402D8BFC2F1200CA5
:1052900001FA02F120FA0CFCDCBF41EA0C0190405B
:1052A000E41AA2BF01EB0451294330BD6FEA0404A4
:1052B0001F3C1CDA0C340EDC04F11404C4F120028F
:1052C00020FA04F001FA02F340EA030021FA04F3A1
:1052D00045EA030130BDC4F10C04C4F1200220FAF8
:1052E00002F001FA04F340EA0300294630BD21FA36
:1052F00004F0294630BD94F0000F83F4801306BFFC
:1053000081F480110134013D4EE77FEA645C18BFEF
:105310007FEA655C29D094EA050F08BF90EA020F86
:1053200005D054EA000C04BF1946104630BD91EA7E
:10533000030F1EBF0021002030BD5FEA545C05D181
:105340004000494128BF41F0004130BD14F58004C0
:105350003CBF01F5801130BD01F0004545F0FE4134
:1053600041F470014FF0000030BD7FEA645C1ABF69
:10537000194610467FEA655C1CBF0B46024650EAA0
:10538000013406BF52EA033591EA030F41F40021CC
:1053900030BD00BF90F0000F04BF0021704730B552
:1053A0004FF4806404F132044FF000054FF0000127
:1053B00050E700BF90F0000F04BF0021704730B5E8
:1053C0004FF4806404F1320410F0004548BF4042BD
:1053D0004FF000013EE700BF42004FEAE2014FEA12
:1053E00031014FEA02701FBF12F07F4393F07F4FED
:1053F00081F06051704792F0000F14BF93F07F4F1F
:10540000704730B54FF4607401F0004521F0004161
:1054100020E700BF50EA010208BF704730B54FF0E7
:1054200000050AE050EA010208BF704730B511F0EC
:10543000004502D5404261EB41014FF4806404F124
:1054400032045FEA915C3FF4DCAE4FF003025FEAA6
:10545000DC0C18BF03325FEADC0C18BF033202EB2E
:10546000DC02C2F1200300FA03FC20FA02F001FA88
:1054700003FE40EA0E0021FA02F11444C1E600BF27
:1054800070B54FF0FF0C4CF4E06C1CEA11541DBFDA
:105490001CEA135594EA0C0F95EA0C0F00F0DEF8A5
:1054A0002C4481EA030621EA4C5123EA4C5350EA8A
:1054B000013518BF52EA033541F4801143F48013DB
:1054C00038D0A0FB02CE4FF00005E1FB02E506F06C
:1054D0000042E0FB03E54FF00006E1FB03569CF0C1
:1054E000000F18BF4EF0010EA4F1FF04B6F5007FC7
:1054F00064F5407404D25FEA4E0E6D4146EB060639
:1055000042EAC62141EA55514FEAC52040EA5E50C1
:105510004FEACE2EB4F1FD0C88BFBCF5E06F1ED86B
:10552000BEF1004F08BF5FEA500E50F1000041EBA2
:10553000045170BD06F0004646EA010140EA02004F
:1055400081EA0301B4EB5C04C2BFD4EB0C0541EA71
:10555000045170BD41F480114FF0000E013C00F386
:10556000AB8014F1360FDEBF002001F0004170BDAA
:10557000C4F10004203C35DA0C341BDC04F11404C3
:10558000C4F1200500FA05F320FA04F001FA05F24F
:1055900040EA020001F0004221F0004110EBD3701C
:1055A00021FA04F642EB06015EEA430E08BF20EA48
:1055B000D37070BDC4F10C04C4F1200500FA04F3EB
:1055C00020FA05F001FA04F240EA020001F000417D
:1055D00010EBD37041F100015EEA430E08BF20EAF0
:1055E000D37070BDC4F1200500FA05F24EEA020E38
:1055F00020FA04F301FA05F243EA020321FA04F067
:1056000001F0004121FA04F220EA020000EBD3701D
:105610005EEA430E08BF20EAD37070BD94F0000F1D
:105620000FD101F00046400041EB010111F4801F51
:1056300008BF013CF7D041EA060195F0000F18BF02
:10564000704703F00046520043EB030313F4801F3E
:1056500008BF013DF7D043EA0603704794EA0C0FF8
:105660000CEA135518BF95EA0C0F0CD050EA41060E
:1056700018BF52EA4306D1D181EA030101F000418B
:105680004FF0000070BD50EA410606BF10461946B3
:1056900052EA430619D094EA0C0F02D150EA0136BF
:1056A00013D195EA0C0F05D152EA03361CBF104600
:1056B00019460AD181EA030101F0004141F0FE419F
:1056C00041F470014FF0000070BD41F0FE4141F423
:1056D000780170BD70B54FF0FF0C4CF4E06C1CEA23
:1056E00011541DBF1CEA135594EA0C0F95EA0C0FD8
:1056F00000F0A7F8A4EB050481EA030E52EA033593
:105700004FEA013100F088804FEA03334FF08055B3
:1057100045EA131343EA12634FEA022245EA1115E0
:1057200045EA10654FEA00260EF000419D4208BF91
:10573000964244F1FD0404F5407402D25B084FEA3E
:105740003202B61A65EB03055B084FEA32024FF4EA
:1057500080104FF4002CB6EB020E75EB030E22BF47
:10576000B61A754640EA0C005B084FEA3202B6EB07
:10577000020E75EB030E22BFB61A754640EA5C00B6
:105780005B084FEA3202B6EB020E75EB030E22BF46
:10579000B61A754640EA9C005B084FEA3202B6EB47
:1057A000020E75EB030E22BFB61A754640EADC0006
:1057B00055EA060E18D04FEA051545EA16754FEA68
:1057C00006164FEAC30343EA52734FEAC2025FEA86
:1057D0001C1CC0D111F4801F0BD141EA00014FF015
:1057E00000004FF0004CB6E711F4801F04BF0143E6
:1057F0000020B4F1FD0C88BFBCF5E06F3FF6AFAE02
:10580000B5EB030C04BFB6EB020C5FEA500C50F191
:10581000000041EB045170BD0EF0004E4EEA113114
:1058200014EB5C04C2BFD4EB0C0541EA045170BD1B
:1058300041F480114FF0000E013C90E645EA060E5F
:105840008DE60CEA135594EA0C0F08BF95EA0C0F8D
:105850003FF43BAF94EA0C0F0AD150EA01347FF4D5
:1058600034AF95EA0C0F7FF425AF104619462CE7AC
:1058700095EA0C0F06D152EA03353FF4FDAE10460F
:10588000194622E750EA410618BF52EA43067FF460
:10589000C5AE50EA41047FF40DAF52EA43057FF4F0
:1058A000EBAE12E74FF0FF3C06E000BF4FF0010CFB
:1058B00002E000BF4FF0010C4DF804CD4FEA410C5F
:1058C0007FEA6C5C4FEA430C18BF7FEA6C5C1BD02C
:1058D00001B050EA410C0CBF52EA430C91EA030FAD
:1058E00002BF90EA020F0020704710F1000F91EA0A
:1058F000030F58BF994208BF90422CBFD8176FEAD8
:10590000E37040F0010070474FEA410C7FEA6C5CA5
:1059100002D150EA013C07D14FEA430C7FEA6C5CAC
:10592000D6D152EA033CD3D05DF8040B704700BFD8
:105930008446104662468C461946634600E000BF26
:1059400001B5FFF7B7FF002848BF10F1000F01BDF8
:105950004DF808EDFFF7F4FF0CBF012000205DF8C3
:1059600008FB00BF4DF808EDFFF7EAFF34BF012048
:1059700000205DF808FB00BF4DF808EDFFF7E0FFE1
:1059800094BF012000205DF808FB00BF4DF808ED32
:10599000FFF7CEFF94BF012000205DF808FB00BF99
:1059A0004DF808EDFFF7C4FF34BF012000205DF87B
:1059B00008FB00BF4FEA410212F5001215D211D5C3
:1059C0006FF47873B3EB625212D94FEAC12343F0FC
:1059D000004343EA505311F0004F23FA02F018BF7E
:1059E000404270474FF00000704750EA013005D147
:1059F00011F0004008BF6FF0004070474FF000000A
:105A0000704700BF4A0011D212F5001211D20DD515
:105A10006FF47873B3EB62520ED44FEAC12343F0B4
:105A2000004343EA505323FA02F070474FF000005E
:105A3000704750EA013002D14FF0FF3070474FF00D
:105A400000007047844641EA000313F0030349D184
:105A5000403A23D30B6803604B6843608B688360D4
:105A6000CB68C3600B6903614B6943618B698361D8
:105A7000CB69C3610B6A03624B6A43628B6A8362C0
:105A8000CB6AC3620B6B03634B6B43638B6B8363A8
:105A9000CB6BC36340304031403ADBD230320BD362
:105AA0000B6803604B6843608B688360CB68C3609E
:105AB00010301031103AF3D20C3205D351F8043BB8
:105AC00040F8043B043AF9D2043208D0D2071CBF94
:105AD00011F8013B00F8013B01D30B8803806046BD
:105AE000704700BF082A13D38B07B1D010F003030F
:105AF000AED0C3F10403D21ADB071CBF11F8013B7F
:105B000000F8013BA4D331F8023B20F8023B9FE7A9
:105B1000043AD9D3013A11F8013B00F8013BF9D21C
:105B20000B7803704B7843708B78837060467047B6
:105B300040EA010C1CF0070F27D1BDF1100DCDE993
:105B40000245CDE900676FF000064FF0000700BF87
:105B5000F0E80223F1E80245A242A2F1013C2CEA5E
:105B6000020C0CF0803C08BFBCF1000F40F0E58057
:105B7000AB42A3F1013C2CEA030C0CF0803C08BFC3
:105B8000BCF1000F40F0D680E2E710F0030C21D00A
:105B900020F0030050F8042B5FEACC7C08D00FD231
:105BA00011F801CB5FFA92F3B3EB0C0C10D17BB17F
:105BB00011F801CB5FFAA2F3B3EB0C0C08D13BB1A7
:105BC00011F801CB5FFAB2F3B3EB0C0C00D10BB9B7
:105BD00060467047BDF1100DCDE90245CDE9006783
:105BE0006FF000064FF0000711F0030C33D110F0F6
:105BF000040F0FD050F8042B51F8044BA242A2F12D
:105C0000013C2CEA020C0CF0803C08BFBCF1000FF8
:105C100040F0938011F0040F99D051F8045B00BF5D
:105C2000F0E80223AA42A2F1013C2CEA020C0CF09B
:105C3000803C08BFBCF1000F79D1F1E80245A342D6
:105C4000A3F1013C2CEA030C0CF0803C08BFBCF132
:105C5000000F69D1E4E721F00301BCF1020F20D06D
:105C60003FDA51F8045B00BF50F8043B4FEA1525BA
:105C7000A3F1013C2CEA030C0CF0803CB7EB0C2F99
:105C800003EA162208BFAA4251D151F8045BBCF1C5
:105C9000000F82EA03034FEA056208BF934240D136
:105CA000E2E751F8045B00BF50F8043B4FEA1545AA
:105CB000A3F1013C2CEA030C0CF0803CB7EB0C4F39
:105CC00003EA164208BFAA4231D151F8045BBCF185
:105CD000000F82EA03034FEA054208BF934220D136
:105CE000E2E751F8045B00BF50F8043B4FEA15654A
:105CF000A3F1013C2CEA030C0CF0803CB7EB0C6FD9
:105D000003EA166208BFAA4211D151F8045BBCF144
:105D1000000F82EA03034FEA052208BF934200D135
:105D2000E2E719BA12BA0AE019BA22BA07E011BAC0
:105D30002ABA04E019BA2ABA01E011BA22BA9CFAC6
:105D40008CF0DDE90067DDE902451DF1100D38B189
:105D5000B0FA80F0C0F1180021FA00F122FA00F246
:105D60000120914298BF8041704700BF4BB942B9B2
:105D7000002908BF002802D04FF0FF31084600F08C
:105D80003BB882B0EC462DE9005000F01DF8DDF87C
:105D900004E002B00CBC70472DE9704F089E144619
:105DA0001D468046894600F029F804FB01F3A4FB58
:105DB00000AB00FB05329344B8EB0A0869EB0B0912
:105DC000C6E90089BDE8708F2DE9704F089E144622
:105DD0001D468046894600F061F900FB05F5A0FBF1
:105DE00004AB04FB0154A344B8EB0A0869EB0B09AC
:105DF000C6E90089BDE8708F704700BF00292DE912
:105E0000F00FC0F2A1800024002BC0F2988015464C
:105E100006460F46002B3FD18A4258D9B2FA82F388
:105E20004BB1C3F1200201FA03F720FA02F29D40C0
:105E300000FA03F61743290CB7FBF1F201FB1277C6
:105E4000A8B200FB02F34FEA164C4CEA0747BB42EC
:105E500009D97F1902F1FF3C80F00581BB4240F275
:105E60000281023A2F44FF1AB7FBF1F301FB1371D1
:105E700000FB03F0B6B246EA0141884208D949194D
:105E800003F1FF3780F0F180884240F2EE80023B60
:105E900043EA0242002303E08B420AD900231A4658
:105EA0001046194614B1404261EB4101BDE8F00FC4
:105EB0007047B3FA83F8B8F1000F40F088808B4246
:105EC00002D3824200F2E28000230122E8E712B905
:105ED0000123B3FBF2F5B5FA85F2002A3AD17F1B14
:105EE000280C1FFA85FC0123B7FBF0F100FB1177AA
:105EF0000CFB01F24FEA164848EA0747BA4207D9B5
:105F00007F1901F1FF3802D2BA4200F2C480414643
:105F1000BF1AB7FBF0F200FB12700CFB02FCB6B22A
:105F200046EA0040844507D9401902F1FF3702D202
:105F3000844500F2AE803A4642EA0142B0E7E443CB
:105F4000524263EB430362E7404261EB41014FF091
:105F5000FF3459E79540C2F1200927FA09F126FAE2
:105F600009F99740280CB1FBF0F800FB18111FFA53
:105F700085FC0CFB08F349EA07094FEA194747EA91
:105F800001418B4206FA02F608D9491908F1FF329D
:105F90007AD28B4278D9A8F102082944C91AB1FBF8
:105FA000F0F300FB13170CFB03F21FFA89F949EA1F
:105FB0000747BA4207D97F1903F1FF3160D2BA42CD
:105FC0005ED9023B2F44BF1A43EA08438CE7C8F16D
:105FD000200225FA02F103FA08FC27FA02F320FA5C
:105FE00002F207FA08F741EA0C0C4FEA1C49B3FB2E
:105FF000F9F109FB11331FFA8CFA0AFB01FB174375
:106000003A0C42EA03439B4505FA08F008D913EB22
:106010000C0301F1FF3235D29B4533D90239634479
:10602000CBEB0303B3FBF9F209FB12330AFB02FAD1
:10603000BFB247EA0347BA4508D917EB0C0702F18C
:10604000FF331BD2BA4519D9023A674442EA0145E7
:10605000A5FB0001CAEB07078F424FF000030AD3EC
:1060600005D02A461CE76246FDE63B4610E706FAE5
:1060700008F68642F5D26A1E002311E71A46E5E7C4
:106080000B46A0E71146CBE7904687E743464246DA
:1060900006E7023A50E702392F4439E72DE9F00FBD
:1060A000144605460E46002B43D18A4253D9B2FA14
:1060B00082F757B1C7F1200620FA06F601FA07F376
:1060C00002FA07F400FA07F51E43210CB6FBF1F2C1
:1060D00001FB1266A0B200FB02F32F0C47EA064652
:1060E000B34209D9361902F1FF3780F0FD80B3427F
:1060F00040F2FA80023A2644F61AB6FBF1F301FBAD
:10610000136100FB03F0ADB245EA0141884208D9B2
:10611000091903F1FF3680F0E980884240F2E680F9
:10612000023B43EA0242002310461946BDE8F00F45
:1061300070478B424CD8B3FA83F6002E4FD18B4276
:1061400002D3824200F2DD80BDE8F00F002301227D
:1061500010461946704712B90124B4FBF2F4B4FAA0
:1061600084F2002A40F08280091B260CA7B201238A
:10617000B1FBF6F006FB101107FB00F24FEA154CDD
:106180004CEA01418A4207D9091900F1FF3C02D2C9
:106190008A4200F2C8806046891AB1FBF6F206FB1B
:1061A000121107FB02F7ADB245EA0145AF4208D92B
:1061B0002C1902F1FF3180F09B80A74240F29880B9
:1061C000023A42EA004210461946BDE8F00F704715
:1061D00000231A4610461946BDE8F00F7047C6F175
:1061E000200522FA05F703FA06F421FA05F301FA6D
:1061F00006FB20FA05F53C434FEA1448B3FBF8FCD4
:1062000008FB1C331FFA84F909FB0CFA45EA0B0B57
:106210004FEA1B4545EA03439A4502FA06F204D9C0
:106220001B190CF1FF356FD3AC46CAEB0303B3FB6C
:10623000F8F508FB153309FB05F91FFA8BFB4BEA50
:106240000347B94504D93F1905F1FF3362D31D4611
:1062500045EA0C4CACFB0223C9EB07079F424FF009
:1062600000054AD346D062462B465DE79440C2F112
:10627000200921FA09FC914020FA09F9260CBCFBFF
:10628000F6F806FB18CCA7B207FB08F349EA0109A8
:106290004FEA194141EA0C4C634500FA02F509D96D
:1062A0001CEB040C08F1FF323BD2634539D9A8F14D
:1062B0000208A444C3EB0C0CBCFBF6F306FB13C1B1
:1062C00007FB03F21FFA89F949EA01418A4207D91B
:1062D000091903F1FF3022D28A4220D9023B21441E
:1062E000891A43EA084343E73A4605E7334618E785
:1062F0000A4666E7B0409042B5D20CF1FF32002367
:1063000012E7334632460FE79A458DD9ACF1020CBD
:1063100023448AE7B9459AD9023D274498E70346C2
:10632000DEE79046C6E70238214435E710B503782A
:10633000A3F13002D1B2092901D813460CE0A3F130
:106340004102D2B2052A01D8373B05E0A3F1610230
:10635000D2B2052A46D8573B42781B01A2F1300140
:10636000CCB2092C01D8CA180DE0A2F14101C9B282
:10637000052901D8373A05E0A2F16101C9B2052922
:1063800030D8573A1A4483781201A3F13001CCB2C5
:10639000092C01D80A440DE0A3F14101C9B2052935
:1063A00001D8373B05E0A3F16101C9B2052919D82D
:1063B000573B1A44C3781201A3F13000C1B2092936
:1063C0000ED9A3F14101C9B2052902D8A3F13700C2
:1063D00006E0A3F16101C9B2052903D8A3F1570072
:1063E000104410BD002010BD2DE9F0410B78074688
:1063F000222B01F1010602D13346002008E05B4B5D
:1064000019600020BDE8F0814AB15C2A05D1023351
:106410001A780130222AF7D101E00133F8E7544B12
:106420001B68984780460028EBD004463378222B1F
:1064300007D1002323703378222B40F08F80013660
:106440008CE0002BF5D05C2B06F1010103D023700A
:106450000E460134EAE773786E2B14D007D8622B0E
:1064600004F101020BD0662B74D10C2308E0742BCD
:106470000BD0752B0BD0722B6CD10D236AE0082347
:106480002370144668E00A2364E0092362E0B01C2C
:10649000FFF74CFFA0F55C43B3F5806F054606F1AE
:1064A000050159D3002857D0A0F55843B3F5806FA4
:1064B00019D2B3795C2B4FD1F379752B4CD106F1FE
:1064C0000800FFF733FFA0F55C43B3F5806F06F1DA
:1064D0000B0141D2C0F30900C5F3090540EA852547
:1064E00005F5803504E07F2808D9B0F5006F07D3A3
:1064F000B5F5803F34BF0322042202E0012200E010
:106500000222032A04EB02030CD0042A02D0022A3E
:1065100018D10FE005F03F0060F07F0003F8010C98
:10652000AD09E31C05F03F0060F07F0003F8010CAB
:10653000AD09013B05F03F0060F07F0003F8010C5E
:10654000AD09013B0B485C1E805C1444054303F815
:10655000015C01E0237001344E1C67E70423C7F897
:106560001080FB603046BDE8F08100BF640B002066
:1065700000000020405E0108034618462BB1027857
:106580000133013AD2B21F2AF7D97047064B10B532
:106590001B6828209847044618B1002128220AF0D9
:1065A000ABF9204610BD00BF000000202DE9F74FD9
:1065B000814688460846002900F0A781B149042297
:1065C0000AF0C8FD18B90223C9F80C3015E040469E
:1065D000AD4905220AF0BEFD20B9C9F80C0008F14A
:1065E000050092E14046A94904220AF0B3FD38B9FA
:1065F0000123C9F80C30C9F8143008F1040084E113
:1066000098F80030222B06D14846414603B0BDE839
:10661000F04FFFF7E9BE2D2B08D0A3F13002D2B224
:10662000092A00F2B9800022994B03E0994B08F146
:1066300001080022CDE9002398F800300024302B17
:1066400008BF08F1010898F800300025313BDBB2A3
:10665000082B1AD80022904B20462946FEF710FF3F
:10666000044618F8010B0D463038FEF7A3FE0B4622
:10667000024629462046FEF751FD98F800300446B0
:10668000303BDBB20D46092BE3E798F800302E2BA8
:106690002ED198F80130303BDBB2092B28D8C24606
:1066A0000026002700227C4B20462946FEF7E8FE04
:1066B0000AF1020804461AF8010F0D463038FEF7B9
:1066C00079FE02460B4620462946FEF727FD704B11
:1066D00004460D46304639460022FEF71DFD9AF865
:1066E00001300646303BDBB2092B0F46DAD901E018
:1066F0000026002798F8003003F0DF03452B1ED159
:1067000098F801302B2B02D108F1020303E02D2B66
:1067100004D008F101034FF0010B03E008F102037C
:106720004FF0FF3B4FF0000A984613F8012B303A28
:10673000D1B2092907D80A2101FB0A2AF4E74FF050
:10674000010B4FF0000A22462B46DDE90001FEF75F
:1067500097FE04460BFB0AF00D46FEF72BFE0246A1
:106760000B4630463946FEF7D9FC02460B46002060
:10677000494908F033FB0B46024629462046FEF7FE
:106780007FFEC9E90601FFF715F90323C9F81400D4
:10679000C9F80C304046B8E05B2B3FD10523C9F85F
:1067A0000C3008F10100FFF7E7FE037804465D2B8B
:1067B0002FD0FFF7EBFE0546C9F80800002800F0CF
:1067C000A3802046FFF7D8FE01462846FFF7EEFEDD
:1067D000FFF7D2FE0446002800F0968023782C2B89
:1067E00015D1FFF7D3FE0646002800F08D80286003
:1067F0004560601CFFF7C0FE01463046FFF7D6FE3D
:10680000FFF7BAFE044600287ED03546E6E75D2B4A
:1068100001D1601C79E0214B1C6075E07B2B70D1AD
:106820000623C9F80C3008F10100FFF7A5FE037834
:1068300005467D2B01D1013067E0FFF7A7FE044636
:10684000C9F8080000285FD02846FFF795FE0146EA
:106850002046FFF7C9FDFFF78FFE002854D02369BB
:1068600000222362226103783A2B3FD10130FFF7E7
:1068700083FE01462046FFF799FEFFF77DFE0646A0
:10688000D0B941E0C2620108C7620108CD620108C7
:106890000000F03F0000F0BF00002440640B002027
:1068A0000130FFF769FE01462846FFF77FFEFFF73C
:1068B00063FE064640B32C4633782C2B1AD1FFF7E3
:1068C00065FE054600B320604460701CFFF754FE6F
:1068D00001462846FFF788FDFFF74EFEA0B12B6961
:1068E00000222B622A6103783A2BD9D0084B18601A
:1068F00010460AE07D2B01D1701C06E0044B1E609F
:1069000002E0034BC3F80080002003B0BDE8F08F25
:10691000640B002070B50446CCB1E3682668DB0543
:1069200003D4A06808B1FFF7F5FFE368084D13F43E
:10693000807F03D1206908B16B689847206A08B14D
:106940006B68984720466B6898473446E4E770BD0B
:10695000000000202DE9F84305460E469146FFF75A
:1069600015FEDFF854800027C8F80070044600B315
:106970002846FFF701FE01462046FFF717FE0546B1
:1069800028B92046FFF7C6FF2846BDE8F883B9F1CD
:10699000000F0CD0FFF7F0FD037805463BB1204611
:1069A000FFF7B8FFC8F800503846BDE8F88306B1D5
:1069B00035602046BDE8F883640B002000210A46BC
:1069C000FFF7C8BF806820B1002902DD01390068E7
:1069D000F9E7704710B5044600F5307002F0D4FEB8
:1069E000204610BD10B51E4C4FF41651204601F044
:1069F000D5FC192000F0CEFD20461A4900F061FFB9
:106A00000A20022100F00CFD0B20022100F008FDFD
:106A10000C20022100F004FD0D20022100F000FDF9
:106A20000E20022100F0FCFC0F20022100F0F8FCF7
:106A30000220014600F0F4FC0320022100F0F0FCEB
:106A40000420022100F0ECFC0520022100F0E8FC0B
:106A5000054800F01BFEBDE81040044803F024B8D0
:106A60005C200020E0620108681F0020680B002005
:106A700008B5944803F0CEF8934803F058FB9348C8
:106A800003F055FB924803F052FB924803F04FFB92
:106A9000914803F04CFB914803F049FB904803F008
:106AA00046FB904803F043FB8F4803F040FB8F48C0
:106AB00003F03DFB844803F060FB40B18C498D48F6
:106AC00000F0FFFE7F488A49012203F015F87E4856
:106AD00003F04AFB40B18849864800F0F2FE79484D
:106AE0008549012203F008F8784803F046FB40B1DD
:106AF0008249804800F0E5FE72488049012202F098
:106B0000FBFF724803F030FB40B17D49794800F04B
:106B1000D8FE6C487A49012202F0EEFF6C4803F07F
:106B20002CFB40B17749734800F0CBFE65487549AE
:106B3000012202F0E1FF664803F016FB40B1724902
:106B40006C4800F0BEFE5F486F49012202F0D4FF9E
:106B5000604803F012FB40B16C49664800F0B1FE9A
:106B600058486A49012202F0C7FF5A4803F0FCFA6C
:106B700040B167495F4800F0A4FE524864490122D1
:106B800002F0BAFF544803F0F8FA40B1614959489D
:106B900000F097FE4B485F49012202F0ADFF4E48DE
:106BA00003F0E2FA40B15C49524800F08AFE4548E1
:106BB0005949012202F0A0FF484803F0DEFA40B133
:106BC00056494C4800F07DFE3E485449012202F0EF
:106BD00093FF424803F0C8FA40B15149454800F0DC
:106BE00070FE38484E49012202F086FF3C4803F00F
:106BF000C4FA40B14B493F4800F063FE314849496F
:106C0000012202F079FF364803F0AEFA40B146495E
:106C1000384800F056FE2B484349012202F06CFF31
:106C2000304803F0AAFA40B14049324800F049FE2A
:106C300024483E49012202F05FFF2A4803F094FAFB
:106C400040B13B492B4800F03CFE1E483849012228
:106C500002F052FF244803F090FA40B1354925482C
:106C600000F02FFE17483349012202F045FF1E486D
:106C700003F07AFA40B130491E4800F022FE114874
:106C80002D49012202F038FF184803F076FA40B18E
:106C90002A49184800F015FE0A482849012202F046
:106CA0002BFF124803F060FA50B12549114800F05B
:106CB00008FEBDE8084003482149012202F01CBF3C
:106CC00008BD00BF680B002068110020781100206B
:106CD0008811002098110020A8110020B811002070
:106CE000C8110020D8110020E8110020F811002060
:106CF000F36201085C200020FF6201080C630108B8
:106D00001863010825630108316301083E63010827
:106D10004A6301085763010863630108706301084F
:106D20007C6301088963010895630108A263010877
:106D3000AE630108BB630108C7630108D46301089F
:106D4000E163010813B5294C00210B4600910A4666
:106D500004F5D46000F03CFD04F5C0600A21322245
:106D600003F0BDF904F5C2600B21322203F0B7F93C
:106D700004F5C4600C21322203F0B1F904F5C660B9
:106D80000D21322203F0ABF904F5C8600E21322246
:106D900003F0A5F904F5CA600F21322203F09FF930
:106DA00004F5CC600221322203F099F904F5CE609B
:106DB0000321322203F093F904F5D060042132223A
:106DC00003F08DF904F5D2600521322203F087F932
:106DD00020460749074A02F09FFD0749074A204617
:106DE00002B0BDE8104007F0CBBF00BF680B002029
:106DF000EF630108FE630108D569000890130020C5
:106E0000013101EB420291420BD0030F092B94BFD9
:106E10003033373301F8013C0023000101F8023B15
:106E2000F1E7704710B54FF000604FF4A04106F055
:106E3000F1FA0124284B294821461C7006F0FCFC7D
:106E400005F01AFE05F002FB2146402006F082FE06
:106E50006FF07F4005F072FCE72005F0EBFC204B63
:106E60001C7005F033FB7D2006F0A4FE18B11D4B0D
:106E70001C7006F0B3FE40F6B83005F090FB06F04B
:106E8000CBF806F06BF9184801F020FC174B0122F3
:106E90001A7001F0A7FC164B1B781BB9154B1B7819
:106EA000002BF6D0144B1B78002BF2D10D4B1B7826
:106EB000002BEED10F4C2378012B01D00F4B33B9AF
:106EC0000F4B0BB1FFF7D4FD00F08EFAE1E7FFF7AF
:106ED00089FD01232370F3E75E21002000043000C8
:106EE00087200020182B00201B7300089C20002006
:106EF000852000201012002086200020E56900086F
:106F0000716A00082DE9F041644D6B6801336B60D4
:106F1000634B1A6812B11A68013A1A60614B624EEB
:106F20001B7833B1614B1B78F3B1614B002B3CD123
:106F30001AE0604C236813B12368013B13E03378F7
:106F400093B95D4B1B787BB95C4B1B7863B9DFF859
:106F500098815B4F98F8003063B3E72005F0D6FCCA
:106F60003B782BB314232360564B1B7803F0FF02AE
:106F700063B1A9684EF65F229142484B02D90122C3
:106F80001A7304E09A6801329A6000E0AA603378CC
:106F90004D4C03F0FF07002B34D1384605F0B6FD09
:106FA00040F6B73398421CD82CE000F0B7F9DBE785
:106FB0000123D8E73B7853B14FF6FF7005F0BEFBD5
:106FC000E72005F037FC012388F80030CCE7E72004
:106FD00005F056FC3D4B1B780BB13223C3E764230D
:106FE000C1E7384605F09AFD2378C3B9384B1B78C2
:106FF0002BB1364B324A1B7812781A4248D0012303
:1070000033700CE0002005F081FD41F657339842C3
:1070100005D9002005F082FD2E4B01221A7023783D
:10702000A3B92A691D4B1AB11A69013A1A610DE018
:10703000214A127852B1596947F22F52914202D92E
:1070400001221A7302E05A6901325A61224B1A680E
:10705000B2F57A7F04D300221A6006F0D9FC02E070
:107060001A6801321A602B7B5BB1BFF34F8F1B4A4A
:107070001B4BD16801F4E0610B43D360BFF34F8F2A
:10708000FEE7184B1B783BB1BDE8F04100F09EB91C
:10709000144B01221A70B2E7BDE8F08110120020F3
:1070A000202B00204821002082200020C415002031
:1070B0001D7300081C2B0020862000208820002043
:1070C00085200020B42100209B2000208420002067
:1070D0008320002092200020242B002000ED00E0DF
:1070E0000400FA059A2000208720002008B5094BEB
:1070F000186005F037FF002005F080FF064805F016
:10710000CDF905F047FF05F065FFBDE8084007F041
:10711000F1BB00BFD0010020A0860100074B1B6817
:10712000052B08D1064B1A7E012A04D1987E1B7FBD
:10713000C01AC0B270470020704700BF78210020FD
:10714000101200200D4B10B51B68052B13D10C4CF1
:10715000237E012B0FD1628BA38BD31A012B04D179
:1071600000230320237607F01CFDA38B5A1CA28367
:107170001C44A07F10BD4FF0FF3010BD78210020CF
:1071800010120020084B1B68052B0CD1074B1A6E00
:1071900099180132B2F5807F1A6608BF002281F883
:1071A000640008BF1A667047782100201012002082
:1071B000F8B5234B93F86421012A3FD0D3F8682116
:1071C000196EB2F5807F04BF0022C3F86821D3F89E
:1071D00068411B4A8C4203D1002382F86431F8BD18
:1071E0008CBFC4F58071C4EB0101C2F86C11D3F8F7
:1071F0006C61134D402EA2B207D94034403EC5F811
:107200006841C5F86C61402706E034440021B7B2FC
:10721000C5F86841C5F86C110A4801241044C02122
:107220003A4683F8644107F037FC2046394607F0B8
:107230003BFD2046BDE8F84007F0A0BCF8BD00BF0C
:107240001012002074120020094B10B593E81400AE
:1072500008331B68D0180AD006490822FFF7D0FD72
:10726000204605490422BDE81040FFF7C9BD10BD06
:10727000E8F7FF1F7F0100208F01002007B50021E4
:1072800000910A460B46034800F0A2FA03B05DF8ED
:1072900004FB00BF8013002038B504460D46AC4205
:1072A00003D254F8043B9847F9E738BD08B50748BE
:1072B0000749FFF7F1FF07480749FFF7EDFFBDE872
:1072C000084006480649FFF7E7BF00BF086E0108FF
:1072D000086E0108086E01087C6E01087C6E0108CA
:1072E0007C6E0108FEE70000054A08B513681844E3
:1072F0001060044A904201D908F034FE184608BDD7
:1073000008000020004800204FF0FF3070470120A7
:1073100070470020704701207047704738B5114C06
:10732000D4F8445B2DB1D4F8443B013BC4F8443B52
:1073300038BDD4F8483B0C4A52F8230005F026FA31
:10734000E72005F077FA6423084AC4F8443BD4F8F0
:10735000483B126801339342C4F8483BA8BFC4F8C5
:10736000485B38BD94130020485E01080C000020E3
:1073700030B5022085B00121062204F067F8041E12
:107380001BDB0223ADF8003000238DF802303523DB
:107390008DF803306946082310228DF804308DF8EB
:1073A00005308DF806308DF8073004F061F9054698
:1073B000204604F079F8284601E04FF0FF3005B090
:1073C00030BD01207047002070470000044B0122AF
:1073D00000215A801980D986024B1A70704700BF6D
:1073E000AC2200209A200020084B0022D3F83C1247
:1073F00003F510738A4208DA93F8500010B10020A8
:1074000083F8500001325133F4E7704794130020A1
:1074100004F02EB9014807F09DBC00BFC81600203B
:1074200014282DE9F34104460E4669D8FF2967D098
:1074300000F0E0FA20B1A4F10D039BB2022B5FD95A
:1074400000F068F908B1012C5AD900F073FF20B19F
:10745000A4F112039BB2012B52D92B4D24012B19FD
:107460002F59B3F80480294B9F4201D1042003E037
:10747000274B9F4203D10820012106F077FBADF88E
:107480000480062E38D8DFE806F0040D13191F28F3
:10749000310010238DF8073003238DF806302C447B
:1074A000002328E004238DF807302C44012322E038
:1074B00048238DF807302C4402231CE028238DF844
:1074C00007302C44032316E018238DF807300323DC
:1074D0008DF806302C4404230DE01C238DF8073072
:1074E00003238DF806302C44052304E000238DF897
:1074F00007302C440623A373384601A906F044F94B
:1075000002B0BDE8F08100BF10000020000801407B
:10751000000C0140142870B5044602D94FF0FF302A
:1075200070BD184E050173199B7B013BDBB2FD2B2F
:10753000F4D800F05FFA20B1A4F10D039BB2022B46
:10754000ECD900F0E7F808B1012CE7D900F0F2FE21
:1075500020B1A4F112039BB2012BDFD973199B7BDD
:10756000062B09D1074B93F850114B1EDBB2FD2BB4
:10757000D4D82046FFF754FF73197059998806F044
:1075800051F970BD10000020014B1868704700BF12
:1075900014120020034B1A68104419688842FCD862
:1075A000704700BF1412002007B5002100910A4661
:1075B0000B46034800F00CF903B05DF804FB00BF74
:1075C000F41E0020024B18785B78C01A704700BF89
:1075D000FC1E0020064B5A781978914204D999185C
:1075E000013288785A7070474FF0FF30704700BF03
:1075F000FC1E0020054B5A781978914202D9134499
:10760000987870474FF0FF30704700BFFC1E002095
:1076100070470000F8B5094B054693F8223016462E
:1076200053B10C468F18BC4206D02B6828461B6805
:1076300014F8011B9847F6E73046F8BDFC1E002001
:1076400010B50C4B012293F822408CB193F82340E3
:107650001F2C02D94260002010BD93F824001C1892
:1076600084F82510411CC9B283F8241083F8231034
:10767000104610BDFC1E0020002242604FF47A72BA
:107680008260014A02607047785E010838B51C4C80
:1076900000254FF4001001216570257084F82450F6
:1076A00084F8235006F06EFA01200521FFF7B8FE9A
:1076B00028460521FFF7B4FE124806F003F94BF601
:1076C000FF73A4F84E3094F85830A4F84C500BB91E
:1076D000A4F850304FF48063A4F852304FF4804344
:1076E000A4F85430084B07480849A36406F004F98D
:1076F0000448012106F06EF9012384F8593038BDA1
:10770000FC1E002000540040A0860100441F002001
:1077100070477047014B93F859007047FC1E0020DA
:1077200013B5084C0021009104F164000A460B4691
:1077300000F04EF804F16C0002B0BDE81040FFF715
:107740009BBF00BFFC1E002008B5034B53F8203040
:1077500003B1984708BD00BF781F002007B500217E
:1077600000910A460B46034800F032F803B05DF87A
:1077700004FB00BFB81F00202DE9F041002407469C
:107780000E4625463B1919790A22304600F009F9C0
:107790002E218046304600F07BF801344044032C13
:1077A0000544EFD13046F9790A2200F0FAF828446E
:1077B000BDE8F08110B5054A0446002140F8042BCD
:1077C000042209F099F8204610BD00BF985E010818
:1077D00030B58371034D9DF80C3005600171427125
:1077E000C37130BD985E0108044B054A1A6000223F
:1077F0001A715A719A71DA71704700BFC01F002068
:10780000985E010837B5064C0546E178A2786378A2
:1078100024780094FFF7DCFF284603B030BD00BF9A
:107820009E20002000487047B820002007B50021A6
:1078300000910A460B460348FFF7CAFF03B05DF804
:1078400004FB00BFC81F0020F8B506460C468F1881
:107850000025BC4207D0336830461B6814F8011B72
:1078600098470544F5E72846F8BD38B505460C4667
:10787000084641B109F03EFC2B6802465B68284689
:107880002146984738BD38BD08B5FFF7EEFF08BD63
:1078900008B503681B68984708BD10B50A68044618
:1078A000126808462146904710BD38B50D2105469F
:1078B000FFF7EEFF0A2104462846FFF7E9FF2044C0
:1078C00038BD38B50446FFF7D0FF05462046FFF720
:1078D000ECFF284438BD38B50446FFF7DEFF054607
:1078E0002046FFF7E2FF284438BD30B500238BB0B7
:1078F0008DF82430012A98BF0A220DF12304B1FB30
:10790000F2F303FB1211CDB2092D94BF3035373598
:10791000EDB2214604F801590BB11946EFE7FFF724
:10792000A4FF0BB030BDF8B506460D46144622B98B
:107930000368C9B21B689847F8BD0A2A0CD1002910
:107940000BDA2D21FFF7A4FF694207462246304695
:10795000FFF7CBFF3844F8BDD2B2BDE8F840FFF7DF
:10796000C4BF38B50446FFF7DEFF05462046FFF7E3
:107970009CFF284438BD38B50446FFF7D4FF0546C0
:107980002046FFF792FF284438BD10B522B902689F
:10799000C9B21268904710BDD2B2BDE81040FFF7DF
:1079A000A4BFFFF7F2BF38B50446FFF7EEFF054668
:1079B0002046FFF77AFF284438BD000007B50021B4
:1079C00000910A460B460348FFF702FF03B05DF83B
:1079D00004FB00BFD41F002007B5002100910A4618
:1079E0000B460348FFF7F4FE03B05DF804FB00BF4D
:1079F000DC1F0020014B587D704700BFE41F0020B2
:107A00007047000007B5002100910A460B46034865
:107A1000FFF7DEFE03B05DF804FB00BFFC1F002093
:107A200007B5002100910A460B460348FFF7D0FE38
:107A300003B05DF804FB00BF08200020C069704758
:107A400013B5026869469469034A0092426901923B
:107A5000028BA04702B010BD985E010813B5026802
:107A600002AB03F8011D546819460122A04702B079
:107A700010BD00000B4B1B78012B10D1C369082BE4
:107A80000DD0428E5AB1038E0F2B08D8591C0344D7
:107A900093F82030013A01864286184670474FF02D
:107AA000FF30704783200020036810B59B680446B0
:107AB000984720B123682046DB68984710BD4FF0F7
:107AC000FF3010BD10B50446236820469B689847D8
:107AD00020B123682046DB689847F5E710BDC069F0
:107AE000083818BF012070472DE9F04188B0002602
:107AF00008AC054608460F46904644F8146D09F058
:107B0000F9FA224681B2384603F07AFDB04215DD1B
:107B1000039B04A8DAB20092190EC3F30742C3F321
:107B20000723FFF755FE2B6828469C69054B06A9DD
:107B30000693059B42460793A04700E0304608B0F5
:107B4000BDE8F081985E010838B5134B04461B78F8
:107B50000846012B154602D04FF0FF3038BDE369CF
:107B6000082BF9D0638E002BF6D0218E0F29F3D885
:107B7000AB4204F1200105D81A46FDF763FF638E7E
:107B8000238602E0FDF75EFF2586208E0028E3D0E5
:107B9000638E1B1A638638BD83200020064B1B783A
:107BA000012B05D1C069082802D0002303F0F4BEE0
:107BB0004FF0FF30704700BF8320002030B52B4BC3
:107BC00087B01B780546012B02D1C369082B01D170
:107BD000002049E0428E2AB12A8EA88E824201D22C
:107BE000801A41E05A0906A901EB8202012003F044
:107BF0001F01884000248DF80C408DF80D408DF851
:107C00000E408DF80F4052F80C1C0494014342F8CA
:107C10000C1C41F28832059204AA0092581C03A958
:107C20002246234603F052FDA0421CDDE86906A966
:107C3000420901EB820252F80C2C00F01F0342FAB9
:107C400003F313F001030CD005F1200110222346A9
:107C500003F014FE002807DD83B22C866B86AB860A
:107C600002E0184600E0204607B030BD8320002027
:107C700010B5064B04461B78012B06D1C0690828B5
:107C800003D003F011FC0823E36110BD8320002022
:107C9000F8B5174904461748FFF7F6FD0A22E169CF
:107CA0001448FFF768FE14491248FFF7EDFD134D25
:107CB000E3691048E95C0A22FFF753FE104B1F7876
:107CC000FFB2012F10D1E369082B0DD023682046A5
:107CD0009B689847064648B9E369EA5C32B1EE54BE
:107CE000236820469B6A98470020F8BD3846F8BDB7
:107CF0000D6401085C2000202B6401088A2000200C
:107D0000832000202DE9FF414B68044643611D4B51
:107D10000E461F789046FFB2012F22832ED10220FB
:107D20003946062203F092FB0028E0614FF000057F
:107D300024DB022325866586A586ADF800304FEA50
:107D400018238DF80230337969468DF80430737941
:107D50002A468DF80530B3798DF803808DF806300A
:107D6000F3798DF80730FFF753FB28B1E369064A32
:107D7000D5540823E36101E0384600E0002004B058
:107D8000BDE8F081832000208A200020002310B568
:107D900043604FF47A738360044B044640F8103B11
:107DA000FFF708FD0823E361204610BDA85E010827
:107DB00070B54FF47A738360074B002504460E4676
:107DC000456040F8103BFFF7F5FCE66125866586C7
:107DD000A586204670BD00BFA85E010807B500213A
:107DE00000910A460B460348FFF7F2FC03B05DF82A
:107DF00004FB00BF1020002013B5026802AB03F89B
:107E0000011D546819460122A04702B010BD0000B0
:107E1000F0B51C4B87B019780746C9B201292FD19C
:107E2000038902261A0A00248DF80A203046062209
:107E3000ADF808608DF80B308DF80C408DF80D40D2
:107E40008DF80E408DF80F4003F000FB051E17DB88
:107E5000042300934FF6FF713246234603F09EFC45
:107E6000A0420DDB284602A9102203F075FBA042B8
:107E700006DB2846214603F09DFBA042A8BFFD601B
:107E800007B0F0BD832000201030FFF787BE000050
:107E900010B500234360054B0181082104460360AF
:107EA000C1601030FFF784FF204610BDE85E010876
:107EB0004B6870B543608B680D468360CB6800F1FA
:107EC0002006C3604B69044643610B8B0383CB6977
:107ED000C36101F120030FCB86E80F002B8E2046F3
:107EE00023866B8E6386AB8EA38670BD4B6870B5A0
:107EF00043608B680D468360CB6800F12006C36049
:107F00000B4B044603600B4B03614B6943610B8BC6
:107F10000383CB69C36101F120030FCB86E80F0017
:107F20002B8E204623866B8E6386AB8EA38670BD18
:107F3000A85E0108985E010870B5CB6894B0082B64
:107F400006460C4603D10B6808469B689847134BBE
:107F500004F110051B78012B02D1E06808280FD12D
:107F60000821E16006A8FFF723FF06A92846FFF7CE
:107F70009FFF30462946FFF7B9FF304614B070BD69
:107F8000102302A901AA019303F0B4FA011E02DA38
:107F900006A80821E7E706A8C9B2E4E78320002085
:107FA00007B5002100910A460B460348FFF710FC75
:107FB00003B05DF804FB00BF1820002008B503687B
:107FC0001B6B984708BD0000024A02608A69426044
:107FD000704700BF985E0108808B7047B0F836028A
:107FE00070474B6802218283C18380F82120110AE7
:107FF000C3F30722836180F8223080F82320C3F383
:1080000007421B0E80F82530102380F8201080F8DE
:1080100024200363012070470120704713B50268D4
:1080200002AB03F8011D546819460122A04702B0B3
:1080300010BDB0F836227AB1B0F83432B3F5007F13
:108040000AD2591C034493F83430013AA0F8341290
:10805000A0F83622184670474FF0FF30704703688B
:1080600010B59B680446984720B123682046DB681A
:10807000984710BD4FF0FF3010BD10B5044623687F
:1080800020469B68984720B123682046DB689847C4
:10809000F5E710BD30B50446022085B00D4611222B
:1080A000014603F0D3F900284FF000031DDB022244
:1080B000ADF800202A0A20748DF802206582A4F809
:1080C0003432A4F83632C0B2694610228DF803501B
:1080D0008DF804308DF805308DF806308DF80730B6
:1080E00003F03AFAC043C00F00E0184605B030BDB7
:1080F00010B50446007C03F0D7F908B908232374AF
:1081000010BD00002DE9F04188B0002608AC0546FE
:1081100008460F46904644F8146D08F0EBFF2246DF
:1081200081B2384603F06CFAB04215DD039B04A817
:10813000DAB20092190EC3F30742C3F30723FFF725
:1081400047FB2B6828461C6A054B06A90693059B2E
:1081500042460793A04700E0304608B0BDE8F081F2
:10816000985E010813B5034603F11E04007C0094D9
:108170001B6B0193002303F019FC02B010BD30B556
:108180000446007C87B0430906AA02EB8303012161
:1081900000F01F02914000258DF80C508DF80D5015
:1081A0008DF80E508DF80F5053F80C2C01300A4307
:1081B00043F80C2C41F28833059304AB009303A9D8
:1081C0002A462B46049503F081FAA84234DD207C30
:1081D00006AB420903EB820252F80C2C00F01F039D
:1081E00042FA03F313F0010328D004F11E030093B5
:1081F00004F13003019304F134014FF400722B4673
:1082000003F047FB00281ADD94F8202094F8213071
:10821000A4F8345243EA0223A38394F82230A4F84A
:108220003602237694F82330637694F82430A376CC
:1082300094F82530E37602E0284600E0184607B0BF
:1082400030BD38B50446B4F836320846154613B981
:108250004FF0FF3038BDB4F83412B1F5007FF7D2DB
:10826000934204F1340107D81A46FDF7EBFBB4F84A
:108270003632A4F8343203E0FDF7E4FBA4F83452BC
:10828000B4F834020028E3D0B4F836321B1AA4F84C
:10829000363238BD002310B543604FF47A738360E3
:1082A000044B04460360082303741430FFF782FA7A
:1082B000204610BD005F010807B5002100910A4665
:1082C0000B460348FFF784FA03B05DF804FB00BFD8
:1082D000202000204FF0FF307047704708B5202164
:1082E000034805F0E8FE003018BF012008BD00BFBC
:1082F0000044004008B5024805F0D9FE08BD00BFA3
:108300000044004008B5054805F0CDFE0348802133
:1083100005F0D1FE0028F9D0012008BD004400403E
:10832000002242604FF47A728260014A0260704714
:10833000485F0108014B187C704700BF28200020CF
:1083400013B5084C0021009104F114000A460B46B5
:10835000FFF73EFA04F11C0002B0BDE81040FFF741
:10836000DFBF00BF2820002070474FF0FF3070476C
:10837000FEF7E8BE08B5FEF7D1FE08BD08B5084611
:10838000FEF700FF012008BD002242604FF47A7220
:108390008260014A02607047685F01080846FEF784
:1083A000A5BE000013B5074C0021009120460A46E7
:1083B0000B46FFF70DFA04F1080002B0BDE81040CB
:1083C000FFF7E2BF542000200023036018467047E7
:1083D0000023036018467047002303601846704767
:1083E0002DE9F0410B7886B0002B0C4614BF904667
:1083F0004FF00008064608F07DFE0746204608F0CC
:1084000079FE182301931E2301250293022303936F
:10841000059000950494404631463A46002303F007
:1084200009FC034B18705D7006B0BDE8F08100BF19
:108430006C20002048F20203984210B50C461ED072
:1084400006DC99284AD048F20103984213D010BDA7
:1084500048F28003984207D0B0F5084F42D048F266
:108460001003984252D128E0294B01229A70DA7009
:1084700000221A7110BD264B01225A7110BD244CE6
:10848000637953B1234B00224FF47F401A7004F0FC
:1084900055F9E72004F0CEF906E0A37913B1013BCA
:1084A000A37101E00123A37500236371E3752376B3
:1084B0006376A376E376237710BD0A7D144B52B919
:1084C00001224FF47F40DA7504F038F9BDE810401E
:1084D000E72004F0AFB90022DA7510BD0C4B012281
:1084E0005A7710BD0C490D48FFF7CEF924780C4996
:1084F0000A48FFF7C9F9094821460A22FFF753FA4B
:10850000072C03D8024B1C440123A37710BD00BFE6
:108510006C200020482100205F6401085C200020BE
:108520008E6401081FB54FF461504FF461610A2257
:1085300014238DE80F00684601A902AA03AB02F0DC
:10854000CBFA05B05DF804FB1FB50023009301933F
:108550000293039301A8694602AA03AB02F082FAD0
:1085600005B05DF804FB000030B5524D00249FB00B
:10857000FF20AC70EC706C706C71EC756C772C76C5
:108580006C76AC76EC7604F0D9F8E72004F052F97A
:1085900021462246204603F029FB2B46012103F801
:1085A000074F0E200A4602F01DFB6B79012B05D107
:1085B000642003F067FF01F0A5FFF6E710210C200F
:1085C00002F05CFB3C4802F019FF3C4803F082FCDF
:1085D000012003F063FC6846394900F0A3FDAB7845
:1085E0006A78344C1A431CD194F82630002B57D0AB
:1085F000FF2003F005FC002852D11A24013C06D0CC
:10860000E72004F03DF9322003F03CFFF6E70E20AE
:10861000012122462B4BAC7102F0E4FA85F826408A
:10862000DDE7E72004F006F9A31D0E20012100225A
:1086300002F0AAFAA37813B103F06CFC20702B7837
:1086400001210133AB7100221E4B0E2002F0CAFA49
:10865000002001240146012203F0C8FA21462246E7
:10866000194B0E20EC7102F0BDFA03F043FA6420BE
:1086700003F008FF002003F0F3F948F2442085F8E6
:10868000274003F0D9FB4FF47F4004F057F8E72070
:1086900004F0D0F8FFF746FF0023AB751FB030BDE4
:1086A000E72004F0EDF8FA2003F0ECFE684600F055
:1086B0009DFD94E76C200020805F0108640100208C
:1086C000E18300087220002073200020F0B5394CAF
:1086D00085B0A06204F074FB04F0B4FA364B374A5C
:1086E0000093374B37490193374B38480293384B47
:1086F00000250393374B03F09FF9642003F0C2FE7B
:10870000002003F0ADF9012348F24420E57684F817
:10871000273003F091FB304BA61D1A881F46012A13
:1087200006D00E2010212A46334602F02DFAA0B1C1
:10873000FF2003F065FB10210E2002F09FFA0021BC
:108740000025755401311029FAD10E202A46234BF9
:1087500002F048FA3D8004F081FC2379154D93B96D
:10876000AB7913B90123AB750DE0E87958B901462F
:10877000012203F03BFA01212B4603F8071F0E20CC
:108780000A4602F02FFA237963B90A4B9B7D4BB15D
:10879000134802F059FAFFF7D7FE05B0BDE8F040E4
:1087A000FFF7C0BE4FF47F4003F0C8FFE72004F09E
:1087B00041F8EDE76C200020FDCC0008D1830008D3
:1087C00011CD0008C98300087DCD0008358400085C
:1087D000A5CD0008D9830008B20200207220002035
:1087E000982000202DE9F341A94C94F82E30002B5D
:1087F00040F0C58094F82F30002B40F0C08094F8F2
:10880000273003F0FF0023B903F02AF9012384F88D
:108810002730A37D9E4E13B1FFF7A6FE07E0337904
:108820002BB1F37D03F0FF05002B00F0D780E27839
:10883000974B012A13D1DA7D012A10D15B79012BE4
:108840000DD10325934808F055FC013D82B29149B2
:10885000012003F0B7F815F0FF05F3D1E57094F8A7
:1088600030308B4D43B92B7E002B40F0CE806B7E99
:10887000002B40F0CA8008E1874B1A681E46002A88
:1088800040F00381EB7D93B395F82F307BBB2B7EBB
:10889000002B00F0CB802AE02B4603F8091F0E20A6
:1088A0000121032202F09EF94FF6FF7003F046FF0C
:1088B000E72003F0BFFFFEF784FD002880F2DF8091
:1088C00094F82E30724D002B40F0DF80FEF750FD03
:1088D0000028B4BF022303232B77237F0E2063726B
:1088E00001216E4B032202F07DF900232376237EC3
:1088F000674D002B00F0C9806B7E3BBBFEF709FD86
:1089000000281DD002DA4FF47F0007E0012801D1D2
:10891000634803E0022803D14FF0FF1003F00EFF7D
:10892000E72003F087FF94F8313047F230520133EB
:10893000DBB284F8313094F831305343336005E0D2
:1089400001236B76574B85F831001860FEF7E3FC86
:10895000002840F09A80544B1B780BB103F03EFF87
:108960000023A376E376637623764E4B1B68002BB9
:1089700000F08B80464B012283F82E2085E094F88E
:108980002730002B3FF445AF474B1B780BB103F06A
:1089900025FF002528466571E57584F82E5084F87A
:1089A000275025766576A576E576257704F0FAF9E1
:1089B000642003F067FDA37D43B1284603F050F81F
:1089C000334B012283F82720FFF7CEFD4FF47F4081
:1089D00003F0B4FEE72003F02DFF1AE729462A46EC
:1089E000284603F003F9314808F084FB304F8046F5
:1089F000384608F07FFB00970190791F032042461C
:108A00002B4603F08DF8357111E7FEF7DCFC0023EF
:108A10004FF47F40A376E3766376237603F08EFEF1
:108A2000E72002B0BDE8F04103F004BF642003F08A
:108A300029FD05F1320002F095F82B7F002B3FF461
:108A400033AF4FF47F0003F079FE227F104D02F028
:108A5000FF01002A3FF420AFE72003F0EBFE4FF4C4
:108A6000FA7003F00FFDE72003F0F2FE4FF4FA7006
:108A700003F008FD2B7F013BDBB22B77E5E70123F9
:108A800023760C4B00221A6031E702B0BDE8F0817A
:108A90006C2000206701002020120020752000209B
:108AA0000060FF0088130020482100206E01002094
:108AB000730100208C13002007B5002100910A46A5
:108AC0000B460348FEF784FE03B05DF804FB00BFCD
:108AD000D82000207047FEE7FEE7FEE7FEE770477C
:108AE00070477047FEF70EBA08B5024B0BB1AFF3F3
:108AF000008008BD0000000008B5024B0BB1AFF3C9
:108B0000008008BD0000000008B5024B0BB1FEF765
:108B1000FFFD08BD1177000808B5024B0BB1FEF749
:108B2000F8FD08BD1377000808B5024B0BB1FEF73E
:108B300067FF08BD017A000808B5012004F096FD22
:108B400038B1012004F0A0FD024B13B10020FEF764
:108B5000FBFD08BD4977000808B5022004F086FD3A
:108B600038B1022004F090FD024B13B10120FEF752
:108B7000EBFD08BD4977000808B5042004F076FD38
:108B800078B1042004F080FD0020064B01461880D7
:108B900003F0FEFEBDE8084003481021012205F065
:108BA0003ABA08BD5A210020002C014008B508201F
:108BB00004F05CFD38B1082004F066FD024B13B1EF
:108BC0000320FEF7C1FD08BD4977000808B5102055
:108BD00004F04CFD38B1102004F056FD024B13B1E7
:108BE0000420FEF7B1FD08BD4977000808B5202034
:108BF00004F03CFD38B1202004F046FD0E4B13B1CB
:108C00000520FEF7A1FD402004F030FD38B14020E2
:108C100004F03AFD084B13B10620FEF795FD8020C5
:108C200004F024FD38B1802004F02EFD024B13B176
:108C30000720FEF789FD08BD4977000808B54FF405
:108C4000005004F013FD40B14FF4005004F01CFD3F
:108C5000174B13B10D20FEF777FD4FF4804004F061
:108C600005FD40B14FF4804004F00EFD104B13B1F0
:108C70000E20FEF769FD4FF4004004F0F7FC40B110
:108C80004FF4004004F000FD094B13B10F20FEF734
:108C90005BFD4FF4006004F0E9FC38B14FF4006074
:108CA00004F0F2FCBDE8084003F078BB08BD00BF4B
:108CB0004977000808B51048102105F0E5F9C8B15A
:108CC0000D48102105F0EBF9002003F00FFF30B93B
:108CD0000A4B1A8892B20A3292B21A8008BD06482C
:108CE0001021002205F097F9BDE80840002001217D
:108CF00003F04EBE08BD00BF002C01405A210020E9
:108D000008B5012004F0B8FF30B1012004F0C4FF21
:108D1000BDE8084004F09ABF08BD000008B5022075
:108D200004F0AAFFB0B10C4B00224FF400301A70CF
:108D300004F0AAFC012004F095FE10B1012004F01B
:108D40009BFE04F083FF022004F0A6FFBDE808406C
:108D500004F07CBF08BD00BF9B20002003F0B0BA28
:108D600000F062B838B514490B78012B23D1134AAF
:108D700013680BB90B7038BD114C402B206881B2C1
:108D800005D94030403B20601360402504E09DB28F
:108D900003442360002313600A482A460844C02184
:108DA00005F07AFE0120294605F07EFFBDE8384037
:108DB000012005F0E3BE38BD741300207C130020B1
:108DC000781300207412002008B5094B01221A7094
:108DD000084B002203201A8005F096FF064B02463E
:108DE00018804FF488710548BDE8084005F06CBE56
:108DF000281200202C1200202A1200202E120020FF
:108E0000074B1B68052B09D1064B1A68511C052A14
:108E1000196003D100221A60FEF7CAB9704700BF7B
:108E200078210020E020002070B52B4D2B4C2B68C2
:108E30002B4E9BB22380228833881340990508D596
:108E40004FF6FF532B60A3780133DBB2A370FFF71B
:108E5000D7FF2288338813401A0401D505F066FD38
:108E60002288338813405B0505D54FF6FF332B600E
:108E70001C4B5B689847228833881A40900444BF93
:108E80004DF6FF722A6022881340D90405D54EF6AC
:108E9000FF732B60002004F03DFA228833881340D2
:108EA0001A050BD5104B1B7813B104F013FA02E02E
:108EB000022004F02FFA4FF2FF732B6022883388D0
:108EC0001340DB0507D54FF6FF632B600720BDE895
:108ED000704004F01FBA70BD445C0040E4200020E4
:108EE000642B0020D8010020D4020020034B9B7A81
:108EF00013B1034B05221A60704700BF402B0020BE
:108F000078210020014B04221A607047782100204C
:108F1000034B1A78202A04BF00221A70704700BF42
:108F2000E820002070470000212810B508D1114B1F
:108F30001B681B7803F07F03212B10D0022010BD8B
:108F40002028FBD10B4B0C4A1B681B78107003F0D8
:108F50007F03212B094B18BF00230BB9EEE7084B09
:108F6000044A0024126820469361548298472046A0
:108F700010BD00BF602B0020E8200020D18F00082A
:108F8000B98F0008074B1B681B7803F07F03212B68
:108F900006D100F0DF00022814BF02200020704735
:108FA00002207047602B002009B102207047012881
:108FB000FBD808467047000020B9034B08221B6805
:108FC0001A82704701487047602B0020D0010020B2
:108FD00020B9034B08221B681A827047014870476A
:108FE000602B0020D001002010B5FEF72DF9054BB5
:108FF00000241B689C7204F055F905F09BFE024B9F
:109000001C6010BD602B002078210020334B344AB7
:109010001B68D27910B500245A729C72DC7220460B
:1090200005F064FD20464FF4007105F067FD204611
:10903000102105F071FD2046402105F009FE802138
:10904000204605F0F5FD204605F0BEFD254B2046E7
:1090500093F8341005F036FE204605F0A2FD0120FD
:10906000214605F04BFD0120C02105F0E1FD012066
:10907000202105F051FD0120214605F066FD02206A
:109080004FF4C06105F03AFD02204FF4807105F005
:10909000CFFD0220214605F058FD0220202105F0D9
:1090A0003BFD0320214605F029FD03204FF4887184
:1090B00005F0CEFD0320402105F004FE03204FF40F
:1090C000405105F042FD0320214605F025FD2046D4
:1090D00005F0C0FB044B01221A6010BD602B00207C
:1090E000ED5F0108D001002078210020014905F042
:1090F000ADB900BF08020020014905F0A7B900BFC3
:1091000010020020054B1B68DB78042B04D80449AF
:1091100001EBC30105F09AB900207047602B0020D5
:109120001802002038B504460D46FFF72DF92046F9
:1091300025614FF41651FFF731F9204638BD000084
:1091400007B5002100910A460B460348FEF740FB95
:1091500003B05DF804FB00BFEC20002070B50646AC
:109160000D460024284607F0C5FF844208D2295D39
:109170003046FFF703F9012003F084F90134F1E7E9
:1091800070BD00002DE9F84304460F4690460D4699
:10919000C7EB05095FFA89F92046FFF7EBF80028CD
:1091A000FADD2046FFF7E4F8C145C6B206D1002338
:1091B0002B7020460C49FFF7D1FF0AE00D2EF6D0A8
:1091C0000A2EF4D020463146FFF7D8F805F8016B97
:1091D000DEE72046FFF7CEF8002803DD2046FFF744
:1091E000C7F8F6E7BDE8F88347660108F0B585B033
:1091F0000446FFF7BFF8002840F39D802046FFF7A4
:10920000B7F8C0B2772868D104F1140600212122F2
:10921000304604F1350507F06FFB41220021284656
:1092200007F06AFB04F17607002384F876302046C5
:1092300042497B70FFF792FF204631462022FFF71C
:10924000A1FF20463E49FFF789FF0122204639460B
:10925000FFF798FF94F87630A3F13002D2B2032AD8
:10926000EFD8312B0BD120463649FFF777FF204648
:109270003549FFF773FF20463449FFF76FFF94F835
:109280007620B2F1300708D020463149FFF766FF5B
:10929000204629464022FFF775FF20462D49FFF75B
:1092A0005DFF23693A4630462946984720462A49B9
:1092B000FFF754FF20462949FFF750FF2046284971
:1092C000FFF74CFF20462749FFF748FF2046264975
:1092D000FFF744FF2046254928E069282BD1244B7D
:1092E00001AD93E8070085E8070020462149FFF714
:1092F00035FF0026AF5D20463B0903F130013929D7
:1093000084BF03F15701C9B207F00F07FFF736F822
:1093100007F13001392984BF5737F9B220460136A9
:10932000FFF72CF80C2EE5D11349204605B0BDE817
:10933000F040FFF713BF05B0F0BD00BF9B6401080C
:10934000A2640108CF6401080565010830650108C1
:109350007665010881650108C4650108E4650108B6
:10936000176601084A66010889660108BA6601089D
:10937000E8F7FF1FD06601084766010838B50025E9
:109380000446016042618361858380F8245028305F
:10939000FEF710FA2571A5772562204638BD002317
:1093A00010B503718383044600684FF4816103683C
:1093B0009B699847012384F8243010BD70B58369F8
:1093C000ADF5067D05461D4A00934FF400716B69AB
:1093D00006A807F01BFD1A491A48FEF755FA06A918
:1093E0001848FEF76EFAFF210A460B46009102A8C4
:1093F000FEF7EEF9286804A9036840F206421C6AE9
:10940000114B4FF47A760493039B0593A0470024F5
:1094100006A807F06FFE024684422868036801D060
:10942000013E04D19B6A98470DF5067D70BD06A9E3
:109430002144121B5B6898470444E9E7E166010890
:10944000076701085C200020985E0108F0B590F8DD
:109450002430ADF5257D04460BB9FFF7A0FFFEF7DC
:1094600093F8236A40F2D372C01A904205D920467D
:10947000FFF7A4FFFEF788F8206220680368DB6A24
:109480009847002851D0264656F81C0B24AD036897
:109490004FF400725B6B2946984700272F542449EC
:1094A0002448FEF7F1F929462248FEF70AFA284631
:1094B00004A98022334600F05DF805461D48002DC2
:1094C0002BD01D49FEF7FDF9216802A80B68251D68
:1094D0009B6B9847039B1949E362C3F307420092D1
:1094E00094F82F2028460192DAB2C3F3072307F03D
:1094F000C1FC13490F48FEF7C7F929460D48FEF78E
:10950000E0F910490B48FEF7BFF90A48A18B0A227F
:10951000FEF727FA84F8247003E00B49FEF7D1F92F
:10952000A58320680368DB6998470DF5257DF0BDAC
:109530001F6701085C2000202E6701084A670108A8
:10954000566701086D6701088667010800790030D9
:1095500018BF01207047000007B5002100910A469E
:109560000B460348FEF734F903B05DF804FB00BF77
:10957000F42000202DE9F041884617461E46FDF7ED
:109580001DFA044610B90020BDE8F081C568052D1C
:10959000F9D10021FDF716FA20460121FDF712FA54
:1095A00005460028EFD0296940463A4607F02CFED0
:1095B00020460221FDF706FA0028E4D04369012085
:1095C0003380BDE8F081F0B50446C9B00846FDF728
:1095D000F5F9C3680546052B03D0684600F0E6FCA4
:1095E00028E00221FDF7EEF9032107462846FDF7A2
:1095F000E9F9C3680646002B14DB012B0CDD032BB5
:1096000010D139697269684600F010FDD6E9062369
:1096100044A9C1E900230AE068463969726900F08B
:1096200005FD04E068463969326900F0D1FC28463E
:10963000FDF770F92046694600F022FD204649B04A
:10964000F0BD01607047F8B506460F461546002488
:10965000AC4210D03068391903682A1B5B6A9847FE
:10966000002806DA306803689B6898470028EFD125
:10967000F8BD0444ECE7F8BD07B506226946FFF7DC
:10968000E2FF002368468DF8063006F077FC03B051
:109690005DF804FB70B50646481C0D4606F09CFDBF
:1096A000044630B1304621462A46FFF7CCFF00235E
:1096B0006355204670BD0000F8B50446FFF7DCFF97
:1096C00001462046FFF7E6FF03780446302B43D1DE
:1096D00083795B2B40D107F00DFD231813F8013C73
:1096E00005465D2B38D120461C4907F013FF78B39F
:1096F000031B033DAB422BD2871C384607F0FAFC14
:1097000000F10E05284606F067FD2A4600210646B0
:1097100007F0F2F8124B324603F1080E1868596848
:10972000154603C5083373452A46F7D118681B79D7
:1097300028602B71384607F0DDFC3946024606F1F9
:109740000D00FCF77FF9204606F04EFD344603E09D
:10975000204606F049FD00242046F8BDBA670108FE
:10976000BE67010807B5002100910A460B46034871
:10977000FEF72EF803B05DF804FB00BFFC200020CC
:109780000022C0F80023704738B505460024D5F8FC
:1097900000339C4207DA05EBC403D3F8000106F05E
:1097A00023FD0134F3E7284638BDF8B507460E46D9
:1097B00004460025D7F800339D420CDA3046D4F831
:1097C0000011FCF7B5F918B9D4F8043130469847C0
:1097D00001350834EEE7F8BDD0F800037047704754
:1097E00007B5002100910A460B460348FDF7F0FF3C
:1097F00003B05DF804FB00BF0421002007B5002181
:1098000000910A460B460348FDF7E2FF03B05DF8FE
:1098100004FB00BF0C21002038B50446154600F0BB
:109820000FFB6560204638BD70B5044640680D46A4
:109830000268D26A9047B0B1284600F0A1FB054605
:1098400029466068FEF720F806466068026852699B
:109850009047284607F04EFC331A5C4228465C418C
:1098600006F0C2FC00E00446204670BD37B5069CF9
:1098700005460094079C019400F0E8FA044621464E
:109880002846FFF7D1FF0546204606F0ADFC2846E6
:1098900003B030BD38B5054600F04CFB0446214608
:1098A0002846FFF7C1FF0546204606F09DFC2846E6
:1098B00038BD37B502AB43F8042D1A4605460846B5
:1098C000002100F065FA044621462846FFF7ACFF68
:1098D0000546204606F088FC284603B030BD00004F
:1098E00007B5002100910A460B460348FDF770FFBB
:1098F00003B05DF804FB00BF1421002007B5002170
:1099000000910A460B460348FDF762FF03B05DF87D
:1099100004FB00BF1C2100202DE9F04104460D4648
:1099200004F1500742F2CD610830904604F18806F8
:10993000FEF7AEFA3846FEF729FA3046FEF7AAFCE3
:1099400004F53070FFF71CFF294604F2C45000F004
:1099500077FA29463A4604F5B960FFF75DFF3146CC
:109960002A46434604F5BA60FFF708FDFDF70CFEF2
:1099700060602046BDE8F08173B50F4C0F4D064680
:109980000F492046FDF780FF68462946FDF73AFF5C
:1099900069462046FDF79FFF0A492046FDF774FF00
:1099A0002846FDF73FFF01462046FDF78AFF0023CA
:1099B000337002B070BD00BF5C200020D01F0020BB
:1099C000CC670108E267010807B5002100910A464B
:1099D0000B460348FDF7FCFE03B05DF804FB00BF37
:1099E00024210020F0B500F1500685B00446304631
:1099F000FEF74EF90546002848D104F5BA67384607
:109A0000FFF724FD3846FFF7A1FD00283ED020498E
:109A10002048FDF756FF20491E48FDF735FF1F4F30
:109A2000D4F8A03002A91B4803930297FDF735FF35
:109A30001B491848FDF728FF41F635610A221548F1
:109A4000FDF78FFFD4F8A030304602A941F6356209
:109A500002970393FEF756F9C0B112490D48FDF77E
:109A600030FF04F53076012323703046FFF7B7FE50
:109A700007463046FFF7B0FE00950346019504F512
:109A8000B96042F2CD613A46FFF7F0FE05B0F0BD95
:109A9000F46701085C20002001680108985E010855
:109AA0001C6801081E68010838B5084C0546FFF718
:109AB00063FF20460649FDF704FF20460549FDF7F0
:109AC00000FF2846BDE83840FFF78CBF5C2000202F
:109AD000356801084D68010810B505490446054878
:109AE000FDF7EFFE04F15000BDE81040FEF7C0B8EE
:109AF000626801085C200020037810B504464BB171
:109B000000F5B960FFF7D5FE20B92046BDE810404A
:109B1000FFF7E2BF10BD000030B50378D9B00446AE
:109B2000002B32D05030FEF7B3F868B302A804F12E
:109B30000801FEF701FA099B082B26D002A901A80B
:109B4000FFF77FFD01A8FFF7B7FD054602A8FEF766
:109B50008FF8A5B110A82946FFF735FD10A904F527
:109B60003070FFF722FE284607F0C4FA00210246B3
:109B7000284606F0C1FE284606F036FB05E00449FB
:109B80000448FDF79EFE00E0207059B030BD00BFD4
:109B9000A56801085C20002038B5037804467BB333
:109BA000FDF7F2FC636840F2B632C01A904227D942
:109BB000FDF7EAFC606004F5B960FFF76BFE114940
:109BC00005461148FDF760FEFDF7DEFC0A2201465E
:109BD0000D48FDF7DAFE0D490B48FDF755FE0A4822
:109BE00029460A22FDF7BDFE55B907480849FDF789
:109BF00068FE204600F8505BBDE83840FEF738B8F4
:109C000038BD00BFC66801085C200020D26801088A
:109C1000D968010810B50446FFF7E4FE2046FFF7B7
:109C20007BFF2046BDE81040FFF7B6BFF0B585B01A
:109C300061B36AB300240A26B0FBF6F506FB1500F3
:109C4000013404AF3030274407F80D0C28460DB11D
:109C5000B442F0D1A34286BFC4EB0303DBB20023BE
:109C6000013A30200025954201EB050612D01CB9BF
:109C700083B1013BDBB206E0002BFAD1013C04A822
:109C8000204410F80C0C48550135ECE7084604E078
:109C9000104602E000233370284605B0F0BD0000F6
:109CA0002DE9F84FDDF828900446B9F101070D467B
:109CB00090461E4663D000220023FBF753FE30B1CE
:109CC00005F100412D230D463370A9F102072E4BFB
:109CD000B8F1060F28BF4FF006084FF0000A4FF00A
:109CE000010900225FFA8AF141450DD2104619465A
:109CF0000022264BFBF7EEFC0B460A21024601FB35
:109D000009F90AF1010AEDE7002F38D0204629466B
:109D1000FBF704FA0D460446FBF774FE31463A465B
:109D200000238346FFF782FF06443F1AB8F1000F75
:109D300025D027B32E23013F06F1010A33701DD031
:109D40005846FBF727FB02460B4620462946FBF701
:109D5000E3F9044648460D46FBF71CFB02460B465A
:109D600020462946FBF78CFBFBF74CFE51463A4652
:109D70004346FFF75BFF0AEB000600E05646002370
:109D80003370BDE8F88F00BF0000E03F00002440C2
:109D9000F0B5ADF5037D0F4604460021154602A837
:109DA0004FF4807242AE06F0A7FD304600214FF41A
:109DB000807206F0A1FD062F31D8DFE807F0040617
:109DC0001320243004002B6821E02868FBF704FBF3
:109DD000CDE90001154B02A81A681549234607F082
:109DE00049F81CE04FF48073D5E900010093062286
:109DF0003346FFF755FF009602A80E490AE000958A
:109E000002A80D4906E02B68003318BF01230B4957
:109E1000009302A8054B1A68234607F02BF802A806
:109E200007F04CF90DF5037DF0BD00BF2C2100209B
:109E300017690108316901084B690108FD680108CB
:109E4000014B0160196070472C210020F0B5ADF284
:109E5000044D0C46164600214FF4806268461F46AA
:109E6000DDF81C5406F048FD2A4B2B491A68684659
:109E7000234606F0FFFF6846284907F021F8002432
:109E8000BC42684613DA264907F01AF856F824103F
:109E9000684607F015F8234B214A791E8C42ACBF67
:109EA00011461946684607F00BF80134E8E71E49E9
:109EB00007F006F86846194907F002F80024AC429A
:109EC000684615DA164906F0FBFFDDF818346846D7
:109ED00053F8241006F0F4FF124B114A691E8C420D
:109EE000ACBF11461946684606F0EAFF0134E6E7C2
:109EF0000D4906F0E5FF68460C4906F0E1FF0C4904
:109F0000684606F0DDFF684607F0D8F80DF2044D0C
:109F1000F0BD00BF2C2100208A6901086769010893
:109F2000BC670108AE690108A2690108A6690108B9
:109F3000B269010800B5C1B0684600214FF48072D3
:109F400006F0DAFC054B06491A68684606F092FFEF
:109F5000684607F0B3F841B05DF804FB2C210020FF
:109F6000B969010807B5002100910A460B4603486C
:109F7000FDF72EFC03B05DF804FB00BF302100208C
:109F800038B5054607F0B6F8073006F025F904465F
:109F9000284607F0AFF8044902462B46204606F053
:109FA00069FF204638BD00BFCD69010830B50022E9
:109FB000002400F588750023047080F88840C0F8FC
:109FC0000841C0F80C41C5E9002380F8184130BDB4
:109FD00038B504461546802207F016F9294604F1E3
:109FE0008800802207F010F900234FF0FF32C4F8F8
:109FF0008030C4F81C31C4F88420284605F0BEFF28
:10A00000C4F80801284605F0B9FFC4F80C01284639
:10A0100005F0B0FF003504F5887318BF0125C3E9CA
:10A02000000184F81851204638BD000070B5044680
:10A030001546802207F0E8F82B4604F188008021BD
:10A040000E4A06F0E3FE00234FF0FF32C4F8085139
:10A05000C4F80C51C4F88030C4F88420C4F81C3112
:10A060002846FBF7A7F9003504F5887618BF0125C7
:10A07000C6E9000184F81851204670BD53670108F5
:10A0800038B5802204460D4607F0BEF805F1880178
:10A0900004F18800802207F0B7F8D5F8803004F585
:10A0A0008871C4F88030D5F884302046C4F88430F4
:10A0B000D5F81C31C4F81C31D5F80831C4F8083182
:10A0C000D5F80C31C4F80C3105F58873D3E90023B9
:10A0D000C1E9002395F8183184F8183138BD38B536
:10A0E00000234260836004460D46FDF74DFA206070
:10A0F0002846FDF70FFA65732073204638BD38B542
:10A100000446407BFDF706FA237BC5B2AB4201D182
:10A11000002038BDFDF738FA23686268C01A904203
:10A12000F6D3FDF731FA25732060012038BD38B52C
:10A130000446FFF7E4FF054610B10023A3600CE0DE
:10A14000A3686BB1FDF720FA2368A268C01A904299
:10A1500006D3FDF719FAA56020600125A57301E07B
:10A160000023A373284638BD837B23B1007B0030D6
:10A1700018BF0120704718467047837B2BB1007BC6
:10A18000D0F1010038BF002070471846704700002A
:10A1900007B5002100910A460B460348FDF718FB5E
:10A1A00003B05DF804FB00BF3821002007B5002193
:10A1B00000910A460B460348FDF70AFB03B05DF821
:10A1C00004FB00BF40210020002100F004B80D4B2B
:10A1D0005B58435004310C480C4B42189A42FFF430
:10A1E000F6AF0B4A00F003B8002342F8043B094BDA
:10A1F0009A42FFF4F9AF02F0DBFFFDF757F8FCF7E6
:10A2000011FE70477C6E010800000020640B0020E6
:10A21000640B0020702B0020FFF7FEBF0B0A0170BB
:10A2200043700B0C090E8370C170043070470170CD
:10A23000090A41700230704743185A78435C03EBB7
:10A24000022080B2704710B543189A78DC78415CE0
:10A25000120402EB046258780A4402EB002010BD9D
:10A2600073B544790023022C01930FD0032C19D02D
:10A27000012C2BD1164D2B692E4623B12B6901A839
:10A2800098470246B8B9B16801201BE0104DEB6851
:10A290002E4623B1EB6801A89847024658B9B16829
:10A2A00002200FE00A4D6B692E464BB16B6901A885
:10A2B0009847024620B1A9682046BDF8043003E063
:10A2C000B16803200022134600F068FB02B070BDA5
:10A2D000AC220020072810B50BD8012909D8012489
:10A2E000844001FA00F0034B1A6822EA0402024398
:10A2F0001A6010BD6002002070B5012186B00546CD
:10A30000FFF79AFF430404462AD5B0F5824F27D1C0
:10A3100028460521FFF790FF05EB8000EE1D002485
:10A32000C51DAE4206D030460221FFF785FF043638
:10A330000444F6E7724B1A8E92B2224492B21A8605
:10A34000DA6B1444DC63D96B9A6B914240F0CA809B
:10A3500093F84020002A00F0C5809B69992031E0E5
:10A3600024F4FF4020F07F0080B2002800F09780A6
:10A3700048F210039C4228D00CD8B4F5004F40F2AC
:10A38000BC8048F202039C4215D948F204039C4267
:10A3900011D0B2E048F280039C420CD004D848F2BD
:10A3A00040039C424FD0A8E0B4F5024F03D0B4F56F
:10A3B000084F6BD0A1E0524B9A69002A00F09280BE
:10A3C0009B69204600210A4667E00023EA1852797B
:10A3D0000DF803200133042BF8D16B7A05F10D0041
:10A3E0008DF80430AB7A8DF80530EB7A8DF80630B5
:10A3F0002B7B8DF80730002300AA1A44C15C01337F
:10A40000042B1172F8D105F11100002300AA1A449F
:10A41000C15C0133042B1173F8D105F11500002341
:10A4200000AA1A44C15C0133042B1174F8D12B79B2
:10A430008DF81430324B9A69002A53D09B6920461C
:10A440006946152229E0053500212846FFF7FBFE65
:10A45000042100902846FFF7F6FE082101902846C7
:10A46000FFF7F1FE0C2102902846FFF7ECFE1021C9
:10A4700003902846FFF7E7FE214B04909A69002AD3
:10A4800030D09B6920466946142206E01C4B9A692D
:10A4900042B39B692046691D0122984722E041F2A0
:10A4A00003039C4205D0A4F580530E3B9BB2012BC5
:10A4B0001AD86C1D20460421FFF7C5FE39301CD187
:10A4C0002A790F4B00212046DA62FFF7BCFE0421F7
:10A4D00005462046FFF7B7FE393003D12846012153
:10A4E000FFF7F8FE012009E0054B1B889BB29C4258
:10A4F00004D0B4F5805FF5D100E0002006B070BD57
:10A50000AC22002038B50A4C63889BB20BB90020FE
:10A5100038BD60680378042BF9D1FFF7EDFE012800
:10A520000546F4D10023638001F07AFD284638BD4A
:10A53000AC2200202DE9F84F0446894692460025BA
:10A54000DFF87483B8F802309BB2002BF8D0D8F84B
:10A5500004603378042B40F0738130460121FFF70B
:10A560006BFE05463046FFF7C7FE002840F05F81CE
:10A5700041F207039D4206F1050755D841F2060353
:10A580009D4280F0AE8040F202239D4200F0A980FF
:10A5900014D80C2D09D8082D80F0A380002D00F0D0
:10A5A0004681062D00F2E1809BE00D2D00F09680A3
:10A5B00040F201239D4200F0918038E141F2020314
:10A5C0009D4218D8B5F5805F00F28B80B5F5017F0C
:10A5D00040F2848040F207239D4240F02881337985
:10A5E000384604F8013B0021FFF72DFE01462046C6
:10A5F000FFF714FE1BE141F204039D4200F08B8043
:10A6000040F2A18000213846FFF71DFE04212060A2
:10A610003846FFF718FE083444F8040C06F10D0321
:10A62000224606F11D016FE041F211039D4255D013
:10A630002BD841F20B039D4253D01CD841F20903A1
:10A640009D424ED000F28C8000213846FFF7FBFD82
:10A65000042120603846FFF7F6FD08216060384687
:10A66000FFF7F1FD0C21A0603846FFF7ECFD04F187
:10A670000C0BE060DAE041F20F039D4263D036D864
:10A6800041F20D039D4246D0D1E042F206039D42C5
:10A6900024D00BD8B5F5005F40F2C98042F2040324
:10A6A0009D4288BF002300F2848017E042F2080335
:10A6B0009D42C0F0BC8042F209039D420ED944F293
:10A6C0000B039D4240F0B380737938460121A8F80E
:10A6D0003030FFF7B1FDA8F83200A8E033792370DD
:10A6E000A5E038460021FFF7AEFD20609FE0002185
:10A6F0003846FFF7A8FDA3464BF8040B0421384663
:10A70000FFF7A1FD606091E053F8040B8B4242F823
:10A71000040BF9D18BE000213846FFF794FD0421AA
:10A7200020603846FFF78FFD082160603846FFF74C
:10A730008AFDE36804F1080B3933A06076D101216A
:10A74000FFF7C8FD72E000213846FFF77CFD0421C9
:10A7500020603846FFF777FD083444F8040C66E0C3
:10A76000337923713B68236061E000213846FFF7AD
:10A770006AFD042120603846FFF765FD082160600E
:10A780003846FFF759FD0A21A0603846FFF754FD0F
:10A790000C3444F8020C06F11103224606F135018F
:10A7A00053F8040B8B4242F8040BF9D11B88138039
:10A7B0003DE0F2185279E2540133042BF9D106F14D
:10A7C00009000023C15CE2180133042B1171F9D197
:10A7D00006F10D000023C15CE2180133042B117255
:10A7E000F9D106F111000023C15CE2180133042BFA
:10A7F0001173F9D106F115000023C15CE218013391
:10A80000042B1174F9D106F119000023C15CE21880
:10A810000133062B1175F9D106F11F000023C15C2D
:10A82000E2180133202B9176F9D100E05C46B8F8AC
:10A8300000309BB29D4223D11F4B00221A801FE0A3
:10A8400030460321B778FFF7F7FC8346B9F1000FD4
:10A850000CD00421701DFFF7F6FC0246CAF8000078
:10A8600006F115014846D2B2FBF7ECF8791D2046F7
:10A870003144C7EB0B02FBF7E5F80023A8F83630AC
:10A880000023A8F8023001F0CBFB3378042B05D16C
:10A89000B5F5805F02D13046FFF7E2FCB8F8003032
:10A8A0009BB2002B7FF44CAE034BD88E80B20028B5
:10A8B0007FF446AEBDE8F88FAC22002007284FF0A9
:10A8C000010308D803FA00F0044B1A6810420CBFC9
:10A8D0000020012070471846704700BF600200202A
:10A8E000064B10B51880064C0846002101230A4685
:10A8F0002370FFF71FFE0023237010BDAC22002041
:10A90000B421002010B5054C0123E386044C2370CC
:10A91000FFF710FE0023237010BD00BFAC22002003
:10A92000B421002038B50346154601224A710C4671
:10A93000881D1946FFF77BFC291D0570204601F094
:10A9400031FC002038BD38B5BDF814500C462B44FE
:10A95000D518ADB202216171A071E271294604F1EE
:10A960000800FFF764FC691D204689B201F01AFC5B
:10A97000002038BD38B513440C469DB202216171E8
:10A98000A0712946E27104F10800FFF750FC691D2F
:10A99000204689B2BDE8384001F004BC2DE9F84FEB
:10A9A0001C4604F1020B032301F107091FFA8BFB7C
:10A9B00088710D464B71484659461646FFF737FCDD
:10A9C000B4F57A7F824605F10B0812D82146FFF7CD
:10A9D0002EFC21465046FFF72AFC314640462246CF
:10A9E000FBF730F8A11D284689B2BDE8F84F01F009
:10A9F000D9BB4FF47A77B4FBF7F30BEB430189B281
:10AA0000FFF715FC39465046FFF711FC314640462A
:10AA10003A46FBF717F8A4F57A74284640F2EE316F
:10AA2000A4B23E4401F0BEFBB4F57A7F84BFA4F526
:10AA30007A74A7B2A84688BF4FF47A74314628F8D2
:10AA4000054F4846224698BF0027FAF7FBFFA11C96
:10AA5000404689B2264401F0A5FB0FB13C46E3E72E
:10AA6000BDE8F88FF7B51E46FF238DF80730194B68
:10AA700000259C68475D63190135042D5F72F9D18B
:10AA800000200D5C2318013004285D73F9D10021EA
:10AA9000505C6318013104295874F9D104F1150090
:10AAA0000021FFF7BBFB0022B35C83540132042A70
:10AAB000FAD12146142242F20100FFF733FF42F29D
:10AAC00001000DF10701FFF70BFF9DF9070003B02F
:10AAD000F0BD00BFAC2200202DE9F3411F46FF234B
